:020000040200F8
:1000000088A20022B1E30102ADE1010233610002E6
:10001000BFE30102BFE30102BFE30102BFE301024C
:10002000000000000000000000000000BFE301022B
:10003000BFE30102000000006B600002DD38020235
:10004000D9C9010263C8010219CB01026DCB0102BB
:10005000C7C0010221C101029FDB0102114D020252
:100060003F4D02026D4D02029B4D0202C94D02023C
:10007000F14D0202194E02020000000000000000D3
:100080000000000000000000000000000000000070
:100090000000000000000000000000000000000060
:1000A0000000000000000000000000000000000050
:1000B0000000000000000000000000000000000040
:1000C0000000000000000000000000000000000030
:1000D0000000000000000000000000000000000020
:1000E0000000000000000000000000000000000010
:1000F0000000000000000000000000000000000000
:1001000000000000000000000000000000000000EF
:1001100000000000000000000000000000000000DF
:1001200000000000000000000000000000000000CF
:1001300000000000000000000000000000000000BF
:1001400000000000000000000000000000000000AF
:10015000000000000000000000000000000000009F
:10016000000000000000000000000000000000008F
:10017000000000000000000000000000000000007F
:10018000000000000000000000000000000000006F
:10019000000000000000000000000000000000005F
:1001A000000000000000000000000000000000004F
:1001B000000000000000000000000000000000003F
:1001C000FFFFFFFFFFFFFFFFFFFFFFFFFFFFFFFF3F
:1001D000FFFFFFFFFFFFFFFFFFFFFFFFFFFFFFFF2F
:1001E000FFFFFFFFFFFFFFFFFFFFFFFFFFFFFFFF1F
:1001F000FFFFFFFFFFFFFFFFFFFFFFFFFFFFFFFF0F
:1002000010B5054C237833B9044B13B1044800E012
:1002100000BF0123237010BDE01800220000000081
:10022000BCC0020208B5034B1BB10349034800E000
:1002300000BF08BD00000000E4180022BCC002029C
:1002400080B500AF0A4803F0FDF901214FF4817039
:1002500010F030FB4FF4FA7005F08CF800214FF4E9
:10026000817010F027FB4FF4FA7005F083F8ECE78B
:100270003066020280B400AF034B1B681846BD46CF
:100280005DF8047B704700BFFC18002280B582B087
:1002900000AF1B4B1B68002B02D0194B1B68984703
:1002A00005F0CCFE7860174B1B680133154A1360CC
:1002B00004F03AFE38603B689B6D5A1E3B689A65B5
:1002C0003B689B6D002B12D13B685A6D3B689A6569
:1002D0003B6893F8383043F00803DAB23B6883F8A0
:1002E0003820786805F0AEFE04F0FCFA02E0786889
:1002F00005F0A8FE05F014FD00BF0837BD4680BD1F
:1003000000190022FC18002280B485B000AF78608C
:100310007B68002B03DA4FF0FF33FB6027E07B683C
:10032000164A82FB03129211DB17D31A4FF47A722A
:1003300002FB03F3FB607A68104B83FB02139911F5
:10034000D317CB1A4FF47A7101FB03F3D31A4FF48E
:100350007A7202FB03F303F2E733084A82FB0312CB
:100360009211DB17D31A1A46FB681344FB60FB6833
:1003700018461437BD465DF8047B7047D34D6210B4
:1003800080B400AF00231846BD465DF8047B70477B
:1003900080B400AF00231846BD465DF8047B70476B
:1003A00080B400AF00231846BD465DF8047B70475B
:1003B00080B400AF00231846BD465DF8047B70474B
:1003C00080B582B000AF094B7B6005E07B681B689D
:1003D00098477B6804337B607B68054A9342F5D37A
:1003E00000BF00BF0837BD4680BD00BF04660202E3
:1003F0000C66020280B582B000AF094B7B6005E05D
:100400007B681B6898477B6804337B607B68054A80
:100410009342F5D300BF00BF0837BD4680BD00BF83
:100420000C6602022C66020280B500AF00F036F8BE
:100430000023184680BD80B582B000AF7860FFF71A
:10044000D9FF1AF0FCFA00BF0837BD4680BDFFFF98
:1004500080B584B002AF142301930A2300934FF4B4
:100460000063002209490A4804F022FE78607B6894
:10047000002B04D1D6220749074803F0FDF978681C
:1004800004F05EFD00BF0837BD4680BD37040002A2
:10049000446602025C6602024C66020280B500AF4E
:1004A00005F0CCFD23F024FA02F06EFB05F078FD98
:1004B00004F0D6F9FFF7CCFF05F08CFD00F0B6F89C
:1004C00004F0F2F90023184680BD80B483B000AF79
:1004D000786039607B681B683A685A607B681A6884
:1004E0003B681A607B683A681A603B687A685A60B1
:1004F00000BF0C37BD465DF8047B704780B483B005
:1005000000AF78607B681B687A6852685A607B68C5
:100510005B687A6812681A607B687A685A607B68E0
:100520005A687B681A6000BF0C37BD465DF8047BD3
:100530007047FFFF80B582B000AF78607B681833EA
:1005400019460348FFF7C1FF00BF0837BD4680BD0D
:100550000000002280B584B000AF0023FB600D4B8B
:10056000BB60BB681B68BA689A420ED0BB681B6848
:10057000183BFB6005F062FD7860FB681833184695
:10058000FFF7BCFF786805F05DFDFB681846103783
:10059000BD4680BD0000002280B584B000AFFFF7EB
:1005A000D9FFF860FB68002B1FD0FB68D3F88C30B4
:1005B000BB60F86803F0EAFF78607B68012B02D12A
:1005C000F86803F00BFFBB68002B02D0BB68F8682B
:1005D00098477B68002BE2D1FB68DB6A184603F082
:1005E0002BF9F86803F094FFD9E700BF00BF10377C
:1005F000BD4680BD80B584B000AF78600023FB604D
:100600000CE0094AFB6852F82330BB60BB68002B42
:1006100001D0BB689847FB680133FB60FB68032B84
:10062000EFD9FFF7B9FFE9E7981A002280B588B043
:1006300004AF0023FB6028E03846FB68174A0C2112
:1006400002F07AFFFB68942202FB03F3144A981825
:10065000FB681B02134A13443946202203921F22CF
:1006600002924FF480720192009300230E4A04F02C
:1006700023FCFB68942202FB03F3094A1344184647
:1006800004F05EFCFB680133FB60FB68002BD3D0F9
:1006900000BF00BF1037BD4680BD00BF70660202BC
:1006A0000419002298190022F505000280B483B0D5
:1006B00000AF78607B687A685A607B685A687B68AC
:1006C0001A6000BF0C37BD465DF8047B704780B4EC
:1006D00083B000AF786039607B681B683A685A6005
:1006E0007B681A683B681A607B683A681A603B68E6
:1006F0007A685A6000BF0C37BD465DF8047B7047CE
:1007000080B483B000AF786039607B685B683A681A
:100710001A607B685A683B685A607B683A685A601E
:100720003B687A681A6000BF0C37BD465DF8047BF1
:10073000704780B483B000AF78607B681B687A68CC
:1007400052685A607B685B687A6812681A607B68D6
:100750007A685A607B685A687B681A6000BF0C37F9
:10076000BD465DF8047B704780B483B000AF78600D
:100770007B681B687A689A420CBF01230023DBB2B6
:1007800018460C37BD465DF8047B704780B582B0D3
:1007900000AF78607B6818331846FFF787FF0023A7
:1007A00018460837BD4680BD80B588B000AFF860F8
:1007B000B9603B601346FB71BB6893F8383003F0B7
:1007C0000403002B09D13968B86804F0A9FEB861A8
:1007D000BB69002B01D0BB693FE0FB79002B02D045
:1007E000012B07D031E0BB6818331946F868FFF7D2
:1007F00087FF31E0FB681B68FB6117E0FB69183B72
:100800007B61BB6893F839207B6993F839309A4251
:1008100009D27B6903F11802BB68183319461046E8
:10082000FFF76EFF06E0FB691B68FB61FA69FB6876
:100830009A42E3D1FA69FB689A420CD1BB6818333B
:100840001946F868FFF75CFF05E0B622054906483F
:1008500003F012F800E000BF002318462037BD4621
:1008600080BD00BFBC6B02027866020280B584B016
:1008700000AF78607B681B68183BFB60FB68002258
:100880005A63F86804F0BAFE002318461037BD46D4
:1008900080BD80B584B000AF786010E005F0CEFB7D
:1008A000F8607B681B68183BBB60BB686FF0FE029A
:1008B0005A63B86804F0A2FEF86805F0C3FB7868D4
:1008C000FFF752FF0346002BE8D0002318461037ED
:1008D000BD4680BD80B584B000AFF860B9607A6075
:1008E000FB70FB68002B05D140F23F1217491848F6
:1008F00002F0C2FF7B68B3F5803F05D34FF4A072CE
:100900001249144802F0B8FFFB78002B08D0FB789E
:10091000012B05D040F241120C490F4802F0ACFF08
:10092000FB68BA680221184603F0F6FCFB6818461B
:10093000FFF72CFF7B689AB2FB681A84FB68FA7891
:100940005A73002318461037BD4680BD806B0202E3
:100950007C6602028C660202A066020280B586B046
:1009600000AFF860B9601346FB71BB68B3F5803F18
:1009700005D34FF4CE721F491F4802F07DFFFB796B
:10098000002B08D0FB79012B05D040F29D121949AC
:100990001A4802F071FF05F051FB786101F05AFE30
:1009A0000346002B09D01349154802F04BFE40F2D4
:1009B0009F121049134802F05FFF786905F042FB6F
:1009C000F968022003F038FD38613B69002B01D142
:1009D0003B690BE03B691846FFF7D8FEBB689AB24B
:1009E0003B691A843B69FA795A733B691846183790
:1009F000BD4680BD8C6B02028C660202A0660202BC
:100A0000546702027866020280B584B000AF786055
:100A10007B68002B05D140F2C9122049204802F022
:100A20002BFF7B68184603F0CFFD0346022B05D051
:100A30004FF4E57219491B4802F01EFF7B68184607
:100A400003F0A4FD0346002B05D040F2CB1213495E
:100A5000154802F011FF05F0F1FAF86001F0FAFD17
:100A60000346002B09D00D49104802F0EBFD40F27F
:100A7000CD120A490E4802F0FFFEF86805F0E2FACE
:100A80007B6818331846FFF704FF7B68184603F0AD
:100A90003FFD002318461037BD4680BD9C6B020207
:100AA0007C660202DC6602027C6702025467020274
:100AB0007866020280B58CB000AFF860B9607A60E9
:100AC000FB68002B05D140F2FD126649664802F032
:100AD000D3FEFB68184603F077FD0346022B05D0D2
:100AE0004FF4FF725F49614802F0C6FE604B1B681D
:100AF000002B04D05E4B1B68FA6810469847FB68D1
:100B00001B8C002B51D1BB68002B4ED001F0B6FDE1
:100B1000F86205F093FAB86204F09EF80346002BE1
:100B200009D05049534802F08DFD40F203224D494F
:100B3000514802F0A1FEFB6A012B09D149494F48F7
:100B400002F080FD40F2032246494B4802F094FE39
:100B500005F074FA786204F0E7F90346002B09D136
:100B60004049474802F06EFD40F203223D494248A9
:100B700002F082FE05F062FA386201F06BFD034676
:100B8000002B09D037493F4802F05CFD40F20322B8
:100B90003449394802F070FE386A05F053FA786A31
:100BA00005F050FAB86A05F04DFA05F047FAF86119
:100BB000FB681B8C002B09D0FB681B8C013B9AB295
:100BC000FB681A84F86905F03DFA3DE0BB68002B2C
:100BD00005D1F86905F036FA6FF073033EE004F0D2
:100BE000A3F9B861BB696FF003025A63FB6803F1B4
:100BF0001800FB685A7B7B68B969FFF7D5FD7861FF
:100C00007B69002B04D0F86905F01CFA7B6925E0AC
:100C1000BB68002B0CDDBB695C3307F108020021C7
:100C2000184604F0E7FFBB695C33184604F082FE07
:100C3000F86905F007FA03F055FEBB695B6B002B02
:100C400002D0BB695B6B09E00F4B1B68002B04D023
:100C50000D4B1B68FA68104698470023184630373A
:100C6000BD4680BDAC6B02027C660202DC660202FD
:100C7000F01B0022B867020278660202E4670202F3
:100C80000C68020254670202F41B002280B582B095
:100C900000AF78603960022239687868FFF70AFF90
:100CA000034618460837BD4680BDFFFF80B584B0B7
:100CB00000AF78607B68002B05D140F28B2227497A
:100CC000274802F0D9FD7B68184603F07DFC0346F7
:100CD000022B05D04FF423722049224802F0CCFDAC
:100CE000214B1B68002B04D01F4B1B687A681046F1
:100CF00098470023FB6005F0A1F9B8607B681833C2
:100D00001846FFF731FD0346002B07D17B681833E7
:100D10001846FFF7ABFD0123FB6012E07B681B8CDC
:100D20004FF6FF72934206D07B681B8C01339AB258
:100D30007B681A8405E0B86805F084F96FF01B033E
:100D400008E0B86805F07EF9FB68012B01D103F0DB
:100D5000C9FD002318461037BD4680BDD06B020286
:100D60007C660202DC660202F81B002280B584B0B9
:100D700000AF78607B6818331846FFF7F5FC034630
:100D8000002B0AD17B689B69183BFB60FB6893F8DA
:100D900039207B6883F8212003E07B68FF2283F8F9
:100DA00021207B6893F8213018461037BD4680BD5E
:100DB00080B487B000AF786000237B610023FB60C4
:100DC0007B6893F83A30FB747B681B6C7B6117E09F
:100DD0007B69283BFB60FB6893F82130FB72FB6862
:100DE00093F82030FA7A934228BF1346FB72FA7CBC
:100DF000FB7A9A4201D9FB7AFB747B691B687B61A1
:100E00007B6840337A699A42E2D1FB7C18461C37F2
:100E1000BD465DF8047B704780B588B000AFF860D0
:100E20000B467A60FB726FF0FE03FB610023BB612F
:100E300007F10B031A460221F86804F0ABFAF861D7
:100E400045E0FB689B6CBB61BB69002B3CD0B8697B
:100E500003F0BAFB0346032B36D1FF23FB74BB69B7
:100E60007B61FB6818331846FFF763FC7B6903F16D
:100E700018007B695A7B7B68F968FFF795FCF8617D
:100E8000FB69002B23D17869FFF770FF7B695B6AF0
:100E90001846FFF78DFF0346FB747B695B6A93F886
:100EA0003920FB7C9A420BD07B695B6AFB6007F1BF
:100EB00013031A460221F86804F06CFAF86106E0A0
:100EC0006FF0FE03FB6102E06FF0FE03FB61FB6964
:100ED000002B06D1FB6893F8383003F00403002B95
:100EE000AFD100BF2037BD4680BDFFFF80B584B0C5
:100EF00000AFF860B9601346FB71FB68002B05D1A9
:100F000040F271321449154802F0B6FCFB68BA6829
:100F10000321184603F000FAFB681846FFF736FC79
:100F2000FB6800225A62FB68FF2283F82120FB68DD
:100F3000002283F82220FB68FF2283F82020FB6830
:100F400028331846FFF7B2FBFB6801225A730023CF
:100F500018461037BD4680BDE06B020244680202AD
:100F600080B586B000AF7860396000237B613B6854
:100F700018331846FFF7DDFB7B685B6A002B0AD04D
:100F80007B685B6A93F839203B6893F839309A4262
:100F900001D101237B617B6818331846FFF7E4FB1E
:100FA0000346002B0AD17B689B69183B3B613B6978
:100FB00093F839207B6883F8212003E07B68FF22C7
:100FC00083F821207B69002B14D07B685B6A18466C
:100FD000FFF7EEFE0346FB737B685B6A93F83930DC
:100FE000FA7B9A4206D07B685B6AF97B022218463C
:100FF000FFF712FF00BF1837BD4680BD80B584B033
:1010000000AF78600B46FB7005F018F8F86001F04F
:1010100021FB0346002B09D01B491C4802F012FBA0
:1010200040F23B4218491A4802F026FCF86805F0E5
:1010300009F87968032003F0FFF9B860BB68002B5A
:1010400001D1BB681BE0BB681846FFF79FFBBB687C
:1010500000225A62BB68FF2283F82120BB6800226D
:1010600083F82220BB68FF2283F82020BB68283346
:101070001846FFF71BFBBB6801225A73BB68184672
:101080001037BD4680BD00BFF06B020254670202FC
:101090007866020280B584B000AF78607B68002B70
:1010A00005D140F26A422749274802F0E5FB7B68F8
:1010B000184603F089FA0346032B05D040F26B4231
:1010C0002049224802F0D8FB7B68184603F05EFAFC
:1010D0000346002B05D040F26C421A491C4802F02E
:1010E000CBFB04F0ABFFF86001F0B4FA0346002B31
:1010F00009D01449174802F0A5FA40F26E4211498E
:10110000154802F0B9FBF86804F09CFF04F096FF64
:101110000346BB607B6818331846FFF7BAFB7B6851
:1011200028331846FFF705FBBB68184604F08AFF12
:101130007B68184603F0ECF9002318461037BD46CB
:1011400080BD00BF006C02024468020258680202BF
:10115000D0680202546702027866020280B58EB03F
:1011600000AFF860B9607A6001F088FAF86204F0C4
:1011700065FFB86203F070FD0346002B09D09A4961
:101180009A4802F05FFA40F29F429749984802F06D
:1011900073FBFB6A012B09D19349964802F052FA7E
:1011A00040F29F429049924802F066FB04F046FFED
:1011B000786203F0B9FE0346002B09D18A498E48B4
:1011C00002F040FA40F29F428749894802F054FBFE
:1011D00004F034FF386201F03DFA0346002B09D0D9
:1011E0008149864802F02EFA40F29F427E498048AB
:1011F00002F042FB386A04F025FF786A04F022FF0F
:10120000B86A04F01FFFFB68002B05D140F2A24230
:1012100075497B4802F030FBFB68184603F0D4F9AF
:101220000346032B05D040F2A3426F49754802F0F4
:1012300023FB03F079FEF86104F000FF7863724B42
:101240001B68002B04D0704B1B68FA681046984747
:10125000FB6900225A63FB685B6AFA699A4213D100
:10126000FB6893F82230FF2B08D0FB6893F82230FC
:101270000133DAB2FB6883F82220F2E0786B04F0E5
:10128000E1FE6FF01B03F9E0FB685B6A002B2BD1DA
:10129000FB68FA695A62FB68FF2283F82120FB6829
:1012A000012283F82220FB6893F82030FF2B11D015
:1012B000FB6893F82020FB685B6A93F839309A4208
:1012C00008D2FB68586AFB6893F820307A681946A0
:1012D000FFF7A2FDFB6903F14002FB6828331946C2
:1012E0001046FFF7F4F9BCE0BB68002B09D1FB699D
:1012F0006FF073025A63786B04F0A4FE6FF073030F
:10130000BCE0FB6993F83930FB76FB6803F1180009
:10131000FB685A7B7B68F969FFF746FA78617B695D
:10132000002B04D0786B04F08DFE7B69A6E0FA6890
:10133000FB699A64FB6893F82130FA7E9A4213D2D3
:10134000FB68FA7E83F82120FB6893F82120FB6874
:101350005B6A93F839309A4206D2FB685B6AF97E81
:1013600002221846FFF758FDBB68002B0CDDFB6915
:101370005C3307F108020021184604F03BFCFB69CE
:101380005C33184604F0D6FA786B04F05BFE03F089
:10139000A9FA04F053FE7863FB695B6B002B60D005
:1013A00000233B63FB685B6A002B0AD0FB685B6A27
:1013B00093F83920FB6993F839309A4201D101231F
:1013C0003B63FB6818331846FFF7CEF90346002B42
:1013D0001CD1FB689B69183B3B613B6993F8392042
:1013E000FB6883F8212015E0106C0202B867020246
:1013F00078660202E46702020C6802025467020285
:101400004468020258680202F01B0022FB68FF22B7
:1014100083F821203B6B002B14D0FB685B6A1846D5
:10142000FFF7C6FC0346FB76FB685B6A93F839302E
:10143000FA7E9A4206D0FB685B6AF97E0222184661
:10144000FFF7EAFC786B04F0FDFDFB6900229A646B
:10145000FB695B6B7B617B69002BB8BF5B425B42C6
:101460000CE0786B04F0EEFD064B1B68002B04D0FB
:10147000044B1B68FA681046984700231846383713
:10148000BD4680BDF41B002280B582B000AF7860FD
:101490003960022239687868FFF760FE0346184613
:1014A0000837BD4680BDFFFF80B58AB000AF7860C9
:1014B0007B68002B05D140F299526F496F4802F0CA
:1014C000DBF97B68184603F07FF80346032B05D051
:1014D00040F29A5268496A4802F0CEF900237B62D2
:1014E00004F0ACFD386203F01FFD0346002B09D168
:1014F0006149644802F0A6F840F29F525E49624892
:1015000002F0BAF904F09AFDF86101F0A3F803467D
:10151000002B09D058495D4802F094F840F29F52E0
:101520005549594802F0A8F9F86904F08BFD386A6A
:1015300004F088FD03F0F8FCB86104F07FFD7861E9
:10154000534B1B68002B04D0514B1B687A68104624
:1015500098477B685B6ABA699A4209D0BB696FF0A9
:10156000FE025A63786904F06DFD6FF0FE037FE0C0
:101570007B6893F82230013BDAB27B6883F8222043
:101580007B6893F82230002B69D17B68283318469A
:10159000FFF7CFF87B6893F82030FF2B07D1BB69AA
:1015A00093F839207B6893F821309A420FD1FF23BA
:1015B000FB72B869FFF7FCFB0346FB7207F10B03F4
:1015C0001A460221B86903F0E5FE01237B627B68BD
:1015D00018331846FFF7C8F80346002B38D17B684C
:1015E0009B69183B3B613B6918331846FFF7A1F82C
:1015F0007B683A695A627B68012283F822203B6942
:1016000003F140027B68283319461046FFF75FF864
:101610003B6900229A64386903F0F0FF7B68183355
:101620001846FFF7A1F80346002B0AD17B689B6997
:10163000183BFB60FB6893F839207B6883F8212016
:1016400003E07B68FF2283F8212001237B6206E010
:101650007B6800225A627B68FF2283F82120786928
:1016600004F0F0FC7B6A012B01D103F03BF900236D
:1016700018462837BD4680BD206C0202446802022D
:10168000586802020C68020278660202546702027D
:10169000F81B002280B584B000AFF860B960134633
:1016A000FB71FB68002B05D140F2516212491348CF
:1016B00002F0E2F8FB79002B08D0FB79012B05D072
:1016C00040F252620C490E4802F0D6F8FB68BA6844
:1016D0000421184602F020FEFB68FA795A73FB6871
:1016E0001846FFF753F8FB6800221A6200231846D9
:1016F0001037BD4680BD00BF346C02021069020283
:10170000A066020280B588B000AF7860396000231F
:101710003B617B68002B05D140F20272514952486F
:1017200002F0AAF87B68184602F04EFF0346042B2D
:1017300005D040F203724B494C4802F09DF83B68DB
:10174000002B02D16FF0FE0388E000237B6104F0E0
:1017500075FCF8607B681A6A3B681A437B681A62FA
:10176000434B1B68002B04D0414B1B687A68104622
:1017700098477B6818331846FEF7F6FF0346002BA0
:1017800063D17B689B69FB6150E0FB69183BBB60E0
:101790006FF0FE03BB61BB6893F8503003F00103A8
:1017A000002B0BD0BB68DA6C7B681B6A1A40BB68E5
:1017B000DB6C9A4220D10023BB611DE0BB6893F82B
:1017C000503003F00203002B10D0BB68DA6C7B684A
:1017D0001B6A1340002B0FD0BB68DA6C7B681B6A56
:1017E0001A40BB68DA640023BB6105E0F86804F0C6
:1017F00029FC6FF0150331E0FB691B68FB61BB69D5
:10180000002B13D1BB6893F8503003F00403002B76
:1018100004D0BB68DB6C3A6913433B61B86803F0E2
:10182000EDFEBB6800225A6301237B617B6818339D
:10183000FA699A42A9D13B69002B06D07B681A6AE3
:101840003B69DB431A407B681A62F86804F0FAFBD4
:101850007B69012B01D103F045F80023184620379E
:10186000BD4680BD446C0202106902022469020276
:10187000F81B002280B584B000AFF860B9607A60D0
:101880003B60FB68002B05D140F67E021B491C48DB
:1018900001F0F2FF3B7E002B08D03B7E012B05D0F0
:1018A00040F67F021549174801F0E6FFFB68BA6869
:1018B0000521184602F030FDFB683A7E5A73FB683A
:1018C0001846FEF763FFFB687A681A623B689AB2B3
:1018D000FB689A84FB680022DA84FB6800221A8580
:1018E000FB6800225A85FB682C331846FEF7DEFEA3
:1018F000002318461037BD4680BD00BF546C02025D
:10190000DC690202A066020280B58CB000AFF8600C
:10191000B9607A603B60FB68002B05D140F6561237
:101920009049914801F0A8FFFB68184602F04CFE70
:101930000346052B05D040F657128A498B4801F023
:101940009BFF7B68002B4ED000F098FE786204F07D
:1019500075FB386203F080F90346002B09D08149FA
:10196000834801F06FFE40F65A127E49814801F02B
:1019700083FF7B6A012B09D17A497F4801F062FE1F
:1019800040F65A1277497B4801F076FF04F056FB87
:10199000F86103F0C9FA0346002B09D17149774871
:1019A00001F050FE40F65A126E49724801F064FF91
:1019B00004F044FBB86100F04DFE0346002B09D053
:1019C00068496F4801F03EFE40F65A126549694881
:1019D00001F052FFB86904F035FBF86904F032FBFE
:1019E000386A04F02FFB0023BB6203F09DFA786194
:1019F000644B1B68002B04D0624B1B68FA681046CE
:101A0000984704F01BFBF862FB68DA8CFB689B8C40
:101A10009A425BD17B68002B58D1F86A04F012FB24
:101A20006FF01B039AE07B696FF003025A637B68D7
:101A3000002B05D1F86A04F005FB6FF01B038DE065
:101A4000FB6803F12C00FB685A7B3B687969FEF761
:101A5000ABFE38613B69002B04D0F86A04F0F2FA5F
:101A60003B697BE07B68002B0EDDFEF703FCB86270
:101A70007B695C333A1D0021184604F0BBF87B6992
:101A80005C33184603F056FFF86A04F0DBFA02F004
:101A900029FF7B695B6B002B02D07B695B6B5DE090
:101AA00004F0CCFAF8627B68002B0FDDFEF7E2FB56
:101AB0000246BB6AD31ABB627B681A46BB6AD31A5A
:101AC0007B607B68002B01DA00237B60FB68DA8C8B
:101AD000FB689B8C9A42A6D0FB681A6AFB681B8D38
:101AE0009B001344BA681A60FB681B8D01339AB2DD
:101AF000FB681A85FB681A8DFB689B8C9A4202D39F
:101B0000FB6800221A85FB68DB8C4FF6FF7293425C
:101B10000ED0FB68DB8C01339AB2FB68DA84FB6879
:101B200018331846FEF720FE0346002B12D105E0BD
:101B3000F86A04F087FA6FF01B030FE0FB681833B4
:101B40001846FEF793FEF86A04F07CFA02F0CAFE2B
:101B5000002303E0F86A04F075FA002318463037D2
:101B6000BD4680BD606C0202DC690202EC690202C3
:101B7000B867020278660202E46702020C68020299
:101B800054670202F81B002280B584B000AFF860F1
:101B9000B9607A6002237A68B968F868FFF7B4FE22
:101BA000034618461037BD4680BD80B582B000AFF1
:101BB00078603960002239687868FFF7E5FF0346EE
:101BC00018460837BD4680BD80B58CB000AFF860C0
:101BD000B9607A603B60FB68002B05D140F67A2241
:101BE0009549964801F048FEFB68184602F0ECFC67
:101BF0000346052B05D040F67B228F49904801F023
:101C00003BFE7B68002B4ED000F038FD786204F07C
:101C100015FA386203F020F80346002B09D08649F4
:101C2000884801F00FFD40F67E228349864801F086
:101C300023FE7B6A012B09D17F49844801F002FD14
:101C400040F67E227C49804801F016FE04F0F6F949
:101C5000F86103F069F90346002B09D176497C4805
:101C600001F0F0FC40F67E227349774801F004FE53
:101C700004F0E4F9B86100F0EDFC0346002B09D054
:101C80006D49744801F0DEFC40F67E226A496E48D8
:101C900001F0F2FDB86904F0D5F9F86904F0D2F961
:101CA000386A04F0CFF90023BB6203F03DF9786194
:101CB000694B1B68002B04D0674B1B68FA68104601
:101CC000984704F0BBF9F862FB68DB8C002B5FD10E
:101CD0007B68002B5CD1F86A04F0B4F96FF07303F1
:101CE000A6E07B696FF003025A637B68002B09D181
:101CF000F86A04F0A7F97B696FF073025A636FF01A
:101D0000730395E0FB6803F11800FB685A7B3B689E
:101D10007969FEF749FD38613B69002B04D0F86A08
:101D200004F090F93B6983E07B68002B0EDDFEF741
:101D3000A1FAB8627B695C333A1D0021184603F0B2
:101D400059FF7B695C33184603F0F4FDF86A04F030
:101D500079F902F0C7FD7B695B6B002B02D07B69D0
:101D60005B6B65E004F06AF9F8627B68002B0FDDBD
:101D7000FEF780FA0246BB6AD31ABB627B681A463A
:101D8000BB6AD31A7B607B68002B01DA00237B607F
:101D9000FB68DB8C002BA4D0FB681A6AFB685B8DA8
:101DA0009B0013441A68BB681A60FB685B8D0133A3
:101DB0009AB2FB685A85FB685A8DFB689B8C9A42E5
:101DC00002D3FB6800225A85FB68DB8C002B05D010
:101DD000FB68DB8C013B9AB2FB68DA84FB682C332E
:101DE0001846FEF7C1FC0346002B14D1FB682C33C8
:101DF0001846FEF73BFDF86A04F024F9174B1B6800
:101E0000002B04D0154B1B68FA681046984702F067
:101E100069FD00230CE0F86A04F014F90F4B1B680D
:101E2000002B04D00D4B1B68FA681046984700231E
:101E300018463037BD4680BD746C0202DC69020270
:101E4000EC690202B867020278660202E4670202E5
:101E50000C68020254670202F01B0022F41B0022ED
:101E600080B584B000AFF860B9607A6002237A6808
:101E7000B968F868FFF7A8FE034618461037BD4654
:101E800080BDFFFF90B587B000AFF860B9607A60A1
:101E90003B60FB68002B05D140F67F323549364860
:101EA00001F0EAFC97F82C30002B09D097F82C3081
:101EB000012B05D04FF438622E49304801F0DCFC8C
:101EC000FB68BA680621184602F026FAFB6897F804
:101ED0002C205A73FB681846FEF758FCFB687A689A
:101EE0001A623B68073323F007043B689AB2FB6829
:101EF0009A8404F10803BA6AB2FBF3F39AB2FB685E
:101F0000DA84FB68DB8C002B02D16FF015032DE027
:101F1000FB680022DA62FB6800221A63FB68002279
:101F20005A6300237B6112E0FB681A6A04F108031C
:101F3000796901FB03F313443B61FB685A6B3B690E
:101F40001A60FB683A695A637B6901337B61FB68FD
:101F5000DB8C1A467B699342E6DBFB6800221A851C
:101F6000FB6838331846FEF7A1FB002318461C37E0
:101F7000BD4690BD806C02029C6A0202A06602020D
:101F800080B58EB000AFF860B9607A603B60FB68E6
:101F9000002B05D140F694429D499E4801F06CFC0F
:101FA000FB68184602F010FB0346062B05D040F6EE
:101FB00095429749984801F05FFCBB68002B05D11A
:101FC00040F696429249954801F056FC7B68002BFA
:101FD00005D140F697428E49914801F04DFC3B6C8B
:101FE000002B4ED000F04AFBF86204F027F8B862EC
:101FF00002F032FE0346002B09D08549894801F0E2
:1020000021FB40F69A428249874801F035FCFB6A81
:10201000012B09D17E49854801F014FB40F69A4214
:102020007B49814801F028FC04F008F8786202F04E
:102030007BFF0346002B09D175497D4801F002FB67
:1020400040F69A427249784801F016FC03F0F6FF18
:10205000386200F0FFFA0346002B09D06C4975483E
:1020600001F0F0FA40F69A4269496F4801F004FC29
:10207000386A03F0E7FF786A03F0E4FFB86A03F018
:10208000E1FFFB689B8C1A467B68934202D96FF094
:10209000FE03E3E000233B6302F046FFF861664B7A
:1020A0001B68002B04D0644B1B68FA6810469847E5
:1020B00003F0C4FF7863FB685B6BBB61BB69002BFB
:1020C0005CD13B6C002B59D1786B03F0BBFF6FF0F8
:1020D0001B03C3E0FB696FF003025A633B6C002BE8
:1020E00005D1786B03F0AEFF6FF01B03B6E0FB6821
:1020F00003F13800FB685A7B7B6CF969FEF754FBEF
:1021000078617B69002B04D0786B03F09BFF7B69BF
:10211000A4E03B6C002B0FDDFEF7ACF83863FB69E5
:102120005C3307F140020021184603F063FDFB69B0
:102130005C33184603F0FEFB786B03F083FF02F07C
:10214000D1FBFB695B6B002B02D0FB695B6B85E00D
:1021500003F074FF78633B6C002B0FDDFEF78AF809
:1021600002463B6BD31A3B633B6C1A463B6BD31A5C
:102170003B643B6C002B01DA00233B64FB685B6B28
:10218000BB61BB69002BA5D0BB691A68FB685A63A9
:10219000786B03F057FFBB6900221A607A68BB694D
:1021A0005A60BB6908337A68B968184600F05AFB70
:1021B00003F044FF7863FB681B6B002B03D0FB68C4
:1021C0001B6BBA691A60FB68BA691A63FB68DB6A41
:1021D000002B02D1FB68BA69DA62FB681B8D4FF6EF
:1021E000FF7293420ED0FB681B8D01339AB2FB68DD
:1021F0001A85FB6818331846FEF7B6FA0346002B1B
:1022000028D11BE0786B03F01DFF6FF01B0325E066
:102210008C6C02029C6A0202AC6A0202606B0202CF
:10222000746B0202B867020278660202E467020277
:102230000C68020254670202F81B0022FB68183384
:102240001846FEF713FB786B03F0FCFE02F04AFB26
:10225000002303E0786B03F0F5FE002318463837BF
:10226000BD4680BD80B586B002AFF860B9607A60C7
:102270003B60022301933B68009300237A68B968AE
:10228000F868FFF77DFE034618461037BD4680BD4F
:1022900080B584B000AFF860B9607A6000237A68D6
:1022A000B968F868FFF7DEFF034618461037BD46E9
:1022B00080BDFFFF80B58EB000AFF860B9607A6076
:1022C0003B60FB68002B05D140F62362A049A14882
:1022D00001F0D2FAFB68184602F076F90346062BA5
:1022E00005D040F624629A499B4801F0C5FABB68C4
:1022F000002B05D140F625629549984801F0BCFABB
:102300007B68002B05D140F626629149944801F084
:10231000B3FA3B6C002B4ED000F0B0F9B86203F07A
:102320008DFE786202F098FC0346002B09D08849A4
:102330008C4801F087F940F6296285498A4801F006
:102340009BFABB6A012B09D18149884801F07AF9CF
:1023500040F629627E49844801F08EFA03F06EFE51
:10236000386202F0E1FD0346002B09D1784980482C
:1023700001F068F940F6296275497B4801F07CFA62
:1023800003F05CFEF86100F065F90346002B09D00C
:102390006F49784801F056F940F629626C49724855
:1023A00001F06AFAF86903F04DFE386A03F04AFE5C
:1023B000786A03F047FE00233B6302F0B5FDB86185
:1023C0006D4B1B68002B04D06B4B1B68FA681046E2
:1023D000984703F033FE7863FB681B8D002B60D1B8
:1023E0003B6C002B5DD1786B03F02CFE6FF0730318
:1023F000D3E0BB696FF003025A633B6C002B09D139
:10240000786B03F01FFEBB696FF073025A636FF0C5
:102410007303C2E0FB6803F11800FB685A7B7B6C16
:10242000B969FEF7C1F938613B69002B04D0786BBC
:1024300003F008FE3B69B0E03B6C002B0FDDFDF7BD
:1024400019FF3863BB695C3307F14002002118466D
:1024500003F0D0FBBB695C33184603F06BFA786B72
:1024600003F0F0FD02F03EFABB695B6B002B02D07B
:10247000BB695B6B91E003F0E1FD78633B6C002B83
:102480000FDDFDF7F7FE02463B6BD31A3B633B6C57
:102490001A463B6BD31A3B643B6C002B01DA0023DA
:1024A0003B64FB681B8D002BA3D0FB68DB6A7B6160
:1024B0007B691A68FB68DA62FB681B6B7A699A426F
:1024C00002D1FB6800221A63FB681B8D002B05D02C
:1024D000FB681B8D013B9AB2FB681A85786B03F091
:1024E000B1FD7B695B68FB62FA6A7B689A4201D93D
:1024F0007B68FB627B690833FA6A1946B86800F0AA
:10250000B1F903F09BFD7863FB685A6B7B691A6035
:10251000FB687A695A63FB6838331846FEF724F97A
:102520000346002B2CD1FB6838331846FEF79EF982
:10253000786B03F087FD114B1B68002B04D00F4B09
:102540001B68FA681046984702F0CCF9FB6A24E051
:10255000A06C02029C6A0202AC6A0202606B020278
:10256000746B0202B867020278660202E467020234
:102570000C68020254670202F01B0022F41B0022C6
:10258000786B03F05FFD074B1B68002B04D0054BF5
:102590001B68FA6810469847FB6A18463837BD46EC
:1025A00080BD00BFF41B002280B586B002AFF8608A
:1025B000B9607A603B60022301933B68009300237B
:1025C0007A68B968F868FFF775FE03461846103751
:1025D000BD4680BD80B582B000AF03F02FFD7860AE
:1025E0000A4B1B78DBB20133DAB2084B1A70084B86
:1025F0001B68002B02D0064B1B689847786803F0D5
:1026000021FD00BF0837BD4680BD00BFB01A0022C3
:10261000A81A002280B582B000AF03F00FFD7860E9
:102620000A4B1B68002B02D0084B1B689847084BCD
:102630001B78DBB2013BDAB2054B1A70786803F005
:1026400001FD00BF0837BD4680BD00BFAC1A0022A7
:10265000B01A002280B582B000AF03F0EFFC7860C2
:10266000054B1B78FB70786803F0ECFCFB78184690
:102670000837BD4680BD00BFB01A002280B400AF4D
:1026800000231846BD465DF8047B704780B485B0D2
:1026900000AF78607B68002B02DA7B685B427B606E
:1026A0000023FB600FE00D4AFB6852F833307A6874
:1026B0009A4205D1094AFB68DB0013445B6806E0D7
:1026C000FB680133FB60FB680E2BECD9044B18460A
:1026D0001437BD465DF8047B704700BF0800002238
:1026E0009C6E020280B582B000AF00237B60FFF7D2
:1026F000B1FF0346002B02D0084B1B680AE002F032
:1027000013FC78607B68002B02D1044B1B6801E04E
:102710007B685B6B18460837BD4680BDB41A002243
:1027200080B584B000AF78600023FB60FFF792FFB4
:102730000346002B03D00A4A7B6813600CE002F0CA
:10274000F3FBF860FB68002B03D1054A7B6813603C
:1027500002E0FB687A685A631037BD4680BD00BF4F
:10276000B41A002280B582B000AF00237B60FFF76F
:1027700071FF0346002B01D0074B09E002F0D4FBA8
:1027800078607B68002B02D07B68343300E0024B1A
:1027900018460837BD4680BDB41A002280B48BB0FD
:1027A00000AFF860B9607A6000237B62FB683B622F
:1027B00000237B610023FB61BB68FB767B68032BF6
:1027C00044D9FB6803F00303002B3FD1FB68FB6196
:1027D00000237B6208E007F114027B6A1344FA7E4F
:1027E0001A707B6A01337B627B6A032BF3D916E094
:1027F000FB691A1DFA617A691A60FB691A1DFA6190
:102800007A691A60FB691A1DFA617A691A60FB69B4
:102810001A1DFA617A691A607B68103B7B607B68DD
:102820000F2BE5D807E0FB691A1DFA617A691A6077
:102830007B68043B7B607B68032BF4D8FB693B62BD
:1028400004E03B6A5A1C3A62FA7E1A707B685A1E90
:102850007A60002BF5D1FB6818462C37BD465DF831
:10286000047B704780B48BB000AFF860B9607A60C9
:10287000FB687B62BB683B620023FB610023BB619A
:102880007B687B617B690F2B4DD93A6A7B6A134366
:1028900003F00303002B46D17B6AFB613B6ABB61FB
:1028A00022E0BA69131DBB61FB69191DF961126849
:1028B0001A60BA69131DBB61FB69191DF9611268C1
:1028C0001A60BA69131DBB61FB69191DF9611268B1
:1028D0001A60BA69131DBB61FB69191DF9611268A1
:1028E0001A607B69103B7B617B690F2BD9D80AE0AA
:1028F000BA69131DBB61FB69191DF96112681A6081
:102900007B69043B7B617B69032BF1D8FB697B62AC
:10291000BB693B6207E03A6A531C3B627B6A591C05
:10292000796212781A707B695A1E7A61002BF2D193
:10293000FB6818462C37BD465DF8047B704780B4B1
:1029400087B000AFF860B9607A60FB687B61BB68F4
:102950003B613A697B699A4226D23A697B681344A3
:102960007A699A4220D27A697B6813447B613A691A
:102970007B6813443B6109E03B69013B3B617B6938
:10298000013B7B613B691A787B691A707B685A1E30
:102990007A60002BF0D10CE03A69531C3B617B69F3
:1029A000591C796112781A707B685A1E7A60002B64
:1029B000F2D1FB6818461C37BD465DF8047B7047B2
:1029C00080B489B000AFF860B9607A600023FB6121
:1029D0000023BB6100237B61FB68FB61BB68BB61BB
:1029E00012E0FB691B781A46BB691B78D31A7B611E
:1029F0007B69002B0CD1FB690133FB61BB6901339F
:102A0000BB617B68013B7B607B68002BE9D100E008
:102A100000BF7B6918462437BD465DF8047B7047CC
:102A200080B487B000AFF860B9607A607B68002B33
:102A300021D0FB687B61BB683B613A69531C3B61F9
:102A40007B69591C796112781A701B78002B0CD1A4
:102A500004E07B695A1C7A6100221A707B68013B92
:102A60007B607B68002BF4D105E07B68013B7B60D9
:102A70007B68002BE1D1FB6818461C37BD465DF82A
:102A8000047B704780B487B000AFF860B9607A60AB
:102A90000023FB7515E0FB681A78BB68591CB96008
:102AA0001B78D31ADBB2FB7597F91730002B0BD1CB
:102AB000FB685A1CFA601B78002B05D07B68013B31
:102AC0007B607B68002BE6D197F9173018461C37DE
:102AD000BD465DF8047B704780B483B000AF78607A
:102AE000396005E07B6801337B603B6801333B6004
:102AF0007B681B78002B05D07B681A783B681B78B5
:102B00009A42EFD07B681B781A463B681B78D31A31
:102B100018460C37BD465DF8047B704780B485B01D
:102B200000AF78600023FB607B68FB6002E0FB681D
:102B30000133FB60FB681B78002BF8D1FA687B68D7
:102B4000D31A18461437BD465DF8047B704780B52C
:102B500084B000AF78607868FFF7E0FF0346013388
:102B6000FB60F86800F010FEB860BB68002B01D174
:102B7000002305E0FA687968B868FFF773FEBB6860
:102B800018461037BD4680BD80B582B002AF0B48F5
:102B900000F058FD0A4800F055FD0A4B01930A4B1E
:102BA0000093022300220521084800F04BFD08484D
:102BB00000F048FD00BFBD4680BD00BFA46E02020C
:102BC000B06E0202F86E0202046F0202D46E0202BC
:102BD000106F020280B485B000AF786039607B6806
:102BE0001B683A68B3FBF2F101FB02F29B1AFB602F
:102BF0007B681A683B68B2FBF3F27B681A60FB687B
:102C000018461437BD465DF8047B704780B485B024
:102C100000AF78600023FB600EE0FA6813469B006B
:102C200013445B0018467B681B68591C7A68116066
:102C30001B780344303BFB607B681B681B78303B90
:102C4000092BEAD9FB6818461437BD465DF8047BAA
:102C50007047FFFF80B592B000AFF860B9607A604E
:102C60003B60002387F83B30002387F84730002380
:102C70003B6107F1140300221A605A609A60DA601F
:102C80001A615A619A61BB6D7B6300233B63002329
:102C90003B640023FB637B6DFB63FB6D03F0400330
:102CA000002B01D0944B00E0944B3B63FB6D03F091
:102CB0001003002B03D0FB6D23F00103FB65FB6DBC
:102CC00003F00103002B01D0302300E0202387F81C
:102CD0003B30002387F84730FB6D03F00203002BE5
:102CE00046D03B6D6C2B15D03B6D6C2B1CDC3B6DCB
:102CF0004C2B0FD03B6D682B16D17B681BB2002B81
:102D00001CDA2D2387F847307B689BB25B429BB26D
:102D10007B6013E07B68002B12DA2D2387F84730A5
:102D20007B685B427B600BE07B68002B0ADA2D231B
:102D300087F847307B685B427B6003E000BF02E0BE
:102D400000BF00E000BF97F847302D2B10D0FB6D7F
:102D500003F00403002B03D02B2387F8473007E050
:102D6000FB6D03F00803002B02D0202387F84730C7
:102D7000FB6D03F02003002B0FD03B68022B02D029
:102D80003B68102B03D1FB6B023BFB6305E03B6808
:102D9000082B02D1FB6B013BFB6300233B647B6888
:102DA000002B1BD13B6C5A1C3A6407F148021344B8
:102DB000302203F8382C14E03B1D39681846FFF721
:102DC00009FF03461A463B6B1A443B6C591C396495
:102DD000127807F148010B4403F8382C7B68002B6C
:102DE000EAD13A6CBB6D9A4201DD3B6CBB65FA6B74
:102DF000BB6DD31AFB63FB6D03F01103002B19D1DC
:102E000097F84730002B10D0FB6B002B0DDDFB6BD0
:102E1000013BFB6309E0FA68BB689A4202D2FB6897
:102E200020221A70FB680133FB60FB6B5A1EFA63A9
:102E3000002BF0DC97F84730002B0DD0FA68BB6808
:102E40009A4203D2FB6897F847201A70FB6B013B4C
:102E5000FB63FB680133FB60FB6D03F02003002B79
:102E600043D03B68022B14D1FA68BB689A4202D265
:102E7000FB6830221A70FB680133FB60FA68BB689C
:102E80009A4202D2FB6862221A70FB680133FB602F
:102E90002BE03B68082B0AD1FA68BB689A4202D241
:102EA000FB6830221A70FB680133FB601DE03B6851
:102EB000102B1AD1FA68BB689A4202D2FB68302202
:102EC0001A70FB680133FB60FA68BB689A4209D24A
:102ED000FB6D03F04003002B01D0582200E0782264
:102EE000FB681A70FB680133FB60FB6D03F0100395
:102EF000002B20D10FE000BFAC6F0202C06F0202B6
:102F0000FA68BB689A4203D2FB6897F83B201A70B4
:102F1000FB680133FB60FB6B5A1EFA63002BEFDC8E
:102F200009E0FA68BB689A4202D2FB6830221A7044
:102F3000FB680133FB60BB6D5A1EBA653A6C9A425E
:102F4000EFDB0DE0FA68BB689A4206D207F1100287
:102F50003B6C13441A78FB681A70FB680133FB6002
:102F60003B6C5A1E3A64002B0DDD7B6B002BE9D1C4
:102F700009E0FA68BB689A4202D2FB6820221A7004
:102F8000FB680133FB60FB6B5A1EFA63002BF0DC1D
:102F9000FB6818464837BD4680BD00BF80B592B07B
:102FA00004AFF860B9607A603B6000237B63002364
:102FB0003B630023FB620023BB6200237B62002390
:102FC000FB7400233B620023FB770023BB770023C5
:102FD0007B770023BB6100237B61FB68BB62FA68DF
:102FE000BB6813447B627A6AFB689A4280F08782EE
:102FF0004FF0FF337B627A6AFB68D31ABB607EE2D4
:103000007B681B78252B0BD0BA6A7B6A9A4203D265
:103010007B681A78BB6A1A70BB6A0133BB626BE2C9
:103020000023BB777B6801337B607B681B782D2B8B
:1030300004D1BB7F43F01003BB77F3E77B681B78B9
:103040002B2B04D1BB7F43F00403BB77EAE77B68FB
:103050001B78202B04D1BB7F43F00803BB77E1E74B
:103060007B681B78232B04D1BB7F43F02003BB7705
:10307000D8E77B681B78302B04D1BB7F43F001037A
:10308000BB77CFE700BF4FF0FF33BB617B681B7896
:10309000303B092B05D83B1D1846FFF7B7FDB8613B
:1030A00015E07B681B782A2B11D17B6801337B608C
:1030B0003B681A1D3A601B68BB61BB69002B06DACE
:1030C000BB695B42BB61BB7F43F01003BB774FF032
:1030D000FF337B617B681B782E2B1ED17B6801330D
:1030E0007B607B681B78303B092B05D83B1D18465D
:1030F000FFF78CFD78610BE07B681B782A2B07D1EA
:103100007B6801337B603B681A1D3A601B687B61FA
:103110007B69002B01DA00237B6100237B777B68CE
:103120001B78682B03D07B681B786C2B05D17B68E0
:103130001B787B777B6801337B600A23FB777B6896
:103140001B78253B532B00F2888101A252F823F013
:10315000213400025B3400025B3400025B34000265
:103160005B3400025B3400025B3400025B3400021B
:103170005B3400025B3400025B3400025B3400020B
:103180005B3400025B3400025B3400025B340002FB
:103190005B3400025B3400025B3400025B340002EB
:1031A0005B3400025B3400025B3400025B340002DB
:1031B0005B3400025B3400025B3400025B340002CB
:1031C0005B3400025B3400025B3400025B340002BB
:1031D0005B3400025B3400025B3400025B340002AB
:1031E0005B3400025B3400025B3400025B3400029B
:1031F0005B3400025B3400025B3400025B3400028B
:103200005B3400025B3400025B3400025B3400027A
:103210005B3400025B3400025B3400024334000282
:103220005B3400025B3400025B3400025B3400025A
:103230005B3400025B3400025B3400025B3400024A
:103240005B34000237340002A13200025134000224
:103250005B3400025B3400025B3400025B3400022A
:10326000513400025B3400025B3400025B34000224
:103270005B3400025B3400023D340002D5330002AF
:103280005B3400025B3400020F3300025B34000247
:10329000973400025B3400025B3400024B340002BE
:1032A000BB7F03F01003002B10D109E0BA6A7B6AE0
:1032B0009A4202D2BB6A20221A70BB6A0133BB62F7
:1032C000BB69013BBB61BB69002BEFDC3B681A1D8E
:1032D0003A601B68FB74BA6A7B6A9A4202D2BB6A84
:1032E000FA7C1A70BB6A0133BB6209E0BA6A7B6A76
:1032F0009A4202D2BB6A20221A70BB6A0133BB62B7
:10330000BB69013BBB61BB69002BEFDCF4E03B68B0
:103310001A1D3A601B683B623B6A002B01D1854B4A
:103320003B620023FB6202E0FB6A0133FB62FA6A44
:10333000BB699A4205D0FB6A3A6A13441B78002B9A
:10334000F2D17B69002B05DDFA6A7B699A4201DDC7
:103350007B69FB62BB7F03F01003002B10D109E0F7
:10336000BA6A7B6A9A4202D2BB6A20221A70BB6A8E
:103370000133BB62BB695A1EBA61FA6A9A42EFDB3B
:1033800000233B6310E0BA6A7B6A9A4203D23B6A2D
:103390001A78BB6A1A70BB6A0133BB623B6A01339D
:1033A0003B623B6B01333B633A6BFB6A9A42EADB5D
:1033B00009E0BA6A7B6A9A4202D2BB6A20221A707A
:1033C000BB6A0133BB62BB695A1EBA61FA6A9A4290
:1033D000EFDB91E0BB69B3F1FF3F0CD10823BB6188
:1033E000BB690233BB61BB7F43F02003BB77BB7F6C
:1033F00043F00103BB773B681A1D3A601B6819460E
:103400007B7FBA7F03927A690292BA690192009334
:1034100010230A46796AB86AFFF71CFCB8626BE0B1
:10342000BA6A7B6A9A4202D2BB6A25221A70BB6AC8
:103430000133BB6260E00223FB772DE00823FB77BA
:103440002AE0BB7F43F04003BB771023FB7723E0E8
:10345000BB7F43F00203BB771DE0BA6A7B6A9A42E6
:1034600002D2BB6A25221A70BB6A0133BB627B6839
:103470001B78002B0BD0BA6A7B6A9A4203D27B6816
:103480001A78BB6A1A70BB6A0133BB6234E07B688E
:10349000013B7B6030E000BF7B7F6C2B05D13B683C
:1034A0001A1D3A601B687B6316E07B7F682B0ED188
:1034B0003B681A1D3A601B689BB27B63BB7F03F0BD
:1034C0000203002B08D07B6B1BB27B6304E03B68DC
:1034D0001A1D3A601B687B63F97F7B7FBA7F03927A
:1034E0007A690292BA69019200930B467A6B796A03
:1034F000B86AFFF7AFFBB8627B6801337B607B681B
:103500001B78002B7FF47CADBB68002B0BD0BA6A14
:103510007B6A9A4203D2BB6A00221A7003E07B6A7C
:10352000013B00221A70BA6AFB68D31A1846383772
:10353000BD4680BD3C6F02020CB480B584B000AFC4
:10354000786039600023FB6007F11C03BB60BB6837
:10355000BA6939687868FFF721FDF860FB6818469A
:103560001037BD46BDE8804002B0704780B584B0DA
:1035700000AFF860B9607A607B68BA684FF0FF31DD
:10358000F868FFF70BFD034618461037BD4680BDAF
:103590000EB480B585B000AF78600023FB6007F102
:1035A0002003BB60BA68F9697868FFF7DFFFF8604D
:1035B000FB6818461437BD46BDE8804003B070472D
:1035C00080B400AF034B1B681846BD465DF8047B12
:1035D000704700BFB81A002280B584B000AF786091
:1035E000124B1B68FB6078680DF0D0FFB860BA68BA
:1035F000FB689A4201D1002313E0BB68002B0FD077
:103600000A4B1B68002B04D0084B1B6818460EF0B1
:1036100073F84321B8680DF0C7FF044ABB68136014
:10362000FB6818461037BD4680BD00BFB81A00229F
:1036300080B483B000AF786000BF0C37BD465DF842
:10364000047B70470FB480B582B000AF00237B606D
:1036500007F114033B603B683A697F211048FFF78C
:103660009DFC03467B607B687F2B01D97F237B60B9
:103670000C4B1B68002B03D10948FFF7D9FF06E06C
:10368000084B18687B68064A00210EF0C7F87B6873
:1036900018460837BD46BDE8804004B0704700BFFB
:1036A000681B0022B81A002280B500AF012203492E
:1036B0000348FDF71BFC00BF80BD00BF446F020242
:1036C000C41A002280B500AF01F02EFC0346002B87
:1036D00006D04FF0FF310448FDF7D6FE034600E068
:1036E0000023184680BD00BFC41A002280B582B0F6
:1036F00000AF78607B68002B05D040F24962084932
:10370000084800F0B9F801F00FFC0346002B02D086
:103710000548FDF7C9FE00BF0837BD4680BD00BFA4
:10372000E86F02024C6F0202C41A002280B584B016
:1037300000AF786039607B68073323F00703FB60D4
:103740003B6823F00703BB60BA68FB689A4205D860
:1037500040F2AA620849094800F08EF8BA68FB688E
:10376000D31A7A680649074800F0CAF8FFF79CFFA9
:1037700000BF1037BD4680BDD46F02025C6F0202ED
:10378000446F0202F41A002280B584B000AF786062
:10379000FFF798FFF86079680A4800F0C5FCB86048
:1037A000F868FFF7A3FF084B1B68002B04D0064BFB
:1037B0001B687968B8689847BB6818461037BD46DB
:1037C00080BD00BFF41A0022BC1A002280B584B06C
:1037D00000AF78603960FFF775FFF8603A68796884
:1037E000054800F0F0FCB860F868FFF77FFFBB68A1
:1037F00018461037BD4680BDF41A002280B584B04B
:1038000000AF786039607B683A6802FB03F31846C2
:10381000FFF7BAFFF860FB68002B08D07B683A68B6
:1038200002FB03F31A460021F868FEF7B7FFFB68B6
:1038300018461037BD4680BD80B584B000AF7860B3
:103840000C4B1B68002B03D00A4B1B687868984709
:103850007B68002B09D0FFF735FFF860786800F02F
:10386000A7FCF868FFF742FF00E000BF1037BD4635
:1038700080BD00BFC01A002280B586B000AFF860DE
:10388000B9607A600023FB750C4B1B68002B0BD1D1
:103890007B68BA68F9680A48FFF7D4FE00BFFB7D71
:1038A000DBB2002BFBD005E0044B1B687A68B968DB
:1038B000F868984700BF1837BD4680BD641B0022DA
:1038C000746F020280B483B000AF78607B681B69BC
:1038D0007A6852695A617B685B697A6812691A6111
:1038E0007B689B687A68D268DA607B68DB687A6894
:1038F00092689A6000BF0C37BD465DF8047B704744
:1039000080B586B000AFF860B9607A603B60FB6854
:10391000002B04D1562248494848FFF7ADFFFB6809
:10392000BA680721184600F0F7FCFB687A689A61CC
:103930003B6823F00702FB68DA61FB68DB69A3F1EF
:103940003002FB681A62FB68DA69FB681B6AD21AEC
:10395000FB685A62FB6830337B617B69384A1A60C6
:103960007B69FA685A607B6900229A607B69002251
:10397000DA607B697A691A617B697A695A61FB68E6
:103980007A69DA627B687B617B692D4A1A607B69A0
:10399000FA685A607B6900229A607B690022DA60CB
:1039A0007B697A691A617B697A695A61FB681B6A6B
:1039B00018337A691A447B699A607B699A687B69D3
:1039C000DA60FB687A699A62FB68DB6A1A697B696C
:1039D0001A61FB68DA6A7B695A61FB68DB6A1B69FA
:1039E0007A695A61FB68DB6A7A691A617B699B684C
:1039F0007B617B69134A1A607B69FA685A607B694C
:103A00007A689A607B697A68DA607B6900225A6119
:103A10007B695A697B691A61FB6803F148000123DD
:103A20000122B968FCF756FFFB680022DA66002322
:103A300018461837BD4680BD4C710202F86F02026D
:103A4000A01EA01EA11EA01E80B586B000AF78608B
:103A500039607B68002B04D1C12279497948FFF78E
:103A60000BFF7B68184600F0AFFD0346072B04D020
:103A7000C22273497448FFF7FFFE3B68073323F007
:103A800007033B603B680F2B01D810233B607B682A
:103A90001B6A3A689A4280F0CE8000237B617B6883
:103AA000DB6E002B0FD17B6848334FF0FF31184697
:103AB000FDF7ECF8F860FB68002B04D0F868FEF71F
:103AC0002FFE0023B8E07B68DB6A1B693B610DE0D9
:103AD0003B699B681A463B69D31A183B7B617A693C
:103AE0003B689A4202D23B691B693B617B68DB6A97
:103AF0003A699A4203D07A693B689A42E8D37A6974
:103B00003B689A42C0F08E803B6828337A699A42BB
:103B100053D33B6818333A691344BB60BB684B4AC4
:103B20001A60BB687A685A60BB683A69DA603B69B8
:103B30009A68BB689A603B699B68BA68DA603B69BF
:103B4000BA689A603B691B693A6952695A613B6974
:103B50005B693A6912691A613B6900221A613B6923
:103B600000225A617B68DB6A1A69BB681A617B684C
:103B7000DA6ABB685A617B68DB6A1B69BA685A619A
:103B80007B68DB6ABA681A617B681A6A3B68D31A79
:103B9000A3F118027B681A627B68DA697B681B6A8A
:103BA000D21A7B685B6A9A422DD97B68DA697B6896
:103BB0001B6AD21A7B685A6225E07B681A6A7B69A5
:103BC000D21A7B681A627B68DA697B681B6AD21A30
:103BD0007B685B6A9A4206D97B68DA697B681B6AF4
:103BE000D21A7B685A623B691B693A6952695A6109
:103BF0003B695B693A6912691A613B6900221A6183
:103C00003B6900225A613B69114A1A607B68DB6E8E
:103C1000002B04D17B6848331846FDF747F83B6911
:103C2000183309E07B68DB6E002B04D17B684833D6
:103C30001846FDF73BF8002318461837BD4680BDEF
:103C40005C7102028070020214700202A01EA01EAB
:103C5000A11EA01E80B58CB000AFF860B9607A607C
:103C6000FB68002B05D140F2711282498248FFF7B0
:103C700003FEFB68184600F0A7FC0346072B05D09F
:103C80004FF4B9727B497D48FFF7F6FD7B68002B46
:103C900004D1B86800F068F900235FE17B6807335E
:103CA00023F007037B607B680F2B01D810237B6018
:103CB000BB68002B05D17968F868FFF7C5FE03469D
:103CC0004CE1BB68183BFB62FB6A9B681A46FB6AC7
:103CD000D31A183BBB627A68BB6A9A4240F2AE8044
:103CE000FB68DB6E002B0FD1FB6848334FF0FF31D0
:103CF0001846FCF7CBFF78627B6A002B04D0786A09
:103D0000FEF70EFD002329E1FB6A9B68BB61BA69DF
:103D1000FB6A9A4205D84FF4CE7256495848FFF7CD
:103D2000ABFDBB691B6803F00103002B66D1BB69C7
:103D30009B681A46BB69D31A183B7B61BB69002B91
:103D400005D14FF4D2724B494E48FFF795FD7A6981
:103D5000BB6A1A447B6810339A424FD9FB681A6ACF
:103D6000B96A7B68CB1A1A44FB681A62FB68DA6985
:103D7000FB681B6AD21AFB685B6A9A4206D9FB6829
:103D8000DA69FB681B6AD21AFB685A62B869FFF7E6
:103D900099FDBA687B681344BB61BB693A4A1A60F3
:103DA000BB69FA685A60BB69FA6ADA60FB6A9A68AA
:103DB000BB699A60FB6A9B68BA69DA60FB6ABA6998
:103DC0009A60FB68DB6A1A69BB691A61FB68DA6A88
:103DD000BB695A61FB68DB6A1B69BA695A61FB6897
:103DE000DB6ABA691A61FB68DB6E002B04D1FB68E1
:103DF00048331846FCF75AFFBB68AFE0FB68DB6E40
:103E0000002B04D1FB6848331846FCF74FFF796854
:103E1000F868FFF719FE38613B69002B0CD07A680F
:103E2000BB6A934228BF13461A46B9683869FEF741
:103E300019FDB86800F098F83B698FE07B6828337B
:103E4000BA6A9A4201D8BB6888E0FB68DB6E002B37
:103E50001CD1FB6848334FF0FF311846FCF716FFC2
:103E600078627B6A002B11D0786AFEF759FC002338
:103E700074E000BF707102020C7002021470020242
:103E800090700202A8700202A01EA01E7B68183368
:103E9000FA6A13443B623B6A324A1A603B6AFA6828
:103EA0005A603B6AFA6ADA60FB6A9A683B6A9A600F
:103EB000FB6A9B683A6ADA60FB6A3A6A9A603B6A14
:103EC0009B681B6803F00103002B1FD13B6A9B68B2
:103ED000FB61FB681A6AFB69F96989685B1A13441C
:103EE00003F11802FB681A62FB699B683A6ADA60A0
:103EF000FB699A683B6A9A60FB691B69FA695269B7
:103F00005A61FB695B69FA6912691A61FB68DB6ACD
:103F10001A693B6A1A61FB68DA6A3B6A5A61FB6894
:103F2000DB6A1B693A6A5A61FB68DB6A3A6A1A61A2
:103F3000FB681A6A3B6A9B6819463B6ACB1A1344B2
:103F4000A3F11802FB681A62FB68DB6E002B04D138
:103F5000FB6848331846FCF7A9FEBB6818463037A3
:103F6000BD4680BDA01EA01E80B588B000AF7860A1
:103F70007B68002B00F0C5800123BB6100237B61BF
:103F80007B68183BFB61FB691B68604A934207D161
:103F9000FB699B681B6823F001035D4A934218D0BC
:103FA000FB691B68594A934205D040F26B2259497C
:103FB0005948FFF761FCFB699B681B6823F001030C
:103FC000534A934205D040F26D2252495348FFF7BD
:103FD00053FCFB695B683B613B69002B05D140F2F8
:103FE00073224C494E48FFF747FC3B69184600F0E6
:103FF000EBFA0346072B05D04FF41D72454949489B
:10400000FFF73AFC3B69DB6E002B0ED13B6948336E
:104010004FF0FF311846FCF739FEF860FB68002BC3
:1040200003D0F868FEF77CFB6CE0FB69384A1A6045
:104030003B691A6AFB699B681946FB69CB1A1344F2
:10404000A3F118023B691A62FB69DB681B6803F085
:104050000103002B14D13B691B6A03F118023B6971
:104060001A62FB69DB68FA6992689A60FB699B686F
:10407000FA69D268DA60FB69DB68FB610023BB6127
:10408000FB699B681B6803F00103002B1AD13B6995
:104090001B6A03F118023B691A62FB699B687B612A
:1040A0007B699B68FA69DA607B699A68FB699A6048
:1040B0007B691B697A6952695A617B695B697A69B4
:1040C00012691A61BB69002B11D03B69DB6A1B695D
:1040D000BB60FB69BA681A61BB685A69FB695A61BF
:1040E000BB685B69FA691A61BB68FA695A613B6926
:1040F000DB6E002B06D13B6948331846FCF7D6FD32
:1041000000E000BF2037BD4680BD00BFA11EA01E3D
:10411000A01EA01E84710202B8700202F470020296
:104120000C7002021470020280B588B000AF786093
:10413000396039687868FFF787FCF861FB69002B04
:104140002DD1072000F0C4F878617B69002B05D1E0
:1041500040F2153214491548FFF78EFB7B695B6806
:10416000BB6115E0BB69103B3B613B69FB607A6852
:10417000FB689A4208D03968F868FFF765FCF86177
:10418000FB69002B0AD100E000BFBB691B68BB6163
:104190007B690433BA699A42E4D100E000BFFB694D
:1041A00018462037BD4680BD947102023471020268
:1041B00080B582B000AF78607868FFF7D5FE00BFA9
:1041C0000837BD4680BD80B588B000AFF860B960E3
:1041D0007A60BB68002B05D17968F868FFF7A4FF07
:1041E00003463DE07B68002B04D1B868FFF7E0FF91
:1041F000002335E0BB68183BBB61BB695B687A682C
:10420000B9681846FFF726FDF861FB69002B26D137
:104210007B68002B23D07968F868FFF785FFF86189
:10422000FB69002B1BD0BB68002B18D0BB699B68B7
:104230001A46BB69D31A183B7B617A687B699A423C
:1042400005D97A69B968F869FEF70CFB04E07A6869
:10425000B968F869FEF706FBB868FFF7A9FFFB69C4
:1042600018462037BD4680BD80B483B000AF78606B
:1042700039607B681B683A685A607B681A683B68DB
:104280001A607B683A681A603B687A685A6000BFB7
:104290000C37BD465DF8047B704780B483B000AF37
:1042A00078607B681B687A6852685A607B685B68D4
:1042B0007A6812681A607B687A685A607B685A6804
:1042C0007B681A6000BF0C37BD465DF8047B704701
:1042D00080B485B000AF0346FB710023FB600FE0A4
:1042E0000C4AFB681B0113441B78FA799A4204D1EB
:1042F000FB681B01074A134406E0FB680133FB60BF
:10430000FB680B2BECDD002318461437BD465DF827
:10431000047B70478000002280B588B000AFF86051
:104320000B467A60FB720023FB61FB7A1846FFF7AD
:10433000CFFFB861BB69002B05D14FF4B772234999
:104340002348FFF799FA00F043FCBB695B68FB6107
:104350000FE0FB69103B3B613A69FB689A4205D16B
:1043600040F27D1219491B48FFF786FAFB691B686A
:10437000FB61BB690433FA699A42EAD100F040FC60
:10438000FB7A63F07F03DAB2FB681A73FB680C22D6
:1043900079681846FEF744FB0F4B1B68002B03D0CF
:1043A0000D4B1B68F868984701F048FE7861BB69BF
:1043B0001A1DFB68103319461046FFF755FF786940
:1043C00001F040FE00BF2037BD4680BD38720202BA
:1043D000A4710202BC710202E81B002280B584B005
:1043E00000AF78607B68002B05D140F2AD120F4919
:1043F0000F48FFF741FA0F4B1B68002B03D00D4B02
:104400001B68786898477B6800221A7301F016FED3
:10441000F8607B6810331846FFF73FFFF86801F03B
:1044200011FE00BF1037BD4680BD00BF48720202BA
:10443000CC710202EC1B002280B586B000AF0346AF
:104440003960FB7101F0FAFD7861FEF703F903466C
:10445000002B09D029492A48FFF7F4F840F2D1127D
:1044600026492848FFF708FA786901F0EBFDFB7947
:104470001846FFF72DFF38613B69002B05D140F24C
:10448000D5121E492048FFF7F7F93B69DB6818464B
:10449000FFF77AF9F860FB68002B01D1002329E0CF
:1044A0003B69DB681A460021F868FEF777F9FB687C
:1044B000FA791A73FB6800225A73FB680C22396878
:1044C0001846FEF7ADFA114B1B68002B03D00F4BBB
:1044D0001B68F868984701F0B1FDB8603B691A1D88
:1044E000FB68103319461046FFF7BEFEB86801F0AE
:1044F000A9FDFB6818461837BD4680BD5C720202F4
:10450000E071020208720202A4710202E81B00229A
:1045100080B584B000AF78607B68002B05D140F295
:10452000122216491648FFF7A7F97B681B7B5BB27E
:10453000002B05DA40F2132210491248FFF79CF9CC
:10454000114B1B68002B03D00F4B1B6878689847F2
:104550007B6800221A7301F071FDF8607B681033EC
:104560001846FFF79AFEF86801F06CFD7868FFF7CF
:1045700063F900BF1037BD4680BD00BF70720202F4
:10458000CC7102020C720202EC1B002280B582B0D8
:1045900000AF78607B68002B05D140F235220849D6
:1045A0000848FFF769F97B681B7B5BB2002B01DAD7
:1045B000012300E0002318460837BD4680BD00BF38
:1045C00084720202CC71020280B582B000AF7860C2
:1045D0007B68002B05D14FF4127206490648FFF79D
:1045E0004BF97B681B7B03F07F03DBB2184608376F
:1045F000BD4680BDA0720202CC71020280B586B0B9
:1046000000AF78600B46FB7000233B6100237B61A9
:104610000023FB60FB781846FFF75AFEF8607B68C2
:10462000002B02D0FB68002B01D1002335E001F004
:1046300005FDB860FEF70EF80346002B09D01949B6
:104640001948FEF7FFFF40F2662216491748FFF7A8
:1046500013F9B86801F0F6FC00F0BAFAFB685B6881
:104660007B6112E07B69103B3B613B690C227968FE
:104670001846FEF707FA0346002B03D100F0C0FAF4
:104680003B690AE07B691B687B61FB6804337A69DC
:104690009A42E7D100F0B4FA002318461837BD4615
:1046A00080BD00BFB4720202E07102020872020211
:1046B00080B483B000AF78607B687A685A607B68AA
:1046C0005A687B681A6000BF0C37BD465DF8047BF2
:1046D000704780B483B000AF786039607B681B6836
:1046E0003A685A607B681A683B681A607B683A6867
:1046F0001A603B687A685A6000BF0C37BD465DF8A7
:10470000047B704780B483B000AF786039607B6809
:104710005B683A681A607B685A683B685A607B68D5
:104720003A685A603B687A681A6000BF0C37BD4629
:104730005DF8047B704780B483B000AF78607B681D
:104740001B687A6852685A607B685B687A6812688E
:104750001A607B687A685A607B685A687B681A605E
:1047600000BF0C37BD465DF8047B704780B483B052
:1047700000AF78607B681B687A689A420CBF01239F
:104780000023DBB218460C37BD465DF8047B70474A
:1047900080B584B000AF78607B68002B04D16222C2
:1047A0001C491D48FFF768F87B68DB6A1B78232BE0
:1047B00011D17B681B6A1A467B68DB6A9A420AD968
:1047C0007B681B6A1A467B68DB6A19467B681B6B31
:1047D0000B449A420BD97B6819461048FEF732FF0A
:1047E00001F02CFCF860FB68002BFCD10DE07B682D
:1047F0001B6A1A467B68DB6A20339A4205D87B68BD
:1048000019460748FEF71EFFFFE700BF1037BD46F9
:1048100080BD00BF2C730202C4720202D872020271
:10482000F472020280B584B000AF78600A4B1B6856
:10483000184601F020FF0346013BFB60074AFB6876
:1048400052F83330183BBB607B68FA681A60BB686B
:1048500018461037BD4680BDFC1C0022FC1B002200
:1048600080B582B000AF0D4B00221A8000237B6020
:1048700009E07B68DB000A4A13441846FFF718FF7B
:104880007B6801337B607B681F2BF2DD054B0022C8
:104890001A6000BF0837BD4680BD00BF001D002262
:1048A000FC1B0022FC1C002280B582B000AF3B46FE
:1048B0001846FFF7B7FF7860094A7B68136078688D
:1048C00000F04EF97B68032283F838207B682033A0
:1048D000184601F005FC00BF0837BD4680BD00BF8B
:1048E000041D002280B586B000AF01F0A7FBF86080
:1048F0005F4BB3F90030002B40F0B2805D4B1B687A
:10490000002B00F0AD8000233B613B1D1846FFF7F4
:1049100089FF7861584B1B6893F8383003F0070320
:10492000032B21D1544B1B6893F839301A467B680E
:104930009A4203D2504B1B687B6115E04E4B1B68BB
:1049400093F839301A467B689A420BD14A4B1B6860
:1049500093F8383003F00803002B03D1464B1B6853
:104960007B6101E001233B61434B1B687A699A42FA
:1049700061D07B68DAB2414B1A703F4B1B68BB6059
:104980003D4A7B6913603E4B1B68002B04D03C4BB7
:104990001B687969B86898473B69002B02D0B868F2
:1049A00000F074F8BB6893F8383003F00803002B6C
:1049B00008D0BB6893F8383023F00803DAB2BB683C
:1049C00083F83820786900F0CBF87B6993F83830A9
:1049D0005BB223F007035BB243F003035BB2DAB2CE
:1049E0007B6983F838207869FFF7D2FE254B1B7866
:1049F000DBB2002B14D1244B1B68002B03D0224BBD
:104A00001B68B8689847BB6820331A467B69203317
:104A10001946104601F019FBF86801F013FB23E07A
:104A2000BB68203318467B69203319467B69BA6816
:104A300001F00BFB14E0104B1B68184600F090F8D7
:104A40000D4B1B6893F838305BB223F007035BB261
:104A500043F003035AB2084B1B68D2B283F83820E4
:104A6000F86801F0EFFA00BF1837BD4680BD00BFFF
:104A7000001D0022FC1C0022041D0022081D002233
:104A80000C1D0022B01A0022101D002280B584B037
:104A900000AF78607B68002B05D14FF4B7722B49CB
:104AA0002B48FEF7E9FE01F0C9FAF860294B1B68B4
:104AB0007A689A420ED17B6893F838305BB223F063
:104AC00007035BB243F003035BB2DAB27B6883F89F
:104AD000382034E07B6893F838305BB223F007036A
:104AE0005BB243F002035BB2DAB27B6883F8382032
:104AF0007B6893F8383003F00803002B0CD07B68F8
:104B000093F83930DB00144A1A447B68183319468D
:104B10001046FFF7F7FD0BE07B6893F83930DB00B8
:104B20000D4A1A447B68183319461046FFF7D1FD29
:104B30007B68DA6B094B1B681343084A1360F868FB
:104B400001F080FA00BF1037BD4680BD44730202F9
:104B5000C4720202041D0022FC1B0022FC1C002265
:104B600080B584B000AF78607B68002B05D14FF42E
:104B7000D17213491348FEF77FFE01F05FFAF86027
:104B80007B6818331846FFF7D6FD7B6893F83930F9
:104B9000DB000D4A13441846FFF7E8FD0346002BDF
:104BA00007D07B68DB6BDA43084B1B681340074A6E
:104BB0001360F86801F046FA00BF1037BD4680BDAB
:104BC00060730202C4720202FC1B0022FC1C002261
:104BD00080B582B000AF01F031FA7860074BB3F9CD
:104BE00000309BB201339BB21AB2044B1A80786832
:104BF00001F028FA00BF0837BD4680BD001D002225
:104C000080B582B000AF01F019FA7860104BB3F9AB
:104C100000309BB2013B9BB21AB20D4B1A800C4B79
:104C2000B3F90030002B0CDC094B00221A807868A5
:104C300001F008FA074B1B68002B05D0FFF752FE66
:104C400002E0786801F0FEF900BF0837BD4680BD7C
:104C5000001D0022041D002280B400AF044BB3F9F4
:104C600000309BB21846BD465DF8047B704700BF1C
:104C7000001D002280B483B000AF78607B687A6842
:104C80005A607B685A687B681A6000BF0C37BD4663
:104C90005DF8047B704780B483B000AF78607B68B8
:104CA0001B687A6852685A607B685B687A68126829
:104CB0001A607B687A685A607B685A687B681A60F9
:104CC00000BF0C37BD465DF8047B704780B582B0ED
:104CD00000AF00F029F9786001F0B0F93860786829
:104CE000FFF73EFF7B685C33184600F0DBFD7B6816
:104CF000012283F838207868FBF71CFC386801F043
:104D0000A1F9FFF7EFFD00BF0837BD4680BDFFFFEB
:104D100080B584B000AF78607B68FB60FB68002BD7
:104D200004D18B2219491A48FEF7A6FDFB6893F8B7
:104D3000383003F00403002B04D18C2213491548AA
:104D4000FEF79AFDF868FFF73FFC0346012B04D0FD
:104D50008D220E491048FEF78FFD01F06FF9B86003
:104D6000FB686FF073025A63FB6818331846FFF74D
:104D700092FFF868FFF78AFEB86801F063F9FFF761
:104D8000B1FD00BF1037BD4680BD00BFDC7502021B
:104D90007C73020290730202D473020280B586B063
:104DA00002AFF860B9607A603B60FB681833184660
:104DB000FFF760FFFB687A685A62FB683A689A629C
:104DC000FB68BA69DA62FB68FA691A63FB68D86A39
:104DD000FB681B6B1A462321FDF7E0FCFB68586A51
:104DE000FB68996AFB68DA6AFB681B6B043B1A4430
:104DF0002C4B01F0C9F90246FB681A6297F8203083
:104E00001F2B04D9C62228492848FEF735FDFB6828
:104E100097F8202083F83A20FB6897F8202083F841
:104E20003920FB680022DA63FB6840331846FFF73D
:104E300021FFFB6800229A64FB680022DA64FB68A9
:104E4000002283F85020FB687A6A5A65FB687A6A08
:104E50009A65FB6800225A63FB68002283F83820B9
:104E6000FB680022C3F88C20FB680022C3F8902066
:104E7000FB6803F15C00F9680023019300230093B1
:104E8000FB680B4A00F0D0FC0A4B1B68002B03D0D8
:104E9000084B1B68F8689847002318461037BD4632
:104EA00080BD00BFCD4C0002EC75020218740202F6
:104EB000114D00021C1D002280B588B004AFF860BF
:104EC000B9607A603B60FB68002B05D14FF4A57296
:104ED00012491348FEF7D0FCBB69002B05D140F204
:104EE0004B120E490F48FEF7C7FCBA680121F8685B
:104EF000FFF712FA7B6A039397F820300293FB695D
:104F00000193BB6900933B687A68B968F868FFF75A
:104F100045FF034618461037BD4680BDFC750202AA
:104F20007C7302023C74020280B400AF034B1B6826
:104F30001846BD465DF8047B704700BF041D002283
:104F400080B582B000AF78607B68002B05D140F25D
:104F50007D121C491C48FEF78FFC7B6893F83830A3
:104F600003F00703002B05D04FF4BF721549174813
:104F7000FEF782FC7868FFF727FB0346012B05D07C
:104F800040F27F120F491248FEF776FC7B6893F8D7
:104F900039301A46012393401A467B68DA637B68EE
:104FA000042283F83820786800F028FBFFF7BCFF64
:104FB0000346002B01D0FFF795FC00231846083765
:104FC000BD4680BD0C7602027C730202547402025C
:104FD000D473020280B584B000AF78607B68002B88
:104FE00005D14FF4D4722E492E48FEF745FC78685F
:104FF000FFF7EAFA0346012B05D040F2A91228492F
:105000002948FEF739FC7868FFF7C0FA0346002B01
:1050100005D14FF4D57222492448FEF72DFC7B6858
:1050200093F8383003F00703012B01D1002332E05D
:105030007B6893F8383003F00703002B02D07868C0
:10504000FFF78EFD00F0FAFFF8607B685C331846CE
:1050500000F028FC7B68012283F838207B689B6C79
:10506000002B11D07B689B6C1846FFF7ADFA034606
:10507000032B09D17B689B6CBB607968B868FBF730
:105080006FFF7B6800229A647868FBF753FAF86830
:1050900000F0D8FF002318461037BD4680BD00BF82
:1050A000207602027C730202D47302028C74020224
:1050B00080B58AB004AFF860B9607A603B60F96887
:1050C0000120FFF7B9F978617B69002B01D100233A
:1050D0001BE03868FEF758FB38613B69002B04D1B0
:1050E0007869FFF715FA00230FE07B6A039397F8BE
:1050F000203002933B6801933B6900937B68BA6858
:10510000F9687869FFF74AFE7B6918461837BD468B
:1051100080BDFFFF80B584B000AF78607B68002B56
:1051200005D140F219222E492E48FEF7A5FB7868DA
:10513000FFF74AFA0346012B05D040F21A2228490C
:105140002948FEF799FB7868FFF720FA0346002B01
:1051500005D040F21B2222492448FEF78DFB7B68D4
:1051600093F8383003F00703012B01D1002332E01C
:105170007B6893F8383003F00703002B02D078687F
:10518000FFF7EEFC00F05AFFF8607B685C331846CE
:1051900000F088FB7B68012283F838207B689B6CD9
:1051A000002B11D07B689B6C1846FFF70DFA034665
:1051B000032B09D17B689B6CBB607968B868FBF7EF
:1051C000CFFE7B6800229A647868FBF7B3F9F86831
:1051D00000F038FF002318461037BD4680BD00BFE1
:1051E000347602027C730202D4730202BC7402029F
:1051F00080B58AB000AF78607B68002B02D16FF079
:10520000150396E0FFF790FE78627B6A002B05D1CC
:1052100040F2722249494A48FEF72EFB786AFFF7AE
:10522000D3F90346012B05D040F273224349454888
:10523000FEF722FBFDF722FA386200F0FFFEF8616C
:10524000FFF70AFD0346002B09D03C493E48FEF714
:10525000F9F940F2762239493C48FEF70DFB3B6AEA
:10526000012B09D135493A48FEF7ECF940F2762294
:1052700032493648FEF700FB00F0E0FEB861FFF768
:1052800053FE0346002B09D12C493248FEF7DAF9C8
:1052900040F2762229492D48FEF7EEFA00F0CEFEC4
:1052A0007861FDF7D7F90346002B09D023492A4836
:1052B000FEF7C8F940F2762220492448FEF7DCFACE
:1052C000786900F0BFFEB86900F0BCFEF86900F034
:1052D000B9FE00F0B3FE38617B6A00225A630021F8
:1052E000786A00F01DF9F860FB68002B1DD17B6A1D
:1052F0005C333A1D0021184600F07CFC7B6A5C336D
:10530000184600F017FB386900F09CFE7B6A6FF0CE
:1053100003025A63FFF7E6FA7B6A5B6B13F1740FC3
:1053200006D17B6A00225A6302E0386900F08AFEE7
:10533000FB6818462837BD4680BD00BF487602028C
:105340007C730202D4730202F87402022475020212
:1053500028750202507502028875020280B582B07B
:1053600000AF78607868FFF743FF034618460837B8
:10537000BD4680BD80B584B000AF78607868FAF72C
:10538000C3FFF860F868FFF733FF0346184610378D
:10539000BD4680BD80B586B000AFF860B9607A6068
:1053A000FB68002B05D14FF4547237493748FEF79C
:1053B00063FAF868FFF708F90346012B05D040F2BD
:1053C000513231493248FEF757FABB68022B09D0F7
:1053D000BB68022B52DCBB68002B34D0BB68012BAE
:1053E00036D04BE000F02AFE3861FB6893F8383085
:1053F00003F00703022B14D1F868FFF7B1FB7B68B9
:105400001A78FB6883F83920FB6893F839301A461C
:10541000012393401A46FB68DA63F868FFF736FB0E
:105420000DE07B681A78FB6883F83920FB6893F8F5
:1054300039301A46012393401A46FB68DA6338690B
:1054400000F000FE1BE0F868FFF77AFD034617E066
:105450006FF015037B61F868FFF798F80346012B9E
:1054600004D1F868FFF7B6FD786103E0F868FFF74C
:1054700051FE7861FFF736FA7B6901E000BF002337
:1054800018461837BD4680BD587602027C7302026A
:10549000D473020280B584B000AF7860396007230E
:1054A000FB737B68002B05D140F2B33219491A48CF
:1054B000FEF7E2F93B68022B0FD03B68022B0FDCB2
:1054C0003B68002B03D03B68012B03D008E004238A
:1054D000FB730CE00623FB7309E00723FB7306E074
:1054E0004FF470720B490D48FEF7C6F900BF7B6898
:1054F00093F838305BB223F007035AB297F90F30B4
:1055000013435BB2DAB27B6883F8382000BF1037F0
:10551000BD4680BD6C7602027C73020224750202D5
:1055200080B584B000AF786039607B68002B05D10E
:105530004FF477722C492D48FEF79EF97868FFF7F3
:1055400043F80346012B05D040F2DD3226492848B6
:10555000FEF792F9FFF7E8FC02467B68934205D01C
:1055600040F2DE3220492348FEF786F97B6893F843
:10557000383003F00703FB60FB68022B05D0FB68A3
:10558000032B02D06FF0FE0329E000F057FDB86056
:10559000FB68032B0BD1FFF7C7FC02467B689342E5
:1055A00005D040F2EE3210491248FEF765F97868EE
:1055B000FFF7D6FA39687868FFF76CFF7B685C33D1
:1055C000184600F0CBFAB86800F03CFD0A4B1B68A7
:1055D000002B03D0084B1B687868984700231846B7
:1055E0001037BD4680BD00BF887602027C73020280
:1055F000D4730202C0750202141D002280B584B06B
:1056000000AF78607B68002B05D140F21B421D493A
:105610001D48FEF731F97868FEF7D6FF0346012BE7
:1056200005D040F21C4217491848FEF725F97B685F
:1056300093F8383003F00403002B02D16FF0FE031F
:105640001BE000F0FBFCF8607B6818331846FFF79E
:1056500022FB7B685C33184600F080FAF86800F0A3
:10566000F1FC7868FFF712FA094B1B68002B03D096
:10567000074B1B6878689847002318461037BD46CB
:1056800080BD00BFA47602027C730202D4730202C2
:10569000181D002280B483B000AF78607B687A6800
:1056A0005A607B685A687B681A6000BF0C37BD4639
:1056B0005DF8047B704780B483B000AF78603960D8
:1056C0007B681B683A685A607B681A683B681A6096
:1056D0007B683A681A603B687A685A6000BF0C378A
:1056E000BD465DF8047B704780B483B000AF78603E
:1056F0007B681B687A6852685A607B685B687A6866
:1057000012681A607B687A685A607B685A687B689E
:105710001A6000BF0C37BD465DF8047B704780B44B
:1057200083B000AF78607B681B687A689A420CBFD0
:1057300001230023DBB218460C37BD465DF8047B1D
:10574000704780B586B000AFF860B9607A603B60A2
:10575000FB6897F820205A73FB685B7B23F00103FA
:10576000DAB2FB685A73FB68BA681A62FB687A6837
:105770005A62FB680022DA62FB683A689A62002388
:105780007B610AE07B690333DB00FA681344184647
:10579000FFF780FF7B6901337B617B69002BF1DDC3
:1057A00000BF00BF1837BD4680BD80B584B000AFD4
:1057B0007860396000F042FCF8607868FFF7AFFF6E
:1057C0000346002B0CD17B681B68183BBB60BB6891
:1057D000DA6A3B681A60F86800F034FC002304E0E1
:1057E000F86800F02FFC6FF0FE0318461037BD4636
:1057F00080BD80B584B000AF78600023FB600AE014
:10580000FB680333DB007A6813441846FFF76CFF2C
:10581000FB680133FB60FB68002BF1DD00BF00BFBC
:105820001037BD4680BDFFFF80B586B002AFF8607F
:10583000B9607A603B60FB68002B05D14FF48A7237
:1058400014491548FEF718F87B68002B05D140F283
:10585000151210491148FEF70FF8BB696FF00042AE
:10586000934205D34FF48B720A490D48FEF704F8B2
:10587000FB68BA680A211846FEF74EFD3B7F00938D
:10588000BB693A687968F868FFF75BFF00BF1037BB
:10589000BD4680BDC8770202B8760202CC7602020D
:1058A000E076020280B584B000AF78607B68002BA0
:1058B00005D140F22B121B491B48FDF7DDFF7B6829
:1058C0001846FEF781FE03460A2B05D04FF4967268
:1058D00014491648FDF7D0FF7B681846FEF756FEC0
:1058E0000346002B05D140F22D120E491048FDF75A
:1058F000C3FF00F0A3FBF8607868FFF77AFF7B68CE
:105900005B7B23F00103DAB27B685A73F86800F01E
:1059100099FB7B681846FEF761FD00231846103797
:10592000BD4680BDD8770202B8760202F876020240
:105930003477020280B58AB000AF78607B68002BB4
:1059400005D14FF4D3727C497C48FDF795FF7B6805
:105950001846FEF739FE03460A2B05D040F2A7127F
:1059600075497748FDF788FF0023FB6100F066FB6F
:1059700078617868FFF73DFF7B685B7B23F001036C
:10598000DAB27B685A736F4B1B68002B04D06D4BE7
:105990001B687A6810469847FAF76CFC02467B68E9
:1059A0009B6A1A447B68DA627B685B7B03F00403C2
:1059B000002B02D0644B3B6201E0644B3B623B6ACC
:1059C000BB6000237B6255E07B6A9B0007F12802E5
:1059D000134453F8203C1B683B617B6ADB0018339F
:1059E0005B423A691344FB60FB68DA6A7B68DB6AF6
:1059F0009A4209D0FB68DA6A7B68DB6AD31A6FF0D7
:105A0000004293421FD300E000BF7B6A9B0007F176
:105A10002802134453F8203C1A687B6A9B0007F164
:105A200028010B4443F8202C7B6A9B0007F12802D5
:105A3000134453F8202C7B6ADB00396A0B445B6803
:105A40009A42C1D100E000BF7B6A002B0FD07B6A75
:105A50009B0007F12802134453F8202C7B6A013382
:105A600008329B0007F128010B4443F8202C7B6A85
:105A700001337B627B6A002BD6D0354B1B68013328
:105A8000334A1360324B1B68BB61BA687B681833BA
:105A900019461046FFF70FFE02237B621DE0BB692B
:105AA00003F00303002B1CD17B6AC3F101039B00AD
:105AB00007F12802134453F8200C7B6AC3F1010359
:105AC0000333DB007A6813441946FFF7F4FDBB6922
:105AD0009B08BB617B6A01337B627B6A012BDED949
