:020000040200F8
:10000000A0580122411A0002F50A0002A3030002CF
:10001000EF0A0002EF0A0002EF0A0002EF0A0002F4
:10002000000000000000000000000000EF0A0002D5
:10003000EF0A000200000000DB020002B51A000215
:1000400067FA01026DFB01021BFB0102E1F90102EB
:1000500085500102F90302025F0502029B040202BD
:100060002B0302020000000000000000000000005E
:100070000000000000000000000000000000000080
:100080000000000000000000000000000000000070
:100090000000000000000000000000000000000060
:1000A0000000000000000000000000000000000050
:1000B0000000000000000000000000000000000040
:1000C0000000000000000000000000000000000030
:1000D0000000000000000000000000000000000020
:1000E0000000000000000000000000000000000010
:1000F0000000000000000000000000000000000000
:1001000000000000000000000000000000000000EF
:1001100000000000000000000000000000000000DF
:1001200000000000000000000000000000000000CF
:1001300000000000000000000000000000000000BF
:1001400000000000000000000000000000000000AF
:10015000000000000000000000000000000000009F
:10016000000000000000000000000000000000008F
:10017000000000000000000000000000000000007F
:10018000000000000000000000000000000000006F
:10019000000000000000000000000000000000005F
:1001A000000000000000000000000000000000004F
:1001B000000000000000000000000000000000003F
:1001C00000F002F800F047F80AA090E8000C824422
:1001D0008344AAF10107DA4501D100F03CF8AFF2FF
:1001E000090EBAE80F0013F0010F18BFFB1A43F015
:1001F0000103184730B6020050B60200103A24BF7F
:1002000078C878C1FAD8520724BF30C830C144BF7B
:1002100004680C60704700000023002400250026BD
:10022000103A28BF78C1FBD8520728BF30C148BF59
:100230000B6070471FB527F011F800F086F900F049
:10024000AFFB04000020002126F0F2FF401C60609C
:100250001FBD10B510BDDFF810D0FFF7EBFF00F0A9
:1002600041FC00F036FC0000A038012203B4FFF787
:10027000F0FF03BC03F0BEFA0B49D1F800C04A6896
:100280005CF8043B1068184442F8040B8C4528BF06
:10029000A1F1DC0C8A4228BFA1F1DC02C1F800C048
:1002A0004A6020F0004070475C060022EFF31080A7
:1002B00072B6704780F310887047484A1368012B64
:1002C00004D04FF001031360454A1060454A1160A5
:1002D00045484FF0805101607047EFF3108272B6CD
:1002E0003E48016879B34FF0000101603C48016865
:1002F00091B1EFF309811EF0100F08BF21ED108BB3
:1003000021E9F00F4FF000041EF0100F08BF012488
:1003100041F8044D0068016000B501F0F9FC5DF89A
:1003200004EB30490968096808C9B1E8F00F002BEF
:1003300018BFB1EC108B81F309884EF0100E002B22
:1003400018BF2EF0100E82F310884EF0040E704786
:1003500024490860EFF3148222F0040282F3148827
:100360001F494FF0000008601C494FF00100086071
:100370001E481F49D0F8002041EA020101601A48D6
:100380004FF0805101601B480068006800BF80F397
:10039000088861B662B6BFF34F8FBFF36F8F7047A7
:1003A00000BFEFF308801EF0040F01D0EFF30980C7
:1003B00020E9F00F40F804ED40F804ED1EF0040FC2
:1003C00002D080F3098801E080F3088800B516F0B8
:1003D00017FF5DF804EB4EF0040E7047BCC100221D
:1003E000F0BF0022FCBF002204ED00E020ED00E0A1
:1003F0000000FFFF08ED00E07047000010B500F0BE
:10040000CFFA001D10BD00BF296E020000487047E2
:100410006406002253EA020C00F069802DE9F04BDB
:100420004FF00006002B1FBFB3FA83F503FA05F463
:1004300024FA05F65E4012BF1643B2FA82F502FABC
:1004400005F4C5F120051EBF22FA05FC44EA0C04A0
:10045000203556EA044C4FEA144418BF641C4FF090
:1004600000084FF00009904271EB030C39D30029CA
:1004700019BFB1FA81F701FA07F6B0FA80F700FA6E
:1004800007F6C7F120071EBF20FA07FC46EA0C0654
:100490002037B6FBF4FCA7EB0507103F07F01F0B56
:1004A000CBF120062CFA06F60CFA0BFB44BFB34640
:1004B0000026202FA4BF5E464FF0000B5BEA060C1F
:1004C00008BF4FF0010B19EB0B0948EB0608ABFB1B
:1004D000027C06FB02CC0BFB03CCC01B71EB0C01B6
:1004E000C1E70B46024641464846BDE8F08B13B5CE
:1004F000084318BF4FF0FF300146AFF30080BDE85E
:100500001C40704770B50646FFF780FF046805463B
:1005100030460A22002100F047FA2C6070BD00002E
:100520000B4910B5A1F17C020A4CC2E93712372100
:1005300006E000EB104342F82130074B00FB03407C
:100540000B1EA1F10101F4DC10BD0120E8E7000061
:10055000FC050022E119D666CD0D0100401ECAB28D
:1005600010F8011F8A4202D00029F9D100207047FB
:1005700030B505460B462A4613F8014B12F8010B1D
:1005800008B1A042F8D01CB1002802D06D1CF1E7E0
:10059000284630BD40EA010310B59B070FD1042A5D
:1005A0000DD310C808C9121F9C42F8D020BA19BA3E
:1005B000884201D9012010BD4FF0FF3010BD1AB1A3
:1005C000D30703D0521C07E0002010BD10F8013BF8
:1005D00011F8014B1B1B07D110F8013B11F8014B1F
:1005E0001B1B01D1921EF1D1184610BD40EA010338
:1005F000024630B59B0710D14FF0013400E008C22D
:1006000008C91D1B9D4315EAC41FF8D013F0FF0154
:1006100002F8011B0DD01B0AF8E711F8013B002B73
:1006200002F8013B05D011F8013B002B02F8013B19
:10063000F3D130BD0022CBB210F8011B994200D19A
:10064000421E0029F8D11046704710B5431C02E045
:1006500010F8011B71B18107FAD14FF0013202C8C5
:100660008C1A8C4314EAC211F9D0C01A0A0603D0BE
:10067000C01E10BDC01A10BD0A0401D0801E10BDDE
:100680000902FCD0401E10BD40EA010370B59B0773
:100690002ED14FF00136042A2AD308C810C99D1B59
:1006A0009D43121F15EAC61517D0D8B2E1B2401A01
:1006B00050EA056110D198B2A1B2401A50EA054142
:1006C0000AD123F07F4024F07F41401A50EA0521EF
:1006D00002D1180EA0EB146070BDA342DBD018BA93
:1006E00021BA884201D9012070BD4FF0FF3070BDA2
:1006F0000AB9002070BD10F8013B11F8014B63B13D
:10070000A3420AD1521E08D010F8013B11F8014B48
:100710001BB1A34201D1521EEDD1181B70BD421E68
:1007200012F8013F002BFBD111F8013B002B02F81E
:10073000013BF9D17047032A40F2308010F0030CDE
:1007400000F0158011F8013BBCF1020F624498BF24
:1007500011F801CB00F8013B38BF11F8013BA2F1C1
:10076000040298BF00F801CB38BF00F8013B11F03C
:10077000030300F02580083AC0F0088051F8043BDC
:10078000083A51F804CBA0E80810F5E7121D5CBF49
:1007900051F8043B40F8043BAFF30080D20724BF7C
:1007A00011F8013B11F801CB48BF11F8012B24BF10
:1007B00000F8013B00F801CB48BF00F8012B70475F
:1007C00010B5203AC0F00B80B1E81850A0E81850DE
:1007D000B1E81850A0E81850203ABFF4F5AF5FEA2E
:1007E000027C24BFB1E81850A0E8185044BF18C9D3
:1007F00018C0BDE810405FEA827C24BF51F8043B7A
:1008000040F8043B08BF7047D20728BF31F8023BCD
:1008100048BF11F8012B28BF20F8023B48BF00F861
:10082000012B704702F0FF0343EA032242EA02422F
:1008300000F002B84FF000020429C0F0128010F05E
:10084000030C00F01B80CCF1040CBCF1020F18BFAC
:1008500000F8012BA8BF20F8022BA1EB0C0100F03F
:100860000DB85FEAC17C24BF00F8012B00F8012B12
:1008700048BF00F8012B70474FF0000200B5134647
:1008800094469646203922BFA0E80C50A0E80C50B0
:10089000B1F12001BFF4F7AF090728BFA0E80C5061
:1008A00048BF0CC05DF804EB890028BF40F8042B5A
:1008B00008BF704748BF20F8022B11F0804F18BFC7
:1008C00000F8012B704710B5044610F0030F08BF65
:1008D00011F0030F40F015804FF0013E121FC0F2DF
:1008E0000E8051F8043BA3EB0E0C2CEA030C1CEA1F
:1008F000CE1C08BF40F8043BF0D0A1F1040102F186
:100900000402521E08DB11F8013B00F8013B002BEA
:10091000F7D11146FFF78EFF204610BD0000000002
:1009200030B44FF0013C50F8042B51F8043BCCFAA2
:1009300052F4D51A20D1FCB950F8042B51F8043BDD
:10094000CCFA52F4D51A17D1B4B950F8042B51F897
:10095000043BCCFA52F4D51A0ED16CB950F8042BE2
:1009600051F8043BCCFA52F4D51A05D1002CDAD058
:1009700030BC4FF00000704729BAB1FA81F111F094
:100980001801D1F120008440F2D1CA40CB4012F0CE
:10099000FF0213F0FF0330BCD01A7047704700000D
:1009A00000487047840600222DE9F04791460F4623
:1009B00080460446002614F8015B2DB1FFF71EFDAA
:1009C0000068405DC007F6D12B2D02D02D2D18D028
:1009D000641E4A463946204600F01EF827B13968A1
:1009E000A14201D1C7F800804FF0020471050BD578
:1009F0004042002803DDFFF709FD0460A007BDE8C1
:100A0000F08746F48066E4E70028F8DAFFF7FEFC9A
:100A100004606FF00040F2E72DE9F05F8246154672
:100A20008B4600270AF10104B9460078302801D02E
:100A30009DB113E014F8010B0127782803D0582842
:100A400001D045B10AE00DB1102D07D1002714F8EF
:100A5000010B102502E0082500E00A250026B0461B
:100A60000EE005FB080005FB06F101271FFA80F8E0
:100A700001EB1046B6F5803F00D3B94614F8010BE0
:100A8000294600F018F80028EBDABBF1000F05D07A
:100A90000FB1641E00E05446CBF80040B9F1000FDE
:100AA00006D0FFF7B3FC02210160C81EBDE8F09F2D
:100AB00048EA0640FAE73A2800D2303820F020020F
:100AC000412A01D3A2F13700884201D34FF0FF3011
:100AD000704710B50446AFF300802046BDE81040D3
:100AE000FFF7C4BB80B51EF088FA002080BD00BEB1
:100AF00070470000F0B581B04CF2001542F2E007FB
:100B0000C4F200050024C2F200272888298C08407E
:100B100086B200BF26FA04F0C00703D0396809B1D5
:100B20002046884701340437102CF3D12E8200BFB1
:100B3000288C3042FCD101B0F0BD0000B0B542F2CB
:100B40002404C820C4F2200401210025257100F0EE
:100B500082F82570207808B12FF005C0207840F089
:100B60000200207020788007FCD4002004F8020CDA
:100B700014F8020C08B12FF005C84FF0030E002046
:100B800004F11C0111F8102002F07F0201F810207E
:100B900011F91020002AFBD401300FF00DC80120FC
:100BA00000F00BF84EF64C410120C4F20101002286
:100BB0000A70BDE8B04000F027B880B5EFF31081AF
:100BC000012282F3108842F24412C2F2002232F86B
:100BD00010308BB947F2544C4EF2FA3EC0F2022C60
:100BE000C4F2010E3CF810C0BEF8003043EA0C031A
:100BF00043F42543AEF8003032F81030013322F8C8
:100C0000103081F3108880BDEFF31081012282F350
:100C1000108842F24412C2F2002232F8103023B19E
:100C200032F81030013B22F8103032F810207AB937
:100C30004EF2FA3247F2544CC4F20102C0F2022CD6
:100C400013883CF8100043F4254323EA0000108089
:100C500081F31088704740F2C4624CF60023C2F260
:100C60000022C3F69A3341434FF47A7C1268B3FBF7
:100C7000F2F2A1FB0C3010B9B3FBF2F004E0B1FBCF
:100C8000F2F0A0FB0C0119B908B103F021BA7047CA
:100C90004FF0FF3003F01CBA4FF66801C2F200219A
:100CA00051F8200070477047022818BF704747F678
:100CB0008C20C0F20220416842F23410C2F20020BF
:100CC00000F0AAB9014640684CF2003240F2004CF4
:100CD000C4F20002C2F2002C52F8203023F08073DC
:100CE00042F820304A68002000230B604CF8223084
:100CF000704741684CF20032C4F20002002052F802
:100D0000213023F0807342F82130704741684CF263
:100D10000032C4F20002002052F8213043F0807308
:100D200042F821307047406840F20042C2F200228F
:100D300052F820000022C1E90022C278402A05D2E0
:100D40004FF480328A60C089C8600FE04FF480722F
:100D50008A60C289D2B2CA60C27802F0C002802A18
:100D600004D14FF480320A608089486000207047C7
:100D70002DE9F0414BF6FC4240F20046C2F200225F
:100D80000D460446C2F20026137813BB43F200005E
:100D90004FF00108C4F2200082F80080EFF31087C2
:100DA00088F31088016821F48001016000689620B2
:100DB0000121FFF750FF87F310884FF4C0713046D0
:100DC000FFF75AFD4AF60C40C4F20000866080F836
:100DD000008068680068002805D456F8201029B102
:100DE0000820BDE8F0810B20BDE8F0812968606033
:100DF00011B1204614F024F944F20030C4F25440FA
:100E000020600020BDE8F081B0B5044640684CF297
:100E10000035C4F2000555F8202022F0807245F814
:100E2000202060684AF60E4240F40040C4F20002FE
:100E300013889842FCD0204614F002F96168002023
:100E400055F8212042F0807245F82120B0BD0620DF
:100E500070470000B0B582B00191009241684CF239
:100E6000003CC4F2000C4AF60E44C4F200045CF8E4
:100E7000212022F080724CF82120416841F4004189
:100E800022889142FCD00821A170019940F2004EC5
:100E9000C2F2002E21B1019942685EF82220516011
:100EA000009929B1009A41685EF82150AA6000E0DB
:100EB00041685EF821E09EF8031001F0C002802A2C
:100EC00002D1AEF80C3003E03F2998BFAEF80E30E7
:100ED0001821A170416800205CF8212042F0807246
:100EE0004CF8212002B0B0BD0620704706207047A4
:100EF00001464068002817D44EF2801C00F01F0203
:100F00004009CEF2000C012303FA02F24CF8202033
:100F1000BFF34F8FBFF36F8F486842F2C012C2F227
:100F20000022002342F82030002000220A6070478F
:100F300040684EF2801300F01F014009CEF200031A
:100F4000012202FA01F143F820100020BFF34F8F75
:100F5000BFF36F8F704740684CF20031C4F200015C
:100F60004EF2001CCEF2000C51F8202022F4803208
:100F700041F8202051F82010410900F01F00012203
:100F80000CEB810302FA00F0BFF35F8FC3F880011E
:100F90004CF821000020704770B546F2000C4B68F9
:100FA000C4F2000C43600CF5C64E024600245EF805
:100FB00023004EF823400B784D69D5608D6915618B
:100FC000137203F80C400B7B0C7C0D7A167A1B0114
:100FD00043EAC4132B4306F80C3053684EF8230041
:100FE000506800280CD44EF2004342F2C0164978F3
:100FF000CEF20003C2F200260901C15446F82020B7
:1010000044F255310020C0F24901116070BD014623
:10101000002000220A60704780B545F25422C5F2D4
:101020004F020260084614F067F8002080BD70B5DA
:1010300086B001A8049003A814460D46CDE901210D
:101040000126ADF80C6003F047F842F24C10EFF3C4
:101050001081C2F2002086F3108802683AB940F687
:1010600014520023C4F2400213704023137002682C
:101070000132026081F31088E10340F600014FEA7B
:101080001522C4F2400101D4EBB20CE001EB821650
:10109000EBB256F8235025F4803546F8235024F45B
:1010A000803546F8235001EB8211012241F823409C
:1010B000EFF3108182F31088026812B10268013ADE
:1010C0000260006838B940F614500022C4F24000B3
:1010D00002708022027081F31088002006B070BD7B
:1010E0004FF4FF50042300EAD100C4F24003C9B218
:1010F000C0580023CFF6FF7343EA104020FA01F1F5
:10110000002001F001011160704780B5C8B24FF0B6
:10111000010C531E0CFA00F050EA138E4FF4FF5CE2
:101120000C230CEAD101C4F24003012A18BF0020AD
:10113000012A41EA030CCA5808D180B24FF6FF7168
:1011400041EA0E41104300EA010205E042EA0E4185
:10115000CFF6FF7001EA00020020CCF8002080BD2D
:101160006FF03F00CBB200EA910040F6000100EBC7
:101170008300C4F2400141580020C1F340011160D6
:10118000704780B55FFA81FE012000FA0EF0002A58
:1011900083B24FF4FF5040F208024FF4803C00EA63
:1011A000D101C4F240024FF0000008BF0CFA0EF368
:1011B0008B5080BD80B5084613F09EFF002080BD97
:1011C00080B54FF4FF5040F2000C00EAD101C4F2A8
:1011D000400C03EA020E62EA030251F80C004EEAE8
:1011E000000E002002EA0E0241F80C2080BD4FF4F0
:1011F000FF5000EAD1000421C4F240014158002010
:10120000090C1180704723EA020C4FF4FF501A407A
:101210000C2300EAD101C4F24003002042EA0C4250
:10122000CA5070474FF4FF50042300EAD101C4F2C2
:1012300040030020C9581180704723EA020C4FF484
:10124000FF501A40082300EAD101C4F240030020F5
:1012500042EA0C42CA5070472DE9F04F81B00A783B
:101260004FF0010C40F21F2304460CFA02F748F23B
:1012700000001F42C4F235005FEA0F9300EB02202A
:10128000A278206218012070886B606222F003004F
:10129000D1E90F38421CA2704A680D46002AE36269
:1012A000E1614FF00002A26202D140F00200A070A2
:1012B0004EF20019E96ACEF200094A0909F18000EC
:1012C00001F01F034CF2003A95F828B00CFA03F332
:1012D00040F82230C4F2000A01F00F03BFF34F8F31
:1012E000BFF36F8F5AF821201F1F09F540734EF688
:1012F000185E22F480324AF82120CEF2000E5E18E9
:101300005AF82120002948BF07EB0E064FEA0B12BE
:1013100042F2C01B3270C2F2002B6A6902F01F0653
:101320002F7C4BF8214051090CFA06F6002A40F8B0
:10133000216002F00F06BFF34F8FBFF36F8F5AF893
:10134000221021F480314AF82210A6F1040103EBA7
:10135000020648BF01EB0E065AF82210390131701F
:10136000E9694BF822404A0901F01F072E7E0CFA6A
:1013700007F740F8227001F00F07BFF34F8FBFF35C
:101380006F8F5AF82120002922F480324AF8212058
:10139000A7F1040203EB010748BF02EB0E075AF85E
:1013A000212032013A706A6A4BF82140510902F05B
:1013B0001F0795F820600CFA07F740F8217002F03B
:1013C0000F01BFF34F8FBFF36F8F5AF8220004391C
:1013D00020F480304AF8220013445AF82200002AF0
:1013E00048BF01EB0E03300118704BF82240EFF3B9
:1013F00010868CF3108828784FF0004121FA00F015
:1014000043F20401C4F220010A6822EA00000860E5
:10141000086896200121FFF71EFC86F310884FF420
:101420008061206A4FF440738160286C6968EA68C3
:1014300003EA0121D0E900C762F38E31C66907F0E3
:10144000010306F001020CF0030741EAC333266AE8
:1014500043EA4252237842EA076241F20007C0F2AF
:101460001007C168002B08BF4FF480573A447261DF
:10147000026822F00103022B07D14FF60471022A01
:10148000CFF6007108BF203100E00968226A4FF4EE
:10149000407711618169AB68826801F00301022B1A
:1014A00002F0010208BF4FF48077002B18BF3944C7
:1014B000236A41EA02713031D9600021226A9161C8
:1014C0002278B2B1226A48F20003C0F2800353626C
:1014D000E2692378276A126C013B12697E6A1A401E
:1014E00003F00F0302F00F0246EA036343EA0242ED
:1014F0007A6290F82520036A90F8240003F0010333
:1015000002F01F0260F30C23206A43EA02420263E6
:101510001022206AC4E90511C4E90311C9F6075273
:10152000D8F81410A16082660120216A0867E16979
:101530004A6953095AF8221021F480314AF82210DE
:101540005AF8221009F5C07102F01F02BFF35F8F35
:1015500000FA02F241F8232049F82320E269D26A16
:101560005AF8223023F480334AF822305AF82230D5
:10157000530902F01F02BFF35F8F00FA02F241F835
:10158000232049F82320E269D2695AF8223023F453
:1015900080334AF822305AF82230530902F01F02F1
:1015A000BFF35F8F00FA02F241F8232049F82320AD
:1015B000E269526A5AF8223023F480334AF8223022
:1015C0005AF82230530902F01F02BFF35F8F904098
:1015D00041F8230049F8230040F21141206AC0F28B
:1015E00001018160206A00BF017FC907FCD044F679
:1015F00042110020C5F24331616001B0BDE8F08FB7
:1016000070B505464EF2200001291446C4F20100CF
:1016100012D10168027942EA113002F00F0200078C
:10162000C1F3033012D440F2C461C2F20021096850
:10163000914021FA00F039E090F8361001F00F01E6
:10164000022923D8012202FA01F627E002F007035B
:101650004FF0030C0CFA03F34FF0010E082A4FEA87
:10166000113638BF0EFA02F340F2C46206F00706E4
:10167000C2F200220CFA06F60904126803FB02F219
:1016800058BF0EFA00F6B2FBF6F00FE0033902295C
:1016900003D81DA252F8216000E0052690F837001B
:1016A00000F00F00FFF7F8FAB0FBF6F0284401381D
:1016B000B0FBF5F0B0F5805F01D9062070BD0228BF
:1016C00005D2607800F0FC006070002019E04FF057
:1016D000FF314FF4007200BF0131032903D802FA31
:1016E00001F39842F8D8022263788A40104401F04E
:1016F000030201380131C84003F0FC0301381A44E9
:1017000062702070002070BD06000000080000001C
:10171000030000002DE9F04F83B00D4609784CF22C
:1017200000098246EF6AC4F2350909EB01247FB152
:1017300078684FF00061006801607968BB683868BC
:101740000A6894601A6890470646002840F059815C
:10175000286BB0B141684FF4002209680A60416803
:10176000836800680A6854601A689047064628B182
:1017700027B1B9683868096A884742E1002E40F00D
:101780004081686BCAF824002878A96BCAF82C102D
:10179000296ACAF80450AA6A09EB0020CAF80800AE
:1017A000EE6B4FF0000BD5E90650CAF828B040EABE
:1017B000410096F8211040EA0234D6E90037D6E914
:1017C000038224F0E064B0680190D6E905C002907D
:1017D00053EA050001F0030008BF44F0800496F8C6
:1017E00020E044EA0861002D41EA8005F46902D056
:1017F0004FF444160AE0D6E9091045F46045F66A4C
:1018000041EA002040EA064BA9F5962646EAC47054
:10181000002B18BF40F080704FF48071002F08BF7C
:1018200040F40030BCF1010FA94608BF4FF44071ED
:1018300041EA0771BCF1000F08BF39070127EFF338
:10184000108687F3108840EA0104DAF804304FF478
:101850000010022A197843F20403C4F22003C1F1F4
:10186000130108BF4FF4401007FA01F1002A50EAB3
:1018700012871868884318600198196800FA08F000
:1018800040EA0E2596200121FFF7E5F986F310883E
:101890000021DAF80800CFF680514EF200134EF620
:1018A000185C8166CEF20003DAF80800CEF2000C74
:1018B00042F2C01E4FF001080561C2F2002EDAF8B4
:1018C0000800C0F804B0DAF80800C760DAF80800C9
:1018D000C0F81490DAF808000299016424F08041FD
:1018E000DAF808008160DAF8080081688460DAF8C4
:1018F000040003F540718768427D07F00F00CD19A1
:10190000061F002F48BF06EB0C054CF200361201F3
:10191000C4F200062A704EF827A07C0956F827501A
:1019200025F4803546F8275056F8275003F5C07542
:1019300007F01F07BFF35F8F08FA07F745F8247019
:1019400043F82470DAF804707C6804F00F003F7DDF
:1019500004380A19002C48BF00EB0C023801107043
:101960004EF824A004F01F0256F8240008FA02F2F0
:1019700020F4803046F8240056F8240060094FF027
:101980000108BFF35F8F45F8202043F82020DAF8E4
:1019900004000269C07D02F00F048F18043C002A85
:1019A00048BF04EB0C07000138704EF822A056F82F
:1019B000220020F4803046F8220056F82200500918
:1019C00002F01F02BFF35F8F08FA02F245F82020F1
:1019D00043F820200026DAF80400C268807D02F077
:1019E0000F031144043B002A48BF03EB0C01000124
:1019F000087045F249004EF822A0C5F25320CAF8FB
:101A00000000304603B0BDE8F08F80B582B0944648
:101A10000A4600210093634613F00DFC02B080BD1E
:101A200080B582B0944600220093634613F003FC15
:101A300002B080BDDDF800C0CDF800C013F0FBBBE4
:101A400000F086F8FFF74EF8FEE7000080B507F0DB
:101A500099F80FA016F088F949F2CB004FF0D04169
:101A6000C0F202204FF00072102316F07DF90DA095
:101A700016F07AF94FF2C0600CA1C2F200204FF0CC
:101A8000D0424FF0007316F0F7FC002080BD00BF7D
:101A90001B5B306D5B442F6472765F736472616DA3
:101AA0005D2000001B5B306D0A00000073647261F2
:101AB0006D00000080B516F01DF919F0F3FCBDE8CB
:101AC000804016F03AB94EF22401C4F20101887840
:101AD000097801F00F010A2911D009291DD0082920
:101AE00029D14FF66801C2F2002151F820004AF6D0
:101AF000AB21CAF6AA21A0FB0101480822E04FF65B
:101B00006801C2F2002151F820004AF6AB21CAF662
:101B1000AA21A0FB0101C80814E04FF66801C2F237
:101B2000002151F820004AF6AB21CAF6AA21A0FBF9
:101B30000101880806E04FF66802C2F2002252F85E
:101B40002000C84040F2C461C2F200210860704722
:101B50002DE9F0414EF6085840F20120CEF200087F
:101B6000C0F20E0040F200050024C8F80C004FF44B
:101B70007000BFF34F8FBFF36F8FC8F88000002055
:101B8000C0F20025C8F80050FFF78EF802F07CF98B
:101B900001200126FFF788F828684FF2E821A0F518
:101BA000005080F30A8840F28050C0F20001C2F277
:101BB0000020FEF761FE40F200004BF6004140F2CB
:101BC0008052C2F20020C0F20221C0F20002FEF7F1
:101BD000F7FD4CF280174CF280114CF2801C4CF255
:101BE0008013C0F20227C0F20221C0F2022CC0F220
:101BF0000223C91B40F20005A3EB0C03C908C0F285
:101C0000000541F007C800BFF7E80201E5E802015E
:101C10000FF007C0D80840F2000140F20003C2F202
:101C20000001C2F2000340F20007C2F200075D1A91
:101C300040F009C000BF00BFFCE80223E7E8022330
:101C40000FF007C0E808254640F007C000BF00BFFE
:101C5000E1E802450FF005C0BFF34F8F40F2C01519
:101C600040F2C010BFF36F8FC8F84842C0F20025A1
:101C7000C0F20020BFF34F8F401BBFF36F8F811066
:101C8000012909DB2F46C8BF861000BF57F8040B97
:101C900028448047013EF9D1FFF715FFFEF74EFFBC
:101CA0000320FEF78AFF4FF0100E40F63050C4F2CA
:101CB000400000BF20F8044B0FF005C04EF2101496
:101CC0000320C4F20104FEF79FFFD4F8C80210B14C
:101CD000D4F8C80212E0207880B10120FEF76DFF31
:101CE000207800F0C0008028FAD10020207000BFCA
:101CF00020783F28FCD80120FEF786FF0220FEF75F
:101D0000D3FF02F0CFF90020BDE8F04102F0C8B9DE
:101D100080B582B019F0A2F9C06A0190019880F3F1
:101D20000B8802B080BD00004EF60C500422CEF2AB
:101D30000000C0F2FA52BFF34F8F016801F4E06176
:101D400011430160BFF34F8F00BFFDE790FAA0F190
:101D50000028B1FA81F150EA01907047B0B505460C
:101D600019F07CF990B1044609A015F0FDFF0DA013
:101D700021462A4615F0F8FF0FA015F0F5FF0121C6
:101D800000222046BDE8B04018F01CBFB0BD00BF27
:101D90001B5B33336D5B572F7374646C69625D201A
:101DA000000000007468726561643A2573206578EC
:101DB00069743A25642100001B5B306D0A00000045
:101DC0000020704711B102690A4204D04269012320
:101DD0009360FFF7F5BF4FF0FF30704770B5466C6A
:101DE00005463EB948F228601BA1C0F20220B1228C
:101DF00014F0A4FBFEF75AFA044605F1140019F09A
:101E00005FFC28686A68298A42606A6821F00201DA
:101E1000298210603069A842C5E9005508D072686F
:101E200041F00101298213682B6015605D606A60D2
:101E300020B9B06B90F83810490704D42046BDE8AB
:101E40007040FEF737BA19F0C2F82046FEF732FAB2
:101E5000BDE8704017F0D0BB5F64656C6179656464
:101E60005F776F726B5F74696D656F75745F6861C2
:101E70006E646C6572000000F0B581B00C460546DA
:101E800016F082F9C8B9072017F0DEF8064628B91F
:101E90000BA011A140F2153214F050FB56F8047F4C
:101EA000B74209D0A7F11000A84203D0214616F08E
:101EB0006BF910B93F68F3E7002001B0F0BD00BF37
:101EC000696E666F726D6174696F6E20213D20527C
:101ED000545F4E554C4C00005F6D656D68656170D8
:101EE0005F616C6C6F63000016F0F0B9F0B581B003
:101EF0001546074601B30C462DB354F8140C214681
:101F00002A4616F013FB064608BB38462946FFF75B
:101F1000B3FFD8B10646A4F1180054F8101C081AF3
:101F200021461838A84250EA3582304616F0DEF8CD
:101F3000204616F0CBF90AE03846294601B0BDE844
:101F4000F040FFF799BF204616F0C0F90026304652
:101F500001B0F0BDB0B5022803DCBDE8B04000F030
:101F600001B905460C46496858A018F0D3FCD8B111
:101F7000616857A018F0CEFC18B3616856A018F03D
:101F8000C9FC50B3616856A018F0C4FC0028E4D125
:101F9000032DE2D9A0680FF04DFB0028A06860D0A7
:101FA000FEF7B0FA054662E0A06817F027F9B0F135
:101FB000FF3FA16874DD024667A0BDE8B04015F0A0
:101FC000D3BE032DC9D9A0680FF034FB0028A06848
:101FD00020D0FEF797FA054622E0A0680FF02AFB12
:101FE0000028A06803D0FEF78DFA054605E017F03B
:101FF00005F90546B0F1FF3F51DD284617F06AF9B3
:10200000012801D141A000E03CA02946BDE8B04034
:1020100015F0AABE17F0F2F80546B0F1FF3F3EDD1D
:10202000E1683EA018F076FCB8B1E1683DA018F078
:1020300071FCA0B1E1683DA018F06CFCE8B3E16868
:102040003EA018F067FCD0B3E16840A018F062FC35
:1020500000287FF482AF042132E0002130E001212A
:102060002EE017F0CBF80546B0F1FF3F17DDE16831
:102070001DA018F04FFCD0B1E1681DA018F04AFC7B
:10208000A8B1E1681BA018F045FC30B1E1681AA0C6
:1020900018F040FC00287FF460AF002108E0A16840
:1020A00048F28360C0F2022015F05EFE55E7012180
:1020B0002846BDE8B04017F02DB9022100E0032109
:1020C0002846BDE8B04017F0E3B800BF6E756D005C
:1020D0006D6F6465000000007265616400000000BF
:1020E0007772697465000000686967680000000025
:1020F0006F6E00006C6F77006F66660070696E5BD4
:1021000025645D203D206C6F770A000070696E5B6E
:1021100025645D203D20686967680A006F757470EA
:1021200075740000696E707574000000696E7075DA
:10213000745F70756C6C757000000000696E70756E
:10214000745F70756C6C646F776E00006F7574707F
:1021500075745F6F640000002573203A2025640ABF
:102160000000000080B548F29C60C0F2022015F02B
:10217000FBFD48F23170C0F2022015F0F5FD48F287
:10218000AF60C0F2022015F0EFFD48F2A670C0F279
:10219000022015F0E9FD48F20270C0F2022015F0AD
:1021A000E3FD0BA015F0E0FD48F26270C0F20220E2
:1021B00015F0DAFD10A015F0D7FD1BA015F0D4FD29
:1021C00021A015F0D1FD23A0BDE8804017F016B87E
:1021D00020202020202020202020202020202065BA
:1021E0002E672E204D5348203E70696E2072656127
:1021F00064204750494F0A00202020202020202022
:1022000020202020202020652E672E204D5348209E
:102210003E70696E207772697465204750494F207F
:10222000686967680A000000202020202068656C2B
:10223000703A2020202020746869732068656C70D3
:10224000206C6973740A00004750494F20652E675F
:102250002E3A000020000000B0B50446154638B9FB
:1022600048F2D57008A1C0F20220372214F066F9B6
:102270003DB1A06C2A792968036820469847002060
:10228000B0BD6FF0FE00B0BD5F70696E5F636F6ED2
:1022900074726F6C0000000070B505461E4614464F
:1022A00038B948F2D5700AA1C0F20220162214F003
:1022B00045F94FF000004CB1082E18BF70BDA86C56
:1022C00021688268284690472071082070BD00BFB1
:1022D0005F70696E5F7265616400000070B50446EE
:1022E0001E46154638B948F2D5700AA1C0F2022040
:1022F000262214F023F94FF000004DB1082E18BF2C
:1023000070BDA06C2A792968436820469847082048
:1023100070BD00BF5F70696E5F77726974650000A1
:10232000B0B504461C200D4615F04EFDB0B1014677
:10233000B5F9040041F6C5520861081DC1E9010064
:10234000E868C0F200220860CA602869C1E9055047
:1023500020462961BDE8B0401CF0F0BDB0BD0000D2
:102360002DE9F04F81B08346984692468946009306
:1023700058B949F2C97049F69611C0F20220C0F26C
:1023800002214FF4F16214F0D9F8584616F06CFEB1
:1023900004280BD049F6471049F69611C0F20220E6
:1023A000C0F2022140F2897214F0C8F815F0F8F872
:1023B0000746FDF77BFF054614F0BBFA98B149F6D6
:1023C000961449F24970C0F20224C0F2022021465C
:1023D00015F0CAFC49F2F81040F28C72C0F20220EB
:1023E000214614F0ABF8012F13D149F6961449F2A7
:1023F0002470C0F20224C0F20220214615F0B4FC81
:1024000049F2F81040F28C72C0F20220214614F01A
:1024100095F8FDF74BFF074618F020FE98B949F6EE
:10242000961448F29E50C0F20224C0F202202146C7
:1024300015F09AFC49F2F81040F28C72C0F20220BA
:10244000214614F07BF8FDF731FF044615F069FCD6
:1024500098B149F6961648F27750C0F20226C0F2BB
:102460000220314615F080FC49F2F81040F28C72DF
:10247000C0F20220314614F061F82046FDF71AFF41
:102480003846FDF717FF2846FDF714FFB9F1000F96
:1024900024D018F0E3FD4CF29C010546C2F2002165
:1024A0006FF00A006863096809B1584688470A9EB8
:1024B000FDF7FCFE5FEACA71044612D15FEA8A703A
:1024C00041D449F2F81049F69611C0F20220C0F248
:1024D000022140F2AB7214F031F808E06FF0FE0612
:1024E0008FE0DBF8200000EA0901494530D0B8F15F
:1024F000000F43D095F838009BF80D70C5F84C904C
:1025000085F850A0400706D40B99284618F00CFF18
:1025100008B1064635E00BF11800B7B3012F3ED1E4
:10252000014600BF096881422FD091F8212095F81B
:1025300039309342F6D2486805F11802E8614A60E2
:102540000260A96136E0DBF8200010EA090FCED066
:102550004FF00001696326B100EA09003060DBF842
:1025600020005FEA4A7200EA0901E96485F850A098
:102570003BD520EA0900CBF8200036E06FF0740666
:102580006E632046FDF796FE3BE0DBF81C1005F17C
:102590001802E961CBF81C200A60A8610AE049F240
:1025A000F81049F2FC71C0F20220C0F20221B622FA
:1025B00013F0C4FFB8F1010F09DB05F15C066A46B0
:1025C0000021304619F006F8304619F01DF9204672
:1025D000FDF770FE17F010F86E6B96B9FDF766FE0A
:1025E0000A99044609B1E86C08602046FDF762FECE
:1025F0004CF29800C2F20020016809B158468847A1
:102600006E6B304601B0BDE8F08F00002DE9F04F51
:1026100085B00446174689460393049258B949F297
:10262000AC7049F68A11C0F20220C0F2022140F6D5
:102630007A2213F083FF204616F016FD05280BD0F2
:1026400049F6E81049F68A11C0F20220C0F20221D0
:1026500040F67B2213F072FF002F6FD014F0A0FF22
:102660000646FDF723FE804614F063F998B149F65B
:102670008A1549F24970C0F20225C0F202202946AB
:1026800015F072FB49F2F81040F67E22C0F20220EB
:10269000294613F053FF012E13D149F68A1549F24A
:1026A0002470C0F20225C0F20220294615F05CFB1E
:1026B00049F2F81040F67E22C0F20220294613F0BB
:1026C0003DFFFDF7F3FD824618F0C8FC98B949F6C6
:1026D0008A1548F29E50C0F20225C0F20220294617
:1026E00015F042FB49F2F81040F67E22C0F20220BB
:1026F000294613F023FFFDF7D9FD054615F011FB20
:1027000098B149F68A1648F27750C0F20226C0F214
:102710000220314615F028FB49F2F81040F67E22DF
:10272000C0F20220314613F009FF2846FDF7C2FD32
:102730005046FDF7BFFD4046FDF7BCFD18F08EFC8E
:102740004CF29C010646C2F20021096809B12046FC
:102750008847FDF7ABFDE18C054631B92FB9284616
:10276000FDF7A8FD6FF07407B4E079B320464FF091
:10277000000C013950F82C2F30F8027C50F80C3C3A
:1027800030F8086C20F8061C53F82730C9F80030E0
:102790007B1C9BB2B3425CEA2793824220F8023C46
:1027A00000F08C80A2F11800C2F81CC018F00FFCD9
:1027B0002846FDF77FFD4CF29800C2F20020016828
:1027C00009B12046884716F017FF82E0CDF8049043
:1027D00004F1180B06F118094FF0000806F15C002F
:1027E000029000BF002F6FF00A00706376D096F859
:1027F000380094F80DA0400705D43046039918F02E
:1028000093FD002871D1BAF1000F15D0BAF1010F74
:1028100058461BD1006858450ED090F8211096F804
:1028200039208A42F6D24168F161C0F80490C1F8BB
:102830000090B06115E000BFE069F061C4F81C9041
:10284000C0F80090C6F818B00BE000BF49F2F810CD
:1028500049F2FC71B622C0F20220C0F2022113F04C
:102860006DFE049801280BDB18F010FE029F8046D5
:102870000021384604AA18F0ADFE384618F0C4FF0F
:102880002846FDF717FD16F0B7FE776B17BBFDF76F
:102890000DFD049F0546012F09DB18F0F7FDA0EBA5
:1028A00008080498A0EB080020EAE0770497E18C80
:1028B00009B92FF069C8DDF8049057E72846FDF7FD
:1028C000F9FC4CF29800C2F20020016809B12046E0
:1028D00088470027384605B0BDE8F08F2846FDF749
:1028E000E9FC6FF074077763F4E707462846FDF7C5
:1028F000E1FCEFE72DE9F04F85B004461746894625
:102900000393049258B949F2AC7049F61111C0F220
:102910000220C0F2022140F6561213F00FFE2046AC
:1029200016F0A2FB05280BD049F6E81049F6111164
:10293000C0F20220C0F2022140F6571213F0FEFD51
:10294000002F6FD014F02CFE0646FDF7AFFC80463A
:1029500013F0EFFF98B149F6111549F24970C0F232
:102960000225C0F20220294615F0FEF949F2F810BE
:1029700040F65A12C0F20220294613F0DFFD012E64
:1029800013D149F6111549F22470C0F20225C0F2A4
:102990000220294615F0E8F949F2F81040F65A12DB
:1029A000C0F20220294613F0C9FDFDF77FFC8246E4
:1029B00018F054FB98B949F6111548F29E50C0F230
:1029C0000225C0F20220294615F0CEF949F2F8108E
:1029D00040F65A12C0F20220294613F0AFFDFDF76F
:1029E00065FC054615F09DF998B149F6111648F2B7
:1029F0007750C0F20226C0F20220314615F0B4F939
:102A000049F2F81040F65A12C0F20220314613F093
:102A100095FD2846FDF74EFC5046FDF74BFC404621
:102A2000FDF748FC18F01AFB4CF294010646C2F27E
:102A30000021096809B120468847FDF737FCA28CC0
:102A40000546E18C914208BF002F00F08B80914237
:102A500077D1CDF8049004F12C0B06F118094FF052
:102A6000000806F15C000290002F6FF00A0070630E
:102A700078D096F8380094F80DA0400706D4304678
:102A8000039918F051FC002840F08B80BAF1000F38
:102A900016D0BAF1010F58461CD100BF0068584546
:102AA0000ED090F8211096F839208A42F6D241686B
:102AB000F161C0F80490C1F80090B06115E000BF6A
:102AC000206BF061C4F83090C0F80090C6F818B0E0
:102AD0000BE000BF49F2F81049F2FC71B622C0F2D7
:102AE0000220C0F2022113F029FD049801280BDB1B
:102AF00018F0CCFC029F80460021384604AA18F04A
:102B000069FD384618F080FE2846FDF7D3FB16F025
:102B100073FD776B5FBBFDF7C9FB049F0546012F73
:102B200009DB18F0B3FCA0EB08080498A0EB080040
:102B300020EAE0770497A28CE18C914294D0DDF8F2
:102B40000490238D276A581C80B247F82390904246
:102B500001F1010082B24FF0000151EA239182425B
:102B6000218508D02846FDF7A5FB6FF022073846DF
:102B700005B0BDE8F08F54F8181FA142E0810BD0DA
:102B8000A1F118000027CF6118F021FA2846FDF7BF
:102B900091FB16F031FDEAE72846FDF78BFB002795
:102BA000E5E707462846FDF785FBE0E72DE9F04F0E
:102BB00081B090468B460446009114F0F1FC074624
:102BC000FDF774FB814613F0B4FE98B149F6290570
:102BD00049F24970C0F20225C0F20220294615F0E0
:102BE000C3F849F2F81040F29F42C0F20220294691
:102BF00013F0A4FC012F13D149F6290549F22470E2
:102C0000C0F20225C0F20220294615F0ADF849F2C3
:102C1000F81040F29F42C0F20220294613F08EFCC9
:102C2000FDF744FB074618F019FA98B949F629054B
:102C300048F29E50C0F20225C0F20220294615F04B
:102C400093F849F2F81040F29F42C0F20220294660
:102C500013F074FCFDF72AFB054615F062F898B1F5
:102C600049F6290648F27750C0F20226C0F2022047
:102C7000314615F079F849F2F81040F29F42C0F25F
:102C80000220314613F05AFC2846FDF713FB384664
:102C9000FDF710FB4846FDF70DFB5CB949F2DA7011
:102CA00049F62901C0F20220C0F2022140F2A242FC
:102CB00013F044FC204616F0D7F903280BD049F650
:102CC000A51049F62901C0F20220C0F2022140F20B
:102CD000A34213F033FC18F0C1F90646FDF7E6FAFB
:102CE0004CF29C018246C2F20021096809B12046DB
:102CF0008847606A0021B042716311D0D0B1BBF146
:102D0000000F4CD096F83800657B96F83990400754
:102D10002ED43046414618F007FB48B3074641E041
:102D200094F82200FF281FD15046FDF7C3FA6FF038
:102D300022078BE094F82010666240F2FF10A4F89E
:102D40002100FF2907D096F83900814203D230468E
:102D5000424600F027FE214656F8400F41F8280F62
:102D6000416031604E6065E0013084F8220061E02E
:102D700004F11807D5B1012D20D138460068B842BA
:102D800014D090F8211096F839208A42F6D2416882
:102D900006F11802F16142600A60B06119E06FF05B
:102DA000740777635046FDF785FA4FE0E06906F156
:102DB0001801F061E1610160B7610AE049F2F810C1
:102DC00049F2FC71C0F20220C0F20221B62213F0D7
:102DD000B5FB94F82100B46481450AD2606A84F896
:102DE000219090F83910894503D20222494600F01B
:102DF000D9FDBBF1010F09DB06F15C056A46002134
:102E0000284618F0E7FB284618F0FEFC5046FDF770
:102E100051FA16F0F1FBFDF749FA716B824649B1A0
:102E2000606AB8B196F8391090F839208A425FEAA2
:102E30000F9110E05046FDF73DFA4CF29800C2F2B7
:102E40000020016809B1204688470027384601B0B4
:102E5000BDE8F08F01213A68BA4202D092F82120F1
:102E600000E0FF2284F82120D1B9024652F8403F09
:102E700012F8061C93420CD013F8087CC9B213F860
:102E8000075C1B68BD4255EA3787B94251EA378172
:102E9000F0E790F83920914202D0022200F082FD42
:102EA0005046FDF707FA706B0021B16480EAE072CA
:102EB000C2EBE077CAE700002DE9F04782B0044694
:102EC00090460E46019158B949F2BA7049F61C0174
:102ED000C0F20220C0F2022140F2FD1213F02EFBDC
:102EE000204616F0C1F802280BD049F6380049F602
:102EF0001C01C0F20220C0F202214FF4FF7213F055
:102F00001DFB4CF29C00C2F20020016809B1204672
:102F10008847208C002871D1002E6FD014F040FB20
:102F20000546FDF7C3F9814613F003FD98B149F654
:102F30001C0749F24970C0F20227C0F2022039464C
:102F400014F012FF49F2F81040F20322C0F20220FE
:102F5000394613F0F3FA012D13D149F61C0549F255
:102F60002470C0F20225C0F20220294614F0FCFEB3
:102F700049F2F81040F20322C0F20220294613F071
:102F8000DDFAFDF793F9824618F068F898B949F62A
:102F90001C0748F29E50C0F20227C0F202203946B8
:102FA00014F0E2FE49F2F81040F20322C0F20220CF
:102FB000394613F0C3FAFDF779F9074614F0B1FE6C
:102FC00098B149F61C0548F27750C0F20225C0F2CC
:102FD0000220294614F0C8FE49F2F81040F20322FC
:102FE000C0F20220294613F0A9FA3846FDF762F92B
:102FF0005046FDF75FF94846FDF75CF9FDF756F9D5
:10300000218C074689B1481E20843846FDF752F9C5
:103010004CF29800C2F20020016809B120468847AE
:103020000025284602B0BDE8F08786B318F016F8F0
:10303000064690F8380094F80D9040076FF00A00AB
:10304000706309D43046414618F06EF920B1054648
:103050003846FDF72FF9E4E7B9F1000F04F1180045
:103060001BD0B9F1010F20D1014600BF0968814290
:1030700013D091F8212096F839309342F6D248685F
:1030800006F11802F0614A600260B16118E038464A
:10309000FDF710F96FF07405C3E7E16906F1180256
:1030A000F161E2610A60B0610AE049F2F81049F2A8
:1030B000FC71C0F20220C0F20221B62213F03EFAE7
:1030C0000198012809DB06F15C0501AA00212846C8
:1030D00018F080FA284618F097FB3846FDF7EAF812
:1030E00016F08AFA756B002D9BD191E7F0B581B08F
:1030F000064615460F4628B94AA04EA14FF4317234
:1031000013F01CFA06F14C044FF0FF31204615F085
:103110006BFEA7F11000152800F26A80DFE800F0CE
:103120000B0F13171B1F23272D3135393D414549FF
:103130004D545C606A77D6F83401426840E0D6F8B6
:10314000340182684FE0D6F83401C2684BE0D6F80B
:103150003401026947E0D6F8340141690AE0D6F843
:103160003401816906E0D6F83401C2693BE0D6F843
:103170003401016AE1B3304641E0D6F83401416AD6
:1031800025E0D6F83401826A1AE0D6F83401C16A23
:103190001DE0D6F83401026B12E0D6F83401426B20
:1031A00021E0D6F83401826B0AE0D6F83401C26B14
:1031B00006E0D6F83401016C09E0D6F83401426C1F
:1031C000B2B12968304611E0D6F83401816C79B18A
:1031D0003046884728600BE0D6F83401C26C02E024
:1031E000D6F83401026D1AB130462946904707E0FF
:1031F000002506E0D6F83401016E81B128468847E3
:103200000546204615F0FCFC284601B0F0BDD6F876
:103210003401016E19B1426ED5E90001E6E76FF0A5
:103220004305EEE764657620213D2052545F4E55FC
:103230004C4C00005F72745F776C616E5F64657602
:103240005F636F6E74726F6C00000000B0B504466F
:103250004C3011A1012215F0A5FCD4F8340148F638
:103260005E55C0F20225016839B120468847044600
:103270000CA0002C55EA008500E000240EA014F0FC
:1032800073FD284614F070FD48F25B40C0F2022046
:1032900014F06AFD2046B0BD776C616E5F646576A0
:1032A00000000000776C616E20696E6974206661B1
:1032B000696C6564000000001B5B33326D5B492F55
:1032C000574C414E2E6465765D2000002DE9F0419B
:1032D00006461C46904658B948F2794048F68C118B
:1032E000C0F20220C0F2022140F28F1213F026F940
:1032F000BCB316B1B8F1000F0BD148F61D0048F66B
:103300008C11C0F20220C0F202214FF4CA7213F0F5
:1033100015F9F08BB76DC00432D5354635F8510F2D
:10332000A97840EA0140C0F38F00A0421CD248F6C1
:103330000C00C0F2022014F017FDA878224629885C
:1033400041EA00403146C0F38F0348F6EB00C0F27B
:10335000022014F009FD48F25B40C0F2022014F094
:1033600003FD0020BDE8F081384616F031F8A04298
:1033700006D207F110004FF0FF31BC8313F07EF945
:10338000FCF794FF064638464146224616F03EF8C2
:1033900004463046FCF78EFF2046BDE8F081000071
:1033A0002DE9F04F81B0DBB31D469146834618B13D
:1033B000B9F1000F18D10BE048F2794048F69401BA
:1033C000C0F20220C0F2022140F2FF1213F0B6F860
:1033D00048F61D0048F69401C0F20220C0F2022116
:1033E00040F2012213F0AAF8DBF85C80B8F1000F7C
:1033F0000BD148F66D0048F69401C0F20220C0F2ED
:1034000002214FF4017213F099F817F027FE48B12A
:10341000BBF81E00400605D4D8F8140001280AD1D4
:10342000002504E058464A462B4600F015F9284688
:1034300001B0BDE8F08F08F1180A00260120C8F895
:103440001400009509EB0604404621462A4616F072
:103450004FF8DBF848100246C8F810004FF48043DC
:103460000F6958462146B847D8F810004FF0FF3191
:1034700006442D1A504613F001F90DB12FF01FC06C
:10348000009D0020C8F81400D1E7F0B581B00546D2
:103490001C46164658B948F2794048F6B101C0F2C8
:1034A0000220C0F202214FF4E67213F047F824B371
:1034B00005B15EB948F61D0048F6B101C0F2022020
:1034C000C0F202214FF4E87213F038F8EF6D5FB9E3
:1034D00048F66D0048F6B101C0F20220C0F20221A8
:1034E0004FF4E97213F02AF817F0B8FD38B1E88B01
:1034F000400604D47869012809D1002404E0284654
:103500003246234600F0A8F8204601B0F0BDA86C72
:10351000012179614FF48043D0F810C0284631462C
:103520002246E047044607F118004FF0FF3113F040
:10353000A5F8E9E72DE9F04182B004461D4616469C
:1035400058B948F2794048F6CF01C0F20220C0F2E3
:1035500002214FF40F7212F0F1FFF5B104B15EB920
:1035600048F61D0048F6CF01C0F20220C0F2022149
:103570004FF4107212F0E2FFE76DFCF797FE7969E5
:10358000804661B1384631462A4615F0B1FF0446FF
:103590004046FCF78FFE20461CE000201AE0012088
:1035A0007861384631462A4615F0A2FF0546404666
:1035B000FCF780FE0020019001A9384616F046FC79
:1035C000A16C024638614FF400430F69019920460F
:1035D000B847284602B0BDE8F0810000F0B581B0E0
:1035E00005461C461646A8B948F67C1748F27940AD
:1035F000C0F20227C0F2022040F23512394612F022
:103600009DFF48F648004FF49C72C0F202203946F4
:1036100012F094FFCCB12746A86CC16828468847B1
:10362000411C14D006F8010BE98B11F0400F5FEA42
:103630001F910A285FEA0F9008430128A7F10100B3
:1036400006D1012F0746E7D102E0002000E038460E
:10365000201A01B0F0BD0000F0B581B004461D464F
:103660001646A8B948F69C1748F27940C0F20227DE
:10367000C0F202204FF4B172394612F05FFF48F6F3
:10368000480040F26512C0F20220394612F056FF9F
:103690009DB12F46E08B400607D530780A2804D12B
:1036A000A06C0D21826820469047A06C16F8011B83
:1036B000826820469047013FECD1284601B0F0BD1A
:1036C00070B506461C46154650B948F6D91048F65E
:1036D0008121C0F20220C0F20221162212F02EFF38
:1036E000D6F8800060B948F66B2048F68121C0F218
:1036F0000220C0F20221172212F020FFD6F880002B
:1037000000212A462346BDE8704017F042B870B544
:1037100006461C46154650B948F6D91048F6AA2167
:10372000C0F20220C0F20221242212F007FFD6F8D4
:10373000800060B948F66B2048F6AA21C0F202204A
:10374000C0F20221252212F0F9FED6F880000022F4
:1037500029462346BDE8704017F01BB8002070478B
:1037600070B505461C46164650B948F6BF1048F6D7
:103770009621C0F20220C0F20221582212F0DEFE91
:10378000A86C50B948F6D11048F69621C0F2022034
:10379000C0F20221592212F0D1FE00212846324601
:1037A0002346BDE8704016F0F4BF70B504461D46D0
:1037B000164650B948F6BF1048F6C021C0F20220A4
:1037C000C0F20221662212F0B9FEA06C50B948F690
:1037D000D11048F6C021C0F20220C0F202216722B7
:1037E00012F0ACFE0022204631462B46BDE8704068
:1037F00016F0CFBF80B5FEF7B1FA00BFFEE7B0B557
:103800004BF65050C2F200200468FCF74FFD05460D
:10381000204616F019F804F15C0017F051FF012062
:1038200084F83800204617F065FA2846FCF742FD78
:10383000BDE8B04015F0E0BE70B582B004469C46CD
:10384000089D1830DDE90636C4E9060004F12400BD
:10385000236380E80610232160461A4614F08EFF89
:10386000D4E90B1243F2FF730A44606AA16A043A76
:10387000C0F2002314F0CCF8202E206204D319A04B
:1038800021A1C62212F05AFE43F6191284F83A60BA
:1038900084F83960002104F14000C4E90F10C4E944
:1038A000110104F15C00E16484F85010C4E915557D
:1038B000C0F20022616384F83810C4E92311234662
:1038C000CDE90011214617F055FF4CF2AC00C2F2D1
:1038D0000020016821B1204602B0BDE870400847D1
:1038E00002B070BD7072696F72697479203C2052A9
:1038F000545F5448524541445F5052494F524954D5
:10390000595F4D41580000005F7468726561645FE3
:10391000696E697400000000B0B5044650B949F6FC
:10392000D93049F61C51C0F20220C0F202218B228C
:1039300012F004FE94F8380040070AD449F6064015
:1039400049F61C51C0F20220C0F202218C2212F072
:10395000F5FD204615F088FB01280AD049F64840BD
:1039600049F61C51C0F20220C0F202218D2212F051
:10397000E5FDFCF79BFC2146E36905466FF074000A
:1039800051F8182F606320465360E369E1611A60C3
:10399000096015F005FF2846FCF78CFCBDE8B04037
:1039A00015F02ABE2DE9F04F81B014468DF80310B2
:1039B0000DF103020221054617F004F910B101B020
:1039C000BDE8F08F4FF0FF0B0DF1020A95F83800BB
:1039D0004007F4D5AF6C002FF1D0384615F044FB0A
:1039E0000328ECD12E4697F80D908DF802B056F8CA
:1039F000180F716896F820204160716808605007C0
:103A0000C6E9006605D42846214617F08DFC00283B
:103A1000D5D1B9F1000F07F1180813D0B9F1010F92
:103A2000404617D1006840450CD090F8211095F819
:103A300039208A42F6D24168E96146600E60A86189
:103A400013E000BFF869E861FE610660C5F8188000
:103A50000BE000BF49F2F81049F2FC71B622C0F247
:103A60000220C0F2022112F069FDD8F800004045A2
:103A700002D090F8210000E0FF207D6A87F8210045
:103A8000294695F83A0051F8402F00BF8A420DD0E0
:103A900012F8083CC0B212F8077C12689F4257EA3D
:103AA0003383984250EA3380F0E700BF95F839102D
:103AB0008DF8020088423FF482AF02212846524628
:103AC00017F080F800283FF481AF78E740F2C8741F
:103AD0004FF6FE75C2F20024C7F6FF75FCF7E6FB51
:103AE0002168A1420AD04E69FCF7E4FB17F0CEFC36
:103AF000301AA8420BD817F008F908E0FCF7DAFBF7
:103B000017F0ACFA022117F00FFC15F075FD16F056
:103B10002DFCE3E72DE9F04184B017460D4606463B
:103B20000392FCF7C3FBD5E900120446288A4A60D9
:103B30006A686D6011602D6020F001012982D7B1A3
:103B40004FF6FE71C7F6FF718F4229D8800705F145
:103B500014082BD441F6DD52042025A1C0F2002226
:103B6000CDE9007040462B4617F004FE288A40F04D
:103B70000200288222E07168336940F001000A687F
:103B80002A600D602882556069606E6423B9B06B4D
:103B900090F83810490722D42046FCF78BFB1AE036
:103BA0002046FCF787FB6FF0FE0015E0404617F05B
:103BB000BFFE03AA0021404617F00CFDF0686E64BA
:103BC0000168296005604D6068602046FCF772FB63
:103BD000404617F019FE002004B0BDE8F08117F050
:103BE000F6F92046FCF766FB15F006FDF3E700BF8B
:103BF000776F726B00000000044638B948F2286005
:103C000021A1C0F202203B2212F098FC04F114051D
:103C10004FF00008FCF74AFB27680646A74227D06A
:103C2000D7E900012761C7F84480416079680860DE
:103C3000388AC7E9007720F0010038823046FCF767
:103C400039FBD7E9022138469047C4F8108013F0B9
:103C5000C1F800BF284615F0FBFF753004D1284697
:103C600015F0A4FFF6E700BF13F024FAD2E700BF77
:103C700017F0F4F9022117F057FB3046FCF71AFB56
:103C800015F0BAFCC6E700BF5F776F726B717565A0
:103C900075655F7468726561645F656E74727900E2
:103CA000F0B581B014460D4602F084FB2946224649
:103CB0001BF0D4F9044601302AD006F0B9FAB0F16D
:103CC000FF3F16DD054606F09FFA90B106462C2010
:103CD00014F07AF83061A0B1074602F066FB0246A4
:103CE0000121384602F05EFD306902217160846274
:103CF00010E06FF0050016F0B5FA20461BF0D8FA78
:103D000006E0284606F09AFA6FF0050016F0AAFAC7
:103D10004FF0FF35284601B0F0BD2DE9F0410028F5
:103D200050D000F118060446304617460D461DF0E7
:103D30005EF9002846D0BDB32068E16B0DF030FE7F
:103D4000002843D0804685601CF039F93046414652
:103D500088F80C701DF043F9002847D0D8F80840C7
:103D60000021204600251DF0D2FC0021204620F035
:103D700067FA0021204620F085FC00210022204621
:103D80001FF030FA002120461EF0A4F808F11404B8
:103D9000C8F8085020461DF08AF820461DF01CF98E
:103DA00040460DF0C3FF1FE04BF6D0213046C2F273
:103DB00000211DF014F928B9E36B1BB1002100228A
:103DC00020469847FA2568B2BDE8F0814BF6D0212D
:103DD0003046C2F200211DF002F928B9E36B1BB195
:103DE0000021002220469847FF25ECE7E36B2BB12A
:103DF00000210022204600259847E4E70025E2E75D
:103E0000F0B581B006464FF2C440C2F200200D4624
:103E100000F11C07002400BF1DF00DF857F81C1C12
:103E200011B917F80B1C41B11DF03EF801342037D1
:103E3000082CF1D14FF0FF3418E047F81C6C1DF04E
:103E400033F8002047E90600316827F80E0C01F02E
:103E5000F00107F80C0C81F0100129435FEA0F9183
:103E600027F8101C391F47E902013960204601B0CC
:103E7000F0BDB0B514460D4602F09CFA2946224624
:103E8000BDE8B0401BF058B92DE9F0414EF2FA38C8
:103E90004CF20016C4F20108C4F201064AF20350C3
:103EA000A8F800000120B080B08808B12FF005C04C
:103EB00077A043F600024EF60147012190ED001F66
:103EC0004FF668003180C2F200204EF600444EF2F8
:103ED00020054FF40041C1F69C42C0E9041241F6AE
:103EE0000041C4F20107C4F2010480ED001FC4F2D6
:103EF0000105C0F64E61C0E90712FDF7E4FD4FF67B
:103F000050601621CFF6FF702154092085F88200F9
:103F1000207818B93878800700F0B480207840B94C
:103F200001202070C8200121FCF795FE207801288F
:103F3000FCD10020387020700020A874287F000772
:103F4000FCD54FF43C50288140F23110A885002068
:103F5000A87200BF287F8006FCD542F232370420C9
:103F6000C3F2121730772F6001242C710526AE7131
:103F7000FDF7A9FD96200121FCF76DFE00202871B8
:103F80002F60FDF7A0FD96200121FCF764FEAE71C5
:103F9000FDF799FD2C7485F8324085F8334095F88B
:103FA000540040F0400085F8540000BF95F95400DB
:103FB000B0F1FF3FFADC062085F84C00472085F879
:103FC0005400072085F8540095F954000028FBD4CC
:103FD00095F8350040F0400085F8350095F935003A
:103FE000B0F1FF3FFADC022085F83400C52085F8E7
:103FF000350095F8350000F0BF0085F8350000BFAA
:1040000095F935000028FBD495F8370040F04000C2
:1040100085F8370095F93700B0F1FF3FFADC022050
:1040200085F83600C52085F8370095F8370000F090
:10403000BF0085F8370000BF95F937000028FBD492
:1040400095F83F0040F0400085F83F0095F93F00AB
:10405000B0F1FF3FFADC012085F83E00C52085F86D
:104060003F0095F83F0000F0BF0085F83F0000BF1B
:1040700095F93F000028FBD44FF42540A8F8000034
:10408000BDE8F0814FF47A70FCF70DFE54E700BFF5
:10409000006CDC0200127A0000800000002D31016B
:1040A0007047000080B54FF0600E4CF2003047F6CC
:1040B0000C11C4F20000C0F2022100BF0A6802B174
:1040C0000260043004310FF007C880BD000000001A
:1040D00001380028FCD170472DE9F04F81B004462B
:1040E000008800285DD04EF64C4B0025C4F2010B31
:1040F0004FF0010A42F2400800272BA6C4F2200824
:104100006068326800EBC501496891423ED150F8C1
:1041100035009BF8001000F0B8500AFA07F9B0F12A
:10412000807F09EA010015D158B90120FCF745FD4F
:104130009BF8000040EA09008BF800000120FCF722
:1041400063FD98F90000002820D498F8000040F0A2
:10415000800015E058B10120FCF72FFD9BF800000E
:1041600020EA09008BF800000120FCF74DFD98F9CA
:104170000000B0F1FF3F09DC98F8000000F07F007C
:1041800088F80000C8200121FCF765FD013708F11F
:104190000208032F06F10406B2D1208801358542BA
:1041A000A8D301B0BDE8F08F0204000003040000B2
:1041B0000404000070B59CB016AD0446284606F015
:1041C0002CF800222846214601F06AFC002828D459
:1041D0000DF10704002151222046002614F0CEFAEA
:1041E0001A98C069C3682BB316AD00BF5022284689
:1041F00021469847B0F1FF3F18DDD8B1265412F0A0
:1042000079FB00215123224612F0A6FD0021512204
:10421000204614F0B3FA1A98C069C36853B12FF05E
:104220001BC809A0214613F09FFD09E0179840F034
:104230008060179003A013F097FD16A801F07EFB95
:104240001CB070BD0A0000004F70656E2025732001
:104250006661696C65640A0010B538B30446FCF702
:10426000F4F9B0F5807F1AD80020214602F0EEF86C
:10427000A8B1044601F0E6FE20460FF0FBFE10B3A5
:1042800000F04BF940F2BE104FF48072C2F20020F1
:10429000214616F0B9FB204612F02CFF0FE06FF01C
:1042A0001A0015F0DFFF4FF0FF3010BD01F0CAFE1D
:1042B00040F2BE1107A0C2F2002113F055FD02F03A
:1042C000FBF9002010BD204612F014FF02F0F4F9B3
:1042D000E9E700BF25730A002DE9F04F9DB08A463B
:1042E0001021169100218DF84B1065A10F1D0DF1C5
:1042F0001C08634A06928CCFD1E906CE0C6ACDE940
:104300000DE4DAF84040CDF830C0D1E90465CDE9DC
:104310000A6588E88C00D1E90923CDE90F23C96A31
:10432000119108B112F0E6FE002C5CD0A0680028C4
:1043300059D0E06801685EA08847002853D0D4F8BF
:104340000880064602200221D8F800300022022709
:10435000002498470546002847D430698DF86570D9
:104360004AF21F51ADF8661000680DF16409002192
:10437000082200681A9009F108004FF0080B14F0A9
:10438000FDF917AECDE91774D8F8247040F6FF7127
:1043900041F2060228463346CDF800B0B847D8F8B7
:1043A000247040F6FF7141F2050228463346CDF8ED
:1043B00000B0B84702AE00211022304614F0DEF9FA
:1043C00040A241A31021304615F0C2FF06AF00BF46
:1043D00003223046394613F077FE98B10134043792
:1043E0000C2CF5D101E04FF0FF35002150460EF0C6
:1043F00049FF002D03D4D8F80410284688471DB083
:10440000BDE8F08F13AE00210C223046002714F0D7
:10441000B5F99AF824008DF84C7068B1611C721CD3
:104420000AF1250300F001E0B3EC101E01EE410F8C
:10443000A2EC101E1FF009C00520ADF855000220A7
:104440008DF85700D8F81870102013A90C220023FB
:10445000CDE900902846B847D8F81C700DF14B0103
:104460000122002316A801902846CDF80090B847F5
:104470000128BADB9DF84B000028B6D00121B5E732
:104480004A616E00466562004D61720041707200C3
:104490004D6179004A756E004A756C004175670080
:1044A000536570004F6374004E6F7600446563007F
:1044B0006C696E6B2E72742D7468726561642E6FF8
:1044C00072670000257300004D6172202037203292
:1044D0003032340080B502A013F046FC002080BDCD
:1044E0001B5B324A1B5B4800B0B5054605F08CFEED
:1044F00058B101F023FA0446284605F09FFEB4F1B6
:10450000FF3FC4BF0020B0BD01E06FF00F042046A4
:1045100015F0A8FE4FF0FF30B0BDB0B505460068FD
:1045200005F072FE70B101F009FA0446286805F042
:1045300085FE284612F0DEFDB4F1FF3FC4BF002027
:10454000B0BD01E06FF00F04204615F08BFE4FF078
:10455000FF30B0BDB0B5044601F02CFFB0F1FF3F15
:1045600014DD0546204605F04FFE60B1006950B1EC
:1045700028461AF09DFE80B16FF05E0015F072FEC5
:104580004FF0FF350AE06FF00F0001E06FF05E00C2
:1045900015F068FE4FF0FF3503E00025204605F0DA
:1045A0004DFE2846B0BD0000B0B5012806D109A0D7
:1045B00013F0DAFB0DA013F0D7FB09E0022807DBAC
:1045C000441E0D1D55F8040BFFF7F4FD013CF9D115
:1045D0000020B0BD55736167653A20636174205B4C
:1045E00046494C455D2E2E2E0A000000436F6E6337
:1045F0006174656E6174652046494C452873290ACB
:104600000000000010B502280AD0012811D14BF299
:10461000EF1040F2BE11C0F20220C2F2002106E00B
:1046200048680C46FFF718FE18B1616802A013F045
:104630009BFB002010BD00BF4E6F20737563682088
:104640006469726563746F72793A2025730A000099
:1046500080B5032804D1D1E9010100F0B7FC05E0E1
:1046600003A013F081FB08A013F07EFB002080BDA7
:1046700055736167653A20637020534F5552434527
:1046800020444553540A0000436F707920534F551E
:1046900052434520746F20444553542E0A000000B5
:1046A00010B502280CD14C680BA12046FCF738F954
:1046B00050B10BA12046FCF733F928B1204600E0A9
:1046C00004A000F06FFE02E006A013F04DFB0020F6
:1046D00010BD00BF2F0000002D2D68656C7000001C
:1046E0002D6800006466205B706174685D0A0000DC
:1046F000B0B503280C4607D002281BD14BF2EF10AF
:104700006168C0F202201BE0A06840F24241002232
:104710000FF091FC002811D4646805462046FBF791
:1047200094FF02462846214622F06CFD2846FFF7FA
:10473000DBFE07E00AA013F017FB03E0A16802A06C
:1047400013F012FB0020B0BD6F70656E2066696CBF
:10475000653A2573206661696C6564210A00000072
:1047600055736167653A206563686F2022737472C0
:10477000696E6722205B66696C656E616D655D0AB6
:104780000000000080B508F0F5FD002080BD0000AD
:1047900080B5022819D140F2CC020220C2F20022D8
:1047A0000CF014FD411E092909D8DFE801F0051CB1
:1047B0001F2225282B2E343109F02CFA11E0B0F5F8
:1047C000807F02D108F032FC0BE014A013F0CCFA89
:1047D00018A013F0C9FA40F2CC00C2F200200CF08D
:1047E000DBFF002080BD09F099F8FAE708F0D0FF60
:1047F000F7E708F06DFBF4E708F004FDF1E708F0D7
:1048000019FFEEE708F0B6FDEBE708F053FEE8E726
:1048100009F00EFBE5E708F0C1FAE2E755736167BE
:10482000653A206C697374205B6F7074696F6E7386
:104830005D0A00005B6F7074696F6E735D3A0A0009
:1048400080B5012804D140F2BE10C2F2002000E081
:10485000486809F015FC002080BD000080B50128E3
:1048600006D106A013F080FA0DA013F07DFA03E044
:10487000486800210CF00FFB002080BD5573616774
:10488000653A206D6B646972205B4F5054494F4EFE
:104890005D204449524543544F52590A00000000DC
:1048A00043726561746520746865204449524543CC
:1048B000544F52592C206966207468657920646FC2
:1048C000206E6F7420616C7265616479206578690F
:1048D00073742E0A0000000010B504280C4604D0A2
:1048E000022811D161680CA006E0606809A1FCF7FC
:1048F00017F860B9D4E9020101F0C8FB014630B1F4
:1049000006A013F031FA02E00AA013F02DFA0020FD
:1049100010BD00BF2D740000656C6D006D6B66737B
:10492000206661696C65642C20726573756C743DDA
:1049300025640A0055736167653A206D6B667320C4
:104940005B2D7420747970655D206465766963659C
:104950000A000000F0B581B004280F4623D00328D8
:1049600031D001283BD149F2FE60C0F2022013F0A1
:10497000FBF946A013F0F8F941F6E47549F2B16489
:10498000C2F20025C0F2022405F140066B682BB18B
:10499000A8682A680168204613F0E6F91035B54288
:1049A000F4D3002437E0D7E901642EA0FD68314636
:1049B0002A46234613F0D8F933A12846FBF7B0FF67
:1049C00088B1002011E0D7E9014520A02946224600
:1049D00013F0CAF9002000230021009108E04FF0F5
:1049E000FF340EA015E078680026002300903046C2
:1049F00021462A4601F0E8FB49F23A6149F2446255
:104A0000C0F20221C0F20222002851EA02805FEACD
:104A10000FA413F0A9F9204601B0F0BD55736167EA
:104A2000653A206D6F756E74203C646576696365C8
:104A30003E203C6D6F756E74706F696E743E203CE5
:104A40006673747970653E2E0A0000006D6F756E96
:104A5000742028257329206F6E746F202573202EF3
:104A60002E2E20006D6F756E742064657669636507
:104A700020257328257329206F6E746F20257320DD
:104A80002E2E2E20000000006E6673002D2D2D2D81
:104A90002D2D2D2D2D2D20202D2D2D2D2D2D20207A
:104AA0002D2D2D2D2D2D2D2D2D2D0A0070B582B0E3
:104AB000032835D10C46496841A0A26813F054F987
:104AC000A0684FF4803100220FF0B5FA00282ED4F0
:104AD000FFF70AFD4FF4807013F076F9002841D0FB
:104AE00066680546304615F06BFF616830448842C1
:104AF00007D000BF02782F2A03D001388842F9D1AD
:104B0000084649F21E72A368C0F20222FF210090FB
:104B1000284615F01DFC6068294611F0ABFC18E032
:104B200013A013F021F918A013F01EF917E0A068E4
:104B3000002100220FF07FFA002804D4FFF7D4FCF4
:104B4000A06821F061F9D4E90105294611F092FC31
:104B50002DB1A068854202D0284612F0CBFA002081
:104B600002B070BD19A013F0FFF86FF00500F7E771
:104B700055736167653A206D7620534F5552434512
:104B800020444553540A000052656E616D65205300
:104B90004F5552434520746F20444553542C206F89
:104BA00072206D6F766520534F5552434528732907
:104BB00020746F204449524543544F52592E0A00E5
:104BC0002573203D3E2025730A0000006F75742078
:104BD0006F66206D656D6F72790A000080B509F00F
:104BE00019F8002080BD80B54BF2EF1040F2BE11E5
:104BF000C0F20220C2F2002113F0B6F8002080BDFE
:104C00002DE9F04F91B0012809D149F26F60C0F24F
:104C1000022013F0A9F85CA013F0A6F879E00E4684
:104C200056F8042F13782D2B18D1551C00222D2156
:104C300000270023C9B2712906DC2D290BD0662973
:104C400010D1012207E000BF722903D076295DD17F
:104C5000012300E0012715F8011BEBE700220027E4
:104C6000002303E0002951D101383146022850DBEE
:104C7000A0F1010801F1040901AC4FEA026AD5B2C2
:104C80000FF2980BDEB21806009000BFD9F80000B2
:104C900021461CF04FF838B1BAF1000F30D1D9F8E5
:104CA000001058462AE000BFBDF80A00410412D4A3
:104CB00000B2B0F1FF3F23DCD9F8000021F0A4F8E6
:104CC000A0B1BAF1000F1BD149F25B60D9F8001016
:104CD000C0F2022012E0D9F800102FB10846294690
:104CE000324603F0D7F90BE018A007E0009838B17E
:104CF00049F24D60D9F80010C0F2022013F034F8E8
:104D0000B8F1010809F10409C0D102E018A013F0BC
:104D10002BF8002011B0BDE8F08F00BF63616E6E0C
:104D20006F742072656D6F766520272573273A2092
:104D30004E6F20737563682066696C65206F722002
:104D40006469726563746F72790A000063616E6EE4
:104D50006F742072656D6F766520272573273A2062
:104D600049732061206469726563746F72790A0007
:104D70004572726F723A20426164206F7074696F7D
:104D80006E3A2025630A000052656D6F7665202813
:104D9000756E6C696E6B29207468652046494C45B8
:104DA0002873292E0A0000002DE9F04182B00C463C
:104DB00001284FF000018DF807100CDD022804F1E6
:104DC000040003D100264FF00A0820E0006846A145
:104DD00015F0A0FD50B149F28C60C0F2022012F033
:104DE000C3FF4FF0FF3002B0BDE8F081A06801784A
:104DF0002B2906D10130FBF785FB06464FF0000852
:104E000003E0FBF77FFB8046002604F10C000068FE
:104E100000210FF010F9002830D40DF10701012214
:104E2000044611F029F90027012811DB0DF10705CF
:104E30009DF80700002F08BF01270A284FF0010244
:104E40002046294657EA179711F016F90028EFDC9B
:104E500026A0394612F088FF26B1B74204D3B81B0A
:104E600000F1010847450BD249F2C360C0F20220AD
:104E700012F07AFF2046FFF737FBB2E72CA0AEE72F
:104E800021A0414612F070FF00210022204609F0C7
:104E90009BF90DF107010122204611F0EDF80128E0
:104EA00019DBA7EB080700260DF107050FF27808BC
:104EB000BE4204D39DF80710404612F055FF9DF8FE
:104EC0000700012229460A28204656EA169611F0C4
:104ED000D3F80028ECDC15A012F046FF2046FFF7BF
:104EE00003FB00207FE700BF2D6E00000A546F74A3
:104EF000616C204E756D626572206F66206C696E04
:104F000065733A25640A00005265717569726564BB
:104F1000204E756D626572206F66206C696E6573D8
:104F20003A25640A00000000256300000A00000022
:104F300046696C6520646F65736E277420657869B7
:104F400073740A0010B5022815D14C6815A02146CB
:104F500012F00AFF204601F0B5FB014649F2446019
:104F600049F23A62C0F20220C0F20222002950EA5D
:104F70004280CC1702E04FF0FF3402A012F0F4FEA2
:104F8000204610BD55736167653A20756E6D6F756B
:104F90006E74203C6D6F756E74706F696E743E2E0A
:104FA0000A000000756E6D6F756E74202573202EDB
:104FB0002E2E2000B0B514460D4601F0FBF929460F
:104FC0002246BDE8B0401AF08AB9000070B590B032
:104FD0000D466946044600F0A9FEB0F1FF3F17DD1B
:104FE000BDF80600012100F47040B0F5804F51EA91
:104FF00001966946284600F099FE00280ED4BDF8B7
:10500000060000F47040B0F5804F06D1043605E08C
:1050100034A0214612F0A8FE46E0083606F009004A
:10502000092803D124A012F09FFE3DE0B00706F04E
:1050300004000CD488B916F00C0F03D100212846C7
:105040000BF029FF2046294600F058F82CE0C0B9A3
:105050002046294600F0FCF826E02F212046FBF7E9
:10506000E9FA002854EA0091284601F0EFF9E8B186
:10507000002105460BF00FFF2046294600F03EF8C0
:105080000FE02F212046FBF7D5FA002854EA0091C3
:10509000284601F0DBF948B105462046294600F0D4
:1050A000D7F8284612F026F810B070BD49F2C22099
:1050B000C0F20220B7E700BF6370206661696C64CC
:1050C0002C2063702064697220746F2066696C659F
:1050D000206973206E6F74207065726D69747465D9
:1050E00064210A00636F7079206661696C65642CC5
:1050F000206261642025730A000000002DE9F04F52
:10510000D7B08046894668464FF48032414600F069
:10511000C7FC00286BD416AE00214FF482723046D3
:1051200013F02CFB04980188022975D1371D6C46B9
:105130003CA500BFC069C369002B6DD04FF48272DB
:10514000204631469847012866DB03223846294627
:10515000FBF720FA00283FD038882E283CD0404664
:10516000394601F073F9002846D08346484639464F
:1051700001F06CF9002846D04E460DF11809824620
:1051800000214022484613F0F9FA5846494600F0FB
:10519000CDFD28B124A0394612F0E6FDB1461AE053
:1051A000BDF81E0000F47040B0F5804F08D100211A
:1051B00050460BF070FE58465146FFF79FFF03E044
:1051C0005846514600F044F85846B14611F092FF57
:1051D000504611F08FFF16AE00214FF48272304618
:1051E00013F0CCFA049801880229A3D014E014A08B
:1051F000414612F0B9FD12E049F2B220C0F202209D
:1052000012F0B2FD08E049F2B220C0F2022012F022
:10521000ABFD584611F06EFF684600F08FFB57B0AB
:10522000BDE8F08F2E2E00006F70656E2066696CF1
:10523000653A202573206661696C65640A00000088
:105240006F70656E202573206661696C65640A0065
:10525000F0B58DB006464FF480500D4612F0B4FD07
:10526000D0B301AF0446384604F0D7FF00223846D9
:10527000314600F015FCB0F1FF3F36DD07AE304699
:1052800004F0CBFF40F241223046294600F008FCF2
:10529000002830D401AD07AE0598C069C368CBB310
:1052A0004FF48052284621469847B0F1FF3F2DDD4C
:1052B000074678B30B98C06903692BB13046214685
:1052C0003A469847014601E06FF02C01B942E3D01D
:1052D00016A012F049FD1DE049F2C220C0F20220E2
:1052E0000DB0BDE8F04012F03FBD204611F002FFC6
:1052F0001CA0314607E0204611F0FCFE01A800F09A
:105300001DFB13A0294612F02FFD0CE0029840F07F
:105310008060029001A800F011FB07A800F00EFBCE
:10532000204611F0E7FE0DB0F0BD00BF5772697462
:10533000652066696C652064617461206661696CD2
:1053400065642C206572726E6F3D25640A00000052
:105350005772697465202573206661696C65640AFB
:105360000000000052656164202573206661696C4D
:1053700065640A0010B504464068804745F27531FF
:105380002068C0F200212246BDE810401BF05CBF3F
:1053900080B547F2A030C0F2022001F009F90020E8
:1053A00080BD000070B586B002A901F05BF938B18C
:1053B00011F0D7FE2D3013D126A012F0D5FC15E048
:1053C000DDF808C0DDF810E0AEFB0C43B4F580104A
:1053D00073F1000054EA9F230BD2002200211FE04A
:1053E00011F0BFFE014614A012F0BEFC4FF0FF30DA
:1053F00020E0012000261D46224654EA9F25F107A1
:10540000014608D1104650EA1F53012618434FF0B9
:1054100002002B46F0D16FF39F2202EB8200420A7A
:1054200015A0CDE900EC50F8213016A0214612F06D
:105430009BFC002006B070BD7374617466732066B7
:1054400061696C65643A206572726E6F3D25642EE9
:105450000A0000005468652066756E6374696F6E9B
:10546000206973206E6F7420696D706C656D656E58
:105470007465642E0A000000E4920202E7920202C0
:10548000E19202026469736B20667265653A2025B9
:10549000642E2564202573205B20256420626C6FB8
:1054A000636B2C20256420627974657320706572AB
:1054B00020626C6F636B205D0A000000B0B504468B
:1054C00050B949F20C2049F24621C0F20220C0F244
:1054D00002216F2211F032F82069C16800290CDC2A
:1054E00049F2DF1049F24621C0F20220C0F2022147
:1054F000702211F023F82069C168012901DD002024
:10550000B0BD0188022905D141680A782F2A01D14E
:105510004978B9B1856A55B949F2FA1049F246217C
:10552000C0F20220C0F20221852211F007F82846BD
:1055300011F005FA10B16FF00B00B0BD2169002029
:105540008862B0BD846A54B949F21C2049F24621F0
:10555000C0F20220C0F202217C2210F0EFFF2046B0
:1055600011F0C8FDCBE700002DE9F04381B00069E0
:1055700015460C46866A46B949F21C2022A1C0F2A3
:10558000022040F2591210F0D9FFB5F5827F02D205
:105590006FF0040034E04CF2FD000127CFF60F401D
:1055A0000434A5FB000100254FF00C084FF482796C
:1055B000080A012888BF0F0AB088F1882844884269
:1055C00018D231680C2251F8201088691E284FF03B
:1055D000080008BF042004F8040C204604F8038CDB
:1055E00024F8029C15F010FA013504F58274AF42DC
:1055F000E2D13D46B08805EB85112844B080880093
:1056000001B0BDE8F08300BF6466735F64657669CE
:1056100063655F66735F67657464656E74730000CD
:10562000F0B581B0064614460D4650B949F20C203B
:1056300049F26E21C0F20220C0F202212F2210F0A6
:105640007DFF3069876A5FB949F2FA1049F26E212D
:10565000C0F20220C0F20221332210F06FFF306945
:10566000406801782F2901D1407838B13846294661
:10567000224601B0BDE8F04011F09CB96FF02C005B
:1056800001B0F0BD00207047F0B581B0044600695C
:10569000C16800290CDC49F2DF1049F28221C0F216
:1056A0000220C0F20221982210F048FF2069C16850
:1056B000022902DB0020E06021E0406801782F2908
:1056C00004D1417811B9A179C9071AD1013011F07B
:1056D0009EF960B10321054611F0D4F908B12D30CF
:1056E00008D12069042185620180002007E06FF065
:1056F000190004E02069002181626FF00B0001B005
:10570000F0BD11F067FB092013F09EFC054638B987
:1057100049F282211CA0C0F20221AD2210F00EFF3E
:105720002E1D4FF0FF370425304600BF00680137BB
:10573000B04205F10405F9D111F0BCFC284612F085
:1057400043FB0546E0B111F045FB05F10800286078
:1057500030680021B042A980EF800FD0B9B200229A
:1057600049B12B68A0F1100701399F50043200683D
:10577000B042F5D102E00AA012F0F6FA11F09AFC5C
:1057800020698562B1E700BF696E666F726D6174F2
:10579000696F6E20213D2052545F4E554C4C0000E5
:1057A0007761726E696E673A205468657265206130
:1057B0007265206E65776C7920616464656420642D
:1057C0006576696365732074686174206172652011
:1057D0006E6F7420646973706C6179656421000078
:1057E00000207047F0B581B0044615460E4650B90A
:1057F00049F20C2049F23321C0F20220C0F202210A
:10580000452210F09BFE2069876A5FB949F2FA10C1
:1058100049F23321C0F20220C0F20221492210F0E5
:105820008DFE2069406801782F2901D1407848B168
:10583000E168384632462B4611F0CFF9E168014461
:10584000E16001E06FF02C0001B0F0BD10B5087808
:1058500014462F2801D14878C0B1481C11F0D7F860
:1058600050B1806900210F28216008DC98B101281F
:1058700017D146F2B61016E06FF0080010BD1028E0
:105880000CD01E280DD144F2B6100CE00020206090
:1058900044F2FF1007E042F2B61004E041F2B61005
:1058A00001E048F2B610E08000206061206210BD87
:1058B00003A090ED001F002081ED001F704700BF86
:1058C00000020000000002000000020000000200D0
:1058D00000207047F0B581B0044615460E4650B919
:1058E00049F20C2049F25A21C0F20220C0F20221F2
:1058F0005A2210F023FE2069876A5FB949F2FA1034
:1059000049F25A21C0F20220C0F202215E2210F0B8
:1059100015FE2069406801782F2901D1407848B1EF
:10592000E168384632462B4611F016FAE168014428
:10593000E16001E06FF02C0001B0F0BD70B5B8B1CE
:1059400006468068012816D140F67C404FF0FF31B2
:10595000C2F2002013F048FA3569E86801280CDB30
:10596000E969496861B1304688470446E86808E05B
:105970006FF00C0427E0002425E06FF00C041CE01D
:105980000024012819D12A460023336152F8100F50
:10599000516841605168086052F8081C52F80C0CBC
:1059A000C2E90022884203D0084611F0A3FB6868D0
:1059B00011F0A0FB284611F09DFB40F67C40C2F29E
:1059C000002013F01DF9204670BD50B1D0F810C072
:1059D000BCF80030022B04D1DCF81C30DB691BB1B1
:1059E00018476FF0040070476FF02C00704770B5D7
:1059F0000146002000F02AFD40F67C450446C2F234
:105A000000254FF0FF31284613F0EEF90021204623
:105A100000F09CFE002828465FEA0F9613F0F0F88D
:105A2000204611F067FB304670BD000010B541F60E
:105A3000A4746FF01600C2F2002400BF10F1170129
:105A400005D14FF0FF31204613F0CEF9F6E700B94B
:105A500010BD49F2F81004A1C0F202208C22BDE86A
:105A6000104010F06BBD00BF6466735F66696C65C3
:105A70005F6C6F636B00000010B558B1044600699D
:105A8000C06982694AB120469047002848BF10BDCE
:105A9000E06010BD6FF0040010BD6FF02C0010BD71
:105AA0002DE9F04381B0002841D00446002016467D
:105AB00000F0CCFC002800F0A180074640F67C40B6
:105AC000C2F200204FF0FF3113F08EF969463846DC
:105AD00000F03CFE70B30546C0680130E86000206D
