:020000040200F8
:100000004072002299240002850A0002C703000200
:100010005D0A00025D0A00025D0A00025D0A00023C
:100020000000000000000000000000005D0A000267
:100030005D0A000200000000FF02000259250002D4
:10004000D1200102D5210102852101024B200102AC
:100050008D3F00024D93000229B300029DB30002C0
:1000600011B40002ABB200029BB100020FB2000259
:10007000E17E00020000000000000000000000001F
:100080000000000000000000000000000000000070
:100090000000000000000000000000000000000060
:1000A0000000000000000000000000000000000050
:1000B0000000000000000000000000000000000040
:1000C0000000000000000000000000000000000030
:1000D0000000000000000000000000000000000020
:1000E0000000000000000000000000000000000010
:1000F0000000000000000000000000000000000000
:1001000000000000000000000000000000000000EF
:1001100000000000000000000000000000000000DF
:1001200000000000000000000000000000000000CF
:1001300000000000000000000000000000000000BF
:1001400000000000000000000000000000000000AF
:10015000000000000000000000000000000000009F
:10016000000000000000000000000000000000008F
:10017000000000000000000000000000000000007F
:10018000000000000000000000000000000000006F
:10019000000000000000000000000000000000005F
:1001A000000000000000000000000000000000004F
:1001B000000000000000000000000000000000003F
:1001C00000F002F800F073F80AA090E8000C8244F6
:1001D0008344AAF10107DA4501D100F068F8AFF2D3
:1001E000090EBAE80F0013F0010F18BFFB1A43F015
:1001F0000103184748A4010088A401000A444FF0F5
:10020000000C10F8013B13F0070408BF10F8014B75
:100210001D1108BF10F8015B641E05D010F8016BBA
:10022000641E01F8016BF9D113F0080F1EBF10F81E
:10023000014BAD1C0C1B09D16D1E58BF01F801CB41
:10024000FAD505E014F8016B01F8016B6D1EF9D5C4
:100250009142D6D370470000103A24BF78C878C1C5
:10026000FAD8520724BF30C830C144BF04680C60BC
:10027000704700000023002400250026103A28BF04
:1002800078C1FBD8520728BF30C148BF0B60704708
:100290001FB515F04BFF00F02BFB040000200021E0
:1002A00015F02EFF401C60601FBD10B510BDDFF8BB
:1002B00010D0FFF7EDFF00F0CCFB00F0C1FB000019
:1002C0004052002203B4FFF7F0FF03BC03F0E0FA52
:1002D000EFF3108072B6704780F310887047484A79
:1002E0001368012B04D04FF001031360454A1060DE
:1002F000454A116045484FF0805101607047EFF367
:10030000108272B63E48016879B34FF00001016077
:100310003C48016891B1EFF309811EF0100F08BF4E
:1003200021ED108B21E9F00F4FF000041EF0100FAB
:1003300008BF012441F8044D0068016000B502F0D7
:10034000B8FA5DF804EB30490968096808C9B1E8F2
:10035000F00F002B18BFB1EC108B81F309884EF021
:10036000100E002B18BF2EF0100E82F310884EF0E6
:10037000040E704724490860EFF3148222F004024F
:1003800082F314881F494FF0000008601C494FF0A9
:10039000010008601E481F49D0F8002041EA020110
:1003A00001601A484FF0805101601B4800680068E6
:1003B00000BF80F3088861B662B6BFF34F8FBFF30A
:1003C0006F8F704700BFEFF308801EF0040F01D05D
:1003D000EFF3098020E9F00F40F804ED40F804ED58
:1003E0001EF0040F02D080F3098801E080F3088832
:1003F00000B50DF06BFF5DF804EB4EF0040E704796
:10040000CC0F0022080E0022140E002204ED00E0A2
:1004100020ED00E00000FFFF08ED00E07047000065
:1004200010B500F065FA001D10BD00BFD55C0100DD
:1004300053EA020C00F069802DE9F04B4FF0000602
:10044000002B1FBFB3FA83F503FA05F424FA05F66F
:100450005E4012BF1643B2FA82F502FA05F4C5F106
:1004600020051EBF22FA05FC44EA0C04203556EA9A
:10047000044C4FEA144418BF641C4FF000084FF0BE
:100480000009904271EB030C39D3002919BFB1FA6E
:1004900081F701FA07F6B0FA80F700FA07F6C7F11C
:1004A00020071EBF20FA07FC46EA0C062037B6FBE1
:1004B000F4FCA7EB0507103F07F01F0BCBF120065C
:1004C0002CFA06F60CFA0BFB44BFB3460026202F8D
:1004D000A4BF5E464FF0000B5BEA060C08BF4FF06E
:1004E000010B19EB0B0948EB0608ABFB027C06FB82
:1004F00002CC0BFB03CCC01B71EB0C01C1E70B461C
:10050000024641464846BDE8F08B13B5084318BF84
:100510004FF0FF300146AFF30080BDE81C4070474C
:1005200070B5064600F0E8F90468054630460A2230
:10053000002100F0F0F92C6070BD401ECAB210F826
:10054000011F8A4202D00029F9D10020704740EAF9
:10055000010310B59B070FD1042A0DD310C808C999
:10056000121F9C42F8D020BA19BA884201D9012042
:1005700010BD4FF0FF3010BD1AB1D30703D0521C8D
:1005800007E0002010BD10F8013B11F8014B1B1BC8
:1005900007D110F8013B11F8014B1B1B01D1921E32
:1005A000F1D1184610BD10B5431C02E010F8011B34
:1005B00071B18107FAD14FF0013202C88C1A8C4315
:1005C00014EAC211F9D0C01A0A0603D0C01E10BD29
:1005D000C01A10BD0A0401D0801E10BD0902FCD053
:1005E000401E10BD40EA010370B59B072ED14FF0AD
:1005F0000136042A2AD308C810C99D1B9D43121F27
:1006000015EAC61517D0D8B2E1B2401A50EA056112
:1006100010D198B2A1B2401A50EA05410AD123F094
:100620007F4024F07F41401A50EA052102D1180E84
:10063000A0EB146070BDA342DBD018BA21BA884287
:1006400001D9012070BD4FF0FF3070BD0AB9002004
:1006500070BD10F8013B11F8014B63B1A3420AD100
:10066000521E08D010F8013B11F8014B1BB1A342F8
:1006700001D1521EEDD1181B70BD032A40F230800B
:1006800010F0030C00F0158011F8013BBCF1020FD3
:10069000624498BF11F801CB00F8013B38BF11F854
:1006A000013BA2F1040298BF00F801CB38BF00F86B
:1006B000013B11F0030300F02580083AC0F00880E8
:1006C00051F8043B083A51F804CBA0E80810F5E7CC
:1006D000121D5CBF51F8043B40F8043BAFF30080AF
:1006E000D20724BF11F8013B11F801CB48BF11F824
:1006F000012B24BF00F8013B00F801CB48BF00F8F4
:10070000012B704710B5203AC0F00B80B1E81850AB
:10071000A0E81850B1E81850A0E81850203ABFF4EB
:10072000F5AF5FEA027C24BFB1E81850A0E818508A
:1007300044BF18C918C0BDE810405FEA827C24BFDE
:1007400051F8043B40F8043B08BF7047D20728BF6C
:1007500031F8023B48BF11F8012B28BF20F8023BBB
:1007600048BF00F8012B704702F0FF0343EA032261
:1007700042EA024200F00AB802F0FF0343EA032211
:1007800042EA024200F024B84FF000020429C0F00F
:10079000128010F0030C00F01B80CCF1040CBCF1B3
:1007A000020F18BF00F8012BA8BF20F8022BA1EB05
:1007B0000C0100F00DB85FEAC17C24BF00F8012BEA
:1007C00000F8012B48BF00F8012B70474FF00002E2
:1007D00000B5134694469646203922BFA0E80C5037
:1007E000A0E80C50B1F12001BFF4F7AF090728BF12
:1007F000A0E80C5048BF0CC05DF804EB890028BF8E
:1008000040F8042B08BF704748BF20F8022B11F0B6
:10081000804F18BF00F8012B704710B5044610F048
:10082000030F08BF11F0030F40F015804FF0013E99
:10083000121FC0F20E8051F8043BA3EB0E0C2CEA01
:10084000030C1CEACE1C08BF40F8043BF0D0A1F119
:10085000040102F10402521E08DB11F8013B00F80A
:10086000013B002BF7D11146FFF78EFF204610BD4C
:1008700030B44FF0013C50F8042B51F8043BCCFA53
:1008800052F4D51A20D1FCB950F8042B51F8043B8E
:10089000CCFA52F4D51A17D1B4B950F8042B51F848
:1008A000043BCCFA52F4D51A0ED16CB950F8042B93
:1008B00051F8043BCCFA52F4D51A05D1002CDAD009
:1008C00030BC4FF00000704729BAB1FA81F111F045
:1008D0001801D1F120008440F2D1CA40CB4012F07F
:1008E000FF0213F0FF0330BCD01A704770470000BE
:1008F000004870473804002200487047180400225E
:1009000010B5FFF7F9FF006810BD10B50446FFF7FA
:10091000F3FF046010BD2DE9F04791460F46804675
:100920000446002614F8015B2DB1FFF779FD00683D
:10093000405DC007F6D12B2D02D02D2D18D0641E9E
:100940004A463946204600F01EF827B13968A142D0
:1009500001D1C7F800804FF0020471050BD5404269
:10096000002803DDFFF7C8FF0460A007BDE8F0879B
:1009700046F48066E4E70028F8DAFFF7BDFF04607C
:100980006FF00040F2E72DE9F05F824615468B4696
:1009900000270AF10104B9460078302801D09DB142
:1009A00013E014F8010B0127782803D0582801D050
:1009B00045B10AE00DB1102D07D1002714F8010B45
:1009C000102502E0082500E00A250026B0460EE0CA
:1009D00005FB080005FB06F101271FFA80F801EB73
:1009E0001046B6F5803F00D3B94614F8010B2946EE
:1009F00000F018F80028EBDABBF1000F05D00FB1BA
:100A0000641E00E05446CBF80040B9F1000F06D058
:100A1000FFF772FF02210160C81EBDE8F09F48EA9F
:100A20000640FAE73A2800D2303820F02002412A66
:100A300001D3A2F13700884201D34FF0FF30704755
:100A400010B50446AFF300802046BDE81040FFF724
:100A500039BC80B511F0E4FA002080BD00BE7047BB
:100A600010B504460EF0E3FA2068032805D141F2E0
:100A7000B400C2F200200CF0DDFFBDE810400EF023
:100A8000F9BA0000F0B581B04CF2001540F6AC07A1
:100A9000C4F200050024C2F200272888298C0840EF
:100AA00086B200BF26FA04F0C00703D0396809B146
:100AB0002046884701340437102CF3D12E8200BF22
:100AC000288C3042FCD101B0F0BD0000B0B542F23C
:100AD0002404C820C4F2200401210025257100F05F
:100AE00082F82570207808B12FF005C0207840F0FA
:100AF0000200207020788007FCD4002004F8020C4B
:100B000014F8020C08B12FF005C84FF0030E0020B6
:100B100004F11C0111F8102002F07F0201F81020EE
:100B200011F91020002AFBD401300FF00DC801206C
:100B300000F00BF84EF64C410120C4F201010022F6
:100B40000A70BDE8B04000F027B880B5EFF310811F
:100B5000012282F3108840F67C12C2F2002232F8A1
:100B600010308BB947F2083C4EF2FA3EC0F2012C2D
:100B7000C4F2010E3CF810C0BEF8003043EA0C038A
:100B800043F42543AEF8003032F81030013322F838
:100B9000103081F3108880BDEFF31081012282F3C1
:100BA000108840F67C12C2F2002232F8103023B1D5
:100BB00032F81030013B22F8103032F810207AB9A8
:100BC0004EF2FA3247F2083CC4F20102C0F2012CA4
:100BD00013883CF8100043F4254323EA00001080FA
:100BE00081F31088704740F278424CF60023C2F23D
:100BF0000022C3F69A3341434FF47A7C1268B3FB68
:100C0000F2F2A1FB0C3010B9B3FBF2F004E0B1FB3F
:100C1000F2F0A0FB0C0119B908B103F0D1B870478C
:100C20004FF0FF3003F0CCB87047022818BF704770
:100C300048F2A800C0F20120416840F64810C2F214
:100C4000002000F009BE844641610020CCE9063254
:100C5000704748F20002C4F23402D36FDB0716D1AA
:100C60001368DB0313D4036881605B691B68022B84
:100C700007D1C36819440123013963F30401D16525
:100C800081680020D16350670121116070470820FE
:100C90007047B0B548F2000C4FF0000EC4F2340CAF
:100CA0004EF28015CEF200050124CCF870E0036806
:100CB0005B69996A01F01F02490904FA02F245F8DA
:100CC000212040F60422BFF34F8FBFF36F8F996A44
:100CD000C2F2002242F821E04FF48031CCF800103B
:100CE000C0F804E043F20800EFF31085C4F22000DE
:100CF00084F31088016841F4803101600068962017
:100D00000121FFF770FF85F310880020B0BD0000BF
:100D10002DE9F04F81B00D464F69498804462A7A83
:100D2000D7F804B00560386802FB01F80BF1010147
:100D30000228E8686061B8FBF1F9E988009101D107
:100D4000786901E008FB09F0E060EFF3108A012008
:100D500080F3108843F2080048F20006C4F2200035
:100D6000C4F23406016821F48031016000689620E5
:100D70000121FFF738FF8AF3108800BFF06FC0072A
:100D8000FCD100BF3068C003FCD4F8694FF44011B7
:100D900001EA00507060D7E9030CBBF1000FD7E9FE
:100DA000002300F0010002F00302397A6CF34100E5
:100DB00003F0010340EA021001F0010240EA0330AF
:100DC000C1F3400340EA0260C1F3800140EA83605E
:100DD00040F2000340EAC160B0606988EA88C0F66A
:100DE000FF734FF0010C03F140506FF39F3100EAA5
:100DF00002405FEA1F920844F0605CEA1C90298878
:100E000029FA02F26FF35F394843A9886FF31F3262
:100E10004FF0000E6FF35F3061F31B40009903EA5F
:100E20000143306103EB09007061C6F85CE098187B
:100E30007063C6F83880C6F860E00222387E4EF251
:100E40000017CEF200074EF6145862F3DF0070660A
:100E5000206844F25552C5F24322C4E9012E40698C
:100E6000CEF20008836A026AD91990F8240003F0D0
:100E70000F0501F54071002B4FEA001048BF05EB4C
:100E800008012261087040F6042003F01F02C2F23C
:100E900000200CFA02F240F823404CF20030C4F279
:100EA000000050F8231021F4803140F8231050F84E
:100EB00023005809BFF35F8F07EB8001C1F8802141
:100EC00047F82020C6F874E000202169316701B09E
:100ED000BDE8F08F48F20002C4F234021368DB036D
:100EE00006D4D36FDB0705D1136803F0010302E0DA
:100EF000022300E001230B60806848600020D2F8E4
:100F000084208A60704743F200101302C4F2340058
:100F1000C358DB071AD16FF0FF03C358DB0515D4A4
:100F200000EB0220032200295FEA0F9C08BF012288
:100F3000036A23F002031A430262C0F804C0C160CE
:100F4000016841F0010101600020704740F2EE307D
:100F5000704700002DE9F04F81B043F20808824647
:100F6000C4F22008002707600120EFF3108480F30B
:100F70001088D8F800000D4620F01000C8F80000D6
:100F800043F20449D8F8000043F2000B96200121F7
:100F9000C4F23409C4F2340BFFF725FE84F3108841
:100FA0004023DBF8000040F48030CBF80000D5F897
:100FB000A400296C0329D0E9042008BF4FF4825310
:100FC00000F03F00002A08BF03F580731844C9F8F9
:100FD0004C00286DD5F8A410002818BF4FF4BC7041
:100FE000CBF8E403C9F80070D1E90032581C8868D6
:100FF00047F2E821C0F2012112D02F6B2FB9D9F8A6
:10100000187047F01007C9F8187051F823301F689E
:1010100047F002071F60EB8D6FF3DF23C9F8143030
:10102000531C10D0EB6B2BB9D9F8083043F01003E8
:10103000C9F8083051F82220136813606A8F6FF3E3
:10104000DF22C9F80420421C1ED0EA6C12B901222A
:10105000C9F8242051F82000016841F0070101601F
:10106000A88D698D6FF3DF206FF3DF2141EA004027
:10107000C9F81C00288FE98E6FF3DF206FF3DF21A2
:1010800041EA0040C9F80C00A88E298D40F61813DB
:101090006FF3DF20C2F200236FF3DF2141EA00404B
:1010A000CBF804004FF00110CBF80800A88D698D33
:1010B00001306FF3DF216FF3DF2041EA0040CBF80E
:1010C0001000288FE98E01306FF3DF216FF3DF20EE
:1010D00041EA0040CBF80C0095F8550095F8561001
:1010E00095F85420000240EA014040F610111044E7
:1010F000CBF81400C2F20021A88D6A8D088040F65A
:101100001411C2F20021288F1A800022088040F6B4
:101110001C11C2F20021E88E088005F16C012846FE
:101120000BF040FB05F1140005F17C0101220BF0EE
:1011300039FBD5E9100182A295F868707CA4AB6CEC
:1011400052F82020002F54F820704FEA024215D0A8
:10115000D5F8A440A669022E0ED104F11C0EA46A93
:101160009EE84050360346EA0C2646EA0E16264311
:10117000324342F4001201E042F480123E034FF089
:101180008054012948F2800108BF44EA0736012B48
:10119000C0F2800108BF46F0807603284FF400704B
:1011A00008BF06F50076CBF8C463CBF8D423CBF8A0
:1011B000C8034FF00220CBF8CC03CBF8D01340F695
:1011C0002012D5E92701CAE90101288FE98EC2F270
:1011D0000022CAF80C50C2F800A008440130DBF825
:1011E000501260F30A01CBF85012DAF80C00D0F874
:1011F000A400C16A07C912689047054698B101204A
:10120000EFF3108480F310880121D8F8000040F03B
:101210001000C8F80000D8F800009620FFF7E3FCA3
:1012200084F3108880E00620C9F83C000720C9F844
:101230004000DAF80C304EF200104CF2003140F66B
:101240000422D3F89070CEF20000002FC4F2000107
:10125000C2F200221FD493F88C30C61901241B015E
:1012600086F8003342F827A051F8273023F4803362
:1012700041F8273051F827307B0907F01F07BFF3EB
:101280005F8F00EB830604FA07F7C6F8807140F819
:101290002370DAF80C30D3F89470002F1FD493F831
:1012A0008D30C61901241B0186F8003342F827A0AF
:1012B00051F8273023F4803341F8273051F8273094
:1012C0007B0907F01F07BFF35F8F00EB830604FA6B
:1012D00007F7C6F8807140F82370DAF80C30D3F8BD
:1012E0009870002F1DD493F88E30C6191B0186F814
:1012F000003342F827A007F01F0351F8272022F4FB
:10130000803241F8272051F8271079090127BFF3CF
:101310005F8F00EB810207FA03F3C2F8803140F8D7
:1013200021300120CAF80000284601B0BDE8F08F46
:1013300000000000010000000200000003000000A7
:10134000000000000100000002000000000000009A
:1013500010B50446C068D0F8A400C06A816800686F
:101360008968884743F20001C4F234010A6842F4F4
:1013700080720A600A6842F001020A60D1F84024D3
:1013800042F00102C1F840240221216010BD8446D0
:1013900041610020CCE906327047B0B543684EF297
:1013A000801E40F6042CCEF2000E59691B6A0029FB
:1013B000C2F2002C0ED44A0901F01F04012505FADF
:1013C00004F44EF82240BFF34F8FBFF36F8F00221B
:1013D0004CF82120996B00290ED44A0901F01F0412
:1013E000012505FA04F44EF82240BFF34F8FBFF3F6
:1013F0006F8F00224CF82120D96B00290ED44A09A6
:1014000001F01F03012404FA03F34EF82230BFF366
:101410004F8FBFF36F8F00224CF82120816800228C
:101420000260C3688B60816800204A63B0BD816838
:101430004FF000420A6181684A6181688A61002236
:1014400081684A62816800208A6270472DE9F04312
:1014500083B01646044602F00309002001904FF0C5
:10146000FF3000906A4620463346884607F0AEFFBC
:10147000A268156B019FAFB90421300758BF022144
:10148000B007009802F14C0203D4494402EB8101F9
:1014900007E042F8210041F00101A26802EB81015E
:1014A0004C31086070060CD4022E39460FD13946F3
:1014B0006FB16A4601232046414607F087FF019934
:1014C00005E0A068016C41F480010164394625F40F
:1014D0004030B9F1010F18BF40EA074525F04072CE
:1014E000A368B9F1000F4FF0000018BF42EA016590
:1014F0001D6303B0BDE8F08380B54168D0F808E013
:10150000096AD1E904C38A6943F00043CEF8143074
:1015100042F0004283689A614CF000438268136194
:101520008268CB69536282680020096A916280BD3B
:10153000F0B58068426E01328A60D0F82CC04EF25D
:101540002000C4F201000268007942EA000300F0C2
:101550000F001B0702F00F0308D440F27842C2F2DA
:101560000022126802FA00F0D8401BE000F0070EDB
:10157000032707FA0EF440F2784EC2F2002E01253E
:10158000082838BF05FA00F402F00700DEF8006012
:1015900007FA00F006FB04F7120758BF05FA03F03C
:1015A000B7FBF0F0CCF3C352012320FA02F2002083
:1015B000C1E90032F0BD2DE9F04782B00D46097C4B
:1015C000814642F2000307295FEA9F9202614F467B
:1015D000287CC4F2320301220024D5F820A04FF069
:1015E000004803EB002047F8080F02FA01F078608A
:1015F00047F8045CA869F860E86978613C61EFF33A
:10160000108682F31088287C43F21001C4F2200176
:1016100028FA00F00A6822EA0000086008689620AC
:101620000121FFF7E0FA86F310884FF4254138686E
:1016300001603868C4623868C463386884642868A4
:10164000A968032838684FEAC1516A6808BF01F5E4
:101650008031C1623868C0F810803868C0F81480E2
:101660003868C0F81880386844623868846238681E
:10167000DAF82410C1613868DAF828100162511EC6
:1016800038688166386841664FF0FF302968DAF8BB
:1016900044800129019400900DD029B968684FF069
:1016A000FF3101EB500006E0E9686A460023484636
:1016B00007F08CFE009839684865396888652968A4
:1016C000042903D33968C86539680866DAF8440024
:1016D0000028019837D19AF80010B1B12A68DAF8D9
:1016E0000410022A03D0032A03D1032205E00922B1
:1016F00003E00922002908BF06220B0143EA8111F9
:10170000114441EA080141F480789AF80810D1B1F7
:101710002A68DAF80C10022A04D0032A05D14FF403
:10172000403208E04FF4102205E04FF41022002967
:1017300008BF4FF4C0220B0543EA8151114441EA2E
:10174000080141F08078396800228A633968C1F85D
:101750008820DAF8441031B9DAE90B12490341EA7A
:10176000427148EA010839684FF4AA020A642968FC
:10177000012904D139680022CA6439680A65D9E9A7
:101780000212CA60D9F80810C1F834800104D9F8EF
:10179000082041EA0060C11C013011634A46D9F8B3
:1017A00008100863697C68690BF04EF99AF83410E8
:1017B000DAF838004A460BF047F99AF83510DAF8AB
:1017C0003C004A460BF040F945F254010020C0F2BB
:1017D0004701C9F8001002B0BDE8F08783684A1ECF
:1017E0009A6643681B684BB9D0F808C04FF0FF33C6
:1017F00003EB5101CCF85410836899658168CB6A7A
:10180000DB0707D14A664FF4AA0281680A64D0E96F
:101810000210C86000207047014682680020C96835
:10182000D1607047014682680020C96851607047E6
:101830008268D06A00F0010048600020926C0A6063
:101840007047014682680020C96891607047014670
:10185000002000220A60704780B545F25422C5F28C
:101860004F02026008460BF01BF9002080BD70B5E6
:1018700086B001A8049003A814460D46CDE90121C5
:101880000126ADF80C6002F09FFA40F68410EFF3E9
:101890001081C2F2002086F3108802683AB940F63F
:1018A00014520023C4F240021370402313700268E4
:1018B0000132026081F31088E10340F600014FEA33
:1018C0001522C4F2400101D4EBB20CE001EB821608
:1018D000EBB256F8235025F4803546F8235024F413
:1018E000803546F8235001EB8211012241F8234054
:1018F000EFF3108182F31088026812B10268013A96
:101900000260006838B940F614500022C4F240006A
:1019100002708022027081F31088002006B070BD32
:101920004FF4FF50042300EAD100C4F24003C9B2CF
:10193000C0580023CFF6FF7343EA104020FA01F1AC
:10194000002001F001011160704780B5C8B24FF06E
:10195000010C531E0CFA00F050EA138E4FF4FF5C9A
:101960000C230CEAD101C4F24003012A18BF002065
:10197000012A41EA030CCA5808D180B24FF6FF7120
:1019800041EA0E41104300EA010205E042EA0E413D
:10199000CFF6FF7001EA00020020CCF8002080BDE5
:1019A0006FF03F00CBB200EA910040F6000100EB7F
:1019B0008300C4F2400141580020C1F3400111608E
:1019C000704780B55FFA81FE012000FA0EF0002A10
:1019D00083B24FF4FF5040F208024FF4803C00EA1B
:1019E000D101C4F240024FF0000008BF0CFA0EF320
:1019F0008B5080BD80B508460BF052F8002080BDAA
:101A000080B54FF4FF5040F2000C00EAD101C4F25F
:101A1000400C03EA020E62EA030251F80C004EEA9F
:101A2000000E002002EA0E0241F80C2080BD4FF4A7
:101A3000FF5000EAD1000421C4F2400141580020C7
:101A4000090C1180704723EA020C4FF4FF501A4032
:101A50000C2300EAD101C4F24003002042EA0C4208
:101A6000CA5070474FF4FF50042300EAD101C4F27A
:101A700040030020C9581180704723EA020C4FF43C
:101A8000FF501A40082300EAD101C4F240030020AD
:101A900042EA0C42CA5070472DE9F04146F2041563
:101AA0008046C4F2340506F0AFFAD8F80C10286866
:101AB00020F00100286040F60C100322C2F2002042
:101AC0000260497BD5F81C22C2F3C0628A421CBF67
:101AD0000268002AF6D100250560D8F80CC001265E
:101AE000DCF874104A6802F01F0354094EF28012A9
:101AF00006FA03F3CEF2000242F8243040F6042343
:101B0000BFF34F8FBFF36F8F4C68CF68C2F20023D3
:101B1000780907F01F0743F8245006FA07F742F840
:101B20002070BFF34F8FBFF36F8FC8684F697C0978
:101B300043F8205007F01F0006FA00F042F8240096
:101B4000BFF34F8FBFF36F8F4869CF697C0943F8AC
:101B5000205007F01F0006FA00F042F82400BFF3FF
:101B60004F8FBFF36F8FC8694F6A7C0943F82050CD
:101B700007F01F0006FA00F042F82400BFF34F8F71
:101B8000BFF36F8F486ACF6A7C0943F8205007F093
:101B90001F0006FA00F042F82400BFF34F8FBFF396
:101BA0006F8FC86A43F82050DCF8000000680AF024
:101BB000D9FF43F20800C8F80050C4F22000EFF348
:101BC000108486F31088016841F480610160006828
:101BD00096200121FFF707F884F310880020BDE864
:101BE000F081F0B546F2C0504FF65022C4F23400F6
:101BF000CFF6FF728358DB0714D18258D20611D476
:101C000091F800C04A6802F00F058C89092D00EB9D
:101C1000CC1303F5E07307D35FFA84FE250A4FF077
:101C2000807710E00820F0BD34B10D69012C95F8E3
:101C300000E006D1002702E000274FF0000E00254B
:101C400001E06D78002702F03F024EEA05250CF016
:101C500003048E6845EA024206F0400542EA8452D7
:101C60003A4306F0030742EAC54206F0200542EA7D
:101C700087621A606A04360702F180724FF0140618
:101C800008BF6A04002D08BF6A04002F4FF0807758
:101C900008BF1026C3E90172BCF1000F5FEA1F976D
:101CA0008A59DA600760097801295FEA1F910164A7
:101CB0000020F0BD2DE9F04188B043F25042C4F25B
:101CC00034021268520601D41E204AE10D4640F645
:101CD0000C1840F6F8110446C2F20028C2F20021A6
:101CE0000020C8F800000870E560EFF310860120BE
:101CF00080F3108843F20800C4F22000016821F448
:101D000080610160006896200121FEF76CFF86F378
:101D100010882968D1E900010AF03AFF002840F054
:101D2000208146F20017C4F23407386840F480700E
:101D30003860386940F00100386100BF786900F010
:101D40001F001F28FAD1E87A013840F4407038604B
:101D5000287BB96821F0FF010844B86095F82C0091
:101D6000298D2A6B95F8343002F00F0241EA0040C9
:101D700095F8351040EA025095F8362040EA437055
:101D800040EA817040EAC27038626868D0E9002198
:101D9000090480683FFA81F162F38B0141EA006037
:101DA000C7F814026868C0686FF39F20C7F818026C
:101DB000E869C7F81001286AC7F81401686AC7F80B
:101DC00018012869C7F8E0016869C7F8E401A86943
:101DD000C7F8E801284606F0BDF86E6F306BC7F80B
:101DE0000801706BC7F80802B06BC7F82802F06BE7
:101DF000C7F8180346F2D450316CC4F23400416085
:101E0000716C416440F21011C7F609510160016420
:101E10000B204EF20751C0F2D000C5F2F771C7F89F
:101E20001403C7F804110020A061D5E91B01C4E91F
:101E300004013046214606F0ADF806F108002146BF
:101E400006F0A8F806F11000214606F0A3F806F106
:101E50001800214606F09EF806F12000214606F003
:101E600099F806F12800214606F094F844F644104B
:101E70000322C4F650502060E068396841F4807154
:101E800039600121C8F80010417B002908BF0122F8
:101E90007A60407BD7F82012C1F3806181421CBF79
:101EA000D8F800100229F5D10220C8F8000095F8F2
:101EB0003700A96B95F83C200023C003C7F6FF73D9
:101EC00061F3154062F39750C7F8200395F844106A
:101ED000286CAA6C6FF31F3003EA024240EAC1305B
:101EE0001043C7F82803D5E913016FF35F3061F39E
:101EF0001C40C7F82C0395F85800E96D6A6D03EA99
:101F000001416FF31F3242EAC0300843C7F8300383
:101F1000D5E918016FF35F3061F31C40C7F8340353
:101F2000A86E43F6FC7101EA8000C7F80403A069BB
:101F3000062100916169039150B10DF1100C90E8F8
:101F40008E008CE88E009DE88E0080E88E0000E018
:101F5000684621698847A06910B104AF8ECF8EC052
:101F6000002008B0BDE8F08110B588B00446806953
:101F70004FF0070100916169039150B10DF1100E0E
:101F800090E80E108EE80E109DE80E1080E80E10FE
:101F900000E0684621698847A06928B10DF1100C5E
:101FA0009CE80E1080E80E1046F200404FF61041FB
:101FB000C4F23400CFF6FF714258D2071DD1415808
:101FC000C9061AD4E1680A7A4B7A897A120242EA7F
:101FD000432242EA81210131016040F6F811C2F248
:101FE000002100BF0269120703D40A780AB92FF052
:101FF00007C801200870002000E0082008B010BDCC
:102000004FF6F05046F22022CFF6FF70C4F23402B1
:102010001058086010684860002053688B60936017
:10202000704780B505F0F0FF002080BD10B511F0BD
:10203000020C024606D0107900285FEA1F904FEA92
:10204000007E01E04FF0000E137950794CEA030C4A
:1020500001F0010343EA00040028704608BF40F085
:102060008070002B936850EA1E8E43EA010046F20E
:102070000C139060C4F23403BCF1000F5FEA0F91BF
:10208000002054711171C3F800E010BD70B511F05B
:102090000203024601D1002001E010794007002B25
:1020A00053795FEA1F9C11F0010E157906465FEA2D
:1020B0001F94002B18BF46F00076BEF1000F50EAC7
:1020C0000680002B5FEA0F93002D5FEA0F962340F6
:1020D00053710CEA060346F20C16C4F2340613716F
:1020E00030600020936823EA0101916070BD000018
:1020F0002DE9F04F81B00A784FF0010C40F21F2318
:1021000004460CFA02F748F200001F42C4F2350000
:102110005FEA0F9300EB0220A27820621801207082
:10212000886B606222F00300D1E90F38421CA27074
:102130004A680D46002AE362E1614FF00002A262A4
:1021400002D140F00200A0704EF20019E96ACEF20E
:1021500000094A0909F1800001F01F034CF2003A1E
:1021600095F828B00CFA03F340F82230C4F2000AC4
:1021700001F00F03BFF34F8FBFF36F8F5AF8212089
:102180001F1F09F540734EF6185E22F480324AF89C
:102190002120CEF2000E5E185AF82120002948BFF7
:1021A00007EB0E064FEA0B1240F6042B3270C2F218
:1021B000002B6A6902F01F062F7C4BF82140510961
:1021C0000CFA06F6002A40F8216002F00F06BFF371
:1021D0004F8FBFF36F8F5AF8221021F480314AF8E5
:1021E0002210A6F1040103EB020648BF01EB0E0624
:1021F0005AF8221039013170E9694BF822404A0936
:1022000001F01F072E7E0CFA07F740F8227001F04C
:102210000F07BFF34F8FBFF36F8F5AF821200029AC
:1022200022F480324AF82120A7F1040203EB0107CF
:1022300048BF02EB0E075AF8212032013A706A6A51
:102240004BF82140510902F01F0795F820600CFA65
:1022500007F740F8217002F00F01BFF34F8FBFF373
:102260006F8F5AF82200043920F480304AF8220097
:1022700013445AF82200002A48BF01EB0E03300134
:1022800018704BF82240EFF310868CF310882878F2
:102290004FF0004121FA00F043F20401C4F22001A2
:1022A0000A6822EA00000860086896200121FEF70B
:1022B0009AFC86F310884FF48061206A4FF44073D3
:1022C0008160286C6968EA6803EA0121D0E900C7E7
:1022D00062F38E31C66907F0010306F001020CF0CB
:1022E000030741EAC333266A43EA4252237842EAAB
:1022F000076241F20007C0F21007C168002B08BF57
:102300004FF480573A447261026822F00103022BB5
:1023100007D14FF60471022ACFF6007108BF2031B1
:1023200000E00968226A4FF4407711618169AB6867
:10233000826801F00301022B02F0010208BF4FF492
:102340008077002B18BF3944236A41EA027130318B
:10235000D9600021226A91612278B2B1226A48F2E2
:102360000003C0F280035362E2692378276A126C8B
:10237000013B12697E6A1A4003F00F0302F00F025C
:1023800046EA036343EA02427A6290F82520036A30
:1023900090F8240003F0010302F01F0260F30C2305
:1023A000206A43EA024202631022206AC4E905114E
:1023B000C4E90311C9F60752D8F81410A160826667
:1023C0000120216A0867E1694A6953095AF8221015
:1023D00021F480314AF822105AF8221009F5C07110
:1023E00002F01F02BFF35F8F00FA02F241F82320D0
:1023F00049F82320E269D26A5AF8223023F4803364
:102400004AF822305AF82230530902F01F02BFF373
:102410005F8F00FA02F241F8232049F82320E26995
:10242000D2695AF8223023F480334AF822305AF81D
:102430002230530902F01F02BFF35F8F00FA02F24D
:1024400041F8232049F82320E269526A5AF82230E1
:1024500023F480334AF822305AF82230530902F02C
:102460001F02BFF35F8F904041F8230049F823001B
:1024700040F21141206AC0F201018160206A00BF70
:10248000017FC907FCD044F642110020C5F2433158
:10249000616001B0BDE8F08F00F0AEF8FEF7D9FA48
:1024A000FEE70000B0B5044600680121A26890472D
:1024B000206998B10FF0A2F9054600BF2068216994
:1024C000884758B90FF09AF9E169401B88420CD847
:1024D000A0696169013040088847EFE7A069616938
:1024E0000130400888470020B0BD6FF07400B0BDD7
:1024F00010B505F079FC0FA00CF0D3FD002449F6CF
:10250000C620C6F6C004C0F201204FF0E8621023D6
:1025100021460CF0C6FD0CA00CF0C3FD41F2C0003A
:102520000BA1C2F200204FF0E86322460CF0F0FF4E
:10253000002010BD1B5B306D5B442F6472765F73AF
:102540006472616D5D2000001B5B306D0A0000004D
:10255000736472616D00000080B50CF068FD0FF0CF
:1025600053F9BDE880400CF085BD4EF22401C4F261
:1025700001018878097801F00F010A2911D0092991
:102580001DD0082929D141F21021C2F2002151F8B1
:1025900020004AF6AB21CAF6AA21A0FB0101480897
:1025A00022E041F21021C2F2002151F820004AF647
:1025B000AB21CAF6AA21A0FB0101C80814E041F230
:1025C0001021C2F2002151F820004AF6AB21CAF6D0
:1025D000AA21A0FB0101880806E041F21022C2F204
:1025E000002252F82000C84040F27841C2F2002197
:1025F00008607047000000002DE9F04184B04EF6FD
:10260000085440F20120CEF20004C0F20E0040F265
:1026100000070026E0604FF47000BFF34F8FBFF358
:102620006F8FC4F880000020C0F200272760FEF7FB
:10263000FCFA01F0BDFA01200125FEF7F6FA386830
:1026400040F6F851A0F5005080F30A8840F2184097
:10265000C0F20001C2F20020FEF7B8F840F200001C
:102660004AF28C7140F21442C2F20020C0F2012101
:10267000C0F20002FEF746F84AF6A0334AF6A0314F
:10268000C0F20123C0F201214AF6A0384AF6A03078
:10269000C91AC0F20128C0F2012040F20007C9089F
:1026A000C0F20007A0EB080C41F009C000BF00BF5A
:1026B000F3E80201E7E802010FF007C040F2000171
:1026C00040F20003C2F20001C2F2000340F2000730
:1026D0004FEADC02C2F20007581A42F007C800BFF6
:1026E000F8E80223E7E802230FF007C0C0083746E6
:1026F00040F007C000BF00BFE1E802670FF005C06F
:10270000BFF34F8F40F2C01840F2C010BFF36F8F7D
:10271000C4F84862C0F20028C0F20020BFF34F8F17
:10272000A0EB0800BFF36F8F8110012908DB47463B
:10273000C8BF851057F8040B40448047013DF9D1CC
:10274000FFF713FFFEF7C2F90320FEF7FEF94FF083
:10275000100E40F63050C4F2400000BF20F8046B69
:102760000FF005C00320FEF717FA41F2402241F2B4
:102770004020C2F20022C2F200200121203A61F37F
:102780000400009061F30402019242F6002042F638
:102790000022C6F61200C6F6120261F3040002908F
:1027A000A2F120004FF0020E61F304000390D4F870
:1027B000B800442161F30700C4F8B800002268465D
:1027C000202100BF00EBC20350F832705B6801EBC0
:1027D0005316B6EB571F05D9C4F89020C4F894706F
:1027E000C4F8983001220FF013C8BFF35F8F0520A3
:1027F000C4F88C00E06940F48030E061BFF34F8F93
:10280000BFF36F8FE068C0032AD40020E067BFF3F6
:102810004F8FA16FC1F34E30C1F3C902C908531CD9
:102820008E0743F6E07200BF43F001E002EA401772
:10283000314600BF41EA070501F14041C4F8585252
:102840000FF009C00028A0F10100EDD1BFF34F8FB8
:10285000E06840F48030E060BFF34F8FBFF36F8FCC
:102860004EF21014C4F20104D4F8C80210B1D4F826
:10287000C80213E0207888B10120FEF766F900BF96
:10288000207800F0C0008028FAD10020207000BF1E
:1028900020783F28FCD80120FEF77EF90220FEF7C1
:1028A000C4F901F077FA002004B0BDE8F04101F06E
:1028B0006FBA80B582B00EF08DFDC06A01900198AC
:1028C00080F30B8802B080BD4EF60C500422CEF28D
:1028D0000000C0F2FA52BFF34F8F016801F4E061CB
:1028E00011430160BFF34F8F00BFFDE790FAA0F1E5
:1028F0000028B1FA81F150EA01907047B0B5054661
:102900000EF068FD90B1044609A00CF0CAFB0DA0C2
:1029100021462A460CF0C5FB0FA00CF0C2FB01219A
:1029200000222046BDE8B0400EF00CBBB0BD00BF99
:102930001B5B33336D5B572F7374646C69625D206E
:10294000000000007468726561643A257320657840
:1029500069743A25642100001B5B306D0A00000099
:1029600070B54EF22003C4F20103D3F800E01B79E6
:102970004EEA030C03F00F035FEA0C720EF00F0C2B
:1029800008D440F27842C2F2002212689A4022FA39
:102990000CF219E003F00702032404FA02F2012505
:1029A000082B0EF0070638BF05FA03F240F2784311
:1029B000B440C2F200231B685A435FEA0E7358BF4B
:1029C00005FA0CF4B2FBF4F24CF60023C240C3F655
:1029D0009A33A1FB03C100236046FDF729FD70BDBA
:1029E00070B54EF22003C4F20103D3F800E01B7966
:1029F0004EEA030C03F00F035FEA0C720EF00F0CAB
:102A000008D440F27842C2F2002212689A4022FAB8
:102A10000CF219E003F00702032404FA02F2012584
:102A2000082B0EF0070638BF05FA03F240F2784390
:102A3000B440C2F200231B685A435FEA0E7358BFCA
:102A400005FA0CF4B2FBF4F222FA00F04CF6002284
:102A5000A0FB0101C3F69A320023FDF7E9FC70BD2B
:102A6000F0B581B00C4605460CF0DAFBC8B907207A
:102A70000DF096F8064628B90BA011A140F21532C8
:102A80000AF08AFF56F8047FB74209D0A7F1100078
:102A9000A84203D021460CF0C3FB10B93F68F3E70E
:102AA000002001B0F0BD00BF696E666F726D617489
:102AB000696F6E20213D2052545F4E554C4C0000F2
:102AC0005F6D656D686561705F616C6C6F63000060
:102AD0000CF048BCB0B5022803DCBDE8B04000F003
:102AE00001B905460C46496858A00EF0F9F8D8B16E
:102AF000616857A00EF0F4F818B3616856A00EF0A4
:102B0000EFF850B3616856A00EF0EAF80028E4D15F
:102B1000032DE2D9A06808F0A3FE0028A06860D0C9
:102B2000FDF7FEFC054662E0A0680DF0DFF8B0F1AD
:102B3000FF3FA16874DD024667A0BDE8B0400CF01D
:102B4000B0BA032DC9D9A06808F08AFE0028A06891
:102B500020D0FDF7E5FC054622E0A06808F080FEE5
:102B60000028A06803D0FDF7DBFC054605E00DF06A
:102B7000BDF80546B0F1FF3F51DD28460DF0F8F8ED
:102B8000012801D141A000E03CA02946BDE8B040A9
:102B90000CF087BA0DF0AAF80546B0F1FF3F3EDD14
:102BA000E1683EA00EF09CF8B8B1E1683DA00EF0DF
:102BB00097F8A0B1E1683DA00EF092F8E8B3E168A3
:102BC0003EA00EF08DF8D0B3E16840A00EF088F87A
:102BD00000287FF482AF042132E0002130E001219F
:102BE0002EE00DF083F80546B0F1FF3F17DDE168F8
:102BF0001DA00EF075F8D0B1E1681DA00EF070F8C0
:102C0000A8B1E1681BA00EF06BF830B1E1681AA022
:102C10000EF066F800287FF460AF002108E0A1689C
:102C200049F2AB10C0F201200CF03BFA55E701214C
:102C30002846BDE8B0400DF0BBB8022100E00321FA
:102C40002846BDE8B0400DF071B800BF6E756D004C
:102C50006D6F646500000000726561640000000033
:102C60007772697465000000686967680000000099
:102C70006F6E00006C6F77006F66660070696E5B48
:102C800025645D203D206C6F770A000070696E5BE3
:102C900025645D203D20686967680A006F7574705F
:102CA00075740000696E707574000000696E70754F
:102CB000745F70756C6C757000000000696E7075E3
:102CC000745F70756C6C646F776E00006F757470F4
:102CD00075745F6F640000002573203A2025640A34
:102CE0000000000080B549F2C410C0F201200CF0D1
:102CF000D8F949F25920C0F201200CF0D2F949F27A
:102D0000D710C0F201200CF0CCF949F2CE20C0F26D
:102D100001200CF0C6F949F22A20C0F201200CF083
:102D2000C0F90BA00CF0BDF949F28A20C0F20120D5
:102D30000CF0B7F910A00CF0B4F91BA00CF0B1F92D
:102D400021A00CF0AEF923A0BDE880400CF0CEBF6E
:102D5000202020202020202020202020202020652E
:102D60002E672E204D5348203E70696E207265619B
:102D700064204750494F0A00202020202020202096
:102D800020202020202020652E672E204D53482013
:102D90003E70696E207772697465204750494F20F4
:102DA000686967680A000000202020202068656CA0
:102DB000703A2020202020746869732068656C7048
:102DC000206C6973740A00004750494F20652E67D4
:102DD0002E3A000020000000B0B50446154638B970
:102DE00049F2FD2008A1C0F2012037220AF0D4FDEB
:102DF0003DB1A06C2A7929680368204698470020D5
:102E0000B0BD6FF0FE00B0BD5F70696E5F636F6E46
:102E100074726F6C0000000070B505461E461446C3
:102E200038B949F2FD200AA1C0F2012016220AF0A9
:102E3000B3FD4FF000004CB1082E18BF70BDA86C58
:102E400021688268284690472071082070BD00BF25
:102E50005F70696E5F7265616400000070B5044662
:102E60001E46154638B949F2FD200AA1C0F20120DC
:102E700026220AF091FD4FF000004DB1082E18BF38
:102E800070BDA06C2A7929684368204698470820BD
:102E900070BD00BF5F70696E5F7772697465000016
:102EA00041F60563994205D041F60463994205D184
:102EB000012000E00020506100207047836C1B68F7
:102EC000002BF9D018472DE9F04186B06D460F462A
:102ED0000646281D14211C469046FDF777FC002F5E
:102EE00000D57F42B06C0097036853B16A4641F643
:102EF00003613046984708B1002402E00298C8F800
:102F00000000204606B0BDE8F0812DE9F04186B012
:102F10006E460F460546301D14211C469046FDF7AF
:102F200055FC002F00D57F42A86C009703688BB139
:102F30006A4641F603612846984750B9A86CD8F80C
:102F4000001002916A46036841F6026128469847DC
:102F500000B10024204606B0BDE8F0812DE9F04F15
:102F600081B090468B46044600910BF02BFC07463F
:102F7000FDF7AEF981460AF00AFF98B149F6B77538
:102F800049F60470C0F20125C0F2012029460CF078
:102F900088F849F2881040F29F42C0F20120294689
:102FA0000AF0FAFC012F13D149F6B77549F6DF6034
:102FB000C0F20125C0F2012029460CF072F849F256
:102FC000881040F29F42C0F2012029460AF0E4FC3A
:102FD000FDF77EF907460EF0FDF998B949F6B77589
:102FE00049F22110C0F20125C0F2012029460CF05F
:102FF00058F849F2881040F29F42C0F20120294659
:103000000AF0CAFCFDF764F905460CF027F898B100
:1030100049F6B77649F2FA00C0F20126C0F2012063
:1030200031460CF03EF849F2881040F29F42C0F25F
:10303000012031460AF0B0FC2846FDF74DF938462C
:10304000FDF74AF94846FDF747F95CB949F676704D
:1030500049F6B771C0F20120C0F2012140F2A2424C
:103060000AF09AFC20460CF0ABFD03280BD04AF284
:10307000370049F6B771C0F20120C0F2012140F2D9
:10308000A3420AF089FC0EF0A5F90646FDF720F9E7
:1030900040F6AC618246C2F20021096809B12046BF
:1030A0008847606A0021B042716311D0D0B1BBF192
:1030B000000F4CD096F83800657B96F839904007A1
:1030C0002ED4304641460EF0E7FA48B3074641E0B9
:1030D00094F82200FF281FD15046FDF7FDF86FF04D
:1030E00022078BE094F82010666240F2FF10A4F8EB
:1030F0002100FF2907D096F83900814203D23046DB
:10310000424600F09DFC214656F8400F41F8280F3A
:10311000416031604E6065E0013084F8220061E07A
:1031200004F11807D5B1012D20D138460068B84206
:1031300014D090F8211096F839208A42F6D24168CE
:1031400006F11802F16142600A60B06119E06FF0A7
:10315000740777635046FDF7BFF84FE0E06906F16A
:103160001801F061E1610160B7610AE049F288107D
:1031700049F69871C0F20120C0F20121B6220AF08E
:103180000BFC94F82100B46481450AD2606A84F88B
:10319000219090F83910894503D20222494600F067
:1031A0004FFCBBF1010F09DB06F15C056A4600210B
:1031B00028460EF0C1FB28460EF0D8FC5046FDF71D
:1031C0008BF80CF08DFFFDF783F8716B824649B1E7
:1031D000606AB8B196F8391090F839208A425FEAEF
:1031E0000F9110E05046FDF777F840F6A860C2F264
:1031F0000020016809B1204688470027384601B001
:10320000BDE8F08F01213A68BA4202D092F821203D
:1032100000E0FF2284F82120D1B9024652F8403F55
:1032200012F8061C93420CD013F8087CC9B213F8AC
:10323000075C1B68BD4255EA3787B94251EA3781BE
:10324000F0E790F83920914202D0022200F0F8FB1A
:103250005046FDF741F8706B0021B16480EAE072DE
:10326000C2EBE077CAE700002DE9F04782B00446E0
:1032700090460E46019158B949F6677049F6AA7111
:10328000C0F20120C0F2012140F2FD120AF084FBDD
:1032900020460CF095FC02280BD049F6C67049F682
:1032A000AA71C0F20120C0F201214FF4FF720AF0AE
:1032B00073FB40F6AC60C2F20020016809B1204601
:1032C0008847208C002871D1002E6FD00BF07AFA3D
:1032D0000546FCF7FDFF81460AF059FD98B149F615
:1032E000AA7749F60470C0F20127C0F201203946DE
:1032F0000BF0D7FE49F2881040F20322C0F2012001
:1033000039460AF049FB012D13D149F6AA7549F651
:10331000DF60C0F20125C0F2012029460BF0C1FE9A
:1033200049F2881040F20322C0F2012029460AF037
:1033300033FBFCF7CDFF82460EF04CF898B949F606
:10334000AA7749F22110C0F20127C0F201203946C4
:103350000BF0A7FE49F2881040F20322C0F20120D0
:1033600039460AF019FBFCF7B3FF07460BF076FE6F
:1033700098B149F6AA7549F2FA00C0F20125C0F2E7
:10338000012029460BF08DFE49F2881040F20322FD
:10339000C0F2012029460AF0FFFA3846FCF79CFFEC
:1033A0005046FCF799FF4846FCF796FFFCF790FF64
:1033B000218C074689B1481E20843846FCF78CFFD3
:1033C00040F6A860C2F20020016809B12046884793
:1033D0000025284602B0BDE8F08786B30DF0FAFF5D
:1033E000064690F8380094F80D9040076FF00A00F8
:1033F000706309D4304641460EF04EF920B10546BF
:103400003846FCF769FFE4E7B9F1000F04F1180052
:103410001BD0B9F1010F20D1014600BF09688142DC
:1034200013D091F8212096F839309342F6D24868AB
:1034300006F11802F0614A600260B16118E0384696
:10344000FCF74AFF6FF07405C3E7E16906F1180263
:10345000F161E2610A60B0610AE049F2881049F660
:103460009871C0F20120C0F20121B6220AF094FA4C
:103470000198012809DB06F15C0501AA0021284614
:103480000EF05AFA28460EF071FB3846FCF724FF7E
:103490000CF026FE756B002D9BD191E72DE9F041D4
:1034A00006461C46904658B948F68B7049F6A62148
:1034B000C0F20120C0F2012140F28F120AF06CFA32
:1034C000BCB316B1B8F1000F0BD149F6371049F66D
:1034D000A621C0F20120C0F201214FF4CA720AF005
:1034E0005BFAF08BB76DC00432D5354635F8510F15
:1034F000A97840EA0140C0F38F00A0421CD249F6EF
:103500002610C0F201200BF0CCFDA87822462988B5
:1035100041EA00403146C0F38F0349F60520C0F26E
:1035200001200BF0BEFD48F69050C0F201200BF0D8
:10353000B8FD0020BDE8F08138460CF0BDFCA0428B
:1035400006D207F110004FF0FF31BC830AF0C4FA35
:10355000FCF7BEFE06463846414622460CF0CAFC41
:1035600004463046FCF7B8FE2046BDE8F081000076
:103570002DE9F04F81B0DBB31D469146834618B16B
:10358000B9F1000F18D10BE048F68B7049F6AE1177
:10359000C0F20120C0F2012140F2FF120AF0FCF952
:1035A00049F6371049F6AE11C0F20120C0F20121F0
:1035B00040F201220AF0F0F9DBF85C80B8F1000F6C
:1035C0000BD149F6871049F6AE11C0F20120C0F2C6
:1035D00001214FF401720AF0DFF90DF0FBFE48B152
:1035E000BBF81E00400605D4D8F8140001280AD103
:1035F000002504E058464A462B4600F015F92846B7
:1036000001B0BDE8F08F08F1180A00260120C8F8C3
:103610001400009509EB0604404621462A460CF0AA
:10362000DBFCDBF848100246C8F810004FF480437A
:103630000F6958462146B847D8F810004FF0FF31BF
:1036400006442D1A50460AF047FA0DB12FF01FC05C
:10365000009D0020C8F81400D1E7F0B581B0054600
:103660001C46164658B948F68B7049F6CB11C0F285
:103670000120C0F201214FF4E6720AF08DF924B363
:1036800005B15EB949F6371049F6CB11C0F20120F9
:10369000C0F201214FF4E8720AF07EF9EF6D5FB9D4
:1036A00049F6871049F6CB11C0F20120C0F2012182
:1036B0004FF4E9720AF070F90DF08CFE38B1E88B26
:1036C000400604D47869012809D1002404E0284682
:1036D0003246234600F0A8F8204601B0F0BDA86CA1
:1036E000012179614FF48043D0F810C0284631465B
:1036F0002246E047044607F118004FF0FF310AF078
:10370000EBF9E9E72DE9F04182B004461D46164683
:1037100058B948F68B7049F6E911C0F20120C0F2A1
:1037200001214FF40F720AF037F9F5B104B15EB917
:1037300049F6371049F6E911C0F20120C0F2012123
:103740004FF410720AF028F9E76DFCF7C1FD7969B2
:10375000804661B1384631462A460CF03DFC0446AD
:103760004046FCF7B9FD20461CE000201AE001208D
:103770007861384631462A460CF02EFC0546404614
:10378000FCF7AAFD0020019001A938460CF098FF33
:10379000A16C024638614FF400430F69019920463D
:1037A000B847284602B0BDE8F0810000F0B581B00E
:1037B00005461C461646A8B949F6962748F68B706A
:1037C000C0F20127C0F2012040F2351239460AF05A
:1037D000E3F849F662104FF49C72C0F201203946BA
:1037E0000AF0DAF8CCB12746A86CC16828468847A9
:1037F000411C14D006F8010BE98B11F0400F5FEA71
:103800001F910A285FEA0F9008430128A7F10100E1
:1038100006D1012F0746E7D102E0002000E038463C
:10382000201A01B0F0BD0000F0B581B004461D467D
:103830001646A8B949F6B62748F68B70C0F201279C
:10384000C0F201204FF4B17239460AF0A5F849F6EA
:10385000621040F26512C0F2012039460AF09CF86D
:103860009DB12F46E08B400607D530780A2804D159
:10387000A06C0D21826820469047A06C16F8011BB1
:10388000826820469047013FECD1284601B0F0BD48
:1038900080B5FFF733F800BFFEE7B0B540F6F8504B
:1038A000C2F200200468FCF713FD054620460CF028
:1038B0003FFD04F15C000EF0B5F8012084F83800FB
:1038C00020460DF0D7FB2846FCF706FDBDE8B040CA
:1038D0000CF006BC70B582B004469C46089D1830BA
:1038E000DDE90636C4E9060004F12400236380E81C
:1038F0000610232160461A460BF082FED4E90B1213
:1039000043F69B030A44606AA16A043AC0F20023AA
:103910000BF006FA202E206204D319A021A1C622A2
:103920000AF03AF843F6B51284F83A6084F8396040
:10393000002104F14000C4E90F10C4E9110104F1B1
:103940005C00E16484F85010C4E91555C0F200220F
:10395000616384F83810C4E923112346CDE90011CE
:1039600021460EF0B9F840F6BC60C2F200200168B2
:1039700021B1204602B0BDE87040084702B070BDDA
:103980007072696F72697479203C2052545F544898
:10399000524541445F5052494F524954595F4D413D
:1039A000580000005F7468726561645F696E6974D5
:1039B00000000000B0B5044650B94AF2E1104AF2E6
:1039C0002431C0F20120C0F201218B2209F0E4FF72
:1039D00094F8380040070AD44AF20E204AF2243103
:1039E000C0F20120C0F201218C2209F0D5FF20464F
:1039F0000CF0E6F801280AD04AF250204AF22431AD
:103A0000C0F20120C0F201218D2209F0C5FFFCF7B0
:103A10005FFC2146E36905466FF0740051F8182FEA
:103A2000606320465360E369E1611A6009600CF04D
:103A30002BFC2846FCF750FCBDE8B0400CF050BB16
:103A40002DE9F04F81B014468DF803100DF10302FB
:103A5000022105460DF076FA10B101B0BDE8F08FF5
:103A60004FF0FF0B0DF1020A95F838004007F4D52E
:103A7000AF6C002FF1D038460CF0A2F80328ECD13F
:103A80002E4697F80D908DF802B056F8180F716811
:103A900096F820204160716808605007C6E900660A
:103AA00005D4284621460DF0F7FD0028D5D1B9F1FF
:103AB000000F07F1180813D0B9F1010F404617D1D4
:103AC000006840450CD090F8211095F839208A42C2
:103AD000F6D24168E96146600E60A86113E000BF5C
:103AE000F869E861FE610660C5F818800BE000BF68
:103AF00049F2881049F69871B622C0F20120C0F24E
:103B0000012109F049FFD8F80000404502D090F8A3
:103B1000210000E0FF207D6A87F82100294695F802
:103B20003A0051F8402F00BF8A420DD012F8083CED
:103B3000C0B212F8077C12689F4257EA338398425A
:103B400050EA3380F0E700BF95F839108DF8020095
:103B500088423FF482AF0221284652460DF0F2F926
:103B600000283FF481AF78E740F258544FF6FE75D5
:103B7000C2F20024C7F6FF75FCF7AAFB2168A14238
:103B80000AD04E69FCF7A8FB0DF038FE301AA842A7
:103B90000BD80DF07AFA08E0FCF79EFB0DF01AFC4A
:103BA00002210DF079FD0CF09BFA0DF019F8E3E716
:103BB0002DE9F0414EF2FA384CF20016C4F2010839
:103BC000C4F201064AF20350A8F800000120B080B8
:103BD000B08808B12FF005C069A043F600024EF688
:103BE0000147012190ED001F41F210203180C2F207
:103BF00000204EF600444EF220054FF40041C1F67D
:103C00009C42C0E9041241F60041C4F20107C4F22B
:103C1000010480ED001FC4F20105C0F64E61C0E949
:103C20000712FEF7A2FC4FF650601621CFF6FF7088
:103C30002154092085F88200207818B93878800747
:103C400000F09880207840B901202070C820012120
:103C5000FCF7C9FF20780128FCD1002038702070C3
:103C60000020A874287F0007FCD54FF43C50288121
:103C700040F23110A8850020A87200BF287F80067E
:103C8000FCD542F232370420C3F2121730772F608E
:103C900001242C710526AE71FEF767FC96200121E8
:103CA000FCF7A1FF002028712F60FEF75EFC962034
:103CB0000121FCF798FFAE71FEF757FC2C7485F8D4
:103CC000324085F8334095F8540040F0400085F8C4
:103CD000540000BF95F95400B0F1FF3FFADC062014
:103CE00085F84C00472085F85400072085F85400DB
:103CF00095F954000028FBD495F8350040F04000B9
:103D000085F8350095F93500B0F1FF3FFADC022067
:103D100085F83400C52085F8350095F8350000F0A9
:103D2000BF0085F8350000BF95F935000028FBD4A9
:103D300095F83F0040F0400085F83F0095F93F00BE
:103D4000B0F1FF3FFADC012085F83E00C52085F880
:103D50003F0095F83F0000F0BF0085F83F0000BF2E
:103D600095F93F000028FBD44FF42540A8F8000047
:103D7000BDE8F0814FF47A70FCF756FF70E700BFA2
:103D8000006CDC0200127A0000800000002D31017E
:103D90007047000080B54FF0600E4CF2003047F6DF
:103DA0002871C4F20000C0F2012100BF0A6802B10C
:103DB0000260043004310FF007C880BD000000002D
:103DC00001380028FCD170472DE9F04F81B004463E
:103DD000008800285DD04EF64C4B0025C4F2010B44
:103DE0004FF0010A42F2400800272BA6C4F2200837
:103DF0006068326800EBC501496891423ED150F8D5
:103E000035009BF8001000F0B8500AFA07F9B0F13D
:103E1000807F09EA010015D158B90120FCF795FE11
:103E20009BF8000040EA09008BF800000120FCF735
:103E3000B3FE98F90000002820D498F8000040F064
:103E4000800015E058B10120FCF77FFE9BF80000D0
:103E500020EA09008BF800000120FCF79DFE98F98C
:103E60000000B0F1FF3F09DC98F8000000F07F008F
:103E700088F80000C8200121FCF7B5FE013708F1E1
:103E80000208032F06F10406B2D1208801358542CD
:103E9000A8D301B0BDE8F08F0204000003040000C5
:103EA000040400002DE9F0411E4615460C46074665
:103EB000DDF818800EF061FAC6F30011C84007F073
:103EC0000F010A2918BF0821B0FBF1F006F00F011D
:103ED000052906D8DFE801F01803050D0F17400883
:103EE00012E04AF6AB21CAF6AA21A0FB010148085C
:103EF0000AE0800808E04AF6AB21CAF6AA21A0FB36
:103F00000101880800E0C00868432109B0FBF1F016
:103F1000C8F30111DFE801F0090205084008BDE817
:103F2000F0818008BDE8F081C008BDE8F08140F66E
:103F3000883C0123C2F2002CC0F20453426ABCF850
:103F400000009A4209D00123C0F602039A4204D02D
:103F50000023C0F206639A4214D1B1F5A06F05D8D0
:103F6000082202EB4102824252EA8080B1F5207FB2
:103F700040F2A24198BFA03080B2884250EA8180CE
:103F8000FC307047B1F5207FEAD8EFE710B586B076
:103F900048F274004CF2C023C4F23400C4F20003AF
:103FA0000268D143016040F2FC71EFF3038001EA43
:103FB000800040F60421C2F200210144C45824F4D8
:103FC0008034C450C05851F8404C6169F1B1D4E913
:103FD000060E2369D4F808C002EA03020092CDE974
:103FE00001CE60B1D0E90012CDE903129DE80E00C8
:103FF00001608168C0E901230591616900E06846BC
:104000008847A06910B103AB0ECB0EC006B010BD3F
:1040100080B502A00BF045F8002080BD1B5B324A42
:104020001B5B480080B506F025FB002080BD00002A
:1040300080B5022813D140F2C8020220C2F2002249
:1040400007F0A4FA0138092809D8DFE800F00516BE
:10405000191C1F2225282B2E06F08CFE0BE014A025
:104060000BF01FF818A00BF01CF840F2C800C2F2C9
:10407000002007F0A7FC002080BD06F0CFFDFAE786
:1040800006F006FDF7E706F05DF9F4E706F03AFA08
:10409000F1E706F04FFCEEE706F0ECFAEBE706F08E
:1040A00089FBE8E706F0B4F8E5E706F071FFE2E720
:1040B00055736167653A206C697374205B6F707427
:1040C000696F6E735D0A00005B6F7074696F6E7369
:1040D0005D3A0A0080B506F04DFE002080BD07F075
:1040E00042B8104607F03FB802F01F001844B0F184
:1040F000200158BF0021012B16DB80B5C9430844BD
:104100000121BFF34F8F01EB501E4EF67070CEF2BF
:10411000000000BF026020320FF005C0BFF34F8FD8
:10412000BFF36F8FBDE880400120704710B500F0ED
:10413000C9F8EFF31084012080F3108843F20800DF
:10414000C4F22000016841F040010160006896203F
:104150000121FCF748FD84F31088012010BD80B5D3
:10416000084611461A46FCF788FA012080BD01294D
:104170005FEA1F900A295FEA1F910843704704F025
:104180001BBB104604F018BB0A2908D0012909D12D
:1041900044F20000C4F2340000EB820000E004307E
:1041A000006870470020704744F2C00246F2362192
:1041B000C4F23402C0F201212E2313604EF2001229
:1041C0000978CEF20002090182F80C1340F60421AE
:1041D000C2F2002108634CF23030C4F200000168E2
:1041E00021F4803101600068BFF35F8F4FF480508D
:1041F000C2F88001106001207047084670470846E9
:1042000070470120704770B540F61C0443F2080562
:10421000C2F20024C4F22005012001216060EFF306
:10422000108680F31088286820F0400028602868F5
:104230009620FCF7D8FC86F310882046FFF7B4FFE1
:1042400080B90120EFF3108480F3108801212868E1
:1042500040F04000286028689620FCF7C4FC84F3F6
:1042600010880024204670BD0120704740F63811A8
:10427000C2F20021086800BF28B922B1501C0868AA
:1042800018BF013AF8E70868002200285FEA0F909B
:104290000A6070470A2913D0012918BF704744F2F9
:1042A000000C322AC4F2340C07D1416829B153F80A
:1042B000041BCCF8C810036070474CF822307047DC
:1042C000436070474EF280104FF48051CEF20000F0
:1042D0002C22016044F2C001BFF34F8FBFF36F8FF8
:1042E000C4F2340101200A607047F0B581B0B1F921
:1042F00036700C46B1F934001546266B411EB942A2
:1043000014DC80B201221030A08601B28800314650
:1043100001F02EFEB4F93410064620638F4205DA10
:10432000C91B06EB87008900FCF750FA06EB8700F3
:1043300046F82750791CE18601B0F0BDF0B581B098
:104340000646856914200F4600F078FF04460028D1
:104350004FF000002AD0C4E9027007EB870196F8FD
:1043600068008900C00703D1304600F044FF02E036
:10437000084600F063FF01466060A0B10027276196
:1043800096F86800C00717D1D6F88400C2060FD48B
:10439000800711D5A068042100EB80008200284628
:1043A000FFF79FFE07E0204600F001FF002404E035
:1043B0002846FFF724FF20612760204601B0F0BDAA
:1043C0002DE9F04F8BB0446A994604F5B6768B46DA
:1043D0000746056B43CE149BDDF86480B0F5006F93
:1043E00009EB0B00A8BF28F00808884203EB020085
:1043F0009246CDF828B0C8BFA1EB090BB042C8BFA8
:10440000A6EB030A002D5FEA0F9018F4807F5FEAA5
:104410001F91D4F8783108920840E17D012803F01B
:104420001006099040D194F80E012970A87094F8F4
:10443000D5006870D4F8FC006860D4F80001A8606A
:10444000D4F82C01E860D4F838012861D4F834019C
:10445000686104F1E800D4F8EC10A961D4F8F01018
:10446000E961D4E93D12C5E9081290FD000F85ED20
:10447000280FD4F8A800D4F82411D4E94F23C5E9B3
:104480000B236963D4F85811A963D4F85C11E9636C
:10449000686594ED261F85ED111FD4E92C01C5E94F
:1044A00017010020069000E006910321384602F033
:1044B000AFFB00210022384602F0E8FB079606BB5E
:1044C000D4F87801CDF8149020F030000F282AD8C5
:1044D000DFE810F010002D003A002D002D002E0115
:1044E0003A002D002D0010001000100010001000E8
:1044F00010001000D4E95A01149A484401FB020943
:104500002FE008F00F013846D4F8686102F0E7FCAC
:10451000D4E95B23D4E95D01CDE900013846314699
:1045200002F0C6FB2FE0A0F1410102290AD2D4F823
:104530006C0114994843D4F8681101EB490101EB6F
:1045400040090EE040280AD1D4F86C011499484380
:10455000D4F8681101EB890101EB800901E04FF00B
:10456000000908F00F01384602F0B9FCD4F86C21BC
:10457000D4F87801CDE900A0384649465B4602F000
:1045800097FBDDF814904FEA08604FF07F4101EA95
:10459000E0705FEA886108F0A001159B58BF4FF0FA
:1045A0007F40A03918BF4FF07F415FEAC86208F032
:1045B000400203D432B96FF07F4206E0002AA268BD
:1045C00001D102E0A2681043E268C4F8580194F8EF
:1045D0000E01169E112B41EA0201C4F85C1140F055
:1045E000050084F80E0108D30A9998B20905CE4651
:1045F0009B46B1FBF0F14B0804E09B46CE464FF4DE
:1046000080310023112E4FF0000C09DBDDF820A0D3
:10461000B1464FEA0A52B6B2B2FBF6F6720805E0AE
:10462000B1464FF480360022DDF820A018F4007067
:104630000A9818BFC3EB004351EA01B018F4806137
:1046400018BFC2EB0A4256EA06B15FEA487648BF95
:10465000A3F500435FEA0876DDF85C8048BFA2F569
:104660000042079E002E149E18BF03EB0E4318BF96
:1046700002EB0642189ECDE90020049138464146DF
:104680003246CDE902CC02F00AFC384621464246C9
:104690003346CDE900B902F016F8099800283FD05A
:1046A00028786978E075AA786868C4F8FC00A8687A
:1046B000C4F80001E868C4F82C012869C4F838017E
:1046C0006869C4F8340104F1E80084F80E2184F824
:1046D000D510A969C4F8EC10E969C4F8F010D5E95F
:1046E0000812C4E93D1205F12C0295FD280F80ED5A
:1046F000000F07CA6B6DC4E94F01C4F82421A86BF1
:10470000C4F85801E86BC4F85C01C4F8A83095ED12
:10471000111F84ED261FD5E91701C4E92C0103E020
:104720003846069902F074FA00200BB0BDE8F08F0D
:1047300097F88200800603D4092087F8C601F4E7C1
:104740001020C0F20400C4F82C01012084F8E90014
:10475000D0E60000F0B581B00446006890F868101B
:10476000C9071FD1D4E902678569B7420CD000BFE1
:10477000B8687A68042100EB800083002846FFF7C0
:10478000B3FC3F68B742F3D1B068E169401A726880
:10479000042100EB80008300284601B0BDE8F04012
:1047A000FFF7A2BC01B0F0BDD0F84C11027C437CF5
:1047B000090A6FF07F4C01FB02C201FB03C190F8B4
:1047C0000E3102F07F4201F07F41C0E9542103F035
:1047D000FD0180F80E117047B0B5D0F84C116FF0A4
:1047E0007F4ED0E95625090A4FEA126C2C0E0CFBBD
:1047F00001E304FB01E162F3170390F80E2165F376
:104800001701C0E9583102F0FB0180F80E11B0BD6C
:10481000B0B590F8E8100446D0F8F000CA07A0F14F
:10482000010505D0284601F0FEFA94F8E810054687
:10483000D4F8F4008907A0F1010003D4D4F8EC10F7
:10484000484306E001F0EFFAD4F8EC10484301F0D9
:10485000EAFA6FF3DF2545EAC020C4F83801B0BD9D
:1048600010B5044600F014F80020002184F8C611A9
:1048700010BD10B5B1F934000C46012804DB81B23B
:10488000206B8900FBF7A2FF0020E08610BD00002E
:104890002DE9F04F85B004460D46B0F872A041F204
:1048A000000894F86810B0F87600B4F87460B4F9B1
:1048B0007870C0F24018C906ADF80CA0ADF8100031
:1048C000ADF80E60ADF8127031D4616C03292EDCA6
:1048D000042292FBF1F9216C91FBF9F202FB191110
:1048E00029BBE16B21F003028A4220D1E16C21F067
:1048F00003028A421BD1BAF10F0F18D802B2481E28
:10490000B0EB221F13D1A06C0292072856D8DFE823
:1049100000F00467875787877477280E05F07F417A
:1049200041EA004141EA002040EA156578E020466E
:1049300000F0FEFED4E96E02192300F10801013AED
:10494000C4F8B81103604560C4F8BC2105DCD4F894
:10495000C01120468847D4E96E1201F10800013ADF
:10496000C4F8B8014FF000030B604B60C4F8BC21E1
:1049700005DCD4F8C01120468847D4E96E02616D89
:10498000013A41EA080100F10803C4F8B8314FF0D8
:10499000010303604160C4F8BC2103DCD4F8C011FA
:1049A0002046884703A90022204603F07EF82046CF
:1049B00000F0BEFE002005B0BDE8F08F41282FD1E9
:1049C0004FF470404FF4706100EA1540F02201EAA4
:1049D000153102EA15220844C5F3031110440AE018
:1049E0004FF478404FF4FC6100EA152001EA5511BC
:1049F0000844C5F3C401084410E04FEA35650FE0F0
:104A00004FF4704005F0F00100EA15204FF4706299
:104A100041EA157102EA15120844104400EB004502
:104A2000204600F085FED4E96E12192301F108003A
:104A3000013AC4F8B8010B604D60C4F8BC2105DC34
:104A4000D4F8C01120468847D4E96E0200F108016D
:104A5000013AC4F8B8114FF0000303604360C4F892
:104A6000BC2105DCD4F8C01120468847D4E96E1279
:104A700030B2019002980126A0EB0A0B01F1080068
:104A8000013AC4F8B8014FF0010308F500150B60B6
:104A90004D60C4F8BC2106DCD4F8C011204688471C
:104AA0000126D4E96E02216CDDF8048006EB2B169A
:104AB000A7EB080791FBF9F1013A4FF01F050560DC
:104AC0008BB200F10801C4F8B8114360C4F8BC21EE
:104AD00005DCD4F8C01120468847D4E96E124FF6A1
:104AE000FF703B03013AC4F8BC2123EA0000B6FB87
:104AF000F9F300F5803040EA030001F10803C4F83F
:104B0000B8314FF01E030B60486003DCD4F8C011CD
:104B100020468847606C042819D0022832D001282A
:104B20007FF445AFD4E90F014FEA2817D4E96E238B
:104B300000EB1A1001FB070002F10801C4F8B811DC
:104B40002021C2E90010022BA3F1010033E0216C07
:104B50004FEA28126FF00300514300EA9A00E26B1B
:104B6000D4E96E37104400EB810003F10801C4F86A
:104B7000B81120211960791E5860C4F8BC113FF7A4
:104B800016AF1CE0206C4FEA28114FEA1A12484376
:104B9000E16BD4F8B83101EB4201D4F8BC2101EB50
:104BA000400003F10801C4F8B8112021C3E9001046
:104BB000022AA2F10100C4F8BC01BFF6F8AED4F895
:104BC000C01120468847F2E670B5B0F97630B1F9E9
:104BD00000409C4211DCB0F978E0B1F90220724546
:104BE0000BDCB0F97260B1F904C0B44505DBB0F973
:104BF0007450B1F90600A84201DA002070BDB44239
:104C0000B8BF0E80AA42B8BF4D809C45C8BF8B80FC
:104C100070454FF00100C8BFA1F806E070BD2DE956
:104C2000F0418446DDF818E0C06C21EAE177DCF859
:104C3000504005B226B201389D4253EAC083013C80
:104C400076455EEAC48122EAE2724FEA034EBD4233
:104C50004FEA014857EAC080964252EAC48221EAEC
:104C6000E871000123EAEE73ACF872001001ACF8B1
:104C700074001801ACF876000801ACF87800002048
:104C800000218CF8C611BDE8F0810000B0B50446E3
:104C9000806920B1204600F087F8054600E0002535
:104CA00040F62411C2F20021F9B108460968A14278
:104CB000FAD121680160E1690020206239B100BFAA
:104CC000204600F023FAE16909B12FF007C8E06F30
:104CD00008B100F06CFA206B08B100F068FA00200F
:104CE0002063204600F063FA00E002252846B0BDAC
:104CF0002DE9F04182B08046006890F86810C9073D
:104D000027D1D8E902678569B74214D0002400BFD3
:104D1000386818B1F96809B100690860D7E901205D
:104D20003969009400EB800083002846FFF717FAEA
:104D30003F68B742ECD1B068D8F81C10401A7268CE
:104D4000316900EB80008300002000902846FFF7C7
:104D500006FA02B0BDE8F08170B54169044600680A
:104D6000C1B14A687AB18569002600BF086850F869
:104D7000262022B104212846FFF703FA616948681A
:104D800001368642F2D3086800F011FA606900F03B
:104D90000EFA02E0616800F091F9206B18B1BDE8ED
:104DA000704000F004BA70BDB0B50446806930B3FD
:104DB000E06F30B10168002208680260204600F010
:104DC0007DF9D4E904150020C4E9040011B120469E
:104DD00000F0EFF91DB12046294600F0EAF9D4F8B9
:104DE000B4010025C4E90155E560656300F0DFF911
:104DF000A069C4E96D5502F041FFA56100E0002003
:104E000084F8C601B0BD00002DE9F0410C4685696B
:104E10004FF00008276817F0803F05D0B7F1803FBA
:104E200032D10434F6E700BFFEB26268284631464C
:104E300002F02CFF202E02D1284602F057FFC7F3C4
:104E40000726A2682846314602F020FF202E02D114
:104E5000284602F04BFFC7F30746E2682846314672
:104E600002F014FF202E02D1284602F03FFF3E0E32
:104E700022692846314602F009FF202E02D1284639
:104E800002F034FF1434C5E7380414D4380221D4B6
:104E9000B7F1FF3FFEB241DDFF2EC2D1C7F30728B5
:104EA000B8F1040F02D0B8F1020F5BD128460434E8
:104EB00002F01CFFAEE7FEB2322E53D062682846E5
:104EC000314602F0E3FE202E02D1284602F00EFF0A
:104ED00008349FE7FEB2C7F30727FF2E08D1022F41
:104EE00041D12846043402F001FF4FF0020891E757
:104EF00062682846314602F0C9FE202E02D12846BB
:104F000002F0F4FEA2682846394602F0BFFE202FC8
:104F100002D1284602F0EAFE0C347BE7626828469C
:104F2000314602F0B3FE202E02D1284602F0DEFE0A
:104F3000C7F30726A2682846314602F0A7FE202EB6
:104F400002D1284602F0D2FEC7F30746E26828469F
:104F5000314602F09BFE202E02D1284602F0C6FE0A
:104F6000103457E747463846BDE8F081F0B581B0C8
:104F70000D46496A0446C668C56011B11221122067
:104F800020E0686D01276F6270B9606E082803D158
:104F90000121204601F041FD204600F00AFC0122DB
:104FA0002046294600F04AFF0022204629466F6528
:104FB000002702F071FE94F8C7116F62E66084F872
:104FC000C77148B284F8C61101B0F0BD38B110B550
:104FD000044602F031FE002084F8C60110BD022014
:104FE000704700002DE9F04182B08046DDE908C03D
:104FF0000728C8E90F12C8F84800C8E9133C0ED8C2
:105000000FF20A0101EB80020121DFE800F0210428
:10501000100C2525141A02214FF4801018E04028A6
:1050200005D0412818D102214FF4401010E004218E
:105030004FF400100CE040F200100421C0F22000F8
:1050400006E040F200100221C0F2200000F58010BE
:10505000C8F85400C8F84410D8F81C00D8B1D8F8E3
:10506000541000BFD0F82C41D0F84461D0E9472556
:105070000A430768224342EA0502D0E94F5442EA54
:10508000050242EA040242EA0602C0F82421384638
:105090000FB12FF019C8581EACF101010FB2002159
:1050A00003B20022404600970024FFF7B8FD00201D
:1050B00088F8C64102B0BDE8F0810000F0B581B0CB
:1050C00009B30C460546866995F8680027462468AA
:1050D000C007796804D1284600F049F803E000BF12
:1050E000084600F064F83A693AB195F88400800700
:1050F00003D504213046FFF744F8384600F057F84E
:105100000CB12FF01FC801B0F0BD0000B0B50446CF
:10511000006A884225D00D4604F11C0119B30846E7
:105120000968A942FAD129680160606AA84201D1E0
:10513000206A6062E06AA84201D1206AE062A06A47
:10514000A84201D1206AA062D5F8080120B1FFF77A
:1051500016F80020C5F80801284600F028F80020BD
:1051600002E0072000E0032084F8C601B0BDB0B51E
:105170000C46054600F064FBD5F884100546CA07C6
:1051800006D1C80608D42046BDE8B040FEF7F7BFF8
:1051900004212846224606E028462146FFF72FF83C
:1051A000042102462846BDE8B040FEF7EABFFEF7FC
:1051B000E6BFB0B50D46496A044609B1122017E0B2
:1051C0002069A84213D06069A84210D0E068A842C4
:1051D00001D1A068E0602846FFF7BEFDA86B08B1CA
:1051E000FFF7E5FF2846FFF7E2FF002000E013206D
:1051F00084F8C601B0BDB0B50C46054600F020FBF2
:10520000D5F884100546CA0706D1C8060BD4204637
:10521000BDE8B040FEF763BF042128462246BDE842
:10522000B040FEF75EBF042128462246FEF759FF34
:1052300001462846BDE8B040FEF7DFBFFEF74FBF8E
:1052400010B504468068006830B92068216AFFF70D
:1052500075F848B1A16808600021C160D0E9011269
:105260002161E261A06010BD2068152180F8C7119E
:1052700010BD0000F0B581B0C76F0C4605464FF079
:10528000000048610D60AFB3386860602020FFF710
:10529000D5FF606160B30646B8688000FFF7CEFFB7
:1052A000306028B3D7E901237360D5F888107261A4
:1052B0005143B16043F009C0002000223368985088
:1052C00004320FF005C8306801EB8101F060A86975
:1052D0008A000421FEF705FF316808603068006825
:1052E00030B1306170687169C6E90610606806E027
:1052F000002634E028461146FFF720F860604FF0A2
:105300000006E06058B3A060D0E90110C4E906606F
:105310001020A08640202161C4E90A66FFF78EFFB5
:105320002063E0B1616909B1096808E095F884106B
:1053300011F0120F616801D00D690DB904310D68CB
:10534000B4F93410012903DB89B28900FBF73EFA76
:10535000002021462A46E086FEF7C7FF0126304698
:1053600001B0F0BD80B51821FBF730FA80BD2DE902
:10537000F0470E46B1F91410B2F90070DDF820C004
:10538000B2F90220B6F91650CF1BD6F80090AA1A2F
:10539000D6E901154F439A4602FB05720546C9F34B
:1053A000C000043300EB22125FEAC96048BFA2F5D7
:1053B000803248F2010019F0040818BF121AD5F81B
:1053C000B871BCF1000F384640F8083BC5F8B80189
:1053D0004BD04FF0000CD5F8BC31ACEB82145A1E08
:1053E0007C60C5F8BC2106DCD5F8C011284688478A
:1053F0007168D5E96E028F0100F10801013A0AF1E6
:105400000A03C5F8B81103604760C5F8BC2105DC84
:10541000D5F8C01128468847D5E96E12B068013A20
:105420000AF110034FEA801001F10807C5F8B871BE
:105430000B604860C5F8BC2103DCD5F8C0112846D4
:10544000884740F20120B8F1000F4FEA5A014FF4AB
:10545000003208BF012002FA01F100FA0AF05FEA07
:10546000496248BF0843BDE8F087D5F8BC315242D5
:10547000013B7A60C5F8BC3106DCD5F8C01128467E
:1054800088477168D5E96E0300F10802013B0AF113
:105490000A07C5F8B82107604160C5F8BC3105DCD2
:1054A000D5F8C01128468847D5E96E23022B0AF1AA
:1054B0001000B16802F10807C5F8B871C2E900012F
:1054C000A3F10100C5F8BC01B7DBBAE72DE9F04351
:1054D00081B04D7E0F461E469046E9078146089CE6
:1054E0000CD1A80742D53D4615F8340FC00727D187
:1054F000042E78D824F40004023637E0394611F837
:105500001C0FC00705D1042E6DD824F40004023608
:10551000E7E7052E67D804F08070009048464246C1
:105520003346FFF724FF397F20437D7E013649064D
:105530006FF4400158BF6FF4000101EA0004D0E7A6
:10554000052E50D804F08070009048462946424607
:105550003346FFF70CFF29786FF4400220430136F1
:10556000490658BF6FF4000202EA0004B87D8107C3
:105570001DD5797E49071AD5394611F84C2FD20727
:1055800005D1042E2FD824F4000402360FE0052E96
:1055900029D804F080700090484642463346FFF711
:1055A000E6FE40EA0401B87D21F40004013640071C
:1055B00019D5787E000716D517F8640FC00704D1F7
:1055C000042E98BF24F400040DE0052E0BD804F03F
:1055D000807000904846394642463346FFF7C7FE82
:1055E000204320F40004204601B0BDE8F083B0B5AC
:1055F000044602F0FBFA0028A06152D004F5BC700A
:105600003B21FBF7C1F8E56F6DB1D4F88810204657
:10561000FEF794FE2860D4F888102046FEF78EFE30
:10562000296808600160D4F8881020460A4600F016
:1056300003FAD4F88810206120460A4600F0FCF9ED
:1056400021690125606169B360B3C4E901014FF4C8
:105650000070E16000256563FFF7F0FD46F285729A
:105660004021C0F20022C4E96D00C4E96F12A069B4
:105670000A2184F8C951FEF77AFD98B1A0690A2180
:105680000022FF230025FEF705FEA0690A21002263
:10569000FEF77AFDFF2805D10025012084F8C90115
:1056A00000E00525284684F8C651B0BDB0B50446D3
:1056B00001F068F8E0688269032A2BD80169DFE805
:1056C00002F00207162040F2FF2241F8042B20E0EE
:1056D00048F200030A68C0F2800363F31F2242F419
:1056E00000420A6040F2FF228A600C3111E0002281
:1056F000C8F28002120C4A8040F2FF22CA601031C8
:1057000007E08022CA70036940F2FF220A6103F1B8
:1057100014010161C16900250139C0E9065101295F
:1057200001D800F0C3F9002084F8C651B0BD0000D4
:10573000B0B5044601F026F8E0688269032A2BD848
:105740000169DFE802F00207162040F2FF4241F84B
:10575000042B20E048F200030A68C0F2800363F3E0
:105760001F2242F400420A6040F2FF428A600C317C
:1057700011E00022C8F28002120C4A8040F2FF427F
:10578000CA60103107E08022CA70036940F2FF420C
:105790000A6103F114010161C16900250139C0E901
:1057A0000651012901D800F081F9002084F8C65182
:1057B000B0BDB0B50446C06F00B1B0BDE568D5E975
:1057C0000F018142F9D046F61911D4F8C001C0F298
:1057D000002188421CD0204600F0D4FF204600F073
:1057E00091FF204600F0CEFFE06F0028E86BC4F880
:1057F000BC0123D1E16804F5DA7E01F1440C0864B0
:10580000096D9CE80C108EE80C10C4F8C01115E06E
:1058100005F1440304F5DA7CD4F8BC0128640FCB0D
:105820008CE80F00204600F0ADFF204600F06AFF34
:10583000204600F0A7FFE86BC4F8BC012864B0BDA7
:1058400080697047F0B581B00446006890F8681030
:10585000C90725D1D4E902678569B74212D000BFD4
:10586000386818B1F96809B100690860B8683A6920
:10587000042100EB800083002846FEF735FC3F68DA
:10588000B742EDD1B068E169401A3269042100EBFA
:1058900080008300284601B0BDE8F040FEF724BC3C
:1058A00001B0F0BD00000000F0B581B004464FF437
:1058B000BE70FFF7C3FC0546002800F0848087FF18
:1058C0005F0085ED100F6FF07F4043A2C5E9020035
:1058D0004FF07F40C5E9540092ED001F42A205F150
:1058E000D406D4F880100027090140F20801C2F262
:1058F000400192ED003F58BF4FF480013EA2C5F831
:105900002011636D85ED4A3F92ED003F3EA2C5F840
:105910004C011020A88243EA010085ED443F92ED3E
:10592000003F3DA240F4002040F4B050C5F82401EF
:105930004020C5F8D80005F11C0085ED160F0421A4
:1059400085ED313F92ED003F86ED002F86ED380F5B
:1059500080EF50006C6085F8E91085ED4F1FC5E9B8
:105960003F77C5E94177FFF7FDFC05F13400FFF70C
:10597000F9FC05F14C00FFF7F5FC05F16400FFF7B9
:10598000F1FC05F17C00FFF7EDFC05F19400FFF759
:10599000E9FC05F1AC00FFF7E5FC23A10C2085F83C
:1059A000E8004FF0FF30C5F8380191ED001FC5E960
:1059B00037702046294686ED100F01F0C1FFE069DF
:1059C0002860E56100E0012784F8C671284601B02F
:1059D000F0BD00BF00BF00BF0100000000000000DC
:1059E00000000000000000000000000000000800AF
:1059F0000000010000C0030000000100AA00000038
:105A00000000010000160000AA00000004000000D1
:105A10000000000010000000010000000200000073
:105A20000100000001000000010000000300000070
:105A30000300000003000000F0B581B050B305463C
:105A40000F46032921D31646022A1ED95820FFF7F4
:105A5000F5FBE0B10446002021463A46A063284603
:105A6000FFF708FCD0B1E86F40B94FF40070FFF7C2
:105A7000E5FBA06390B14020C4E90F000020C4E919
:105A80000860606585F8C60105E00D2000E0012092
:105A900085F8C6010024204601B0F0BD012085F83C
:105AA000C6012046FFF783FBF4E700002DE9F0472D
:105AB00082B0456904465DB1E069A969002837D024
:105AC000012940F0CD8020680121D0F8188066E0DF
:105AD000206948F23201C8F2800101600021256985
