:020000040200F8
:100000000096002225250002D50A0002A70300025F
:100010009F0A00029F0A00029F0A00029F0A000234
:100020000000000000000000000000009F0A000225
:100030009F0A000200000000DF0200029D2500026E
:1000400091DF030295E0030245E003020BDF0302A8
:10005000D54901028D390302013A0302753A0302C0
:100060000F390302FF37030273380302BD2901026F
:1000700001530302C1DD03028DDC03020000000016
:100080000000000000000000000000000000000070
:100090000000000000000000000000000000000060
:1000A0000000000000000000000000000000000050
:1000B0000000000000000000000000000000000040
:1000C0000000000000000000000000000000000030
:1000D0000000000000000000000000000000000020
:1000E0000000000000000000000000000000000010
:1000F0000000000000000000000000000000000000
:1001000000000000000000000000000000000000EF
:1001100000000000000000000000000000000000DF
:1001200000000000000000000000000000000000CF
:1001300000000000000000000000000000000000BF
:1001400000000000000000000000000000000000AF
:10015000000000000000000000000000000000009F
:10016000000000000000000000000000000000008F
:10017000000000000000000000000000000000007F
:10018000000000000000000000000000000000006F
:10019000000000000000000000000000000000005F
:1001A000000000000000000000000000000000004F
:1001B000000000000000000000000000000000003F
:1001C00000F002F800F063F80AA090E8000C824406
:1001D0008344AAF10107DA4501D100F058F8AFF2E3
:1001E000090EBAE80F0013F0010F18BFFB1A43F015
:1001F00001031847C8000F0008010F000A4410F857
:10020000014B14F00F0508BF10F8015B240908BF6B
:1002100010F8014B6D1E05D010F8013B6D1E01F862
:10022000013BF9D1641E03D0641E01F8015BFBD1D0
:100230009142E4D370470000103A24BF78C878C1D7
:10024000FAD8520724BF30C830C144BF04680C60DC
:10025000704700000023002400250026103A28BF24
:1002600078C1FBD8520728BF30C148BF0B60704728
:100270001FB542F02FFE00F067FB040000200021B4
:1002800042F012FE401C60601FBD10B510BDDFF8CB
:1002900010D0FFF7EDFF00F0FDFB00F0F2FB0000D7
:1002A0000076002203B4FFF7F0FF03BC06F092FED5
:1002B000EFF3108072B6704780F310887047484A99
:1002C0001368012B04D04FF001031360454A1060FE
:1002D000454A116045484FF0805101607047EFF387
:1002E000108272B63E48016879B34FF00001016098
:1002F0003C48016891B1EFF309811EF0100F08BF6F
:1003000021ED108B21E9F00F4FF000041EF0100FCB
:1003100008BF012441F8044D0068016000B502F0F7
:100320006BFA5DF804EB30490968096808C9B1E85F
:10033000F00F002B18BFB1EC108B81F309884EF041
:10034000100E002B18BF2EF0100E82F310884EF006
:10035000040E704724490860EFF3148222F004026F
:1003600082F314881F494FF0000008601C494FF0C9
:10037000010008601E481F49D0F8002041EA020130
:1003800001601A484FF0805101601B480068006806
:1003900000BF80F3088861B662B6BFF34F8FBFF32A
:1003A0006F8F704700BFEFF308801EF0040F01D07D
:1003B000EFF3098020E9F00F40F804ED40F804ED78
:1003C0001EF0040F02D080F3098801E080F3088852
:1003D00000B538F05FF95DF804EB4EF0040E70479D
:1003E0005C32002298300022A430002204ED00E0AC
:1003F00020ED00E00000FFFF08ED00E07047000086
:1004000010B500F0A1FA001D10BD00BF9D2A040028
:1004100053EA020C00F069802DE9F04B4FF0000622
:10042000002B1FBFB3FA83F503FA05F424FA05F68F
:100430005E4012BF1643B2FA82F502FA05F4C5F126
:1004400020051EBF22FA05FC44EA0C04203556EABA
:10045000044C4FEA144418BF641C4FF000084FF0DE
:100460000009904271EB030C39D3002919BFB1FA8E
:1004700081F701FA07F6B0FA80F700FA07F6C7F13C
:1004800020071EBF20FA07FC46EA0C062037B6FB01
:10049000F4FCA7EB0507103F07F01F0BCBF120067C
:1004A0002CFA06F60CFA0BFB44BFB3460026202FAD
:1004B000A4BF5E464FF0000B5BEA060C08BF4FF08E
:1004C000010B19EB0B0948EB0608ABFB027C06FBA2
:1004D00002CC0BFB03CCC01B71EB0C01C1E70B463C
:1004E000024641464846BDE8F08B13B5084318BFA5
:1004F0004FF0FF300146AFF30080BDE81C4070476D
:1005000053EA020C23D010B54C1084EA530404D5EE
:100510004042C1F1000138BF491E1B4204D552427E
:10052000C3F1000338BF5B1EFFF772FF14F0804F6A
:1005300004D04042C1F1000138BF491E14F0004F01
:1005400004D05242C3F1000338BF5B1E10BD13B587
:1005500040424FF0000070EB0104B8BF012001F0F1
:10056000004100281CBF6FF000414FF0FF30AFF397
:1005700000801CBD70B5064600F0EAF90468054627
:1005800030460A22002100F0E7F92C6070BD401EC1
:10059000CAB210F8011F8A4202D00029F9D1002006
:1005A000704740EA010310B59B070FD1042A0DD311
:1005B00010C808C9121F9C42F8D020BA19BA884244
:1005C00001D9012010BD4FF0FF3010BD1AB1D30783
:1005D00003D0521C07E0002010BD10F8013B11F8B9
:1005E000014B1B1B07D110F8013B11F8014B1B1BE2
:1005F00001D1921EF1D1184610BD10B5431C02E086
:1006000010F8011B71B18107FAD14FF0013202C815
:100610008C1A8C4314EAC211F9D0C01A0A0603D00E
:10062000C01E10BDC01A10BD0A0401D0801E10BD2E
:100630000902FCD0401E10BD40EA010370B59B07C3
:100640002ED14FF00136042A2AD308C810C99D1BA9
:100650009D43121F15EAC61517D0D8B2E1B2401A51
:1006600050EA056110D198B2A1B2401A50EA054192
:100670000AD123F07F4024F07F41401A50EA05213F
:1006800002D1180EA0EB146070BDA342DBD018BAE3
:1006900021BA884201D9012070BD4FF0FF3070BDF2
:1006A0000AB9002070BD10F8013B11F8014B63B18D
:1006B000A3420AD1521E08D010F8013B11F8014B99
:1006C0001BB1A34201D1521EEDD1181B70BD032AEC
:1006D00040F2308010F0030C00F0158011F8013B5F
:1006E000BCF1020F624498BF11F801CB00F8013B46
:1006F00038BF11F8013BA2F1040298BF00F801CB0A
:1007000038BF00F8013B11F0030300F02580083AE0
:10071000C0F0088051F8043B083A51F804CBA0E837
:100720000810F5E7121D5CBF51F8043B40F8043B8C
:10073000AFF30080D20724BF11F8013B11F801CBC1
:1007400048BF11F8012B24BF00F8013B00F801CB92
:1007500048BF00F8012B704710B5203AC0F00B805D
:10076000B1E81850A0E81850B1E81850A0E81850A7
:10077000203ABFF4F5AF5FEA027C24BFB1E818501D
:10078000A0E8185044BF18C918C0BDE810405FEA7F
:10079000827C24BF51F8043B40F8043B08BF7047FB
:1007A000D20728BF31F8023B48BF11F8012B28BF00
:1007B00020F8023B48BF00F8012B704702F0FF030E
:1007C00043EA032242EA024200F00AB802F0FF03C1
:1007D00043EA032242EA024200F024B84FF000024A
:1007E0000429C0F0128010F0030C00F01B80CCF143
:1007F000040CBCF1020F18BF00F8012BA8BF20F8B1
:10080000022BA1EB0C0100F00DB85FEAC17C24BF04
:1008100000F8012B00F8012B48BF00F8012B7047AE
:100820004FF0000200B5134694469646203922BF89
:10083000A0E80C50A0E80C50B1F12001BFF4F7AFD4
:10084000090728BFA0E80C5048BF0CC05DF804EBB6
:10085000890028BF40F8042B08BF704748BF20F824
:10086000022B11F0804F18BF00F8012B704710B514
:10087000044610F0030F08BF11F0030F40F015807D
:100880004FF0013E121FC0F20E8051F8043BA3EB63
:100890000E0C2CEA030C1CEACE1C08BF40F8043BEB
:1008A000F0D0A1F1040102F10402521E08DB11F89C
:1008B000013B00F8013B002BF7D11146FFF78EFFFB
:1008C000204610BD0000000030B44FF0013C50F84D
:1008D000042B51F8043BCCFA52F4D51A20D1FCB9C0
:1008E00050F8042B51F8043BCCFA52F4D51A17D126
:1008F000B4B950F8042B51F8043BCCFA52F4D51A91
:100900000ED16CB950F8042B51F8043BCCFA52F4D8
:10091000D51A05D1002CDAD030BC4FF0000070475A
:1009200029BAB1FA81F111F01801D1F12000844007
:10093000F2D1CA40CB4012F0FF0213F0FF0330BCEB
:10094000D01A70477047000000487047F00200223C
:1009500000487047D00200222DE9F04791460F462B
:1009600080460446002614F8015B2DB1FFF748FDD0
:100970000068405DC007F6D12B2D02D02D2D18D078
:10098000641E4A463946204600F01EF827B13968F1
:10099000A14201D1C7F800804FF0020471050BD5C8
:1009A0004042002803DDFFF7D3FF0460A007BDE845
:1009B000F08746F48066E4E70028F8DAFFF7C8FF1E
:1009C00004606FF00040F2E72DE9F05F82461546C3
:1009D0008B4600270AF10104B9460078302801D07F
:1009E0009DB113E014F8010B0127782803D0582893
:1009F00001D045B10AE00DB1102D07D1002714F840
:100A0000010B102502E0082500E00A250026B0466B
:100A10000EE005FB080005FB06F101271FFA80F830
:100A200001EB1046B6F5803F00D3B94614F8010B30
:100A3000294600F018F80028EBDABBF1000F05D0CA
:100A40000FB1641E00E05446CBF80040B9F1000F2E
:100A500006D0FFF77DFF02210160C81EBDE8F09FB0
:100A600048EA0640FAE73A2800D2303820F020025F
:100A7000412A01D3A2F13700884201D34FF0FF3061
:100A8000704710B50446AFF300802046BDE8104023
:100A9000FFF708BC80B53CF073F8002080BD00BEB5
:100AA000704710B5044638F0C4FC206803280CD108
:100AB00040F64860C2F20020007830B140F2343095
:100AC000C2F2002000683AF05BF9BDE8104038F04F
:100AD000D3BC0000F0B581B04CF2001540F2E877CD
:100AE000C4F200050024C2F200272888298C08409F
:100AF00086B200BF26FA04F0C00703D0396809B1F6
:100B00002046884701340437102CF3D12E8200BFD1
:100B1000288C3042FCD101B0F0BD0000B0B542F2EB
:100B20002404C820C4F2200401210025257100F00E
:100B300082F82570207808B12FF005C0207840F0A9
:100B40000200207020788007FCD4002004F8020CFA
:100B500014F8020C08B12FF005C84FF0030E002066
:100B600004F11C0111F8102002F07F0201F810209E
:100B700011F91020002AFBD401300FF00DC801201C
:100B800000F00BF84EF64C410120C4F201010022A6
:100B90000A70BDE8B04000F027B880B5EFF31081CF
:100BA000012282F3108840F6AC02C2F2002232F831
:100BB00010308BB943F2D40C4EF2FA3EC0F2042C42
:100BC000C4F2010E3CF810C0BEF8003043EA0C033A
:100BD00043F42543AEF8003032F81030013322F8E8
:100BE000103081F3108880BDEFF31081012282F371
:100BF000108840F6AC02C2F2002232F8103023B165
:100C000032F81030013B22F8103032F810207AB957
:100C10004EF2FA3243F2D40CC4F20102C0F2042CB8
:100C200013883CF8100043F4254323EA00001080A9
:100C300081F31088704740F230324CF60023C2F244
:100C40000022C3F69A3341434FF47A7C1268B3FB17
:100C5000F2F2A1FB0C3010B9B3FBF2F004E0B1FBEF
:100C6000F2F0A0FB0C0119B908B106F021BE7047E3
:100C70004FF0FF3006F01CBE7047022818BF7047C7
:100C800043F6B440C0F20420416840F67800C2F256
:100C9000002000F038BD43F200101302C4F234000B
:100CA000C358DB071AD16FF0FF03C358DB0515D417
:100CB00000EB0220032200295FEA0F9C08BF0122FB
:100CC000036A23F002031A430262C0F804C0C16041
:100CD000016841F0010101600020704740F2EE30F0
:100CE000704700002DE9F04F81B043F208088246BA
:100CF000C4F22008002707600120EFF3108480F37E
:100D00001088D8F800000D4620F01000C8F8000048
:100D100043F20449D8F8000043F2000B9620012169
:100D2000C4F23409C4F2340BFFF785FF84F3108852
:100D30004023DBF8000040F48030CBF80000D5F809
:100D4000A400296C0329D0E9042008BF4FF4825382
:100D500000F03F00002A08BF03F580731844C9F86B
:100D60004C00286DD5F8A410002818BF4FF4BC70B3
:100D7000CBF8E403C9F80070D1E90032581C886848
:100D800043F2B001C0F2042112D02F6B2FB9D9F871
:100D9000187047F01007C9F8187051F823301F6811
:100DA00047F002071F60EB8D6FF3DF23C9F81430A3
:100DB000531C10D0EB6B2BB9D9F8083043F010035B
:100DC000C9F8083051F82220136813606A8F6FF356
:100DD000DF22C9F80420421C1ED0EA6C12B901229D
:100DE000C9F8242051F82000016841F00701016092
:100DF000A88D698D6FF3DF206FF3DF2141EA00409A
:100E0000C9F81C00288FE98E6FF3DF206FF3DF2114
:100E100041EA0040C9F80C00A88E298D40F6340341
:100E20006FF3DF20C2F200236FF3DF2141EA0040BD
:100E3000CBF804004FF00110CBF80800A88D698DA5
:100E400001306FF3DF216FF3DF2041EA0040CBF880
:100E50001000288FE98E01306FF3DF216FF3DF2060
:100E600041EA0040CBF80C0095F8550095F8561073
:100E700095F85420000240EA014040F62C0110444D
:100E8000CBF81400C2F20021A88D6A8D088040F6CC
:100E90003001C2F20021288F1A800022088040F61B
:100EA0003801C2F20021E88E088005F16C01284665
:100EB00034F0A8F805F1140005F17C01012234F0AA
:100EC000A1F8D5E9100182A295F868707CA4AB6CFA
:100ED00052F82020002F54F820704FEA024215D01B
:100EE000D5F8A440A669022E0ED104F11C0EA46A06
:100EF0009EE84050360346EA0C2646EA0E16264384
:100F0000324342F4001201E042F480123E034FF0FB
:100F10008054012948F2800108BF44EA0736012BBA
:100F2000C0F2800108BF46F0807603284FF40070BD
:100F300008BF06F50076CBF8C463CBF8D423CBF812
:100F4000C8034FF00220CBF8CC03CBF8D01340F607
:100F50003C02D5E92701CAE90101288FE98EC2F2D6
:100F60000022CAF80C50C2F800A008440130DBF897
:100F7000501260F30A01CBF85012DAF80C00D0F8E6
:100F8000A400C16A07C912689047054698B10120BC
:100F9000EFF3108480F310880121D8F8000040F0AE
:100FA0001000C8F80000D8F800009620FFF743FEB4
:100FB00084F3108880E00620C9F83C000720C9F8B7
:100FC0004000DAF80C304EF200104CF2003140F6DE
:100FD0005C12D3F89070CEF20000002FC4F2000132
:100FE000C2F200221FD493F88C30C61901241B01D1
:100FF00086F8003342F827A051F8273023F48033D5
:1010000041F8273051F827307B0907F01F07BFF35D
:101010005F8F00EB830604FA07F7C6F8807140F88B
:101020002370DAF80C30D3F89470002F1FD493F8A3
:101030008D30C61901241B0186F8003342F827A021
:1010400051F8273023F4803341F8273051F8273006
:101050007B0907F01F07BFF35F8F00EB830604FADD
:1010600007F7C6F8807140F82370DAF80C30D3F82F
:101070009870002F1DD493F88E30C6191B0186F886
:10108000003342F827A007F01F0351F8272022F46D
:10109000803241F8272051F8271079090127BFF342
:1010A0005F8F00EB810207FA03F3C2F8803140F84A
:1010B00021300120CAF80000284601B0BDE8F08FB9
:1010C000000000000100000002000000030000001A
:1010D000000000000100000002000000000000000D
:1010E00010B50446C068D0F8A400C06A81680068E2
:1010F0008968884743F20001C4F234010A6842F467
:1011000080720A600A6842F001020A60D1F8402445
:1011100042F00102C1F840240221216010BD844642
:1011200041610020CCE906327047B0B543684EF209
:10113000801E40F65C1CCEF2000E59691B6A002925
:10114000C2F2002C0ED44A0901F01F04012505FA51
:1011500004F44EF82240BFF34F8FBFF36F8F00228D
:101160004CF82120996B00290ED44A0901F01F0484
:10117000012505FA04F44EF82240BFF34F8FBFF368
:101180006F8F00224CF82120D96B00290ED44A0918
:1011900001F01F03012404FA03F34EF82230BFF3D9
:1011A0004F8FBFF36F8F00224CF8212081680022FF
:1011B0000260C3688B60816800204A63B0BD8168AB
:1011C0004FF000420A6181684A6181688A610022A9
:1011D00081684A62816800208A6270472DE9F04385
:1011E00083B01646044602F00309002001904FF038
:1011F000FF3000906A4620463346884613F02AFCAA
:10120000A268156B019FAFB90421300758BF0221B6
:10121000B007009802F14C0203D4494402EB81016B
:1012200007E042F8210041F00101A26802EB8101D0
:101230004C31086070060CD4022E39460FD1394665
:101240006FB16A4601232046414613F003FC019921
:1012500005E0A068016C41F480010164394625F481
:101260004030B9F1010F18BF40EA074525F0407240
:10127000A368B9F1000F4FF0000018BF42EA016502
:101280001D6303B0BDE8F08380B54168D0F808E085
:10129000096AD1E904C38A6943F00043CEF81430E7
:1012A00042F0004283689A614CF000438268136107
:1012B0008268CB69536282680020096A916280BDAE
:1012C000F0B58068426E01328A60D0F82CC04EF2D0
:1012D0002000C4F201000268007942EA000300F035
:1012E0000F001B0702F00F0308D440F23032C2F2A5
:1012F0000022126802FA00F0D8401BE000F0070E4E
:10130000032707FA0EF440F2303EC2F2002E012508
:10131000082838BF05FA00F402F00700DEF8006084
:1013200007FA00F006FB04F7120758BF05FA03F0AE
:10133000B7FBF0F0CCF3C352012320FA02F20020F5
:10134000C1E90032F0BD2DE9F04782B00D46097CBD
:10135000814642F2000307295FEA9F9202614F46ED
:10136000287CC4F2320301220024D5F820A04FF0DB
:10137000004803EB002047F8080F02FA01F07860FC
:1013800047F8045CA869F860E86978613C61EFF3AC
:10139000108682F31088287C43F21001C4F22001E9
:1013A00028FA00F00A6822EA00000860086896201F
:1013B0000121FFF740FC86F310884FF4254138687F
:1013C00001603868C4623868C46338688464286817
:1013D000A968032838684FEAC1516A6808BF01F557
:1013E0008031C1623868C0F810803868C0F8148055
:1013F0003868C0F818803868446238688462386891
:10140000DAF82410C1613868DAF828100162511E38
:1014100038688166386841664FF0FF302968DAF82D
:1014200044800129019400900DD029B968684FF0DB
:10143000FF3101EB500006E0E9686A4600234846A8
:1014400013F008FB00983968486539688865296891
:10145000042903D33968C86539680866DAF8440096
:101460000028019837D19AF80010B1B12A68DAF84B
:101470000410022A03D0032A03D1032205E0092223
:1014800003E00922002908BF06220B0143EA81116B
:10149000114441EA080141F480789AF80810D1B16A
:1014A0002A68DAF80C10022A04D0032A05D14FF476
:1014B000403208E04FF4102205E04FF410220029DA
:1014C00008BF4FF4C0220B0543EA8151114441EAA1
:1014D000080141F08078396800228A633968C1F8D0
:1014E0008820DAF8441031B9DAE90B12490341EAED
:1014F000427148EA010839684FF4AA020A6429686F
:10150000012904D139680022CA6439680A65D9E919
:101510000212CA60D9F80810C1F834800104D9F861
:10152000082041EA0060C11C013011634A46D9F825
:1015300008100863697C686933F0B6FE9AF83410C5
:10154000DAF838004A4633F0AFFE9AF83510DAF888
:101550003C004A4633F0A8FE45F254010020C0F298
:101560004701C9F8001002B0BDE8F08783684A1E41
:101570009A6643681B684BB9D0F808C04FF0FF3338
:1015800003EB5101CCF85410836899658168CB6AEC
:10159000DB0707D14A664FF4AA0281680A64D0E9E2
:1015A0000210C86000207047014682680020C968A8
:1015B000D1607047014682680020C9685160704759
:1015C0008268D06A00F0010048600020926C0A60D6
:1015D0007047014682680020C968916070470146E3
:1015E0004068002817D44EF2801C00F01F0240090A
:1015F000CEF2000C012303FA02F24CF82020BFF3D4
:101600004F8FBFF36F8F486840F65C12C2F2002222
:10161000002342F82030002000220A607047406812
:101620004EF2801300F01F014009CEF200030122A8
:1016300002FA01F143F820100020BFF34F8FBFF3EF
:101640006F8F704740684CF20031C4F200014EF2D7
:10165000001CCEF2000C51F8202022F4803241F818
:10166000202051F82010410900F01F0001220CEB4E
:10167000810302FA00F0BFF35F8FC3F880014CF8DA
:1016800021000020704770B546F2000C4B68C4F290
:10169000000C43600CF5C64E024600245EF82300A1
:1016A0004EF823400B784D69D5608D691561137232
:1016B00003F80C400B7B0C7C0D7A167A1B0143EA75
:1016C000C4132B4306F80C3053684EF823005068BF
:1016D00000280CD44EF2004340F65C164978CEF256
:1016E0000003C2F200260901C15446F8202044F24A
:1016F00055310020C0F24901116070BD0146002043
:1017000000220A60704780B545F25422C5F24F02AC
:101710000260084633F02EFE002080BD70B586B012
:1017200001A8049003A814460D46CDE90121012625
:10173000ADF80C6006F0C0F840F6B400EFF310818D
:10174000C2F2002086F3108802683AB940F61452BB
:101750000023C4F240021370402313700268013268
:10176000026081F31088E10340F600014FEA152280
:10177000C4F2400101D4EBB20CE001EB8216EBB2F3
:1017800056F8235025F4803546F8235024F480354C
:1017900046F8235001EB8211012241F82340EFF378
:1017A000108182F31088026812B10268013A026067
:1017B000006838B940F614500022C4F240000270AC
:1017C0008022027081F31088002006B070BD4FF4B3
:1017D000FF50042300EAD100C4F24003C9B2C0584C
:1017E0000023CFF6FF7343EA104020FA01F10020F6
:1017F00001F001011160704780B5C8B24FF0010CD3
:10180000531E0CFA00F050EA138E4FF4FF5C0C23C9
:101810000CEAD101C4F24003012A18BF0020012ABA
:1018200041EA030CCA5808D180B24FF6FF7141EA71
:101830000E41104300EA010205E042EA0E41CFF6F4
:10184000FF7001EA00020020CCF8002080BD6FF09C
:101850003F00CBB200EA910040F6000100EB8300AC
:10186000C4F2400141580020C1F3400111607047AB
:1018700080B55FFA81FE012000FA0EF0002A83B2E3
:101880004FF4FF5040F208024FF4803C00EAD101CF
:10189000C4F240024FF0000008BF0CFA0EF38B5068
:1018A00080BD80B5084633F065FD002080BD80B561
:1018B0004FF4FF5040F2000C00EAD101C4F2400C9A
:1018C00003EA020E62EA030251F80C004EEA000E2F
:1018D000002002EA0E0241F80C2080BD4FF4FF50B8
:1018E00000EAD1000421C4F2400141580020090C53
:1018F0001180704723EA020C4FF4FF501A400C236A
:1019000000EAD101C4F24003002042EA0C42CA506E
:1019100070474FF4FF50042300EAD101C4F24003A2
:101920000020C9581180704723EA020C4FF4FF5081
:101930001A40082300EAD101C4F24003002042EA21
:101940000C42CA50704700002DE9F04146F20415E0
:101950008046C4F2340511F0C5F8D8F80C10286898
:1019600020F00100286040F628000322C2F2002087
:101970000260497BD5F81C22C2F3C0628A421CBFB8
:101980000268002AF6D100250560D8F80CC00126AF
:10199000DCF874104A6802F01F0354094EF28012FA
:1019A00006FA03F3CEF2000242F8243040F65C134C
:1019B000BFF34F8FBFF36F8F4C68CF68C2F2002325
:1019C000780907F01F0743F8245006FA07F742F892
:1019D0002070BFF34F8FBFF36F8FC8684F697C09CA
:1019E00043F8205007F01F0006FA00F042F82400E8
:1019F000BFF34F8FBFF36F8F4869CF697C0943F8FE
:101A0000205007F01F0006FA00F042F82400BFF350
:101A10004F8FBFF36F8FC8694F6A7C0943F820501E
:101A200007F01F0006FA00F042F82400BFF34F8FC2
:101A3000BFF36F8F486ACF6A7C0943F8205007F0E4
:101A40001F0006FA00F042F82400BFF34F8FBFF3E7
:101A50006F8FC86A43F82050DCF80000006833F04C
:101A6000EBFC43F20800C8F80050C4F22000EFF38A
:101A7000108486F31088016841F480610160006879
:101A800096200121FFF7D7F884F310880020BDE8E5
:101A9000F081F0B546F2C0504FF65022C4F2340047
:101AA000CFF6FF728358DB0714D18258D20611D4C7
:101AB00091F800C04A6802F00F058C89092D00EBEF
:101AC000CC1303F5E07307D35FFA84FE250A4FF0C9
:101AD000807710E00820F0BD34B10D69012C95F835
:101AE00000E006D1002702E000274FF0000E00259D
:101AF00001E06D78002702F03F024EEA05250CF068
:101B000003048E6845EA024206F0400542EA845228
:101B10003A4306F0030742EAC54206F0200542EACE
:101B200087621A606A04360702F180724FF0140669
:101B300008BF6A04002D08BF6A04002F4FF08077A9
:101B400008BF1026C3E90172BCF1000F5FEA1F97BE
:101B50008A59DA600760097801295FEA1F910164F8
:101B60000020F0BD2DE9F04188B043F25042C4F2AC
:101B700034021268520601D41E204AE10D4640F696
:101B8000280840F650110446C2F20028C2F2002193
:101B90000020C8F800000870E560EFF3108601200F
:101BA00080F3108843F20800C4F22000016821F499
:101BB00080610160006896200121FFF73CF886F300
:101BC00010882968D1E9000133F04CFC002840F06E
:101BD000208146F20017C4F23407386840F4807060
:101BE0003860386940F00100386100BF786900F062
:101BF0001F001F28FAD1E87A013840F4407038609D
:101C0000287BB96821F0FF010844B86095F82C00E2
:101C1000298D2A6B95F8343002F00F0241EA00401A
:101C200095F8351040EA025095F8362040EA4370A6
:101C300040EA817040EAC27038626868D0E90021E9
:101C4000090480683FFA81F162F38B0141EA006088
:101C5000C7F814026868C0686FF39F20C7F81802BD
:101C6000E869C7F81001286AC7F81401686AC7F85C
:101C700018012869C7F8E0016869C7F8E401A86994
:101C8000C7F8E801284610F0D3FE6E6F306BC7F836
:101C90000801706BC7F80802B06BC7F82802F06B38
:101CA000C7F8180346F2D450316CC4F234004160D6
:101CB000716C416440F21011C7F609510160016472
:101CC0000B204EF20751C0F2D000C5F2F771C7F8F1
:101CD0001403C7F804110020A061D5E91B01C4E971
:101CE00004013046214610F0C3FE06F108002146EB
:101CF00010F0BEFE06F11000214610F0B9FE06F10C
:101D00001800214610F0B4FE06F12000214610F024
:101D1000AFFE06F12800214610F0AAFE44F644105A
:101D20000322C4F650502060E068396841F48071A5
:101D300039600121C8F80010417B002908BF012249
:101D40007A60407BD7F82012C1F3806181421CBFCA
:101D5000D8F800100229F5D10220C8F8000095F843
:101D60003700A96B95F83C200023C003C7F6FF732A
:101D700061F3154062F39750C7F8200395F84410BB
:101D8000286CAA6C6FF31F3003EA024240EAC130AC
:101D90001043C7F82803D5E913016FF35F3061F3EF
:101DA0001C40C7F82C0395F85800E96D6A6D03EAEA
:101DB00001416FF31F3242EAC0300843C7F83003D5
:101DC000D5E918016FF35F3061F31C40C7F83403A5
:101DD000A86E43F6FC7101EA8000C7F80403A0690D
:101DE000062100916169039150B10DF1100C90E84A
:101DF0008E008CE88E009DE88E0080E88E0000E06A
:101E0000684621698847A06910B104AF8ECF8EC0A3
:101E1000002008B0BDE8F08110B588B004468069A4
:101E20004FF0070100916169039150B10DF1100E5F
:101E300090E80E108EE80E109DE80E1080E80E104F
:101E400000E0684621698847A06928B10DF1100CAF
:101E50009CE80E1080E80E1046F200404FF610414C
:101E6000C4F23400CFF6FF714258D2071DD1415859
:101E7000C9061AD4E1680A7A4B7A897A120242EAD0
:101E8000432242EA81210131016040F65011C2F241
:101E9000002100BF0269120703D40A780AB92FF0A3
:101EA00007C801200870002000E0082008B010BD1D
:101EB0004FF6F05046F22022CFF6FF70C4F2340203
:101EC0001058086010684860002053688B60936069
:101ED000704780B510F006FE002080BD10B511F0EF
:101EE000020C024606D0107900285FEA1F904FEAE4
:101EF000007E01E04FF0000E137950794CEA030C9C
:101F000001F0010343EA00040028704608BF40F0D6
:101F10008070002B936850EA1E8E43EA010046F25F
:101F20000C139060C4F23403BCF1000F5FEA0F9110
:101F3000002054711171C3F800E010BD70B511F0AC
:101F40000203024601D1002001E010794007002B76
:101F500053795FEA1F9C11F0010E157906465FEA7E
:101F60001F94002B18BF46F00076BEF1000F50EA18
:101F70000680002B5FEA0F93002D5FEA0F96234047
:101F800053710CEA060346F20C16C4F234061371C0
:101F900030600020936823EA0101916070BD84469F
:101FA000C1630020CCE91032704700002DE9F041F8
:101FB0000D460978044648F20000C4F235000026B8
:101FC00000EB012020612560A8686060E868A060DF
:101FD000E86AE063286B606426640120EFF31087F1
:101FE00080F310884FF00041287821FA00F043F286
:101FF0000401C4F220010A6822EA000008600868AF
:1020000096200121FEF717FE87F3108820682169CA
:10201000406B8E60216900BF0A7F0AB12FF005C0B6
:10202000027948F21813C0F207034EF6185C63F306
:102030005F120A628168226940F20023CEF2000C2E
:10204000C0F2040340F65C1E43EAC11151610178FD
:10205000C2F2002E42784FF001088378C77812024E
:1020600042EA0141226941EA035141EA0761043130
:102070001161407921694FF0805242EA0060C860E6
:1020800020691021C9F60351816608212069C166C3
:102090004EF20010AF69CEF2000007F00F0100F51C
:1020A00040732A7C0E1FD919002F48BF06EB0C0184
:1020B00012010A704CF200324EF82740C4F20002BE
:1020C000790952F8276026F4803642F8276052F8E2
:1020D000276000F5C07607F01F07BFF35F8F08FA8F
:1020E00007F746F8217040F82170E9692D7C01F06E
:1020F0000F070B44043F002948BF07EB0C032F01D7
:102100001F704EF8214052F8213023F4803342F8FA
:10211000213052F821204A0901F01F01BFF35F8FDF
:1021200008FA01F146F8221040F822100020C4E914
:10213000080040F27D31C4E90A0084F8350084F8D3
:10214000360084F8370084F838000020E160BDE8EC
:10215000F08180B580F8363001233BF03FFD002050
:1021600080BD03460020C3E90112704780B580F8A6
:10217000363000233BF032FD002080BD2DE9F04FCA
:1021800081B00A784FF0010C40F21F2304460CFA8C
:1021900002F748F200001F42C4F235005FEA0F93D5
:1021A00000EB0220A278206218012070886B606228
:1021B00022F00300D1E90F38421CA2704A680D4694
:1021C000002AE362E1614FF00002A26202D140F016
:1021D0000200A0704EF20019E96ACEF200094A0925
:1021E00009F1800001F01F034CF2003A95F828B085
:1021F0000CFA03F340F82230C4F2000A01F00F0396
:10220000BFF34F8FBFF36F8F5AF821201F1F09F5BF
:1022100040734EF6185E22F480324AF82120CEF246
:10222000000E5E185AF82120002948BF07EB0E0661
:102230004FEA0B1240F65C1B3270C2F2002B6A6947
:1022400002F01F062F7C4BF8214051090CFA06F6CC
:10225000002A40F8216002F00F06BFF34F8FBFF352
:102260006F8F5AF8221021F480314AF82210A6F11B
:10227000040103EB020648BF01EB0E065AF82210D8
:1022800039013170E9694BF822404A0901F01F0712
:102290002E7E0CFA07F740F8227001F00F07BFF30B
:1022A0004F8FBFF36F8F5AF82120002922F480321C
:1022B0004AF82120A7F1040203EB010748BF02EB13
:1022C0000E075AF8212032013A706A6A4BF8214011
:1022D000510902F01F0795F820600CFA07F740F843
:1022E000217002F00F01BFF34F8FBFF36F8F5AF8C9
:1022F0002200043920F480304AF8220013445AF8AE
:102300002200002A48BF01EB0E03300118704BF881
:102310002240EFF310868CF3108828784FF00041AC
:1023200021FA00F043F20401C4F220010A6822EA13
:1023300000000860086896200121FEF77CFC86F307
:1023400010884FF48061206A4FF440738160286CDC
:102350006968EA6803EA0121D0E900C762F38E31B7
:10236000C66907F0010306F001020CF0030741EA19
:10237000C333266A43EA4252237842EA076241F2B3
:102380000007C0F21007C168002B08BF4FF4805748
:102390003A447261026822F00103022B07D14FF622
:1023A0000471022ACFF6007108BF203100E00968ED
:1023B000226A4FF4407711618169AB68826801F04D
:1023C0000301022B02F0010208BF4FF48077002BBB
:1023D00018BF3944236A41EA02713031D9600021C3
:1023E000226A91612278B2B1226A48F20003C0F2F7
:1023F00080035362E2692378276A126C013B1269F9
:102400007E6A1A4003F00F0302F00F0246EA0363EC
:1024100043EA02427A6290F82520036A90F8240089
:1024200003F0010302F01F0260F30C23206A43EA69
:10243000024202631022206AC4E90511C4E90311B3
:10244000C9F60752D8F81410A16082660120216AEB
:102450000867E1694A6953095AF8221021F480316A
:102460004AF822105AF8221009F5C07102F01F0232
:10247000BFF35F8F00FA02F241F8232049F82320CE
:10248000E269D26A5AF8223023F480334AF82230C3
:102490005AF82230530902F01F02BFF35F8F00FA8F
:1024A00002F241F8232049F82320E269D2695AF860
:1024B000223023F480334AF822305AF8223053096C
:1024C00002F01F02BFF35F8F00FA02F241F82320EF
:1024D00049F82320E269526A5AF8223023F4803303
:1024E0004AF822305AF82230530902F01F02BFF393
:1024F0005F8F904041F8230049F8230040F21141DA
:10250000206AC0F201018160206A00BF017FC90713
:10251000FCD044F642110020C5F24331616001B0A5
:10252000BDE8F08F00F088F8FEF7B4FAFEE700008F
:10253000B0B510F0C7F910A036F0B5FF00244FF683
:10254000FF754EF62560C6F62004C0F2DF15C0F216
:102550000E20102321462A4636F0A5FF0BA036F0A8
:10256000A2FF43F264400BA1C2F2002022462B4698
:1025700037F0D0F90020B0BD1B5B306D5B442F6499
:1025800072765F736472616D5D2000001B5B306D5D
:102590000A000000736472616D00000080B536F0BF
:1025A00048FF39F00BFEBDE8804036F065BF4EF2C3
:1025B0002401C4F201018878097801F00F010A2989
:1025C00011D009291DD0082929D143F2D451C2F2D2
:1025D000002151F820004AF6AB21CAF6AA21A0FB3F
:1025E0000101480822E043F2D451C2F2002151F81F
:1025F00020004AF6AB21CAF6AA21A0FB0101C808B7
:1026000014E043F2D451C2F2002151F820004AF6FE
:10261000AB21CAF6AA21A0FB0101880806E043F21B
:10262000D452C2F2002252F82000C84040F23031A9
:10263000C2F20021086070472DE9F0414EF60858BB
:1026400040F20120CEF20008C0F20E0040F2000578
:102650000024C8F80C004FF47000BFF34F8FBFF395
:102660006F8FC8F880000020C0F20025C8F8005025
:10267000FEF703FB05F008F801200126FEF7FDFA3E
:10268000286843F20431A0F5005080F30A8840F234
:10269000D020C0F20001C2F20020FEF7C1F840F2E3
:1026A000000040F20C4140F2CC22C2F20020C0F205
:1026B0000F21C0F20002FEF74FF840F2E06740F24F
:1026C000E06140F2E06C40F2E063C0F20F27C0F23C
:1026D0000F21C0F20F2CC0F20F23C91B40F20005DE
:1026E000A3EB0C03C908C0F2000541F007C800BF06
:1026F000F7E80201E5E802010FF007C0D80840F250
:10270000000140F20003C2F20001C2F2000340F2F5
:102710000007C2F200075D1A40F009C000BF00BF09
:10272000FCE80223E7E802230FF007C0E80825468B
:1027300040F007C000BF00BFE1E802450FF005C050
:10274000BFF34F8F40F2C01540F2C010BFF36F8F40
:10275000C8F84842C0F20025C0F20020BFF34F8FF6
:10276000401BBFF36F8F8110012909DB2F46C8BFC3
:10277000861000BF57F8040B28448047013EF9D16A
:10278000FFF715FFFEF7CAF90320FEF706FA4FF030
:10279000100E40F63050C4F2400000BF20F8044B49
:1027A0000FF005C04EF210140320C4F20104FEF72E
:1027B0001BFAD4F8C80210B1D4F8C80212E020788D
:1027C00080B10120FEF7E9F9207800F0C0008028F0
:1027D000FAD10020207000BF20783F28FCD80120CB
:1027E000FEF702FA0220FEF748FA05F04BF8002047
:1027F000BDE8F04105F044B880B582B039F0BEFACA
:10280000C06A0190019880F30B8802B080BD00007F
:102810004EF60C500422CEF20000C0F2FA52BFF382
:102820004F8F016801F4E06111430160BFF34F8FE6
:1028300000BFFDE790FAA0F10028B1FA81F150EA5B
:1028400001907047B0B5054639F098FA90B104464A
:1028500009A036F028FE0DA021462A4636F023FEB8
:102860000FA036F020FE012100222046BDE8B04036
:1028700039F03CB8B0BD00BF1B5B33336D5B572FE5
:102880007374646C69625D20000000007468726596
:1028900061643A257320657869743A2564210000E3
:1028A0001B5B306D0A000000B0B515460C465BB9E5
:1028B00040F69041C2F20021D1F8D8201AB1294641
:1028C0009047034600E00023142D03D103EB53008F
:1028D0006043B0BDE91F03FB04F0CAB2032A88BFFE
:1028E000B0BD022A07D842F6207249B2C0F20422D3
:1028F00052F8211001E04FF480610844B0BD70B57A
:102900004EF22003C4F20103D3F800E01B794EEA33
:10291000030C03F00F035FEA0C720EF00F0C08D4E7
:1029200040F23032C2F2002212689A4022FA0CF2CF
:1029300019E003F00702032404FA02F20125082B30
:102940000EF0070638BF05FA03F240F23033B44008
:10295000C2F200231B685A435FEA0E7358BF05FAA0
:102960000CF4B2FBF4F24CF60023C240C3F69A33E7
:10297000A1FB03C100236046FDF74AFD70BD70B5A1
:102980004EF22003C4F20103D3F800E01B794EEAB3
:10299000030C03F00F035FEA0C720EF00F0C08D467
:1029A00040F23032C2F2002212689A4022FA0CF24F
:1029B00019E003F00702032404FA02F20125082BB0
:1029C0000EF0070638BF05FA03F240F23033B44088
:1029D000C2F200231B685A435FEA0E7358BF05FA20
:1029E0000CF4B2FBF4F222FA00F04CF60022A0FB49
:1029F0000101C3F69A320023FDF70AFD70BD000005
:102A00004868082809D8DFE800F00A050805050825
:102A1000050527000420A1F8500000207047C86C6D
:102A200090F82F205207F5D0024612F824CF937A5F
:102A300003EB83031A4412F8053D9C450AD192F832
:102A400002C090F82630634504D1527890F82500F2
:102A50009042DFD000BFE0E7C86C90F82F2052070B
:102A6000D8D0024612F824CF937A03EB83031A449A
:102A700012F8053D9C45D0D192F802C090F826305E
:102A80006345CAD1527890F825009042C2D0C4E77D
:102A900000F11C050446284630F006FB03260027FB
:102AA000A06918B9284630F017FBF9E741680829F2
:102AB00032D8DFE801F0050C31131A3121262D0040
:102AC000C16C00F1080220461BF0EAF924E0C16C59
:102AD00000F1080220461AF057FD1DE0C16C00F11C
:102AE000080220461BF00EFD16E0C16C00F1080242
:102AF00020461BF06BFC0FE0C16C20461BF013FD61
:102B00000AE0C16C00F1080220461AF0B5FB03E0B0
:102B1000C16C20461BF0CCFDA0698664A7611CF047
:102B200016F8BDE789B225F041B9B0B540F690443A
:102B30005821C2F2002404F1AC0002F019FC47F263
:102B400049402121C0F200200022002530F030FB56
:102B5000C4F8A80004F060FCA4F8A450B0BD2DE9AE
:102B6000F0439368D1F800C09C450DDC1468D1F89F
:102B700008E0A64508DBD2F80C904D684D4503DC13
:102B80005768CE68BE4203DAFF2358B2BDE8F0832F
:102B9000A445A8BFBD4203DB9E45D8BF4E4551DDCD
:102BA000AF42A6EB050608DDC0E900C50123C0E978
:102BB00002E7D2F80C904D6800E00023A6EB090470
:102BC0002C44012C12DBCC68A1450FDA05EB06087A
:102BD00000EB03161F010C688D68C6E90195C4510E
:102BE000C6F80C8001334D68D2F80C90CE6854685A
:102BF000AC4254EAC5880F68B14559EAB6891568F0
:102C0000AEEB0C04BD42C8BFC1450BDD00EB0316A3
:102C10004FEA031C013340F80C70C6F80C90C6E96B
:102C200001850F689168621A3A44012AADDB00EB16
:102C300003121E01013327448151C2F80C90C2E9EE
:102C40000187A2E70023A0E770B51468D2E9015616
:102C5000D26891E80850C968A34253EAC483AC45DE
:102C60005CEAC585B6455EEAB686914251EAB28213
:102C7000C0E90035C0E90262B3425FEACF919542F4
:102C80005FEACF942140084670BD2DE9F04383B040
:102C90000C46096807688F422FDB616846688E42E0
:102CA0002BDBA168D0F80890894526DCE168D0F8D4
:102CB0000C80884521DC15461AB301A920462A4616
:102CC000CDE9017600F073F8B8B101A920462A4693
:102CD000CDE9019600F06BF878B101A920462A46AB
:102CE000CDE9017800F063F838B101A920462A4601
:102CF000CDE9019800F05BF800E0002003B0BDE8EA
:102D0000F0830120FAE78A68036893420BDC0A68C3
:102D10008368934207DBCA684368934203DC4968CF
:102D2000C068884201DA00207047012070472DE911
:102D3000F04383B00C46096886688E420DDB6168FB
:102D4000C7688F4209DBA168D0F80080884504DCA1
:102D5000E168D0F80490894503DD012003B0BDE8A7
:102D6000F0831546BAB101A920462A46CDE901896A
:102D700000F01DF878B901A920462A46CDE901697D
:102D800000F015F838B901A920462A46CDE9018797
:102D900000F00DF808B10020E0E701A920462A461E
:102DA000CDE9016700F003F880F00100D6E72DE9D6
:102DB000F04105680B68AB420BDBD0F808C06345F7
:102DC00007DCD0F804E04968714502DBC468A14221
:102DD00002DD0020BDE8F081012A32DBACEB05000A
:102DE000A4EB0E060130013600EBD07006EBD67670
:102DF0004FEA60087710B8EB660FB8BF47109742EC
:102E000057EAB280054400EB0E02AB42D8BF9142B4
:102E100008DDAB42A4EB00060FDCB1420DDB014440
:102E2000091B00E0891A40435A1B494302FB021167
:102E300081425FEA8F90BDE8F081ACEB0004A342D1
:102E400002DA0120BDE8F081B14214DA9142F8DCE7
:102E5000201AACEB000202EBD272571000EB6200BA
:102E60000EEB6202181A891A07FB07F2494300FBAE
:102E700000109042DDE7221A0844ACEB020707EB92
:102E8000D7777D1006EB670102EB6702401A05FB5E
:102E900005F19A1A404302FB02008842C9E770B567
:102EA00092E8700091E80850D268C968A34253EADA
:102EB000B483AC455CEAB585B6455EEAC686914208
:102EC00051EAC28180E86800C16070BD10B543F26C
:102ED0005851C2F20021096828B1481C002202287A
:102EE00052EA819003E0481E002908BF022043F205
:102EF0006801C2F200210C783EF0C2FC012C18BF20
:102F000010BDBDE8104001F023B800000E2801D923
:102F10000020704701A151F82000704730FF0E02D9
:102F200044FF0E02C8FF0E029BFF0E0244FF0E027A
:102F3000C8FF0E02C8FF0E02DCFF0E02DCFF0E020D
:102F4000DCFF0E02DCFF0E02DCFF0E02DCFF0E02D5
:102F5000DCFF0E02DCFF0E020D2801D900207047B5
:102F600001A151F8200070470DFF0E02FAFE0E027B
:102F7000DBFE0E02EDFE0E02EDFE0E02EDFE0E0277
:102F8000EDFE0E02EDFE0E02EDFE0E02EDFE0E0255
:102F9000EDFE0E02EDFE0E02EDFE0E02EDFE0E0245
:102FA0000D2801D90020704701A151F82000704779
:102FB00075FF0E0260FF0E02D1FF0E0219FF0E0216
:102FC000A6FF0E02EBFF0E028BFF0E02BEFF0E02EB
:102FD00051FF0E0222FF0E02B6FF0E02B6FF0E02D6
:102FE000B6FF0E02B6FF0E020D2801D90020704771
:102FF00001A151F8200070474A0000009200000033
:1030000072000000900000009D000000D50000004C
:1030100074000000D30000008C0000008B00000052
:103020008C0000008B0000008C0000008B00000072
:10303000B0B540F68C420D46C2F20022014610683F
:1030400028F0F5FF0021044628F0F1FF002D054689
:103050004FF001010FD0204627F070FE4BF60041E3
:103060002846C0F2042124F0B5FE01212046BDE827
:10307000B0402BF06BBF20462BF080FD4FF2782143
:103080002846C0F20421BDE8B04024F0A3BE0000F1
:103090002DE9F04F8BB043F234480546C2F20028C8
:1030A00040462EF060F8042140462EF0F1F9FF2151
:1030B00040462EF0D8F84EF6EE614046C0F2EE01E2
:1030C0002EF0C3F847F6FF7140462EF0A7F9042111
:1030D00040462EF02FF943F20446C2F20026304655
:1030E0002EF041F8002130462EF0BDF842F63C713A
:1030F0003046C0F204212EF0DBF842F64C71304627
:10310000C0F204212EF0DCF8012130462EF0D4F874
:10311000022130462EF0E0F8142130462EF00AF954
:1031200043F22846C2F2002630462EF01CF8FF215A
:1031300030462EF098F844F665173046C0F24C073A
:1031400039462EF082F843F21046C2F2002630468D
:103150002EF009F8FF2130462EF085F8304639462A
:103160002EF073F843F21C46C2F2002630462DF0D2
:10317000FAFF662130462EF07BF9662130462EF0AC
:10318000A7F843F24C47C2F2002738462DF0EBFF78
:1031900048F6D0363846C0F20E2631462EF060F999
:1031A0006FF07F4138462EF056F943F2F837C2F2FD
:1031B000002738462DF0D7FF48F688313846C0F250
:1031C0000E212EF04DF94BF2BE013846C0F2B1018E
:1031D0002EF041F943F24047C2F2002738462DF065
:1031E000C2FF384631462EF03BF96FF07F4138463A
:1031F0002EF031F9284628F0D6FA40F68C4447F2F2
:103200005941C2F20024C0F2012123220023206090
:1032100027F03AFD20682BF058FD256819F04AF890
:1032200019F059F8064619F045F819F0CBF8A0F155
:103230001402284631462CF05AF9206814212CF04B
:1032400091FA20684FF48032414627F08BFD2068C8
:1032500001212BF08CFF0020FFF7A2FE002800F0D8
:10326000EB80642403AEC2F2000401274FF0000992
:1032700040F68C40A7F1010BC2F2002005685846C9
:10328000FFF7B2FE48F68901C8F68801A0FB0112DB
:1032900053091901A1EB52116FA2A0EB810020216B
:1032A000009030462DF0A7FC5846FFF779FE824685
:1032B0005846FFF72BFE0646284628F074FA80464B
:1032C0002BF003FD3C22404621462CF010F943F23E
:1032D000044100224046C2F2002127F043FD43F2A0
:1032E000284120224046C2F2002127F03BFD43F254
:1032F000104101224046C2F2002127F033FD43F283
:103300001C4180224046C2F2002127F02BFD47F6E7
:103310009511072200234046C0F2002127F0B4FC9B
:10332000BBF1030FA34603D38021404627F006FDDF
:10333000404624F005F94FF278210546C0F20421F9
:1033400024F048FD0021002201230220029028469B
:1033500001240094CDF804902BF021FF404625F085
:1033600057FE5146054626F082FE00210122012328
:1033700028460094CDE901942BF011FF43F24C4113
:1033800000222846C2F2002127F0ECFC404625F03E
:103390003FFE3146054626F06AFE43F2F831002230
:1033A0002846C2F2002127F0DDFC00210122012382
:1033B00028460094CDE901442BF0F1FE404625F06B
:1033C00027FE03AE0546314626F051FE43F240414A
:1033D00000222846C2F2002127F0C4FC022102226A
:1033E00001230220029028460094CDF804902BF08F
:1033F000D6FE404624F0A4F844F230410546C0F21F
:103400000C2124F0E7FC0BF1140128462CF07EF986
:10341000052100220023284627F03AFD4FF4003111
:10342000284627F043FC3846FFF7BAFD07F10107AD
:103430005C4608B12FF0E5C040F68C440321C2F28F
:10344000002420682CF030F800200121FFF7F0FD67
:1034500020680BB0BDE8F08F25753A253032750035
:103460002DE9F04F9FB028F09EF942F6E06402216A
:10347000C2F2002420602BF015FB206820212BF0E5
:1034800011FB20682BF021FC64212068C2F20001AE
:103490000A4688462CF02BF8206803212CF004F80B
:1034A000206828F080F96FF0130181462CF05AF95A
:1034B00018F000FF18F00FFF054618F0FBFE18F09B
:1034C00081FF282101EB4002484629462CF00FF8E5
:1034D0004FF4805148462BF0E5FA6FF07F4100220F
:1034E00048462CF02CF80021002248462CF047F8E2
:1034F0000021002248462CF0C6F800210022484650
:103500002CF0C7F80021002248462CF0CEF800210C
:10351000002248462CF0B1F80C2148462BF0A1FFC0
:10352000206828F040F907462BF0CFFB02213846EF
:103530002BF0B8FA206828F036F906462BF0C5FBC8
:10354000022130462BF0AEFA206828F02CF905460F
:103550002BF0BBFB022128462BF0A4FA18F0AAFEA0
:1035600018F030FF0246384641462BF0C0FF0021DC
:1035700038462CF0F7F818F09DFE18F023FF0246AD
:10358000304641462BF0B3FF18F094FE18F01AFFB6
:10359000014630462CF0E6F818F08CFE18F012FFC9
:1035A000A0F12802284641462BF0A1FF18F082FE28
:1035B00018F008FF14221421089102EB400128465C
:1035C0002CF0D0F820682CF021F9484623F0B8FF01
:1035D0004BF278010546C0F20D2124F0FBFB18F0F8
:1035E00069FE18F078FE014628462CF08FF802217B
:1035F00000220023284627F04BFC4FF400312846D8
:1036000027F054FB484623F09BFF4FF6E051054658
:10361000C0F20C2124F0DEFB18F04CFE18F05BFE2B
:10362000014628462CF072F8052100220023284686
:1036300027F02EFC4FF40031284627F037FB484690
:1036400023F07EFF47F2C0110546C0F2062124F0A8
:10365000C1FB042100220023284627F019FC4FF467
:103660000031284627F022FB484623F069FF47F245
:10367000E8610546C0F2062124F0ACFB06210022D9
:103680000023284627F004FC4FF40031284627F099
:103690000DFB484628F087F804462BF016FB40F255
:1036A000D1712046C2F200012BF0BBFD0121204662
:1036B0004FF0010B2BF05BFD00210222022320467C
:1036C0002BF03DFD2046254625F0A2FC43F2505448
:1036D00048F6D036C2F20024C0F20E26002231464F
:1036E00020602BF0F5FF44F66D5A2068C0F2500AB6
:1036F000002251462BF0E5FF43F258582768C2F2EA
:103700000028D8F80000FFF74BFC0146384626F0A9
:10371000AEFCF06800EB400000EBD071206849106F
:103720002BF07FFD28462E46079525F071FC40F2D0
:103730003C7448F68837C2F20024C0F20E270022FB
:10374000394620602BF0C4FF2068002251462BF040
:10375000B8FFD8F800002568FFF7D8FB01462846D7
:1037600026F085FC304625F053FC40F65414002228
:10377000C2F20024394620602BF0AAFF48F2B8615B
:103780002068C0F28A0100222BF09BFFD8F80000CD
:103790002568FFF7E1FB0146284626F068FC48460D
:1037A00028F001F880462BF090FA40F2D1744046A0
:1037B000C2F2000421462BF034FD002140462BF0DC
:1037C000D6FC03210222022340462BF0B8FC4046DF
:1037D00023F0B6FE41F6D071C0F20C2124F0FAFAC3
:1037E000404623F0ADFE42F6E801C0F20C2124F081
:1037F000F1FA404623F0A4FE43F20021C0F20C216E
:1038000024F0E8FA404623F09BFE43F61831C0F25C
:103810000C2124F0DFFA484627F0C5FF82462BF042
:1038200054FA504621462BF0FCFC08210022504659
:103830002BF023FF43F2840143F2A402C0F20421DF
:10384000C0F2042250462BF0DAFC504623F078FEFA
:1038500046F6A8010646C0F2062124F0BBFA002174
:10386000012201233046CDF800B00024CDE9014B00
:103870002BF095FC504623F063FE42F6F00106461D
:10388000C0F2052124F0A6FA0221052201233046C8
:10389000CDF800B001940024CDF808B02BF07FFCE7
:1038A000504623F04DFE42F67C410646C0F206210A
:1038B00024F090FA0121022201233046CDF800B015
:1038C000CDE9014B2BF06BFC44F6C5010722C0F299
:1038D00003210023304627F0D7F9504624F04FFB50
:1038E00043F264074CF65456C2F20027C0F2052694
:1038F00000210022334638600024009424F037FC75
:1039000046F630633868C0F2052303210022009494
:10391000002424F02CFC3868082127F0C7F9386807
:10392000012103220123CDF800B0CDE9014B2BF09A
:1039300036FC44F253713868C0F203210722002399
:1039400027F0A2F93868022127F0B0F9B188386869
:103950002BF0DCFE504623F0F3FD43F2082106462F
:10396000C0F2052124F036FA012104220123304659
:10397000CDF800B0CDE9014B2BF011FC44F2DD2174
:103980000722C0F203210023304627F07DF90221EF
:10399000304627F08BF950462CF0E1FE43F23037E9
:1039A0006421C2F20027002238602BF0BCFD386889
:1039B000022127F07BF9386803212BF032FC3868AC
:1039C000032101220423CDF800B0CDE901BB2BF087
:1039D000E6FB4EF664013868C0F20C214FF4403229
:1039E0002BF0C1FD386800214FF440322BF0C1FDAF
:1039F0003E6814214FF4403230462BF044FE14212F
:103A00004FF4403230462BF044FE14214FF4403244
:103A100030462BF04AFE14214FF4403230462BF052
:103A20002CFE386802214FF400322BF096FD49F647
:103A3000F8213868C0F256014FF400322BF07FFDB8
:103A400046F2F1613868C0F2A6014FF400322BF063
:103A50007DFD3868002100222BF009FE41F2AD0601
:103A60003868C0F2012623220023314627F00CF9E2
:103A7000504625F0CDFA43F24C5548F68831C2F253
:103A800000250022C0F20E2128602BF021FE48F212
:103A9000B8642868C0F28A04002221462BF011FE87
:103AA00040F201012868C0F20F2126F0E0FA2868F0
:103AB00002210522012301270097CDE90177012783
:103AC0002BF06DFB286823220023314627F0DCF819
:103AD000484627F068FE06462BF0F7F8FA213046F4
:103AE0002BF09FFB122130462AF0DCFF4EF62D1101
:103AF0000022C0F203210023304627F0C5F83046EB
:103B00002AF0C0FE304603F035FC40F2387143F233
:103B10004C35C2F20021C2F20025086048462E60F2
:103B200027F041FE83462BF0D0F8642140F2D17299
:103B30005846C2F20001C2F200022BF0D8FC01216B
:103B400058462BF014FB02210222022358462BF088
:103B5000F6FA0821002258462BF0A1FD584625F020
:103B600057FAD1A1064626F082FA48F6883100229B
:103B70003046C0F20E212BF0ABFD0022304621462C
:103B80002BF09FFD584627F00EFE14210222064618
:103B90002BF0ADFC0022304621462BF0D0FC00215A
:103BA000002230462BF0EBFC18F084FB18F00AFCE6
:103BB00040F2000242F65871C2F20022C0F2042123
:103BC000506048462BF01BFB0621002248462BF094
:103BD00024FD28680321002201230097CDE9017705
:103BE0002BF0DDFA0321002201230220CDE9010799
:103BF0000798092400942BF0D2FA03210022012314
:103C00000420CDE9010740460094CDF818802BF040
:103C1000C6FA0321002201230620CDE90107504600
:103C20000094CDF814A02BF0BAFA0321002201234E
:103C30000820CDE9010758460094CDF810B02BF0CC
:103C4000AEFA41F2D5704FF47A71C0F2042000222E
:103C50002FF0AEFA43F22831C2F2002108602FF0B3
:103C6000DBFB43F250304FF4FA51C2F20020002245
:103C700007704EF63760C0F203202FF099FA43F236
:103C8000F431C2F20021086001212FF01FFC09ACC1
:103C9000204614F000FC43F2543649F638174EF62D
:103CA000B350C2F20026C0F20E274FF0004541F299
:103CB0007B4A4FF0C80942F2C5084FF4FA7BC0F2C4
:103CC00003200A9018F0F6FA18F005FB37F8021BEB
:103CD000129013950996CA088B0802FB0AF203FB9F
:103CE00008F3520C1B0D02FB191203FB1B1002F50B
:103CF000E161052200F6C41089B280B21590204619
:103D000014924942169114F091FC08980436013837
:103D10000890D7D14FF248484FF47A7140F6B83244
:103D20000798CFF6FF7828F03AF94FF47A7140F609
:103D3000B832069828F033F94FF47A7140F6B83269
:103D4000059828F02CF94FF47A7140F6B8320498AF
:103D500028F025F940F238744FF44871C2F200247B
:103D600040F6B832206828F01AF943F24C360021A8
:103D7000C2F200264FF4FA620027306828F00FF9EB
:103D800041A0CDF858800D9790ED001F48F251509A
:103D90008DED121FC0F2012011902068099042F6AB
:103DA0002530C0F200200A9009A814F03FFC18F05A
:103DB00081FA18F0E4FA23F0C3FB45F248510446B7
:103DC000C0F20C2124F006F8204628F00BFB28B1A5
:103DD00028F073F9411E204629F014FF18F06AFA02
:103DE00018F0CDFA25F014F932A1054626F03FF976
:103DF0000221002228462BF05EFC48F6D03100223A
:103E0000C0F20E2128462BF063FC08210022284630
:103E10002BF064FC4FF4FA714FF4FA62284628F054
:103E2000E1F83168092200232046009727F042F884
:103E300011226FF0130328462146009727F03AF825
:103E400015A148F23350C0F20120119091ED001FEE
:103E500008F1C8004BF62301169009A80994C0F296
:103E600002218DED121F0D9114F0E0FB42F6E0648B
:103E7000C2F2002420682BF0C9FC20681FB0BDE806
:103E8000F08F00BF00BF00BF0100000000000080F5
:103E900000010000E80300000001000000000080B5
:103EA0000A00000090010000414C4C205452414354
:103EB0004B5300004C56474C2044656D6F0A4D75BE
:103EC00073696320706C61796572000010B543F20C
:103ED00068000021C2F2002043F24C3443F2403328
:103EE000C2F20024017043F23C30C2F20020C2F260
:103EF0000023026801604EF68D012068C0F20321A4
:103F00001A6014F06DFA206829F018FD40F238703C
:103F10004FF48071C2F20020006823F047FF43F2A3
:103F20002830C2F20020006808B12FF075FA43F281
:103F300064000121C2F200200068BDE810402AF0B0
:103F40001DBE80B53DF09CFCBDE88040AFF3008015
:103F5000B0B596B043F268000121C2F2002043F2EE
:103F60003C35C2F200256C46017043F24030C2F28B
:103F7000002000682860204614F08DFA43F2483093
:103F80002968C2F2002009914FF000430068421EE8
:103F9000401A4FF47A71CDE90A324EF68D02484349
:103FA00048F68901C0F203220192C8F6880143F263
:103FB0004C32A0FB0101C2F20022106800900809F7
:103FC0000C9000204EF6AD510F902046C0F2032118
:103FD000049114F02BFB43F22830C2F20020006859
:103FE00008B12FF04BFA43F2303043F25851C2F28D
:103FF0000020C2F2002104680868FEF7F5FF0246BF
:104000000021204615F0CAFD43F264000121C2F2EE
:104010000020006826F092FE16B0B0BD2DE9F04FEA
:104020009BB008B1C06801E018F044F940F6904B2D
:104030000028C2F2002BCBF8100000F0D182416AB8
:10404000002900F0CD820A69002A00F0C982C968FF
:10405000002900F0C5823321002218F0DBF9DBF8DB
:104060001000D0F8B8022BF0D1FBDBF81010D1F81B
:10407000BC0218B12BF0CAFBDBF81010D1F8C40257
:104080002BF0C4FBDBF81000D0F8C8022BF0BEFB0D
:10409000DBF81000D0F8CC022BF0B8FBDBF81000F6
:1040A000D0F8B812002900F09082D0F864120029EC
:1040B0004FD000270DF12C094FF00108C21992F8DA
:1040C0004422002A42D10024442500BF011991F85E
:1040D000441299BBA74231D000EB071101F1440211
:1040E00041191046FEF70FFE40B3DBF8100000EB5D
:1040F0000711421944314846FEF7D1FE484615F0F3
:10410000B6F8DBF81010824601EB071101F144000C
:1041100015F0ADF8DBF810100646481915F0A7F8B1
:10412000304482450AD2DBF8100000EB071120442E
:1041300099ED001F81ED111F80F84482DBF810001B
:1041400001341035D0F864128C42BFD301378F424E
:10415000B4D3C16B012940F0AC8018F047F90028B6
:1041600000F0A780DBF8100000F51B7001F054F997
:10417000002840F09E80DBF810003EF041FEDBF8A6
:104180001000C269416A914208BF026ACDE9052167
:1041900018F0A1F80490DBF8100018F013F9039060
:1041A0000BA84021FCF73CFBDBF81000D0F86412B0
:1041B00000294ED04FF000094FF0000800EB090134
:1041C00091F84412D9BB00F51B7001F0B2F8B0B3FE
:1041D000074600BFDBF81000394600F51B7001F000
:1041E000BBF8DBF81010044601EB09110BA801F134
:1041F00044023946FEF7B3FC411C1CD0012810DBF9
:104200005FFA80FA0BAE00BFDBF81000394600F50C
:104210001B7001F0CBF82ECEBAF1010AC5600EC0BA
:10422000F2D1DBF81000394600F51B7001F0FDF803
:10423000384622F0C5FC27460CB12FF035C808F1EE
:104240000108DBF810001FFA88F9D0F8641249451C
:10425000B4D80021CDE90711049900F51B7001398C
:104260000991039901390A9101F063F8DDE90575B7
:10427000C0B1044607AE00BF204621463246FEF7D5
:10428000E3FC284621463A46234618F003FDDBF8B6
:104290001000214600F51B7001F05EF8044608B1DD
:1042A0002FF017C0DBF81000002100F51B7001F0A3
:1042B00023F8DBF81000D0F86462002E00F088814B
:1042C000311801F2432100BF013E04D411F8012945
:1042D00012B12FF007C80026352100224FF0000947
:1042E00018F098F8DBF81000816B21F00101816370
:1042F000816B21F00201816390F84020D0F86412B4
:10430000012942F0020280F84020C0F217810DF12D
:104310002C080024019600BF011991F844120029CD
:1043200040F00281B44203D1816B41F0010181630D
:10433000416A826BC36B22F00202826300EB0412BB
:10434000D0F8A85202F14407296073B3C5E9019976
:1043500017F0C1FF0138E860DBF8100018F032F800
:1043600001382861284612F055FFDBF8100017F0DD
:10437000B2FFA0F1010ADBF8100018F023F80138B1
:104380000021002200904046534614F0A2FFDBF8C3
:104390001000C16B01291BD0022940F0C580816B40
:1043A000474641F00201816317E0039452F8489FA9
:1043B0001146144606973F6851F8046F0291049223
:1043C00054F808AF17F0FEFF82450DDA206810E0C0
:1043D000816B826B61F34102826305F1180C97E8EF
:1043E0000F008CE80F009CE0DBF8100017F0EAFFEC
:1043F0000138DBF81080059098F8410017F028FD8F
:1044000008B1102101E098F84110F01BAAEB090255
:104410000130541C18F019FFD8F824100DF12C08A5
:10442000C968B1FBF0F0A04250EAB48600200D90BC
:104430003746CDE90B0000BFDBF810002F214246C4
:104440007C1E0E9417F0E6FF0E980C990130411A6D
:10445000B14203DD012F2746EEDC00E03C464FF081
:10446000000A002C50EACA890498059B006800EBFA
:1044700009010139994206DD019E4FF00009069AB3
:10448000DDE9027434E0A0F1010AA3EB0908DDE9DB
:10449000016700BFDBF81010069A54463B681268AB
:1044A000496AC5E9001205F10801601CCA4481E8A7
:1044B0000904C5E906202846C5E9083A12F0AAFE13
:1044C000A04505D1DBF81000816B41F0020181634A
:1044D000284631F01DFE059B09EB0A009842D9DD04
:1044E0000AF101000DF12C08039C069A4FF0000917
:1044F000534519D0DBF8101012683F68496AC5E9C6
:104500000207C5E906202846C5E900122B61C5E966
:10451000087312F07FFEDBF81000816B41F002019E
:104520008163284631F0F4FDDBF810000134D0F847
:1045300064128C42FFF6F0AE90F84020002902F0A1
:10454000FD0180F8401043D03621002217F062FFB1
:10455000DBF8100017F04AFF0028DBF8100024D029
:10456000C16B012921D13EF04BFCDBF81000D0F8E3
:104570006412D1B100244425011991F8441271B993
:1045800000F51B7000F032FFDBF810104A19495992
:10459000D2E90137D268C2608AC0DBF81000D0F8D7
:1045A0006412013410358C42E6D3443000214FF4BC
:1045B000007226F028F9DBF81000002100F51170D8
:1045C000202226F020F9DBF810000021C0F8641248
:1045D00000F000F9DBF810003421002217F01AFF78
:1045E0001BB0BDE8F08FB0B540F690440021C2F298
:1045F0000024142204F1C800002526F004F947F62F
:10460000292004F1C80CC0F2002047F6252147F606
:10461000192242F63363C0F20021C0F20022C0F238
:104620000423C4F8D8308CE82700B0BD002B56D046
:104630002DE9F0479AB00D469A4617468146EB6A37
:104640002C6BD2E90010D2E90262CDE9161018965F
:10465000199243B9B4F5807F05D16C6BB4F5807FB6
:104660001DD04FF48074711A101A0131B5F834C09E
:10467000421CA0B2009016A805F14006CDE901C683
:1046800000F0F2F816AED7E90001199C4CCE0244B6
:1046900016925A18179230441890601819900DF11C
:1046A0004808D9F8082016A94046FEF7CDFA98B177
:1046B000E96903A8002222F095FF01280CD1009798
:1046C00003AF0023484629463A46CDE9018A11F056
:1046D00073F9384622F041FF1AB0BDE8F047704741
:1046E000002B6ED02DE9F04FA1B014468A46064645
:1046F000C96912A80022994622F074FF01285DD1F1
:10470000BAF824700DF1380C94E80F000EACBAF82A
:1047100026508CE80F002046394614F0E4FD204670
:104720002946059514F0DAFD26A1B268DDF838C0F7
:10473000C8680D90D3680F989842224B0A93D1E92C
:104740000131CDE90B3136DC07EB0C0106ADA1F1EF
:10475000010E0DF1480B0DF12808CDE903EC00BF67
:1047600091688C451ADC00BF28462146FEF76CFA9A
:1047700038B1304651465A4643468DE8300211F072
:104780001BF91098B268384410900E98916838441C
:104790000E908842E8DD0F98DDE903EC1199CDF821
:1047A00038C0059BCDF840E019441191D1681844F8
:1047B0000F908842D4DD12A822F0CFFE21B0BDE8D0
:1047C000F04F7047010000E0010000E0010000E050
:1047D000010000E0B0B540F690400425C2F2002090
:1047E00000F1FC04206808B122F0EAF900211C2243
:1047F000204626F008F8013D04F11C04F2D1B0BDBA
:1048000040F69041C2F20021C96E00BF59B14A681A
:10481000824202D00A68824203D10A7E42F001023B
:104820000A764969F2E7704740F690414069C2F262
:104830000021C866704740F69041C2F20021CA6E5E
:104840004261C866704740F690400421C2F20020E1
:1048500000F5BC7000F08CBD40F690402021C2F203
:104860000020343000F084BD2DE9F04F8BB01D46A0
:104870000446DDE914762BB9B7F5807F08BFB6F59D
:10488000807F62D003A8002303930493CDE905132E
:10489000DDF858B0CDE9073200F118030293334632
:1048A000CDE9091229463A4600F1080A00F110093B
:1048B0004FF00108CDE900B82BF01BF9504629460E
:1048C0003A463346CDE900B82BF013F9484629465D
:1048D0003A463346CDE900B82BF00BF90298294649
:1048E0003A463346CDE900B82BF003F90598039911
:1048F000099A079F814251EAB083974257EAB286EC
:10490000089DB34253EAB68C814251EAC080974277
:1049100057EAC281069F049A0A9EC4F800C08842E2
:1049200050EAC181BA4252EAB780B54255EAB6832D
:10493000984250EAB380BA4252EAC782B54255EA79
:10494000C6839A4252EAC38201E000202060231D00
:10495000013A013907C30BB0BDE8F08F40F6904033
:104960001821C2F20020DC3000F002BD2DE9F04F2A
:104970008FB0014651F84C3F05911BB9016D0029DC
:1049800000F0BB82456F0990002D7ED02C464FF47D
:1049900080794FF0000800254FF4807A079400BF1B
:1049A00000216E22204628F0D5FA054400216C2211
:1049B000204628F0CFFA06B2B8EB004F4FF00001C6
:1049C0004FF06D02204608BF012628F0C3FA01B25D
:1049D000B8EB004F0FFA89F008BF012106FB00F782
:1049E0000FFA8AF001FB00F620464FEA17294FEA3A
:1049F000162A27F0F7FC044608B12FF02FC8280428
:104A00000CD14FF60070C0F2FF0007EA0001B1F5CB
:104A1000803F04BF3040B0F5803F16D00FFA8AF0D7
:104A20004FF480320FFA89F16B4292FBF0F00026CE
:104A300092FBF1F719B203B20CA83AB2CDE9000625
:104A400005980D960C962BF054F8099F00210C91B7
:104A50000A9197F8940000F00F00032840F03A8183
:104A6000079E304627F008FE0446304627F076FDC4
:104A700002460598234601680320009030460EF058
:104A80004DF805460C90002437E190F82C20416D3C
:104A9000D0F86C9019444165036D816DB9F1000F38
:104AA0001944816500F029824FF0000A0027002593
:104AB000039250420490002007900020029000BF13
:104AC0000895BB464FF4807800254C464FF480771C
:104AD000CDE90CAA00216E22204628F03BFA0544BD
:104AE00000216C22204628F035FA06B2BAEB004FBE
:104AF0004FF000014FF06D02204608BF012628F05C
:104B000029FA01B2BAEB004F08BF012106FB08F0F9
:104B100079434FEA202820460F1227F063FC044611
:104B200008B12FF029C809992A04D1E91501CDE966
:104B30000A0108BFB8F5807F10D04FF4803090FB99
:104B4000F8F290FBF7F3684201B20CA8CDE9000A35
:104B50000AA82AF0CEFFDDE90A0102E0B7F5807F5E
:104B6000EBD1002800D5404200295F4600D54942DC
:104B700088425FEA8F905FEA9F91089D054348460F
:104B80000F43102128F07FFB002800F08780484663
:104B900027F0B5FC804600F0040005EA900008907C
:104BA00008F0080005EAD0000690484627F0FDFD11
:104BB0000646484627F026FC8346484627F0CEFCAA
:104BC0000446484627F058FD002E05DCBBF1010FD6
:104BD00002DADDF80CC011E00899DDF80CC00029FC
:104BE0000B9901D0614504DA069A3AB1049A9142D0
:104BF00004DC0C2102914946CDF81C90002C0DDC00
:104C000000280BDCBBF1000F5FEADF90002E5FEAAB
:104C1000DF91089A0A400699084037E008EA070140
:104C2000BE4611F0010308F0020107EA51020A9999
:104C300001D0614503DA3AB1049FB94204DC03278D
:104C400002974F46CDF81C90002C5FEADF973B405F
:104C5000012B02D1614580F2808000285FEADF905D
:104C6000BBF1000F5FEADF93002E5FEADF97104091
:104C7000089A0128069800EA030002EA070204D114
:104C8000049B7746994201DC68E077460B990AB1AC
:104C9000614563DA10B1049881425FDD4FF48071A1
:104CA000484628F0F0FA18B987F00100C00762D032
:104CB0004FF40071484628F0E6FA18B985F0010073
:104CC000C00758D0484627F08DFB814600287FF466
:104CD000F7AE50E0079E304627F067FD04463046A9
:104CE00027F090FB0346396D0C2000903046224699
:104CF0000DF014FF044600250A90304627F0FFFB14
:104D0000C10701D1012D04DA810704D4B5F1FF3FB9
:104D100001DC00210C91410701D4012C04DA0007C9
:104D200004D4B4F1FF3F01DC00200A900CA90AAAC8
:104D3000384639F009FC0C990A9A304600F0B6FB67
:104D4000387C800700F1D9800C980A9BD7E91512AE
:104D50000844D118C7E91501CFE07746099AF90749
:104D60004FF00C0192F8940018BF032100F0F000FE
:104D7000084482F89400079D099E002D00F0BD8034
:104D800096F89400029901F00F01012700F0F0005D
:104D9000CEF20007084486F894000020C6E915000A
:104DA00080212846756728F06EFAA8B1284627F0BA
:104DB000F3FC03281CD002282DD001283BD1A86980
:104DC0006FF06042411C002328460EF009F8C6F837
:104DD0008000A869421E28E006F17C006FF0604365
:104DE0006FF06041009139463A4614F072FA61E082
:104DF000A869296A091A6FF060420131002301EBAA
:104E0000D17100EB61042846611C0DF0E9FFC6F882
:104E10008000621E09E0296A6FF060420023284684
:104E20000DF0DEFFC6F880002A6A002328463946C6
:104E30000DF0D6FF03E06FF06040C6F88070C6F852
:104E40008800284627F09FFC03280DD002281DD09B
:104E500001282AD169696FF06042002328460DF0CD
:104E600033FFF0676A691AE06869E969091A6FF047
:104E700060420131002301EBD17100EB610428464F
:104E8000611C0DF021FFF067621E08E0E9696FF018
:104E90006042002328460DF017FFF067EA690023FF
:104EA000284639460DF010FF02E06FF06040F767CA
:104EB000C6F88400F06F00B9F767D6F8840018B917
:104EC0006FF06040C6F88400D6F8800008B9C6F8D4
:104ED0008070D6F8880018B96FF06040C6F8880076
:104EE000F06E202129F04AFE0921002228462AF0EE
:104EF000B5F8307C80077FF549AD0FB0BDE8F08F85
:104F00002DE9F04782B0D0F874A0BAF1000F00F09C
:104F10004481044690F89400000700F03E8194F824
:104F20002D604021504628F0AEF910B90020C4E9A8
:104F30001700504627F027FC8046504627F02CFCEF
:104F400094F89410814601F00F01032923D00C2915
:104F500040F0C980B9F1000F4FF00000E0653CD08F
:104F6000A16E4FF0000C00297CD094F82D2048F25F
:104F70001F530026C5F2EB13C2F1640201FB02F0DD
:104F80000E4450FB03F76330C6284FEA671505EB64
:104F9000D771F3D867E0B8F1000F4FF0000020663A
:104FA0003CD0616E4FF0000C002979D094F82D2090
:104FB00048F21F530026C5F2EB13C2F1640200BF92
:104FC00001FB02F70E4457FB03F56337C62F4FEA88
:104FD000651000EBD571F3D863E0206EC6F1640173
:104FE000484348F21F51C5F2EB1150FB01F041114B
:104FF00001EBD0702066504627F004FA0646504672
:1050000027F0D3FB0246216E0C2000905046334619
:105010000DF084FD0246002120661FE0E06DC6F120
:105020006401484348F21F51C5F2EB1150FB01F0F7
:10503000411101EBD070E065504627F08FFA06462B
:10504000504627F019FB0346E16D032000905046BF
:1050500032460DF063FD0146E0650022504600F047
:1050600025FA3DE00026A06DD4F880108319D4F80D
:1050700088208B4253EAC183C4F860C0B8BF0E1ABF
:10508000934240F20101C8BF161ACEF200016FF040
:105090006042504633460DF0A3FE321800211BE05B
:1050A0000026606DE16F8319D4F884208B4253EAA7
:1050B000C183C4F85CC0B8BF0E1A934240F201012C
:1050C000C8BF161ACEF200016FF060425046334658
:1050D0000DF0FAFD311800220123504629F022FE7E
:1050E000207C800759D4E06D002856D1206E00281E
:1050F00053D1B9F1000F1ED1504627F056FB06469A
:10510000504627F07FF9002E01DC012813DBB6F1B1
:10511000FF3F07DDB0F1FF3F0DDC424200210123DC
:10512000504603E0002101235046324629F0FAFDA3
:10513000207C800731D4B8F1000F1ED1504627F0F3
:105140000DFA0646504627F097FA002E01DC01289A
:1051500013DBB6F1FF3F07DDB0F1FF3F0DDC41424D
:1051600000220123504603E000220123504631462D
:1051700029F0D8FD207C80070FD40B215046224611
:1051800029F06CFF207C800707D494F8940000F08D
:10519000F00084F894000020606702B0BDE8F0875A
:1051A00070B588B004460D4620B917F083F8044660
:1051B00000286DD0204617F01EF9002868D094F81A
:1051C0004000800708D54FF6EB6032A1C0F20E20F8
:1051D00040F2011232F05AFC0020EDB1CDE904009A
:1051E000204617F078F801380690204617F0EAF8C4
:1051F00001380790684604AA2946FDF725FD0028D6
:1052000046D0E06B02280AD104AB04F1440C0FCB6A
:105210008CE80F00012034E0C4F8640238E06A46EC
:105220002F21204617F0F6F8012831D1D4F8640276
:10523000C0B100216D46002604EB0110002200F1F0
:1052400044012846FDF721FD10BB0136D4F8640265
:10525000B1B28842F0D8202807D3002004A9C4F8AE
:10526000640203E06946002000E0694604EB001296
:105270000130D1E90036D1E90251C2E91136C2E963
:105280001351C4F8640232210022204617F0C2F8FC
:1052900008B070BD5F6C765F696E765F6172656144
:1052A0000000000010B500211622044627F052FE2F
:1052B00080B280B140F69041C2F200218A6D8242F4
:1052C00009D3CA6D02EBC00152F83020204649686C
:1052D000BDE81040104710BD10B540F69044C2F232
:1052E0000024A06DC00025F048FAE06521F0EFF938
:1052F000BDE8104021F040BFF0B581B0B8B14668BC
:105300000446A6B10D4600BF2068304447681DB171
:105310003046A84707E000BF2046314600F085F838
:10532000304621F04DFC3E460FB12FF013C801B0BE
:10533000F0BD002814BF40680020704750B141689C
:1053400041B10068021D00208958013009B12FF0D9
:1053500005C87047002070470068084440687047DF
:10536000006808587047002814BF80680020704704
:105370000331002221F00301C0E90012826070476E
:1053800010B504460068083025F0F7F958B12168D7
:1053900000234218435063685360626802B1505062
:1053A000A168606001B110BDA06010BDB0B5054638
:1053B00000284FF0000016D00C46A1B16868A0424A
:1053C0000DD02868083025F0D8F968B129680B1D80
:1053D000625802B1D05042506050C45003E0284699
:1053E000FFF7CEFF00B1B0BD0020B0BD10B5044640
:1053F0000068083025F0C1F958B122680023111D5A
:105400004350A3688350A26802B150506168A06005
:1054100001B110BD606010BD28B1416809B9806854
:1054200008B1002070470120704780B142688A426D
:105430000ED0026883688B428B5811D002F1040CA5
:1054400051F80C000BB143F80C0000B183507047C9
:10545000026811444968416041B10020885070479A
:10546000836003B1D0180021416070470021816042
:105470007047000010B50446006800BF826812B192
:10548000214690472068006808B12060F6E710BD0B
:105490008068002814BF406A00207047806818B1F7
:1054A000408DC0F3812070470020704770B50E46D4
:1054B00011431BD01546044625F072FFA068012356
:1054C000D0E9061231442A44C0E90612204631468A
:1054D0002A4628F0BFFA0C210022204629F0BEFD02
:1054E000012818BF70BD204628F028FA012070BDA1
:1054F0002DE9F04114461546B8B1612207460E4623
:1055000027F028FD88B18046006870B162223846D5
:10551000314627F01FFD010607D0D8F8003024F0EF
:105520007F41C2B2404698470546200E60F31F6592
:105530002846BDE8F08100002DE9F04F97B0044601
:10554000408DDDF880B0164640F008006085228569
:1055500020469BF808201F468A4627F0FBFC27853B
:1055600005469BF808202046514627F0F3FC618D44
:105570008146854221F00800608500D177D02685DC
:1055800020469BF80820514627F0E4FC8046204640
:10559000514627850FF0B0F99BF808100068424685
:1055A0002BF0D4FE9BF808000C281ED147F6FF759F
:1055B000A84518BFA94518D1204627F0EDFD00EBFE
:1055C000D076204626F0ABFE00EBD070012101EB37
:1055D0006002401001EB6601914251EAB090A8458B
:1055E00050EA0888A94550EA098940F69040C2F27D
:1055F00000201830FFF7C4FEE0B30646C0E9038977
:10560000046001AC9BF80800C6F808A03071204681
:1056100012F041FF41F6912041F62941C0F20420E9
:10562000CDE9016041F6E540C0F20421C0F204205A
:10563000CDE90401BBF8021000200A904FF00040B1
:105640000B90FF200C90BBF800000D9048420E908C
:105650009DF85200DBF80C10099100F0FE008DF867
:1056600052002046DBF81010089112F0DFFF17B04F
:10567000BDE8F08F4FF6EB6004A1C0F20E204FF4AE
:10568000007217B0BDE8F04F32F000BA5F6C765F81
:105690006F626A5F7374796C655F6372656174656C
:1056A0005F7472616E736974696F6E0040F690404A
:1056B0001421C2F200201830FFF75ABE2DE9F0473E
:1056C00082B00446408D10F47C7F00F005816FEAC3
:1056D00001084FF0000A6FEA020901AD002600BF81
:1056E000E16801EBC6025268930100F1E58092B2D5
:1056F00012EA080F5FEA0F9312EA090F5FEA1F929E
:10570000534040F0D98051F83670102138462A466F
:105710002BF0FAFC002840F0DC80112138462A46A4
:105720002BF0F2FC002840F0D480122138462A46A3
:105730002BF0EAFC002840F0CC80132138462A46A2
:105740002BF0E2FC002840F0C480152138462A46A0
:105750002BF0DAFC002840F0BC80142138462A46A1
:105760002BF0D2FC002840F0B480162138462A469F
:105770002BF0CAFC002840F0AC806A2138462A464B
:105780002BF0C2FC002840F0A4806B2138462A464A
:105790002BF0BAFC002840F09C80012138462A46B4
:1057A0002BF0B2FC002840F09480022138462A46B3
:1057B0002BF0AAFC002840F08C80042138462A46B1
:1057C0002BF0A2FC002840F08480052138462A46B0
:1057D0002BF09AFC00287CD1062138462A462BF073
:1057E00093FC002875D1072138462A462BF08CFC03
:1057F00000286ED1302138462A462BF085FC00283F
:1058000067D1682138462A462BF07EFC00284FD10C
:10581000692138462A462BF077FC002848D16E21B2
:1058200038462A462BF070FC002841D16C213846BE
:105830002A462BF069FCD8BB6D2138462A462BF04E
:1058400063FCA8BB3A2138462A462BF05DFC78BBA6
:105850003B2138462A462BF057FC48BB38213846B6
:105860002A462BF051FC18BB3C2138462A462BF027
:105870004BFCE8B93E2138462A462BF045FCB8B926
:10588000402138462A462BF03FFC88B94121384652
:105890002A462BF039FC58B9422138462A462BF0CB
:1058A00033FC28B9482138462A462BF02DFC50B14C
:1058B0004FF0020A608D00BFC0F3051101368E4221
:1058C000FFF40EAF0AE0BAF1000F08BF4FF0010A73
:1058D000F0E74FF0030A01E04FF0000A504602B033
:1058E000BDE8F08740F69040C2F2002000697047A2
:1058F0007047FF2802D018B9002070473F2070473A
:105900008C2804D842F66071C0F204210BE040F606
:105910009042C2F20022116B0029EDD07330926ADE
:10592000C0B28242E8D9085C7047B0B540F69045F5
:1059300040F22844C2F20025C2F2002405F5C470EA
:1059400021462BF011FE44F291504FF49671C0F2B3
:10595000032022462DF02CFCC5F8A801B0BD0000A4
:105960002DE9F04108B3064617460C462BF0CAFB5A
:1059700040F22C058046C2F20025304621462A68B6
:1059800090472A6835180446284639469047A8EBC0
:1059900000018C4209D82044304400BF013410F883
:1059A000012B8C4205F8012BF8D9BDE8F0812DE9D7
:1059B000F04140F234081446C2F200280F4619465E
:1059C0001D46D8F8002006469047386030B1286858
:1059D000D8F8002030440021904700E000202060EB
:1059E000BDE8F081000000002DE9F04F81B02DED01
:1059F000088B8CB0DDF878900446B9F1000F1D4695
:105A0000CDE906211CBF0020C9F80000E4B10798C9
:105A100000284FF0000000F07A812178002900F082
:105A200076811F9882071DD0621C0020012342F25C
:105A3000014700BF0D2903D803FA01F63E4205D104
:105A400012F8011B0130F5E7002060E1002950EA5F
:105A50000090B9F1000F00F05A814FF0FF31C9F802
:105A6000001054E14FF0000B012DCDF824B0C0F22E
:105A70003A81ABA100F001000190002791ED009F59
:105A8000ABA1009491ED00BF2146019800260028AB
:105A9000284618BF6FF06040049040F23400C2F214
:105AA000002005910B96026808460BA99047E15D1E
:105AB00082460B980A90002900F0ED80CDE902B7EC
:105AC0004FF0FF38002600244FF0000B0027059B05
:105AD00040F234000AA9C2F200200268184690473A
