:020000040200F8
:1000000080970022712200021D0B0002A70300024C
:10001000E70A0002E70A0002E70A0002E70A000214
:10002000000000000000000000000000E70A0002DD
:10003000E70A000200000000DF020002E9220002DD
:100040002F01040235020402E3010402A9000402A4
:100050006D440102815F0302F55F030269600302E0
:10006000035F0302F35D0302675E03028124010262
:100070000000000000000000000000000000000080
:100080000000000000000000000000000000000070
:100090000000000000000000000000000000000060
:1000A0000000000000000000000000000000000050
:1000B0000000000000000000000000000000000040
:1000C0000000000000000000000000000000000030
:1000D0000000000000000000000000000000000020
:1000E0000000000000000000000000000000000010
:1000F0000000000000000000000000000000000000
:1001000000000000000000000000000000000000EF
:1001100000000000000000000000000000000000DF
:1001200000000000000000000000000000000000CF
:1001300000000000000000000000000000000000BF
:1001400000000000000000000000000000000000AF
:10015000000000000000000000000000000000009F
:10016000000000000000000000000000000000008F
:10017000000000000000000000000000000000007F
:10018000000000000000000000000000000000006F
:10019000000000000000000000000000000000005F
:1001A000000000000000000000000000000000004F
:1001B000000000000000000000000000000000003F
:1001C00000F002F800F063F80AA090E8000C824406
:1001D0008344AAF10107DA4501D100F058F8AFF2E3
:1001E000090EBAE80F0013F0010F18BFFB1A43F015
:1001F00001031847803A0800C03A08000A4410F882
:10020000014B14F00F0508BF10F8015B240908BF6B
:1002100010F8014B6D1E05D010F8013B6D1E01F862
:10022000013BF9D1641E03D0641E01F8015BFBD1D0
:100230009142E4D370470000103A24BF78C878C1D7
:10024000FAD8520724BF30C830C144BF04680C60DC
:10025000704700000023002400250026103A28BF24
:1002600078C1FBD8520728BF30C148BF0B60704728
:100270001FB544F00FFE00F08BFB040000200021AE
:1002800044F0F2FD401C60601FBD10B510BDDFF8EA
:1002900010D0FFF7EDFF00F021FC00F016FC00008D
:1002A0008077002203B4FFF7F0FF03BC05F036FBB4
:1002B000EFF3108072B6704780F310887047484A99
:1002C0001368012B04D04FF001031360454A1060FE
:1002D000454A116045484FF0805101607047EFF387
:1002E000108272B63E48016879B34FF00001016098
:1002F0003C48016891B1EFF309811EF0100F08BF6F
:1003000021ED108B21E9F00F4FF000041EF0100FCB
:1003100008BF012441F8044D0068016000B502F0F7
:1003200013F95DF804EB30490968096808C9B1E8B8
:10033000F00F002B18BFB1EC108B81F309884EF041
:10034000100E002B18BF2EF0100E82F310884EF006
:10035000040E704724490860EFF3148222F004026F
:1003600082F314881F494FF0000008601C494FF0C9
:10037000010008601E481F49D0F8002041EA020130
:1003800001601A484FF0805101601B480068006806
:1003900000BF80F3088861B662B6BFF34F8FBFF32A
:1003A0006F8F704700BFEFF308801EF0040F01D07D
:1003B000EFF3098020E9F00F40F804ED40F804ED78
:1003C0001EF0040F02D080F3098801E080F3088852
:1003D00000B53AF0AFFD5DF804EB4EF0040E704747
:1003E00008350022443300225033002204ED00E09F
:1003F00020ED00E00000FFFF08ED00E07047000086
:1004000010B500F0C5FA001D10BD00BF5D4A040024
:1004100053EA020C00F069802DE9F04B4FF0000622
:10042000002B1FBFB3FA83F503FA05F424FA05F68F
:100430005E4012BF1643B2FA82F502FA05F4C5F126
:1004400020051EBF22FA05FC44EA0C04203556EABA
:10045000044C4FEA144418BF641C4FF000084FF0DE
:100460000009904271EB030C39D3002919BFB1FA8E
:1004700081F701FA07F6B0FA80F700FA07F6C7F13C
:1004800020071EBF20FA07FC46EA0C062037B6FB01
:10049000F4FCA7EB0507103F07F01F0BCBF120067C
:1004A0002CFA06F60CFA0BFB44BFB3460026202FAD
:1004B000A4BF5E464FF0000B5BEA060C08BF4FF08E
:1004C000010B19EB0B0948EB0608ABFB027C06FBA2
:1004D00002CC0BFB03CCC01B71EB0C01C1E70B463C
:1004E000024641464846BDE8F08B13B5084318BFA5
:1004F0004FF0FF300146AFF30080BDE81C4070476D
:1005000053EA020C23D010B54C1084EA530404D5EE
:100510004042C1F1000138BF491E1B4204D552427E
:10052000C3F1000338BF5B1EFFF772FF14F0804F6A
:1005300004D04042C1F1000138BF491E14F0004F01
:1005400004D05242C3F1000338BF5B1E10BD13B587
:1005500040424FF0000070EB0104B8BF012001F0F1
:10056000004100281CBF6FF000414FF0FF30AFF397
:1005700000801CBD70B5064600F00EFA0468054602
:1005800030460A22002100F00BFA2C6070BD401E9C
:10059000CAB210F8011F8A4202D00029F9D1002006
:1005A000704740EA010310B59B070FD1042A0DD311
:1005B00010C808C9121F9C42F8D020BA19BA884244
:1005C00001D9012010BD4FF0FF3010BD1AB1D30783
:1005D00003D0521C07E0002010BD10F8013B11F8B9
:1005E000014B1B1B07D110F8013B11F8014B1B1BE2
:1005F00001D1921EF1D1184610BD40EA0103024616
:1006000030B59B0710D14FF0013400E008C208C993
:100610001D1B9D4315EAC41FF8D013F0FF0102F81B
:10062000011B0DD01B0AF8E711F8013B002B02F863
:10063000013B05D011F8013B002B02F8013BF3D13F
:1006400030BD10B5431C02E010F8011B71B18107E9
:10065000FAD14FF0013202C88C1A8C4314EAC2114D
:10066000F9D0C01A0A0603D0C01E10BDC01A10BDB2
:100670000A0401D0801E10BD0902FCD0401E10BD2E
:1006800040EA010370B59B072ED14FF00136042AD2
:100690002AD308C810C99D1B9D43121F15EAC61511
:1006A00017D0D8B2E1B2401A50EA056110D198B221
:1006B000A1B2401A50EA05410AD123F07F4024F04C
:1006C0007F41401A50EA052102D1180EA0EB1460B8
:1006D00070BDA342DBD018BA21BA884201D90120EB
:1006E00070BD4FF0FF3070BD0AB9002070BD10F82A
:1006F000013B11F8014B63B1A3420AD1521E08D04D
:1007000010F8013B11F8014B1BB1A34201D1521E5D
:10071000EDD1181B70BD032A40F2308010F0030C9D
:1007200000F0158011F8013BBCF1020F624498BF44
:1007300011F801CB00F8013B38BF11F8013BA2F1E1
:10074000040298BF00F801CB38BF00F8013B11F05C
:10075000030300F02580083AC0F0088051F8043BFC
:10076000083A51F804CBA0E80810F5E7121D5CBF69
:1007700051F8043B40F8043BAFF30080D20724BF9C
:1007800011F8013B11F801CB48BF11F8012B24BF30
:1007900000F8013B00F801CB48BF00F8012B70477F
:1007A00010B5203AC0F00B80B1E81850A0E81850FE
:1007B000B1E81850A0E81850203ABFF4F5AF5FEA4E
:1007C000027C24BFB1E81850A0E8185044BF18C9F3
:1007D00018C0BDE810405FEA827C24BF51F8043B9A
:1007E00040F8043B08BF7047D20728BF31F8023BEE
:1007F00048BF11F8012B28BF20F8023B48BF00F882
:10080000012B704702F0FF0343EA032242EA02424F
:1008100000F00AB802F0FF0343EA032242EA024270
:1008200000F024B84FF000020429C0F0128010F04C
:10083000030C00F01B80CCF1040CBCF1020F18BFBC
:1008400000F8012BA8BF20F8022BA1EB0C0100F04F
:100850000DB85FEAC17C24BF00F8012B00F8012B22
:1008600048BF00F8012B70474FF0000200B5134657
:1008700094469646203922BFA0E80C50A0E80C50C0
:10088000B1F12001BFF4F7AF090728BFA0E80C5071
:1008900048BF0CC05DF804EB890028BF40F8042B6A
:1008A00008BF704748BF20F8022B11F0804F18BFD7
:1008B00000F8012B704710B5044610F0030F08BF75
:1008C00011F0030F40F015804FF0013E121FC0F2EF
:1008D0000E8051F8043BA3EB0E0C2CEA030C1CEA2F
:1008E000CE1C08BF40F8043BF0D0A1F1040102F196
:1008F0000402521E08DB11F8013B00F8013B002BFB
:10090000F7D11146FFF78EFF204610BD0000000012
:1009100030B44FF0013C50F8042B51F8043BCCFAB2
:1009200052F4D51A20D1FCB950F8042B51F8043BED
:10093000CCFA52F4D51A17D1B4B950F8042B51F8A7
:10094000043BCCFA52F4D51A0ED16CB950F8042BF2
:1009500051F8043BCCFA52F4D51A05D1002CDAD068
:1009600030BC4FF00000704729BAB1FA81F111F0A4
:100970001801D1F120008440F2D1CA40CB4012F0DE
:10098000FF0213F0FF0330BCD01A7047704700001D
:1009900000487047980700220048704778070022F7
:1009A0002DE9F04791460F4680460446002614F88C
:1009B000015B2DB1FFF724FD0068405DC007F6D153
:1009C0002B2D02D02D2D18D0641E4A4639462046C4
:1009D00000F01EF827B13968A14201D1C7F80080A4
:1009E0004FF0020471050BD54042002803DDFFF7EC
:1009F000D3FF0460A007BDE8F08746F48066E4E713
:100A00000028F8DAFFF7C8FF04606FF00040F2E753
:100A10002DE9F05F824615468B4600270AF1010456
:100A2000B9460078302801D09DB113E014F8010BCD
:100A30000127782803D0582801D045B10AE00DB12C
:100A4000102D07D1002714F8010B102502E008250E
:100A500000E00A250026B0460EE005FB080005FB75
:100A600006F101271FFA80F801EB1046B6F5803F2A
:100A700000D3B94614F8010B294600F018F80028F5
:100A8000EBDABBF1000F05D00FB1641E00E0544655
:100A9000CBF80040B9F1000F06D0FFF77DFF02212F
:100AA0000160C81EBDE8F09F48EA0640FAE73A2810
:100AB00000D2303820F02002412A01D3A2F13700C1
:100AC000884201D34FF0FF30704710B50446AFF3B2
:100AD00000802046BDE81040FFF7E4BB80B53EF043
:100AE00089F9002080BD00BE704710B504463AF079
:100AF0000DFF206803280CD141F28820C2F20020AB
:100B0000007830B140F2DC70C2F2002000683CF0A6
:100B100047FBBDE810403AF01CBF0000F0B581B0C3
:100B20004CF2001540F69047C4F200050024C2F2D2
:100B300000272888298C084086B200BF26FA04F0D6
:100B4000C00703D0396809B120468847013404370B
:100B5000102CF3D12E8200BF288C3042FCD101B082
:100B6000F0BD0000B0B542F22404C820C4F2200455
:100B700001210025257100F082F82570207808B148
:100B80002FF005C0207840F0020020702078800708
:100B9000FCD4002004F8020C14F8020C08B12FF069
:100BA00005C84FF0030E002004F11C0111F81020BD
:100BB00002F07F0201F8102011F91020002AFBD466
:100BC00001300FF00DC8012000F00BF84EF64C413B
:100BD0000120C4F2010100220A70BDE8B04000F01B
:100BE00027B880B5EFF31081012282F3108840F618
:100BF0004052C2F2002232F810308BB945F2340C68
:100C00004EF2FA3EC0F2042CC4F2010E3CF810C0C1
:100C1000BEF8003043EA0C0343F42543AEF800303D
:100C200032F81030013322F8103081F3108880BD83
:100C3000EFF31081012282F3108840F64052C2F295
:100C4000002232F8103023B132F81030013B22F884
:100C5000103032F810207AB94EF2FA3245F2340CE4
:100C6000C4F20102C0F2042C13883CF8100043F4D3
:100C7000254323EA0000108081F31088704740F27A
:100C8000D8724CF60023C2F20022C3F69A334143D5
:100C90004FF47A7C1268B3FBF2F2A1FB0C3010B96E
:100CA000B3FBF2F004E0B1FBF2F0A0FB0C0119B9C8
:100CB00008B105F0ADBA70474FF0FF3005F0A8BAA3
:100CC0007047022818BF704745F6E030C0F2042094
:100CD000416840F60C50C2F2002000F0A9BC43F27B
:100CE00000101302C4F23400C358DB071AD16FF0AE
:100CF000FF03C358DB0515D400EB022003220029B3
:100D00005FEA0F9C08BF0122036A23F002031A4323
:100D10000262C0F804C0C160016841F001010160D5
:100D20000020704740F2EE30704700002DE9F04F90
:100D300081B043F208088246C4F220080027076009
:100D40000120EFF3108480F31088D8F800000D46DE
:100D500020F01000C8F8000043F20449D8F8000061
:100D600043F2000B96200121C4F23409C4F2340B83
:100D7000FFF785FF84F310884023DBF8000040F480
:100D80008030CBF80000D5F8A400296C0329D0E905
:100D9000042008BF4FF4825300F03F00002A08BF30
:100DA00003F580731844C9F84C00286DD5F8A410D9
:100DB000002818BF4FF4BC70CBF8E403C9F80070EA
:100DC000D1E90032581C886845F21001C0F20421B4
:100DD00012D02F6B2FB9D9F8187047F01007C9F847
:100DE000187051F823301F6847F002071F60EB8D21
:100DF0006FF3DF23C9F81430531C10D0EB6B2BB901
:100E0000D9F8083043F01003C9F8083051F822200F
:100E1000136813606A8F6FF3DF22C9F80420421C45
:100E20001ED0EA6C12B90122C9F8242051F8200022
:100E3000016841F007010160A88D698D6FF3DF2023
:100E40006FF3DF2141EA0040C9F81C00288FE98ECA
:100E50006FF3DF206FF3DF2141EA0040C9F80C0097
:100E6000A88E298D40F6DC436FF3DF20C2F2002309
:100E70006FF3DF2141EA0040CBF804004FF001108E
:100E8000CBF80800A88D698D01306FF3DF216FF377
:100E9000DF2041EA0040CBF81000288FE98E0130B6
:100EA0006FF3DF216FF3DF2041EA0040CBF80C0045
:100EB00095F8550095F8561095F85420000240EA30
:100EC000014040F6D4411044CBF81400C2F2002196
:100ED000A88D6A8D088040F6D841C2F20021288F83
:100EE0001A800022088040F6E041C2F20021E88E1C
:100EF000088005F16C01284637F080F805F11400F0
:100F000005F17C01012237F079F8D5E9100182A2C0
:100F100095F868707CA4AB6C52F82020002F54F830
:100F200020704FEA024215D0D5F8A440A669022EDF
:100F30000ED104F11C0EA46A9EE84050360346EA26
:100F40000C2646EA0E162643324342F4001201E014
:100F500042F480123E034FF08054012948F2800190
:100F600008BF44EA0736012BC0F2800108BF46F0F3
:100F7000807603284FF4007008BF06F50076CBF8A2
:100F8000C463CBF8D423CBF8C8034FF00220CBF8CE
:100F9000CC03CBF8D01340F6E442D5E92701CAE9E7
:100FA0000101288FE98EC2F20022CAF80C50C2F863
:100FB00000A008440130DBF8501260F30A01CBF8BE
:100FC0005012DAF80C00D0F8A400C16A07C9126800
:100FD0009047054698B10120EFF3108480F3108804
:100FE0000121D8F8000040F01000C8F80000D8F83F
:100FF00000009620FFF743FE84F3108880E006206F
:10100000C9F83C000720C9F84000DAF80C304EF26D
:1010100000104CF2003140F6A452D3F89070CEF29A
:101020000000002FC4F20001C2F200221FD493F886
:101030008C30C61901241B0186F8003342F827A022
:1010400051F8273023F4803341F8273051F8273006
:101050007B0907F01F07BFF35F8F00EB830604FADD
:1010600007F7C6F8807140F82370DAF80C30D3F82F
:101070009470002F1FD493F88D30C61901241B01E2
:1010800086F8003342F827A051F8273023F4803344
:1010900041F8273051F827307B0907F01F07BFF3CD
:1010A0005F8F00EB830604FA07F7C6F8807140F8FB
:1010B0002370DAF80C30D3F89870002F1DD493F811
:1010C0008E30C6191B0186F8003342F827A007F0BE
:1010D0001F0351F8272022F4803241F8272051F8CD
:1010E000271079090127BFF35F8F00EB810207FA10
:1010F00003F3C2F8803140F821300120CAF8000023
:10110000284601B0BDE8F08F00000000010000009B
:1011100002000000030000000000000001000000C9
:10112000020000000000000010B50446C068D0F8BE
:10113000A400C06A816800688968884743F200019A
:10114000C4F234010A6842F480720A600A6842F00C
:1011500001020A60D1F8402442F00102C1F84024A3
:101160000221216010BD844641610020CCE9063295
:101170007047B0B543684EF2801E40F6A45CCEF2D4
:10118000000E59691B6A0029C2F2002C0ED44A09CC
:1011900001F01F04012505FA04F44EF82240BFF3C4
:1011A0004F8FBFF36F8F00224CF82120996B0029DD
:1011B0000ED44A0901F01F04012505FA04F44EF883
:1011C0002240BFF34F8FBFF36F8F00224CF82120D6
:1011D000D96B00290ED44A0901F01F03012404FA37
:1011E00003F34EF82230BFF34F8FBFF36F8F00220F
:1011F0004CF82120816800220260C3688B608168FE
:1012000000204A63B0BD81684FF000420A618168E6
:101210004A6181688A61002281684A62816800208F
:101220008A6270472DE9F04383B01646044602F007
:101230000309002001904FF0FF3000906A462046DD
:101240003346884613F052F9A268156B019FAFB977
:101250000421300758BF0221B007009802F14C0268
:1012600003D4494402EB810107E042F8210041F038
:101270000101A26802EB81014C31086070060CD4B8
:10128000022E39460FD139466FB16A4601232046F6
:10129000414613F02BF9019905E0A068016C41F477
:1012A00080010164394625F44030B9F1010F18BFBF
:1012B00040EA074525F04072A368B9F1000F4FF0EE
:1012C000000018BF42EA01651D6303B0BDE8F0836A
:1012D00080B54168D0F808E0096AD1E904C38A6999
:1012E00043F00043CEF8143042F0004283689A6124
:1012F0004CF00043826813618268CB695362826854
:101300000020096A916280BDF0B58068426E0132AA
:101310008A60D0F82CC04EF22000C4F201000268AE
:10132000007942EA000300F00F001B0702F00F03F0
:1013300008D440F2D872C2F20022126802FA00F019
:10134000D8401BE000F0070E032707FA0EF440F226
:10135000D87EC2F2002E0125082838BF05FA00F415
:1013600002F00700DEF8006007FA00F006FB04F761
:10137000120758BF05FA03F0B7FBF0F0CCF3C352E5
:10138000012320FA02F20020C1E90032F0BD2DE96C
:10139000F04782B00D46097C814642F200030729DE
:1013A0005FEA9F9202614F46287CC4F23203012219
:1013B0000024D5F820A04FF0004803EB002047F8A8
:1013C000080F02FA01F0786047F8045CA869F86039
:1013D000E86978613C61EFF3108682F31088287C1D
:1013E00043F21001C4F2200128FA00F00A6822EA50
:1013F00000000860086896200121FFF740FC86F392
:1014000010884FF42541386801603868C462386834
:10141000C463386884642868A968032838684FEA78
:10142000C1516A6808BF01F58031C1623868C0F8EF
:1014300010803868C0F814803868C0F818803868A0
:101440004462386884623868DAF82410C161386808
:10145000DAF828100162511E3868816638684166E2
:101460004FF0FF302968DAF8448001290194009098
:101470000DD029B968684FF0FF3101EB500006E04C
:10148000E9686A460023484613F030F80098396846
:101490004865396888652968042903D33968C865AF
:1014A00039680866DAF844000028019837D19AF8BC
:1014B0000010B1B12A68DAF80410022A03D0032A16
:1014C00003D1032205E0092203E00922002908BF15
:1014D00006220B0143EA8111114441EA080141F45B
:1014E00080789AF80810D1B12A68DAF80C10022A2C
:1014F00004D0032A05D14FF4403208E04FF4102203
:1015000005E04FF41022002908BF4FF4C0220B055C
:1015100043EA8151114441EA080141F08078396879
:1015200000228A633968C1F88820DAF8441031B99A
:10153000DAE90B12490341EA427148EA01083968C5
:101540004FF4AA020A642968012904D139680022EB
:10155000CA6439680A65D9E90212CA60D9F8081064
:10156000C1F834800104D9F8082041EA0060C11CA8
:10157000013011634A46D9F808100863697C68692C
:1015800036F08EFE9AF83410DAF838004A4636F013
:1015900087FE9AF83510DAF83C004A4636F080FEAD
:1015A00045F254010020C0F24701C9F8001002B012
:1015B000BDE8F08783684A1E9A6643681B684BB98A
:1015C000D0F808C04FF0FF3303EB5101CCF85410B2
:1015D000836899658168CB6ADB0707D14A664FF457
:1015E000AA0281680A64D0E90210C860002070472E
:1015F000014682680020C968D16070470146826850
:101600000020C968516070478268D06A00F001000C
:1016100048600020926C0A60704701468268002092
:10162000C968916070470146002000220A60704737
:1016300080B545F25422C5F24F020260084636F0EA
:101640005BFE002080BD70B586B001A8049003A8A1
:1016500014460D46CDE901210126ADF80C6004F0D9
:10166000DBFD40F64850EFF31081C2F2002086F314
:10167000108802683AB940F614520023C4F24002BE
:1016800013704023137002680132026081F31088E6
:10169000E10340F600014FEA1522C4F2400101D4F3
:1016A000EBB20CE001EB8216EBB256F8235025F4B6
:1016B000803546F8235024F4803546F8235001EB5A
:1016C0008211012241F82340EFF3108182F3108848
:1016D000026812B10268013A0260006838B940F647
:1016E00014500022C4F2400002708022027081F384
:1016F0001088002006B070BD4FF4FF50042300EAAC
:10170000D100C4F24003C9B2C0580023CFF6FF7322
:1017100043EA104020FA01F1002001F001011160BC
:10172000704780B5C8B24FF0010C531E0CFA00F0A0
:1017300050EA138E4FF4FF5C0C230CEAD101C4F283
:101740004003012A18BF0020012A41EA030CCA58AD
:1017500008D180B24FF6FF7141EA0E41104300EA12
:10176000010205E042EA0E41CFF6FF7001EA0002F5
:101770000020CCF8002080BD6FF03F00CBB200EA23
:10178000910040F6000100EB8300C4F24001415893
:101790000020C1F340011160704780B55FFA81FEFF
:1017A000012000FA0EF0002A83B24FF4FF5040F2FD
:1017B00008024FF4803C00EAD101C4F240024FF02D
:1017C000000008BF0CFA0EF38B5080BD80B50846B0
:1017D00036F092FD002080BD80B54FF4FF5040F2FE
:1017E000000C00EAD101C4F2400C03EA020E62EAE6
:1017F000030251F80C004EEA000E002002EA0E022D
:1018000041F80C2080BD4FF4FF5000EAD1000421C4
:10181000C4F2400141580020090C1180704723EAAE
:10182000020C4FF4FF501A400C2300EAD101C4F21D
:101830004003002042EA0C42CA5070474FF4FF5068
:10184000042300EAD101C4F240030020C9581180EA
:10185000704723EA020C4FF4FF501A40082300EAB5
:10186000D101C4F24003002042EA0C42CA50704742
:101870002DE9F04146F204158046C4F2340510F01B
:1018800093FED8F80C10286820F00100286040F67C
:10189000D0400322C2F200200260497BD5F81C220E
:1018A000C2F3C0628A421CBF0268002AF6D100253A
:1018B0000560D8F80CC00126DCF874104A6802F004
:1018C0001F0354094EF2801206FA03F3CEF200020F
:1018D00042F8243040F6A453BFF34F8FBFF36F8F0D
:1018E0004C68CF68C2F20023780907F01F0743F85D
:1018F000245006FA07F742F82070BFF34F8FBFF36A
:101900006F8FC8684F697C0943F8205007F01F00AB
:1019100006FA00F042F82400BFF34F8FBFF36F8F39
:101920004869CF697C0943F8205007F01F0006FA88
:1019300000F042F82400BFF34F8FBFF36F8FC869E8
:101940004F6A7C0943F8205007F01F0006FA00F0A8
:1019500042F82400BFF34F8FBFF36F8F486ACF6AFE
:101960007C0943F8205007F01F0006FA00F042F807
:101970002400BFF34F8FBFF36F8FC86A43F8205026
:10198000DCF80000006836F019FD43F20800C8F8E2
:101990000050C4F22000EFF3108486F31088016831
:1019A00041F480610160006896200121FFF767F92A
:1019B00084F310880020BDE8F081F0B546F2C050F5
:1019C0004FF65022C4F23400CFF6FF728358DB0783
:1019D00014D18258D20611D491F800C04A6802F09E
:1019E0000F058C89092D00EBCC1303F5E07307D3A9
:1019F0005FFA84FE250A4FF0807710E00820F0BDE2
:101A000034B10D69012C95F800E006D1002702E001
:101A100000274FF0000E002501E06D78002702F04E
:101A20003F024EEA05250CF003048E6845EA0242A7
:101A300006F0400542EA84523A4306F0030742EAC0
:101A4000C54206F0200542EA87621A606A0436073A
:101A500002F180724FF0140608BF6A04002D08BF1F
:101A60006A04002F4FF0807708BF1026C3E9017287
:101A7000BCF1000F5FEA1F978A59DA6007600978A6
:101A800001295FEA1F9101640020F0BD2DE9F041BA
:101A900088B043F25042C4F234021268520601D4B4
:101AA0001E204AE10D4640F6D04840F69C510446BF
:101AB000C2F20028C2F200210020C8F8000008701D
:101AC000E560EFF31086012080F3108843F20800F0
:101AD000C4F22000016821F4806101600068962052
:101AE0000121FFF7CCF886F310882968D1E90001BD
:101AF00036F07AFC002840F0208146F20017C4F24C
:101B00003407386840F480703860386940F001006C
:101B1000386100BF786900F01F001F28FAD1E87A09
:101B2000013840F440703860287BB96821F0FF012B
:101B30000844B86095F82C00298D2A6B95F834304C
:101B400002F00F0241EA004095F8351040EA0250D9
:101B500095F8362040EA437040EA817040EAC2704E
:101B600038626868D0E90021090480683FFA81F191
:101B700062F38B0141EA0060C7F814026868C0682C
:101B80006FF39F20C7F81802E869C7F81001286AA8
:101B9000C7F81401686AC7F818012869C7F8E00196
:101BA0006869C7F8E401A869C7F8E801284610F099
:101BB000A1FC6E6F306BC7F80801706BC7F80802A4
:101BC000B06BC7F82802F06BC7F8180346F2D45080
:101BD000316CC4F234004160716C416440F2101108
:101BE000C7F60951016001640B204EF20751C0F2A3
:101BF000D000C5F2F771C7F81403C7F8041100202C
:101C0000A061D5E91B01C4E904013046214610F06A
:101C100091FC06F10800214610F08CFC06F1100042
:101C2000214610F087FC06F11800214610F082FCD6
:101C300006F12000214610F07DFC06F12800214627
:101C400010F078FC44F644100322C4F65050206093
:101C5000E068396841F4807139600121C8F80010EA
:101C6000417B002908BF01227A60407BD7F820120F
:101C7000C1F3806181421CBFD8F800100229F5D160
:101C80000220C8F8000095F83700A96B95F83C20B1
:101C90000023C003C7F6FF7361F3154062F397504A
:101CA000C7F8200395F84410286CAA6C6FF31F3016
:101CB00003EA024240EAC1301043C7F82803D5E9DD
:101CC00013016FF35F3061F31C40C7F82C0395F8E4
:101CD0005800E96D6A6D03EA01416FF31F3242EA71
:101CE000C0300843C7F83003D5E918016FF35F30FF
:101CF00061F31C40C7F83403A86E43F6FC7101EA97
:101D00008000C7F80403A06906210091616903916E
:101D100050B10DF1100C90E88E008CE88E009DE81B
:101D20008E0080E88E0000E0684621698847A0693F
:101D300010B104AF8ECF8EC0002008B0BDE8F08196
:101D400010B588B0044680694FF0070100916169C1
:101D5000039150B10DF1100E90E80E108EE80E10A8
:101D60009DE80E1080E80E1000E068462169884763
:101D7000A06928B10DF1100C9CE80E1080E80E103F
:101D800046F200404FF61041C4F23400CFF6FF7126
:101D90004258D2071DD14158C9061AD4E1680A7ABF
:101DA0004B7A897A120242EA432242EA81210131C6
:101DB000016040F69C51C2F2002100BF0269120787
:101DC00003D40A780AB92FF007C801200870002050
:101DD00000E0082008B010BD4FF6F05046F2202277
:101DE000CFF6FF70C4F234021058086010684860E3
:101DF000002053688B609360704780B510F0D4FB6F
:101E0000002080BD10B511F0020C024606D01079FA
:101E100000285FEA1F904FEA007E01E04FF0000EBD
:101E2000137950794CEA030C01F0010343EA0004F2
:101E30000028704608BF40F08070002B936850EA7D
:101E40001E8E43EA010046F20C139060C4F2340384
:101E5000BCF1000F5FEA0F91002054711171C3F8BB
:101E600000E010BD70B511F00203024601D1002060
:101E700001E010794007002B53795FEA1F9C11F0B5
:101E8000010E157906465FEA1F94002B18BF46F035
:101E90000076BEF1000F50EA0680002B5FEA0F9338
:101EA000002D5FEA0F96234053710CEA060346F2B9
:101EB0000C16C4F23406137130600020936823EAD4
:101EC0000101916070BD00002DE9F04F81B00A78EA
:101ED0004FF0010C40F21F2304460CFA02F748F2BF
:101EE00000001F42C4F235005FEA0F9300EB0220AE
:101EF000A278206218012070886B606222F00300D3
:101F0000D1E90F38421CA2704A680D46002AE362EC
:101F1000E1614FF00002A26202D140F00200A07025
:101F20004EF20019E96ACEF200094A0909F180006F
:101F300001F01F034CF2003A95F828B00CFA03F3B5
:101F400040F82230C4F2000A01F00F03BFF34F8FB4
:101F5000BFF36F8F5AF821201F1F09F540734EF60B
:101F6000185E22F480324AF82120CEF2000E5E186C
:101F70005AF82120002948BF07EB0E064FEA0B1242
:101F800040F6A45B3270C2F2002B6A6902F01F06B1
:101F90002F7C4BF8214051090CFA06F6002A40F834
:101FA000216002F00F06BFF34F8FBFF36F8F5AF817
:101FB000221021F480314AF82210A6F1040103EB2B
:101FC000020648BF01EB0E065AF8221039013170A3
:101FD000E9694BF822404A0901F01F072E7E0CFAEE
:101FE00007F740F8227001F00F07BFF34F8FBFF3E0
:101FF0006F8F5AF82120002922F480324AF82120DC
:10200000A7F1040203EB010748BF02EB0E075AF8E1
:10201000212032013A706A6A4BF82140510902F0DE
:102020001F0795F820600CFA07F740F8217002F0BE
:102030000F01BFF34F8FBFF36F8F5AF8220004399F
:1020400020F480304AF8220013445AF82200002A73
:1020500048BF01EB0E03300118704BF82240EFF33C
:1020600010868CF3108828784FF0004121FA00F098
:1020700043F20401C4F220010A6822EA0000086069
:10208000086896200121FEF7FAFD86F310884FF4C8
:102090008061206A4FF440738160286C6968EA6847
:1020A00003EA0121D0E900C762F38E31C66907F067
:1020B000010306F001020CF0030741EAC333266A6C
:1020C00043EA4252237842EA076241F20007C0F233
:1020D0001007C168002B08BF4FF480573A44726163
:1020E000026822F00103022B07D14FF60471022A85
:1020F000CFF6007108BF203100E00968226A4FF472
:10210000407711618169AB68826801F00301022B9D
:1021100002F0010208BF4FF48077002B18BF39444A
:10212000236A41EA02713031D9600021226A91614B
:102130002278B2B1226A48F20003C0F280035362EF
:10214000E2692378276A126C013B12697E6A1A40A1
:1021500003F00F0302F00F0246EA036343EA024270
:102160007A6290F82520036A90F8240003F00103B6
:1021700002F01F0260F30C23206A43EA024202636A
:102180001022206AC4E90511C4E90311C9F60752F7
:10219000D8F81410A16082660120216A0867E169FD
:1021A0004A6953095AF8221021F480314AF8221062
:1021B0005AF8221009F5C07102F01F02BFF35F8FB9
:1021C00000FA02F241F8232049F82320E269D26A9A
:1021D0005AF8223023F480334AF822305AF8223059
:1021E000530902F01F02BFF35F8F00FA02F241F8B9
:1021F000232049F82320E269D2695AF8223023F4D7
:1022000080334AF822305AF82230530902F01F0274
:10221000BFF35F8F00FA02F241F8232049F8232030
:10222000E269526A5AF8223023F480334AF82230A5
:102230005AF82230530902F01F02BFF35F8F90401B
:1022400041F8230049F8230040F21141206AC0F20E
:1022500001018160206A00BF017FC907FCD044F6FC
:1022600042110020C5F24331616001B0BDE8F08F3A
:1022700000F08AF8FEF732FCFEE70000B0B510F07F
:1022800083F810A039F07CFB00244FF6FF7541F66F
:102290002810C6F62004C0F2DF15C0F20820102373
:1022A00021462A4639F06CFB0BA039F069FB43F25A
:1022B000F0500BA1C2F2002022462B4639F098FDC7
:1022C0000020B0BD1B5B306D5B442F6472765F7382
:1022D0006472616D5D2000001B5B306D0A000000C0
:1022E000736472616D00000080B539F00FFB3CF043
:1022F00075F9BDE8804039F02CBB4EF22401C4F2E0
:1023000001018878097801F00F010A2911D0092903
:102310001DD0082929D143F25071C2F2002151F891
:1023200020004AF6AB21CAF6AA21A0FB0101480809
:1023300022E043F25071C2F2002151F820004AF627
:10234000AB21CAF6AA21A0FB0101C80814E043F2A0
:102350005071C2F2002151F820004AF6AB21CAF6B2
:10236000AA21A0FB0101880806E043F25072C2F2E4
:10237000002252F82000C84040F2D871C2F2002179
:1023800008607047000000002DE9F0414EF6085843
:1023900040F20120CEF20008C0F20E0040F200052B
:1023A0000024C8F80C004FF47000BFF34F8FBFF348
:1023B0006F8FC8F880000020C0F20025C8F80050D8
:1023C000FEF77FFC03F010FE01200126FEF779FCEA
:1023D000286842F6D871A0F5005080F30A8840F2D0
:1023E0007870C0F20001C2F20020FEF73DFA40F220
:1023F000000043F6C45140F27472C2F20020C0F2F1
:102400000821C0F20002FEF7CBF944F2405744F233
:10241000405144F2405C44F24053C0F20827C0F2FD
:102420000821C0F2082CC0F20823C91B40F20005A5
:10243000A3EB0C03C908C0F2000541F007C800BFB8
:10244000F7E80201E5E802010FF007C0D80840F202
:10245000000140F20003C2F20001C2F2000340F2A8
:102460000007C2F200075D1A40F009C000BF00BFBC
:10247000FCE80223E7E802230FF007C0E80825463E
:1024800040F007C000BF00BFE1E802450FF005C003
:10249000BFF34F8F40F2C01540F2C010BFF36F8FF3
:1024A000C8F84842C0F20025C0F20020BFF34F8FA9
:1024B000401BBFF36F8F8110012909DB2F46C8BF76
:1024C000861000BF57F8040B28448047013EF9D11D
:1024D000FFF713FFFEF746FB0320FEF782FB4FF0EA
:1024E000100E40F63050C4F2400000BF20F8044BFC
:1024F0000FF005C04EF210140320C4F20104FEF7E1
:1025000097FBD4F8C80210B1D4F8C80212E02078C2
:1025100080B10120FEF765FB207800F0C000802824
:10252000FAD10020207000BF20783F28FCD801207D
:10253000FEF77EFB0220FEF7C4FB03F053FE0020F3
:10254000BDE8F04103F04CBE80B582B03BF026FE02
:10255000C06A0190019880F30B8802B080BD000032
:102560004EF60C500422CEF20000C0F2FA52BFF335
:102570004F8F016801F4E06111430160BFF34F8F99
:1025800000BFFDE790FAA0F10028B1FA81F150EA0E
:1025900001907047B0B505463BF000FE90B104468F
:1025A00009A039F0EDF90DA021462A4639F0E8F9E5
:1025B0000FA039F0E5F9012100222046BDE8B04026
:1025C0003BF0A4BBB0BD00BF1B5B33336D5B572F2B
:1025D0007374646C69625D20000000007468726549
:1025E00061643A257320657869743A256421000096
:1025F0001B5B306D0A000000B0B515460C465BB998
:1026000041F2D001C2F20021D1F8D8201AB12946F6
:102610009047034600E00023142D03D103EB530041
:102620006043B0BDE91F03FB04F0CAB2032A88BFB0
:10263000B0BD022A07D844F6E06249B2C0F20422D3
:1026400052F8211001E04FF480610844B0BD70B52C
:102650004EF22003C4F20103D3F800E01B794EEAE6
:10266000030C03F00F035FEA0C720EF00F0C08D49A
:1026700040F2D872C2F2002212689A4022FA0CF29A
:1026800019E003F00702032404FA02F20125082BE3
:102690000EF0070638BF05FA03F240F2D873B440D3
:1026A000C2F200231B685A435FEA0E7358BF05FA53
:1026B0000CF4B2FBF4F24CF60023C240C3F69A339A
:1026C000A1FB03C100236046FDF7A2FE70BD70B5FB
:1026D0004EF22003C4F20103D3F800E01B794EEA66
:1026E000030C03F00F035FEA0C720EF00F0C08D41A
:1026F00040F2D872C2F2002212689A4022FA0CF21A
:1027000019E003F00702032404FA02F20125082B62
:102710000EF0070638BF05FA03F240F2D873B44052
:10272000C2F200231B685A435FEA0E7358BF05FAD2
:102730000CF4B2FBF4F222FA00F04CF60022A0FBFB
:102740000101C3F69A320023FDF762FE70BD00005E
:102750004868082809D8DFE800F00A0508050508D8
:10276000050527000420A1F8500000207047C86C20
:1027700090F82F205207F5D0024612F824CF937A12
:1027800003EB83031A4412F8053D9C450AD192F8E5
:1027900002C090F82630634504D1527890F82500A5
:1027A0009042DFD000BFE0E7C86C90F82F205207BE
:1027B000D8D0024612F824CF937A03EB83031A444D
:1027C00012F8053D9C45D0D192F802C090F8263011
:1027D0006345CAD1527890F825009042C2D0C4E730
:1027E00000F11C050446284632F06CFF0326002742
:1027F000A06918B9284632F07DFFF9E74168082939
:1028000032D8DFE801F0050C31131A3121262D00F2
:10281000C16C00F1080220461DF0DAFB24E0C16C17
:1028200000F1080220461CF047FF1DE0C16C00F1DA
:10283000080220461DF0FEFE16E0C16C00F1080201
:1028400020461DF05BFE0FE0C16C20461DF003FF2B
:102850000AE0C16C00F1080220461CF0A5FD03E06F
:10286000C16C20461DF0BCFFA0698664A7611EF004
:1028700006FABDE7B0B541F2D0045821C2F20024F7
:1028800004F1AC0001F072FB45F6C5402121C0F215
:1028900000200022002532F099FFC4F8A80003F0C0
:1028A000F8F9A4F8A450B0BD2DE9F0439368D1F82D
:1028B00000C09C450DDC1468D1F808E0A64508DB93
:1028C000D2F80C904D684D4503DC5768CE68BE4287
:1028D00003DAFF2358B2BDE8F083A445A8BFBD4288
:1028E00003DB9E45D8BF4E4551DDAF42A6EB050642
:1028F00008DDC0E900C50123C0E902E7D2F80C9069
:102900004D6800E00023A6EB09042C44012C12DBE7
:10291000CC68A1450FDA05EB060800EB03161F0192
:102920000C688D68C6E90195C451C6F80C80013366
:102930004D68D2F80C90CE685468AC4254EAC58811
:102940000F68B14559EAB6891568AEEB0C04BD4273
:10295000C8BFC1450BDD00EB03164FEA031C013372
:1029600040F80C70C6F80C90C6E901850F689168B4
:10297000621A3A44012AADDB00EB03121E01013357
:1029800027448151C2F80C90C2E90187A2E70023D5
:10299000A0E770B51468D2E90156D26891E80850F2
:1029A000C968A34253EAC483AC455CEAC585B64511
:1029B0005EEAB686914251EAB282C0E90035C0E9CA
:1029C0000262B3425FEACF9195425FEACF94214021
:1029D000084670BD2DE9F04383B00C4609680768CE
:1029E0008F422FDB616846688E422BDBA168D0F8EE
:1029F0000890894526DCE168D0F80C80884521DC08
:102A000015461AB301A920462A46CDE9017600F001
:102A100073F8B8B101A920462A46CDE9019600F025
:102A20006BF878B101A920462A46CDE9017800F07B
:102A300063F838B101A920462A46CDE9019800F093
:102A40005BF800E0002003B0BDE8F0830120FAE766
:102A50008A68036893420BDC0A688368934207DB49
:102A6000CA684368934203DC4968C068884201DA57
:102A700000207047012070472DE9F04383B00C46D9
:102A8000096886688E420DDB6168C7688F4209DB82
:102A9000A168D0F80080884504DCE168D0F8049093
:102AA000894503DD012003B0BDE8F0831546BAB1C6
:102AB00001A920462A46CDE9018900F01DF878B920
:102AC00001A920462A46CDE9016900F015F838B978
:102AD00001A920462A46CDE9018700F00DF808B18A
:102AE0000020E0E701A920462A46CDE9016700F071
:102AF00003F880F00100D6E72DE9F04105680B6886
:102B0000AB420BDBD0F808C0634507DCD0F804E02B
:102B10004968714502DBC468A14202DD0020BDE8BE
:102B2000F081012A32DBACEB0500A4EB0E0601308C
:102B3000013600EBD07006EBD6764FEA60087710CE
:102B4000B8EB660FB8BF4710974257EAB28005440A
:102B500000EB0E02AB42D8BF914208DDAB42A4EBC2
:102B600000060FDCB1420DDB0144091B00E0891AAD
:102B700040435A1B494302FB021181425FEA8F9096
:102B8000BDE8F081ACEB0004A34202DA0120BDE80D
:102B9000F081B14214DA9142F8DC201AACEB000269
:102BA00002EBD272571000EB62000EEB6202181AB1
:102BB000891A07FB07F2494300FB00109042DDE74A
:102BC000221A0844ACEB020707EBD7777D1006EB1F
:102BD000670102EB6702401A05FB05F19A1A4043B0
:102BE00002FB02008842C9E770B592E8700091E8E4
:102BF0000850D268C968A34253EAB483AC455CEA82
:102C0000B585B6455EEAC686914251EAC28180E842
:102C10006800C16070BD00002DE9F04F9BB008B1A5
:102C2000C06801E01BF0DEFB41F2D00B0028C2F2CD
:102C3000002BCBF8100000F0D182416A002900F08F
:102C4000CD820A69002A00F0C982C968002900F013
:102C5000C582332100221BF075FCDBF81000D0F890
:102C6000B8022EF077FDDBF81010D1F8BC0218B1D5
:102C70002EF070FDDBF81010D1F8C4022EF06AFDC2
:102C8000DBF81000D0F8C8022EF064FDDBF810006D
:102C9000D0F8CC022EF05EFDDBF81000D0F8B812B0
:102CA000002900F09082D0F8641200294FD000274C
:102CB0000DF12C094FF00108C21992F84422002AA4
:102CC00042D10024442500BF011991F8441299BB58
:102CD000A74231D000EB071101F14402411910461F
:102CE000FFF7B6FE40B3DBF8100000EB0711421906
:102CF00044314846FFF778FF484615F0C2FFDBF83D
:102D00001010824601EB071101F1440015F0B9FFE4
:102D1000DBF810100646481915F0B3FF3044824521
:102D20000AD2DBF8100000EB0711204499ED001FD8
:102D300081ED111F80F84482DBF81000013410355A
:102D4000D0F864128C42BFD301378F42B4D3C16B29
:102D5000012940F0AC801BF0E1FB002800F0A780C7
:102D6000DBF8100000F51B7001F054F9002840F06A
:102D70009E80DBF8100042F009F8DBF81000C26911
:102D8000416A914208BF026ACDE905211BF03BFB75
:102D90000490DBF810001BF0ADFB03900BA8402162
:102DA000FDF762FDDBF81000D0F8641200294ED068
:102DB0004FF000094FF0000800EB090191F84412B0
:102DC000D9BB00F51B7001F0B2F8B0B3074600BFE5
:102DD000DBF81000394600F51B7001F0BBF8DBF89A
:102DE0001010044601EB09110BA801F14402394609
:102DF000FFF75AFD411C1CD0012810DB5FFA80FA56
:102E00000BAE00BFDBF81000394600F51B7001F077
:102E1000CBF82ECEBAF1010AC5600EC0F2D1DBF8B4
:102E20001000394600F51B7001F0FDF8384625F01A
:102E300053FF27460CB12FF035C808F10108DBF825
:102E400010001FFA88F9D0F864124945B4D800215F
:102E5000CDE90711049900F51B7001390991039917
:102E600001390A9101F063F8DDE90575C0B1044646
:102E700007AE00BF204621463246FFF78AFD2846AE
:102E800021463A4623461BF09DFFDBF81000214601
:102E900000F51B7001F05EF8044608B12FF017C072
:102EA000DBF81000002100F51B7001F023F8DBF8BF
:102EB0001000D0F86462002E00F08881311801F211
:102EC000432100BF013E04D411F8012912B12FF0B3
:102ED00007C80026352100224FF000091BF032FB05
:102EE000DBF81000816B21F001018163816B21F01F
:102EF0000201816390F84020D0F86412012942F069
:102F0000020280F84020C0F217810DF12C08002445
:102F1000019600BF011991F84412002940F0028186
:102F2000B44203D1816B41F001018163416A826B3C
:102F3000C36B22F00202826300EB0412D0F8A852A5
:102F400002F14407296073B3C5E901991BF05BFAEC
:102F50000138E860DBF810001BF0CCFA013828617A
:102F6000284613F0FDFDDBF810001BF04CFAA0F131
:102F7000010ADBF810001BF0BDFA01380021002225
:102F800000904046534615F0AEFEDBF81000C16BD2
:102F900001291BD0022940F0C580816B474641F0D2
:102FA0000201816317E0039452F8489F11461446CA
:102FB00006973F6851F8046F0291049254F808AFE5
:102FC0001BF098FA82450DDA206810E0816B826B65
:102FD00061F34102826305F1180C97E80F008CE859
:102FE0000F009CE0DBF810001BF084FA0138DBF8DE
:102FF0001080059098F8410018F04AFE08B11021A1
:1030000001E098F84110F01BAAEB09020130541CB2
:103010001CF0B3F9D8F824100DF12C08C968B1FBE5
:10302000F0F0A04250EAB48600200D903746CDE97A
:103030000B0000BFDBF810002F2142467C1E0E94CF
:103040001BF080FA0E980C990130411AB14203DD51
:10305000012F2746EEDC00E03C464FF0000A002C32
:1030600050EACA890498059B006800EB0901013900
:10307000994206DD019E4FF00009069ADDE90274CF
:1030800034E0A0F1010AA3EB0908DDE9016700BF04
:10309000DBF81010069A54463B681268496AC5E985
:1030A000001205F10801601CCA4481E80904C5E961
:1030B00006202846C5E9083A13F052FDA04505D17F
:1030C000DBF81000816B41F002018163284635F086
:1030D00001FD059B09EB0A009842D9DD0AF10100C8
:1030E0000DF12C08039C069A4FF00009534519D0A6
:1030F000DBF8101012683F68496AC5E90207C5E9A4
:1031000006202846C5E900122B61C5E9087313F0B3
:1031100027FDDBF81000816B41F002018163284636
:1031200035F0D8FCDBF810000134D0F864128C4282
:10313000FFF6F0AE90F84020002902F0FD0180F883
:10314000401043D0362100221BF0FCF9DBF81000C0
:103150001BF0E4F90028DBF8100024D0C16B012932
:1031600021D141F013FEDBF81000D0F86412D1B188
:1031700000244425011991F8441271B900F51B701F
:1031800000F032FFDBF810104A194959D2E9013733
:10319000D268C2608AC0DBF81000D0F86412013433
:1031A00010358C42E6D3443000214FF4007229F0F0
:1031B0007EFADBF81000002100F51170202229F0C2
:1031C00076FADBF810000021C0F8641200F000F974
:1031D000DBF81000342100221BF0B4F91BB0BDE86D
:1031E000F08FB0B541F2D0040021C2F200241422C5
:1031F00004F1C800002529F05AFA46F2773004F1AC
:10320000C80CC0F2002046F2733146F2673244F631
:10321000F353C0F20021C0F20022C0F20423C4F82C
:10322000D8308CE82700B0BD002B56D02DE9F047F0
:103230009AB00D469A4617468146EB6A2C6BD2E946
:103240000010D2E90262CDE916101896199243B91E
:10325000B4F5807F05D16C6BB4F5807F1DD04FF441
:103260008074711A101A0131B5F834C0421CA0B232
:10327000009016A805F14006CDE901C600F0F2F86D
:1032800016AED7E90001199C4CCE024416925A188A
:10329000179230441890601819900DF14808D9F829
:1032A000082016A94046FFF774FB98B1E96903A806
:1032B000002226F023FA01280CD1009703AF002347
:1032C000484629463A46CDE9018A12F031F8384697
:1032D00026F0CFF91AB0BDE8F0477047002B6ED04A
:1032E0002DE9F04FA1B014468A460646C96912A8D6
:1032F0000022994626F002FA01285DD1BAF824701E
:103300000DF1380C94E80F000EACBAF826508CE89A
:103310000F002046394615F0F0FC20462946059559
:1033200015F0E6FC26A1B268DDF838C0C8680D903B
:10333000D3680F989842224B0A93D1E90131CDE925
:103340000B3136DC07EB0C0106ADA1F1010E0DF1DE
:10335000480B0DF12808CDE903EC00BF91688C45BE
:103360001ADC00BF28462146FFF713FB38B1304670
:1033700051465A4643468DE8300211F0D9FF109865
:10338000B268384410900E98916838440E90884284
:10339000E8DD0F98DDE903EC1199CDF838C0059B05
:1033A000CDF840E019441191D16818440F9088423B
:1033B000D4DD12A826F05DF921B0BDE8F04F7047CA
:1033C000010000E0010000E0010000E0010000E079
:1033D000B0B541F2D0000425C2F2002000F1FC0497
:1033E000206808B125F078FC00211C22204629F035
:1033F0005EF9013D04F11C04F2D1B0BD41F2D001EF
:10340000C2F20021C96E00BF59B14A68824202D09F
:103410000A68824203D10A7E42F001020A764969B3
:10342000F2E7704741F2D0014069C2F20021C8665C
:10343000704741F2D001C2F20021CA6E4261C866F3
:10344000704741F2D0000421C2F2002000F5BC70A8
:1034500000F08CBD41F2D0002021C2F200203430B7
:1034600000F084BD2DE9F04F8BB01D460446DDE928
:1034700014762BB9B7F5807F08BFB6F5807F62D090
:1034800003A8002303930493CDE90513DDF858B096
:10349000CDE9073200F1180302933346CDE9091252
:1034A00029463A4600F1080A00F110094FF00108D8
:1034B000CDE900B82EF0C1FA504629463A463346C7
:1034C000CDE900B82EF0B9FA484629463A463346C7
:1034D000CDE900B82EF0B1FA029829463A463346B3
:1034E000CDE900B82EF0A9FA05980399099A079F2B
:1034F000814251EAB083974257EAB286089DB342AF
:1035000053EAB68C814251EAC080974257EAC281A1
:10351000069F049A0A9EC4F800C0884250EAC181FE
:10352000BA4252EAB780B54255EAB683984250EAA9
:10353000B380BA4252EAC782B54255EAC6839A427C
:1035400052EAC38201E000202060231D013A0139C4
:1035500007C30BB0BDE8F08F41F2D0001821C2F2D2
:103560000020DC3000F002BD2DE9F04F8FB00146A5
:1035700051F84C3F05911BB9016D002900F0BB8249
:10358000456F0990002D7ED02C464FF480794FF086
:10359000000800254FF4807A079400BF00216E22B6
:1035A00020462BF055FC054400216C2220462BF0D0
:1035B0004FFC06B2B8EB004F4FF000014FF06D0228
:1035C000204608BF01262BF043FC01B2B8EB004FA8
:1035D0000FFA89F008BF012106FB00F70FFA8AF005
:1035E00001FB00F620464FEA17294FEA162A2AF077
:1035F00061FE044608B12FF02FC828040CD14FF605
:103600000070C0F2FF0007EA0001B1F5803F04BF7F
:103610003040B0F5803F16D00FFA8AF04FF4803278
:103620000FFA89F16B4292FBF0F0002692FBF1F762
:1036300019B203B20CA83AB2CDE9000605980D966E
:103640000C962EF0FAF9099F00210C910A9197F837
:10365000940000F00F00032840F03A81079E3046A6
:103660002AF072FF044630462AF0E0FE0246059832
:10367000234601680320009030460EF0B1FF054656
:103680000C90002437E190F82C20416DD0F86C901C
:1036900019444165036D816DB9F1000F19448165CD
:1036A00000F029824FF0000A0027002503925042C3
:1036B0000490002007900020029000BF0895BB46B0
:1036C0004FF4807800254C464FF48077CDE90CAA62
:1036D00000216E2220462BF0BBFB054400216C220A
:1036E00020462BF0B5FB06B2BAEB004F4FF00001BD
:1036F0004FF06D02204608BF01262BF0A9FB01B256
:10370000BAEB004F08BF012106FB08F079434FEAEE
:10371000202820460F122AF0CDFD044608B12FF0D4
:1037200029C809992A04D1E91501CDE90A0108BF80
:10373000B8F5807F10D04FF4803090FBF8F290FB0A
:10374000F7F3684201B20CA8CDE9000A0AA82EF0EE
:1037500074F9DDE90A0102E0B7F5807FEBD10028BA
:1037600000D5404200295F4600D5494288425FEAC1
:103770008F905FEA9F91089D054348460F431021B3
:103780002BF0FFFC002800F0878048462AF01FFE3F
:10379000804600F0040005EA9000089008F0080058
:1037A00005EAD000069048462AF067FF06464846DC
:1037B0002AF090FD834648462AF038FE04464846E3
:1037C0002AF0C2FE002E05DCBBF1010F02DADDF8A3
:1037D0000CC011E00899DDF80CC000290B9901D04C
:1037E000614504DA069A3AB1049A914204DC0C214C
:1037F00002914946CDF81C90002C0DDC00280BDC12
:10380000BBF1000F5FEADF90002E5FEADF91089ABC
:103810000A400699084037E008EA0701BE4611F061
:10382000010308F0020107EA51020A9901D061453B
:1038300003DA3AB1049FB94204DC032702974F46EA
:10384000CDF81C90002C5FEADF973B40012B02D1A2
:10385000614580F2808000285FEADF90BBF1000FB5
:103860005FEADF93002E5FEADF971040089A012895
:10387000069800EA030002EA070204D1049B774697
:10388000994201DC68E077460B990AB1614563DA39
:1038900010B1049881425FDD4FF4807148462BF0EF
:1038A00070FC18B987F00100C00762D04FF40071B6
:1038B00048462BF066FC18B985F00100C00758D0C7
:1038C00048462AF0F7FC814600287FF4F7AE50E026
:1038D000079E30462AF0D1FE044630462AF0FAFC14
:1038E0000346396D0C200090304622460EF078FEDB
:1038F000044600250A9030462AF069FDC10701D12F
:10390000012D04DA810704D4B5F1FF3F01DC002169
:103910000C91410701D4012C04DA000704D4B4F15E
:10392000FF3F01DC00200A900CA90AAA38463CF0AF
:10393000F1FE0C990A9A304600F0B6FB387C8007FD
:1039400000F1D9800C980A9BD7E915120844D118C8
:10395000C7E91501CFE07746099AF9074FF00C0146
:1039600092F8940018BF032100F0F000084482F898
:103970009400079D099E002D00F0BD8096F89400EC
:10398000029901F00F01012700F0F000CEF20007CC
:10399000084486F894000020C6E9150080212846D6
:1039A00075672BF0EEFBA8B128462AF05DFE0328D0
:1039B0001CD002282DD001283BD1A8696FF06042AD
:1039C000411C002328460EF06DFFC6F88000A86950
:1039D000421E28E006F17C006FF060436FF060410A
:1039E000009139463A4615F07EF961E0A869296AE6
:1039F000091A6FF060420131002301EBD17100EB35
:103A000061042846611C0EF04DFFC6F88000621E5E
:103A100009E0296A6FF06042002328460EF042FF59
:103A2000C6F880002A6A0023284639460EF03AFF7D
:103A300003E06FF06040C6F88070C6F88800284642
:103A40002AF009FE03280DD002281DD001282AD112
:103A500069696FF06042002328460EF097FEF06718
:103A60006A691AE06869E969091A6FF06042013110
:103A7000002301EBD17100EB61042846611C0EF0BC
:103A800085FEF067621E08E0E9696FF0604200237E
:103A900028460EF07BFEF067EA6900232846394687
:103AA0000EF074FE02E06FF06040F767C6F8840025
:103AB000F06F00B9F767D6F8840018B96FF060406E
:103AC000C6F88400D6F8800008B9C6F88070D6F829
:103AD000880018B96FF06040C6F88800F06E2021A9
:103AE0002CF0CAFF0921002228462DF023FA307C51
:103AF00080077FF549AD0FB0BDE8F08F2DE9F047A5
:103B000082B0D0F874A0BAF1000F00F044810446EE
:103B100090F89400000700F03E8194F82D60402159
:103B200050462BF02EFB10B90020C4E91700504678
:103B30002AF091FD804650462AF096FD94F89410A4
:103B4000814601F00F01032923D00C2940F0C980E0
:103B5000B9F1000F4FF00000E0653CD0A16E4FF0CE
:103B6000000C00297CD094F82D2048F21F53002629
:103B7000C5F2EB13C2F1640201FB02F00E4450FBEC
:103B800003F76330C6284FEA671505EBD771F3D802
:103B900067E0B8F1000F4FF0000020663CD0616E86
:103BA0004FF0000C002979D094F82D2048F21F53D3
:103BB0000026C5F2EB13C2F1640200BF01FB02F75D
:103BC0000E4457FB03F56337C62F4FEA651000EB31
:103BD000D571F3D863E0206EC6F16401484348F222
:103BE0001F51C5F2EB1150FB01F0411101EBD070F8
:103BF000206650462AF06EFB064650462AF03DFDF0
:103C00000246216E0C200090504633460EF0E8FC30
:103C10000246002120661FE0E06DC6F164014843C2
:103C200048F21F51C5F2EB1150FB01F0411101EBBD
:103C3000D070E06550462AF0F9FB064650462AF05F
:103C400083FC0346E16D03200090504632460EF09F
:103C5000C7FC0146E0650022504600F025FA3DE031
:103C60000026A06DD4F880108319D4F888208B42E8
:103C700053EAC183C4F860C0B8BF0E1A934240F241
:103C80000101C8BF161ACEF200016FF06042504623
:103C900033460EF007FE321800211BE00026606D4F
:103CA000E16F8319D4F884208B4253EAC183C4F8AE
:103CB0005CC0B8BF0E1A934240F20101C8BF161A89
:103CC000CEF200016FF06042504633460EF05EFDCA
:103CD00031180022012350462CF0A2FF207C8007DF
:103CE00059D4E06D002856D1206E002853D1B9F187
:103CF000000F1ED150462AF0C0FC064650462AF05E
:103D0000E9FA002E01DC012813DBB6F1FF3F07DDE5
:103D1000B0F1FF3F0DDC424200210123504603E099
:103D200000210123504632462CF07AFF207C800788
:103D300031D4B8F1000F1ED150462AF077FB064669
:103D400050462AF001FC002E01DC012813DBB6F1FD
:103D5000FF3F07DDB0F1FF3F0DDC414200220123B0
:103D6000504603E000220123504631462CF058FF14
:103D7000207C80070FD40B21504622462DF0DAF824
:103D8000207C800707D494F8940000F0F00084F8B9
:103D900094000020606702B0BDE8F08770B588B07D
:103DA00004460D4620B91AF01DFB044600286DD0CC
:103DB00020461AF0B8FB002868D094F8400080072D
:103DC00008D543F6790032A1C0F2082040F2011272
:103DD00036F016FC0020EDB1CDE9040020461AF0C3
:103DE00012FB0138069020461AF084FB0138079038
:103DF000684604AA2946FEF7CCFD002846D0E06BB1
:103E000002280AD104AB04F1440C0FCB8CE80F005C
:103E1000012034E0C4F8640238E06A462F212046CD
:103E20001AF090FB012831D1D4F86402C0B100210E
:103E30006D46002604EB0110002200F144012846E3
:103E4000FEF7C8FD10BB0136D4F86402B1B2884257
:103E5000F0D8202807D3002004A9C4F8640203E0A6
:103E60006946002000E0694604EB00120130D1E908
:103E70000036D1E90251C2E91136C2E91351C4F842
:103E800064023221002220461AF05CFB08B070BDAB
:103E90005F6C765F696E765F61726561000000003D
:103EA00010B50021162204462AF0D2FF80B280B15C
:103EB00041F2D001C2F200218A6D824209D3CA6D5B
:103EC00002EBC00152F8302020464968BDE810409E
:103ED000104710BD10B541F2D004C2F20024A06D0D
:103EE000C00028F09EFBE06524F07CFCBDE810409B
:103EF00025F0CEB9F0B581B0B8B146680446A6B198
:103F00000D4600BF2068304447681DB13046A847C1
:103F100007E000BF2046314600F085F8304624F027
:103F2000DBFE3E460FB12FF013C801B0F0BD0028F4
:103F300014BF40680020704750B1416841B100682B
:103F4000021D00208958013009B12FF005C87047C3
:103F500000207047006808444068704700680858AF
:103F60007047002814BF806800207047033100228A
:103F700021F00301C0E900128260704710B50446C9
:103F80000068083028F04DFB58B121680023421822
:103F9000435063685360626802B15050A16860602A
:103FA00001B110BDA06010BDB0B5054600284FF0AE
:103FB000000016D00C46A1B16868A0420DD0286858
:103FC000083028F02EFB68B129680B1D625802B139
:103FD000D05042506050C45003E02846FFF7CEFF57
:103FE00000B1B0BD0020B0BD10B504460068083077
:103FF00028F017FB58B122680023111D4350A36815
:104000008350A26802B150506168A06001B110BD38
:10401000606010BD28B1416809B9806808B100200E
:1040200070470120704780B142688A420ED0026812
:1040300083688B428B5811D002F1040C51F80C00AC
:104040000BB143F80C0000B1835070470268114473
:104050004968416041B1002088507047836003B1D6
:10406000D018002141607047002181607047000036
:1040700010B50446006800BF826812B1214690471F
:104080002068006808B12060F6E710BD806800284D
:1040900014BF406A00207047806818B1408DC0F39B
:1040A000812070470020704770B50E4611431BD029
:1040B0001546044629F0C8F8A0680123D0E9061285
:1040C00031442A44C0E90612204631462A462BF0E4
:1040D0003FFC0C21002220462CF02CFF012818BFA9
:1040E00070BD20462BF0A8FB012070BD2DE9F041EA
:1040F00014461546B8B1612207460E462AF0A8FEBE
:1041000088B18046006870B16222384631462AF094
:104110009FFE010607D0D8F8003024F07F41C2B2DC
:10412000404698470546200E60F31F652846BDE8C7
:10413000F08100002DE9F04F97B00446408DDDF886
:1041400080B0164640F008006085228520469BF826
:1041500008201F468A462AF07BFE278505469BF8E5
:104160000820204651462AF073FE618D8146854223
:1041700021F00800608500D177D0268520469BF885
:10418000082051462AF064FE804620465146278585
:1041900010F0FEF89BF80810006842462FF0B6F8C1
:1041A0009BF808000C281ED147F6FF75A84518BFDC
:1041B000A94518D120462AF06DFF00EBD0762046A5
:1041C00029F0FBFF00EBD070012101EB60024010F1
:1041D00001EB6601914251EAB090A84550EA088887
:1041E000A94550EA098941F2D000C2F200201830F6
:1041F000FFF7C4FEE0B30646C0E90389046001ACE2
:104200009BF80800C6F808A03071204613F03DFE68
:1042100043F6412043F6D931C0F20420CDE90160D4
:1042200043F69540C0F20421C0F20420CDE9040118
:10423000BBF8021000200A904FF000400B90FF20C6
:104240000C90BBF800000D9048420E909DF8520073
:10425000DBF80C10099100F0FE008DF852002046AA
:10426000DBF81010089113F0D3FE17B0BDE8F08F03
:1042700043F6790004A1C0F208204FF4007217B091
:10428000BDE8F04F36F0BCB95F6C765F6F626A5F75
:104290007374796C655F6372656174655F74726174
:1042A0006E736974696F6E0041F2D0001421C2F21E
:1042B00000201830FFF75ABE2DE9F04782B00446BF
:1042C000408D10F47C7F00F005816FEA01084FF00B
:1042D000000A6FEA020901AD002600BFE16801EBA8
:1042E000C6025268930100F1E58092B212EA080F0B
:1042F0005FEA0F9312EA090F5FEA1F92534040F002
:10430000D98051F83670102138462A462EF0F0FE3A
:10431000002840F0DC80112138462A462EF0E8FEC5
:10432000002840F0D480122138462A462EF0E0FEC4
:10433000002840F0CC80132138462A462EF0D8FEC3
:10434000002840F0C480152138462A462EF0D0FEC1
:10435000002840F0BC80142138462A462EF0C8FEC2
:10436000002840F0B480162138462A462EF0C0FEC0
:10437000002840F0AC806A2138462A462EF0B8FE6C
:10438000002840F0A4806B2138462A462EF0B0FE6B
:10439000002840F09C80012138462A462EF0A8FED5
:1043A000002840F09480022138462A462EF0A0FED4
:1043B000002840F08C80042138462A462EF098FED2
:1043C000002840F08480052138462A462EF090FED1
:1043D00000287CD1062138462A462EF089FE002886
:1043E00075D1072138462A462EF082FE00286ED16C
:1043F000302138462A462EF07BFE002867D16821FE
:1044000038462A462EF074FE00284FD169213846DE
:104410002A462EF06DFE002848D16E2138462A46E5
:104420002EF066FE002841D16C2138462A462EF037
:104430005FFED8BB6D2138462A462EF059FEA8BB38
:104440003A2138462A462EF053FE78BB3B213846A7
:104450002A462EF04DFE48BB382138462A462EF01B
:1044600047FE18BB3C2138462A462EF041FEE8B9EB
:104470003E2138462A462EF03BFEB8B94021384648
:104480002A462EF035FE88B9412138462A462EF0BC
:104490002FFE58B9422138462A462EF029FE28B967
:1044A000482138462A462EF023FE50B14FF0020A2A
:1044B000608D00BFC0F3051101368E42FFF40EAFD0
:1044C0000AE0BAF1000F08BF4FF0010AF0E74FF021
:1044D000030A01E04FF0000A504602B0BDE8F08741
:1044E00041F2D000C2F20020006970477047FF28F7
:1044F00002D018B9002070473F2070478C2804D89C
:1045000044F6F961C0F204210BE041F2D002C2F29C
:104510000022116B0029EDD07330926AC0B2824242
:10452000E8D9085C7047B0B541F2D00540F6D00438
:10453000C2F20025C2F2002405F5C47021462EF017
:10454000F3FF47F2AD504FF49671C0F203202246BC
:1045500031F03CF9C5F8A801B0BD00002DE9F041EB
:1045600008B3064617460C462EF0C0FD40F2000583
:104570008046C2F20025304621462A6890472A68C4
:1045800035180446284639469047A8EB00018C426E
:1045900009D82044304400BF013410F8012B8C426C
:1045A00005F8012BF8D9BDE8F0812DE9F04140F282
:1045B00008081446C2F200280F4619461D46D8F8CE
:1045C000002006469047386030B12868D8F80020AF
:1045D00030440021904700E000202060BDE8F081D9
:1045E0002DE9F04F81B02DED088B8CB0DDF878907F
:1045F0000446B9F1000F1D46CDE906211CBF00207D
:10460000C9F80000E4B1079800284FF0000000F05E
:104610007A812178002900F076811F9882071DD0C9
:10462000621C0020012342F2014700BF0D2903D87C
:1046300003FA01F63E4205D112F8011B0130F5E7FD
:10464000002060E1002950EA0090B9F1000F00F06D
:104650005A814FF0FF31C9F8001054E14FF0000BC0
:10466000012DCDF824B0C0F23A81ABA100F00100D9
:104670000190002791ED009FABA1009491ED00BF48
:104680002146019800260028284618BF6FF0604098
:10469000049040F20800C2F2002005910B960268D7
:1046A00008460BA99047E15D82460B980A900029C5
:1046B00000F0ED80CDE902B74FF0FF38002600246E
:1046C0004FF0000B0027059B40F208000AA9C2F238
:1046D00000200268184690478146079851464A468E
:1046E00024F0A4FA83440028069818BF8344049950
:1046F000ABEB000088423846D8BF4FF0FF3018F1CE
:10470000010150EA0888BAF10A0F18BFBAF10D0F7B
:1047100000F08C80484604F1010C092286A300BFFA
:1047200013F8011B8A4503D0002AA2F10102F7D138
:104730008A457BD0B9F1000F32D029EE490F2BFE0C
:10474000810F0023FDEE101A01F00102C1F30017E2
:10475000524262F300037A4262F34103C1F3002242
:104760005242C1F3003162F38203494261F3C30351
:10477000002B66D14FF63061A9EB0101202960D3EF
:1047800029F03F01B1F5405F5BD029F07F01B1F521
:104790003A5F1EBF29F00F014FF61062914250D0D0
:1047A000BAF1000F33D0A0EE10AB002320EF480881
:1047B0002BFE810FFDEE101A01F00102C1F300176C
:1047C000524262F300037A4262F34103C1F30022D2
:1047D0005242C1F3003162F38203494261F3C303E1
:1047E0007BBB4FF63061AAEB0101202929D32AF0C7
:1047F0003F01B1F5405F1CBF2AF07F01B1F53A5F80
:104800001FD04FF610622AF00F01914219D00B9F72
:10481000059B18F101026446D95D5BEA0686824673
:1048200000290A990B917FF44FAF0DE037B918F1C9
:10483000010003D14FF000085E4613E05046A44645
:1048400002E00B9F5E46504618F1010107D0039F1E
:10485000DDF87890009CDDF808B0D7B139E08246E9
:104860006446B846039F6CB1B9F10A0F28D1BAF17A
:104870000D0FDDF87890009CDDF808B008BFDDF87A
:104880002C8006E0DDF87890009CDDF808B0DDF8BB
:104890002C80B8F1000FB3441AD020784744099710
:1048A0000A2818BF0D2813D0E05D0D2818BF0A286C
:1048B0000CD068B1AD1BE119012DBFF6E2AE07E0E7
:1048C000DDF87890009CDDF808B0E2E70137099741
:1048D0002FB1B9F1000F18BFC9F800B012E040F2D3
:1048E000080009A9C2F20020026820469047B9F1E9
:1048F000000F07D001460022079824F097F983465D
:10490000C9F800B009980CB0BDEC088B01B0BDE847
:10491000F08F00BF00BF00BFFF00FFFF00B2FFFF2E
:1049200040CEFFFFC0CFFFFF5E000000005200003E
:1049300030000000C0000000202C2E3B3A2D5F29E3
:104940005D7D00002DE9F04750B3144642B30546A3
:1049500089462EF0CBFB804620462EF0C7FBF8B1EF
:10496000824640F20000C2F2002049460AEB0807E6
:1049700002682846904700EB0A018F4209D3EA19E2
:1049800005EB0803013F13F801698F4202F8016942
:10499000F8D2284421465246BDE8F04727F083BEAE
:1049A000BDE8F08770B582B004460B46CDE9001132
:1049B00000200021224631F00CF9461C304627F039
:1049C00030FE054630B1019B28463146224631F083
:1049D00000F905E004A005A14FF4DB7235F010FEEC
:1049E000284602B070BD00BF300000005F6C765FEB
:1049F000746578745F7365745F746578745F7666E8
:104A00006D74000010B541F2D0041821C2F20024E8
:104A100004F17400FFF7AAFAD4F89C10012084F87E
:104A200080004FF00000C4F8840021B1D4F8A00049
:104A3000BDE81040084710BD2DE9F047EAB1144623
:104A40009A460F468046DDF8209000BF6608404633
:104A500006FB0A752946C847012807DB64F00100F8
:104A600005EB0A073044441C04E000BFB0F1FF3FEF
:104A7000344603DC0CB12FF017C800252846BDE8EA
:104A8000F0870000F0B581B00C46054637F038F8E5
:104A9000C8B9072037F034FE064628B90BA011A18B
:104AA00040F2153235F0ACFD56F8047FB74209D01C
:104AB000A7F11000A84203D0214637F021F810B921
:104AC0003F68F3E7002001B0F0BD00BF696E666F7C
:104AD000726D6174696F6E20213D2052545F4E5596
:104AE0004C4C00005F6D656D686561705F616C6C5A
:104AF0006F63000037F0A6B8F0B581B015460746E1
:104B000001B30C462DB354F8140C21462A4637F055
:104B1000C9F9064608BB38462946FFF7B3FFD8B1A6
:104B20000646A4F1180054F8101C081A214618383B
:104B3000A84250EA3582304636F094FF204637F0DE
:104B400081F80AE03846294601B0BDE8F040FFF799
:104B500099BF204637F076F80026304601B0F0BD08
:104B6000B0B5022803DCBDE8B04000F001B905464D
:104B70000C46496858A038F06FFFD8B1616857A05B
:104B800038F06AFF18B3616856A038F065FF50B37B
:104B9000616856A038F060FF0028E4D1032DE2D907
:104BA000A06831F037FD0028A06860D0FBF7E2FC78
:104BB000054662E0A06837F049FEB0F1FF3FA1680A
:104BC00074DD024667A0BDE8B04036F0D9BE032DC3
:104BD000C9D9A06831F01EFD0028A06820D0FBF7DD
:104BE000C9FC054622E0A06831F014FD0028A06849
:104BF00003D0FBF7BFFC054605E037F027FE05466E
:104C0000B0F1FF3F51DD284637F062FE012801D1A7
:104C100041A000E03CA02946BDE8B04036F0B0BE5F
:104C200037F014FE0546B0F1FF3F3EDDE1683EA0DF
:104C300038F012FFB8B1E1683DA038F00DFFA0B127
:104C4000E1683DA038F008FFE8B3E1683EA038F025
:104C500003FFD0B3E16840A038F0FEFE00287FF4E7
:104C600082AF042132E0002130E001212EE037F054
:104C7000EDFD0546B0F1FF3F17DDE1681DA038F0FE
:104C8000EBFED0B1E1681DA038F0E6FEA8B1E16806
:104C90001BA038F0E1FE30B1E1681AA038F0DCFE6C
:104CA00000287FF460AF002108E0A16841F20D0008
:104CB000C0F2082036F064FE55E701212846BDE821
:104CC000B04037F025BE022100E003212846BDE8B0
:104CD000B04037F0DBBD00BF6E756D006D6F646571
:104CE0000000000072656164000000007772697462
:104CF0006500000068696768000000006F6E0000D2
:104D00006C6F77006F66660070696E5B25645D206E
:104D10003D206C6F770A000070696E5B25645D2032
:104D20003D20686967680A006F75747075740000CB
:104D3000696E707574000000696E7075745F7075CF
:104D40006C6C757000000000696E7075745F707532
:104D50006C6C646F776E00006F75747075745F6F44
:104D6000640000002573203A2025640A000000003A
:104D700080B541F22600C0F2082036F001FE41F273
:104D8000BB00C0F2082036F0FBFD41F23900C0F252
:104D9000082036F0F5FD41F23010C0F2082036F060
:104DA000EFFD41F28C00C0F2082036F0E9FD0BA0C7
:104DB00036F0E6FD41F2EC00C0F2082036F0E0FDEE
:104DC00010A036F0DDFD1BA036F0DAFD21A036F094
:104DD000D7FD23A0BDE8804037F038BD202020203B
:104DE0002020202020202020202020652E672E201B
:104DF0004D5348203E70696E2072656164204750B3
:104E0000494F0A0020202020202020202020202080
:104E1000202020652E672E204D5348203E70696E5D
:104E2000207772697465204750494F206869676828
:104E30000A000000202020202068656C703A2020A5
:104E4000202020746869732068656C70206C697319
:104E5000740A00004750494F20652E672E3A000023
:104E600020000000B0B50446154638B941F25F1085
:104E700008A1C0F20820372235F0C2FB3DB1A06C7A
:104E80002A7929680368204698470020B0BD6FF052
:104E9000FE00B0BD5F70696E5F636F6E74726F6CA1
:104EA0000000000070B505461E46144638B941F2B0
:104EB0005F100AA1C0F20820162235F0A1FB4FF0C6
:104EC00000004CB1082E18BF70BDA86C2168826824
:104ED000284690472071082070BD00BF5F70696E42
:104EE0005F7265616400000070B504461E46154699
:104EF00038B941F25F100AA1C0F20820262235F02D
:104F00007FFB4FF000004DB1082E18BF70BDA06CA4
:104F10002A792968436820469847082070BD00BF59
:104F20005F70696E5F7772697465000041F60563B2
:104F3000994205D041F60463994205D1012000E071
:104F40000020506100207047836C1B68002BF9D053
:104F500018472DE9F04186B06D460F460646281DDC
:104F600014211C469046FBF77FFC002F00D57F42A2
:104F7000B06C0097036853B16A4641F6036130464E
:104F8000984708B1002402E00298C8F800002046C3
:104F900006B0BDE8F0812DE9F04186B06E460F46BF
:104FA0000546301D14211C469046FBF75DFC002F82
:104FB00000D57F42A86C009703688BB16A4641F622
:104FC00003612846984750B9A86CD8F800100291A0
:104FD0006A46036841F602612846984700B10024FA
:104FE000204606B0BDE8F0812DE9F04F81B0904633
:104FF0008B460446009136F06DF90746FBF758F9E9
:10500000814635F0F8FC98B141F6126541F65F50E3
:10501000C0F20825C0F20820294636F0B1FC43F65C
:10502000790040F29F42C0F20820294635F0E8FAA4
:10503000012F13D141F6126541F63A50C0F208250E
:10504000C0F20820294636F09BFC43F6790040F276
:105050009F42C0F20820294635F0D2FAFBF728F922
:10506000074639F09BF898B941F6126540F683700F
:10507000C0F20825C0F20820294636F081FC43F62C
:10508000790040F29F42C0F20820294635F0B8FA74
:10509000FBF70EF9054636F050FC98B141F6126662
:1050A00040F65C70C0F20826C0F20820314636F0A7
:1050B00067FC43F6790040F29F42C0F20820314677
:1050C00035F09EFA2846FBF7F7F83846FBF7F4F878
:1050D0004846FBF7F1F85CB941F6D15041F6126150
:1050E000C0F20820C0F2082140F2A24235F088FA4E
:1050F000204637F015FB03280BD041F6BE6041F681
:105100001261C0F20820C0F2082140F2A34235F03B
:1051100077FA39F043F80646FBF7CAF843F2E8316C
:105120008246C2F20021096809B120468847606AB8
:105130000021B042716311D0D0B1BBF1000F4CD04F
:1051400096F83800657B96F8399040072ED43046A3
:10515000414639F085F948B3074641E094F822000A
:10516000FF281FD15046FBF7A7F86FF022078BE00E
:1051700094F82010666240F2FF10A4F82100FF2985
:1051800007D096F83900814203D23046424600F0FB
:105190009DFC214656F8400F41F8280F41603160D0
:1051A0004E6065E0013084F8220061E004F11807E8
:1051B000D5B1012D20D138460068B84214D090F8FE
:1051C000211096F839208A42F6D2416806F1180279
:1051D000F16142600A60B06119E06FF074077763B3
:1051E0005046FBF769F84FE0E06906F11801F061FD
:1051F000E1610160B7610AE043F6790041F6F351DD
:10520000C0F20820C0F20821B62235F0F9F994F86E
:105210002100B46481450AD2606A84F8219090F834
:105220003910894503D20222494600F04FFCBBF1F8
:10523000010F09DB06F15C056A460021284639F0BA
:1052400065FA284639F07CFB5046FBF735F837F015
:1052500031FDFBF72DF8716B824649B1606AB8B138
:1052600096F8391090F839208A425FEA0F9110E0E1
:105270005046FBF721F843F2E430C2F20020016807
:1052800009B1204688470027384601B0BDE8F08FB5
:1052900001213A68BA4202D092F8212000E0FF22B0
:1052A00084F82120D1B9024652F8403F12F8061C7A
:1052B00093420CD013F8087CC9B213F8075C1B6842
:1052C000BD4255EA3787B94251EA3781F0E790F895
:1052D0003920914202D0022200F0F8FB5046FAF742
:1052E000EBFF706B0021B16480EAE072C2EBE07703
:1052F000CAE700002DE9F04782B0044690460E460A
:10530000019158B941F6C25041F60561C0F208203A
:10531000C0F2082140F2FD1235F072F9204637F054
:10532000FFF902280BD041F6216041F60561C0F279
:105330000820C0F208214FF4FF7235F061F943F202
:10534000E830C2F20020016809B120468847208C6D
:10535000002871D1002E6FD035F0BCFF0546FAF75A
:10536000A7FF814635F047FB98B141F6056741F646
:105370005F50C0F20827C0F20820394636F000FB23
:1053800043F6790040F20322C0F20820394635F096
:1053900037F9012D13D141F6056541F63A50C0F2B7
:1053A0000825C0F20820294636F0EAFA43F67900CB
:1053B00040F20322C0F20820294635F021F9FAF71D
:1053C00077FF824638F0EAFE98B941F6056740F665
:1053D0008370C0F20827C0F20820394636F0D0FAB0
:1053E00043F6790040F20322C0F20820394635F036
:1053F00007F9FAF75DFF074636F09FFA98B141F6D4
:10540000056540F65C70C0F20825C0F20820294608
:1054100036F0B6FA43F6790040F20322C0F20820D3
:10542000294635F0EDF83846FAF746FF5046FAF7C8
:1054300043FF4846FAF740FFFAF73AFF218C074648
:1054400089B1481E20843846FAF736FF43F2E4302B
:10545000C2F20020016809B120468847002528468D
:1054600002B0BDE8F08786B338F098FE064690F8A3
:10547000380094F80D9040076FF00A00706309D46B
:105480003046414638F0ECFF20B105463846FAF781
:1054900013FFE4E7B9F1000F04F118001BD0B9F1D4
:1054A000010F20D1014600BF0968814213D091F855
:1054B000212096F839309342F6D2486806F1180256
:1054C000F0614A600260B16118E03846FAF7F4FE14
:1054D0006FF07405C3E7E16906F11802F161E2615A
:1054E0000A60B0610AE043F6790041F6F351C0F278
:1054F0000820C0F20821B62235F082F80198012870
:1055000009DB06F15C0501AA0021284639F0FEF806
:10551000284639F015FA3846FAF7CEFE37F0CAFBBE
:10552000756B002D9BD191E72DE9F04106461C4695
:10553000904658B940F6736041F60811C0F2082051
:10554000C0F2082140F28F1235F05AF8BCB316B100
:10555000B8F1000F0BD141F2997041F60811C0F279
:105560000820C0F208214FF4CA7235F049F8F08BD8
:10557000B76DC00432D5354635F8510FA97840EAE9
:105580000140C0F38F00A0421CD241F28870C0F2EB
:10559000082036F0F5F9A8782246298841EA00402B
:1055A0003146C0F38F0341F66700C0F2082036F0A1
:1055B000E7F940F65560C0F2082036F0E1F9002026
:1055C000BDE8F081384637F061FAA04206D207F113
:1055D00010004FF0FF31BC8335F0B2F8FAF768FEE7
:1055E000064638464146224637F06EFA04463046B3
:1055F000FAF762FE2046BDE8F08100002DE9F04F89
:1056000081B0DBB31D469146834618B1B9F1000F56
:1056100018D10BE040F6736041F61001C0F208208B
:10562000C0F2082140F2FF1234F0EAFF41F2997013
:1056300041F61001C0F20820C0F2082140F2012218
:1056400034F0DEFFDBF85C80B8F1000F0BD141F2E3
:10565000E97041F61001C0F20820C0F208214FF4B1
:10566000017234F0CDFF38F099FD48B1BBF81E004F
:10567000400605D4D8F8140001280AD1002504E01A
:1056800058464A462B4600F015F9284601B0BDE8B9
:10569000F08F08F1180A00260120C8F814000095C0
:1056A00009EB0604404621462A4637F07FFADBF82C
:1056B00048100246C8F810004FF480430F6958465E
:1056C0002146B847D8F810004FF0FF3106442D1A94
:1056D000504635F035F80DB12FF01FC0009D002069
:1056E000C8F81400D1E7F0B581B005461C4616464F
:1056F00058B940F6736041F62D01C0F20820C0F29F
:1057000008214FF4E67234F07BFF24B305B15EB993
:1057100041F2997041F62D01C0F20820C0F2082133
:105720004FF4E87234F06CFFEF6D5FB941F2E9704D
:1057300041F62D01C0F20820C0F208214FF4E972B1
:1057400034F05EFF38F02AFD38B1E88B400604D40F
:105750007869012809D1002404E02846324623460E
:1057600000F0A8F8204601B0F0BDA86C01217961D5
:105770004FF48043D0F810C0284631462246E04717
:10578000044607F118004FF0FF3134F0D9FFE9E784
:105790002DE9F04182B004461D46164658B940F640
:1057A000736041F64B01C0F20820C0F208214FF4AB
:1057B0000F7234F025FFF5B104B15EB941F2997072
:1057C00041F64B01C0F20820C0F208214FF41072DC
:1057D00034F016FFE76DFAF76BFD7969804661B129
:1057E000384631462A4637F0E1F904464046FAF792
:1057F00063FD20461CE000201AE001207861384655
:1058000031462A4637F0D2F905464046FAF754FDAC
:105810000020019001A9384637F00EFEA16C024627
:1058200038614FF400430F6901992046B847284674
:1058300002B0BDE8F0810000F0B581B005461C461D
:105840001646A8B941F6F80740F67360C0F208277B
:10585000C0F2082040F23512394634F0D1FE41F250
:10586000C4704FF49C72C0F20820394634F0C8FE70
:10587000CCB12746A86CC16828468847411C14D083
:1058800006F8010BE98B11F0400F5FEA1F910A281F
:105890005FEA0F9008430128A7F1010006D1012F0C
:1058A0000746E7D102E0002000E03846201A01B0A8
:1058B000F0BD0000F0B581B004461D461646A8B9FB
:1058C00041F6181740F67360C0F20827C0F20820AE
:1058D0004FF4B172394634F093FE41F2C47040F295
:1058E0006512C0F20820394634F08AFE9DB12F4679
:1058F000E08B400607D530780A2804D1A06C0D2132
:10590000826820469047A06C16F8011B82682046EA
:105910009047013FECD1284601B0F0BD80B5FCF7BF
:1059200039FE00BFFEE7B0B543F23430C2F20020CA
:105930000468FAF7BDFC0546204637F0E3FA04F1A7
:105940005C0038F059FF012084F83800204638F018
:1059500075FA2846FAF7B0FCBDE8B04037F0AAB9AE
:1059600070B582B004469C46089D1830DDE90636C5
:10597000C4E9060004F12400236380E80610232113
:1059800060461A4636F0B6FBD4E90B1245F62713EB
:105990000A44606AA16A043AC0F2002335F048FF65
:1059A000202E206204D319A021A1C62234F028FEA3
:1059B00045F6412284F83A6084F83960002104F108
:1059C0004000C4E90F10C4E9110104F15C00E16476
:1059D00084F85010C4E91555C0F20022616384F8C0
:1059E0003810C4E923112346CDE90011214638F0CF
:1059F0005DFF43F2F830C2F20020016821B1204679
:105A000002B0BDE87040084702B070BD7072696FA7
:105A100072697479203C2052545F54485245414485
:105A20005F5052494F524954595F4D415800000050
:105A30005F7468726561645F696E6974000000007C
:105A4000B0B5044650B942F27B0042F2BE11C0F23A
:105A50000820C0F208218B2234F0D2FD94F83800DF
:105A600040070AD442F2A80042F2BE11C0F2082058
:105A7000C0F208218C2234F0C3FD204636F050FEDF
:105A800001280AD042F2EA0042F2BE11C0F2082018
:105A9000C0F208218D2234F0B3FDFAF709FC21464B
:105AA000E36905466FF0740051F8182F60632046D3
:105AB0005360E369E1611A60096037F0CFF9284665
:105AC000FAF7FAFBBDE8B04037F0F4B82DE9F04F33
:105AD00081B014468DF803100DF103020221054632
