:020000040200F8
:10000000006A02222934000269140002AF030002D0
:100010004114000241140002411400024114000284
:100020000000000000000000000000004114000279
:100030004114000200000000E70200029D340002AB
:1000400069F301026DF401021DF40102E3F2010201
:1000500007080102033A0102773A0102ED3A010270
:100060008539010275380102E9380102BDD9000263
:1000700057F60102A3F701028FD70002000000002B
:100080000000000000000000000000000000000070
:100090000000000000000000000000000000000060
:1000A0000000000000000000000000000000000050
:1000B0000000000000000000000000000000000040
:1000C0000000000000000000000000000000000030
:1000D0000000000000000000000000000000000020
:1000E0000000000000000000000000000000000010
:1000F0000000000000000000000000000000000000
:1001000000000000000000000000000000000000EF
:1001100000000000000000000000000000000000DF
:1001200000000000000000000000000000000000CF
:1001300000000000000000000000000000000000BF
:1001400000000000000000000000000000000000AF
:10015000000000000000000000000000000000009F
:10016000000000000000000000000000000000008F
:10017000000000000000000000000000000000007F
:10018000000000000000000000000000000000006F
:10019000000000000000000000000000000000005F
:1001A000000000000000000000000000000000004F
:1001B000000000000000000000000000000000003F
:1001C00000F002F800F067F80AA090E8000C824402
:1001D0008344AAF10107DA4501D100F05CF8AFF2DF
:1001E000090EBAE80F0013F0010F18BFFB1A43F015
:1001F00001031847E8470200284802000A4410F8A3
:10020000014B14F00F0508BF10F8015B240908BF6B
:1002100010F8014B6D1E05D010F8013B6D1E01F862
:10022000013BF9D1641E03D0641E01F8015BFBD1D0
:100230009142E4D370470000103A24BF78C878C1D7
:10024000FAD8520724BF30C830C144BF04680C60DC
:10025000704700000023002400250026103A28BF24
:1002600078C1FBD8520728BF30C148BF0B60704728
:100270001FB520F0ADF800F097FC0400002000212D
:1002800020F090F8401C606000F0E8FE1FBD10B543
:1002900000F04DFF10BDDFF810D0FFF7E9FF01F0CF
:1002A000CAF801F04DF80000004A022203B4FFF73B
:1002B000EEFF03BC04F052FEEFF3108072B67047FD
:1002C00080F310887047484A1368012B04D04FF020
:1002D00001031360454A1060454A116045484FF0DC
:1002E000805101607047EFF3108272B63E4801689A
:1002F00079B34FF0000101603C48016891B1EFF320
:1003000009811EF0100F08BF21ED108B21E9F00FBD
:100310004FF000041EF0100F08BF012441F8044DF7
:100320000068016000B503F064FA5DF804EB304941
:100330000968096808C9B1E8F00F002B18BFB1ECD3
:10034000108B81F309884EF0100E002B18BF2EF091
:10035000100E82F310884EF0040E70472449086096
:10036000EFF3148222F0040282F314881F494FF045
:10037000000008601C494FF0010008601E481F493A
:10038000D0F8002041EA020101601A484FF0805184
:1003900001601B480068006800BF80F3088861B6F0
:1003A00062B6BFF34F8FBFF36F8F704700BFEFF39D
:1003B00008801EF0040F01D0EFF3098020E9F00F50
:1003C00040F804ED40F804ED1EF0040F02D080F375
:1003D000098801E080F3088800B51AF06DFC5DF82B
:1003E00004EB4EF0040E70473C080222780602220D
:1003F0008406022204ED00E020ED00E00000FFFF93
:1004000008ED00E07047000010B500F0CDFB001DC6
:1004100010BD00BF91FF010053EA020C00F069809B
:100420002DE9F04B4FF00006002B1FBFB3FA83F508
:1004300003FA05F424FA05F65E4012BF1643B2FA39
:1004400082F502FA05F4C5F120051EBF22FA05FC6B
:1004500044EA0C04203556EA044C4FEA144418BF11
:10046000641C4FF000084FF00009904271EB030C40
:1004700039D3002919BFB1FA81F701FA07F6B0FAAA
:1004800080F700FA07F6C7F120071EBF20FA07FC25
:1004900046EA0C062037B6FBF4FCA7EB0507103F35
:1004A00007F01F0BCBF120062CFA06F60CFA0BFB1B
:1004B00044BFB3460026202FA4BF5E464FF0000B7A
:1004C0005BEA060C08BF4FF0010B19EB0B0948EB78
:1004D0000608ABFB027C06FB02CC0BFB03CCC01B6B
:1004E00071EB0C01C1E70B46024641464846BDE8A8
:1004F000F08B13B5084318BF4FF0FF300146AFF340
:100500000080BDE81C40704770B5064600F050FB07
:100510000468054630460A22002100F04DFB2C609D
:1005200070BD00002DE9F041044616460D464769AE
:10053000007B80072ED0384604F021FD50BB3EB32F
:10054000012E02D0022E25D104E0204600F06CFBE3
:1005500005441DE0384604F006FDE168002841F03E
:100560001001E16005DA204600F080FB0120BDE8C3
:10057000F081C9030BD56268E16A914200D8114647
:10058000A26911442269891A814200DD08460544A6
:10059000002D01DA0220EAE7E16A6068E268814240
:1005A00006D29103E06203D522F4003141F010023B
:1005B000A6690027AE4213DCE16A814201D90B46ED
:1005C00000E0034603EB060C2369ACEB030CAC45DF
:1005D00006DD814201D98C4600E084469C4505D168
:1005E000A760276042F02000A5620DE0AD1BE66920
:1005F000AE1B8142A66000D90846C01A281A2060A6
:100600005819606022F0200003490840E060002093
:1006100084F84870ABE70000BFCFD7FF2DE9F04169
:100620000C461646070047D0104600F06FF82078B9
:10063000611C61280AD0722802D077283CD102E0E0
:100640000125002405E00225042402E0082448F2E4
:10065000020511F8010B2B2806D0622809D011F8E9
:10066000010C74280AD00BE045F0030544F00204A5
:10067000EFE745F0040544F00104EAE744F0100414
:100680003846214604F07FFC411C15D00021316121
:1006900071604FF40071F560F1617061200704D55D
:1006A000304602220021FFF73DFF306D40F001008F
:1006B00030653046BDE8F0810020FBE72DE9F041D0
:1006C0000D460646104C206DC10704D0410804D0E9
:1006D00020F00104F7E722460EE0542012F02FFF2D
:1006E00007000ED0206D47F001010843542120651A
:1006F000384600F0C5F93A4629463046BDE8F04193
:100700008CE70020D6E7000000E001222DE9F04749
:1007100004464FF0FF380026C568D4E90497A807BF
:1007200018D0204600F0E2FA384604F011FC002808
:1007300000DA4646280502D548460FF07FFE4C21D8
:10074000204600F09DF9206D20F001002065304624
:10075000BDE8F0874046FBE7401ECAB210F8011F13
:100760008A4202D00029F9D10020704730B50546F1
:100770000B462A4613F8014B12F8010B08B1A042B0
:10078000F8D01CB1002802D06D1CF1E7284630BD1E
:1007900040EA010310B59B070FD1042A0DD310C8FE
:1007A00008C9121F9C42F8D020BA19BA884201D950
:1007B000012010BD4FF0FF3010BD1AB1D30703D098
:1007C000521C07E0002010BD10F8013B11F8014B4E
:1007D0001B1B07D110F8013B11F8014B1B1B01D16A
:1007E000921EF1D1184610BD40EA0103024630B511
:1007F0009B0710D14FF0013400E008C208C91D1B4F
:100800009D4315EAC41FF8D013F0FF0102F8011B45
:100810000DD01B0AF8E711F8013B002B02F8013B51
:1008200005D011F8013B002B02F8013BF3D130BD9C
:100830000022CBB210F8011B994200D1421E0029C0
:10084000F8D11046704710B5431C02E010F8011BA8
:1008500071B18107FAD14FF0013202C88C1A8C4372
:1008600014EAC211F9D0C01A0A0603D0C01E10BD86
:10087000C01A10BD0A0401D0801E10BD0902FCD0B0
:10088000401E10BDCBB22AB101788B4203D0401C70
:10089000521EF9D10020704740EA010370B59B0752
:1008A0002ED14FF00136042A2AD308C810C99D1B47
:1008B0009D43121F15EAC61517D0D8B2E1B2401AEF
:1008C00050EA056110D198B2A1B2401A50EA054130
:1008D0000AD123F07F4024F07F41401A50EA0521DD
:1008E00002D1180EA0EB146070BDA342DBD018BA81
:1008F00021BA884201D9012070BD4FF0FF3070BD90
:100900000AB9002070BD10F8013B11F8014B63B12A
:10091000A3420AD1521E08D010F8013B11F8014B36
:100920001BB1A34201D1521EEDD1181B70BD032A89
:1009300040F2308010F0030C00F0158011F8013BFC
:10094000BCF1020F624498BF11F801CB00F8013BE3
:1009500038BF11F8013BA2F1040298BF00F801CBA7
:1009600038BF00F8013B11F0030300F02580083A7E
:10097000C0F0088051F8043B083A51F804CBA0E8D5
:100980000810F5E7121D5CBF51F8043B40F8043B2A
:10099000AFF30080D20724BF11F8013B11F801CB5F
:1009A00048BF11F8012B24BF00F8013B00F801CB30
:1009B00048BF00F8012B704710B5203AC0F00B80FB
:1009C000B1E81850A0E81850B1E81850A0E8185045
:1009D000203ABFF4F5AF5FEA027C24BFB1E81850BB
:1009E000A0E8185044BF18C918C0BDE810405FEA1D
:1009F000827C24BF51F8043B40F8043B08BF704799
:100A0000D20728BF31F8023B48BF11F8012B28BF9D
:100A100020F8023B48BF00F8012B704702F0FF03AB
:100A200043EA032242EA024200F00AB802F0FF035E
:100A300043EA032242EA024200F024B84FF00002E7
:100A40000429C0F0128010F0030C00F01B80CCF1E0
:100A5000040CBCF1020F18BF00F8012BA8BF20F84E
:100A6000022BA1EB0C0100F00DB85FEAC17C24BFA2
:100A700000F8012B00F8012B48BF00F8012B70474C
:100A80004FF0000200B5134694469646203922BF27
:100A9000A0E80C50A0E80C50B1F12001BFF4F7AF72
:100AA000090728BFA0E80C5048BF0CC05DF804EB54
:100AB000890028BF40F8042B08BF704748BF20F8C2
:100AC000022B11F0804F18BF00F8012B704710B5B2
:100AD000044610F0030F08BF11F0030F40F015801B
:100AE0004FF0013E121FC0F20E8051F8043BA3EB01
:100AF0000E0C2CEA030C1CEACE1C08BF40F8043B89
:100B0000F0D0A1F1040102F10402521E08DB11F839
:100B1000013B00F8013B002BF7D11146FFF78EFF98
:100B2000204610BD0000000030B44FF0013C50F8EA
:100B3000042B51F8043BCCFA52F4D51A20D1FCB95D
:100B400050F8042B51F8043BCCFA52F4D51A17D1C3
:100B5000B4B950F8042B51F8043BCCFA52F4D51A2E
:100B60000ED16CB950F8042B51F8043BCCFA52F476
:100B7000D51A05D1002CDAD030BC4FF000007047F8
:100B800029BAB1FA81F111F01801D1F120008440A5
:100B9000F2D1CA40CB4012F0FF0213F0FF0330BC89
:100BA000D01A704770470000004870471CE10122CE
:100BB00000487047FCE001222DE9F04791460F46BE
:100BC00080460446002614F8015B2DB1FFF71CFC9B
:100BD0000068405DC007F6D12B2D02D02D2D18D016
:100BE000641E4A463946204600F0C4F827B13968E9
:100BF000A14201D1C7F800804FF0020471050BD566
:100C00004042002803DDFFF7D3FF0460A007BDE8E2
:100C1000F08746F48066E4E70028F8DAFFF7C8FFBB
:100C200004606FF00040F2E710B50146C26890071B
:100C300003D0900607D5886A0AE0FFF7B9FF0121C3
:100C40000160881E10BD8B69486818440B69C01A82
:100C500091F848301BB191F84910401A10BD1103AA
:100C6000FCD50028FADD401E10BD0000C16821F44B
:100C7000001141F08001C160002181600160704776
:100C80002DE9F74F15460C464FF0FF3B3848D76823
:100C9000D2F814A0074209D05046A96904F00CFA12
:100CA000002819DB3248C0430740EF604FF000498D
:100CB0006FF000484C4501D3464600E026460099B7
:100CC0003B465046324604F0FEF9A96920F0004246
:100CD000B21A1144A96128B12846FFF7C7FF584648
:100CE000BDE8FE8FA41BE5D10020F9E770B50446EE
:100CF0000569C06A6168884200D80846E16821F445
:100D00002011E160C90312D5A84208D02246411B38
:100D10002846FFF7B5FF10B14FF0FF3070BD00203F
:100D2000E562C4E90150E06820F48030E060002012
:100D300070BD10B50446C06820F02000E060A16AD4
:100D4000A06988420DD02046FFF7D0FFE06820F46C
:100D5000405040F01000E060A06AA0612069E062AD
:100D6000606044F24001E0688843E06010BD00002C
:100D7000100002002DE9F05F824615468B460027E1
:100D80000AF10104B9460078302801D09DB113E082
:100D900014F8010B0127782803D0582801D045B159
:100DA0000AE00DB1102D07D1002714F8010B102512
:100DB00002E0082500E00A250026B0460EE005FB0B
:100DC000080005FB06F101271FFA80F801EB104629
:100DD000B6F5803F00D3B94614F8010B294600F060
:100DE000D9F90028EBDABBF1000F05D00FB1641E72
:100DF00000E05446CBF80040B9F1000F06D0FFF7F1
:100E0000D7FE02210160C81EBDE8F09F48EA0640F7
:100E1000FAE770B50D4601461446D36850692A4674
:100E200004F0F0F8002807DA411C07D0E16820F050
:100E3000004041F48041E160281A70BD2046FFF770
:100E400015FF4FF0FF3070BDC1680022026021F431
:100E5000805141F0400111F4C06FC16001D0826047
:100E6000704702694168891AC269891A81607047AE
:100E70002DE9F05F04468946C06840F4800010F414
:100E8000C06FE06008D0204600F03EFA20680028DD
:100E900002DD401E206033E0E068010312D520F43B
:100EA0000020E060810606D4E26A61688A4200D8C8
:100EB0000A46511A216040F40010E06094F82500C1
:100EC000BDE8F09F20F40010E060800602D52046C7
:100ED000FFF72FFFE06842F281014FF0FF3A014037
:100EE000012903D02046FFF7C1FEB0E021680026AB
:100EF00000290ADAC94340F480502160C4E9026045
:100F00006068411C61600078DAE744F24001084201
:100F10000CD020F4A04040F040002660E060216941
:100F20006068401AE169401AA06090E0216991B9B7
:100F3000C00310D4E06912F002FB2061B0B1E06898
:100F400040F4006010F4407FE06002D140F4807013
:100F5000E06020696060E068D4F814B0C1061AD57A
:100F6000C0030ED52046FFF7C1FE14E004F12400B3
:100F700020610120E061E06820F4407040F480606E
:100F8000E6E721696068401AA1690144584604F007
:100F900093F80028A6DBE068C0032BD56168E06AFF
:100FA000884200D808462169451AE069471B1CD0D1
:100FB0002046D4F81880FFF799FE08EB0501584643
:100FC000C4F8188004F078F800288BDBE068B9F1E9
:100FD000000F40F40030E06002D0A0692844A06116
:100FE000E1692069C91B45180DE02046FFF77EFE28
:100FF000E769F5E725696168D4E90607491BE562F9
:1010000008446560A061E068B9F1000F20F01000AD
:1010100040F48050C4E9026005D02069E06260605D
:101020006FF001004CE7224639462846FFF7F1FEF3
:10103000411C0CD02918E16258B1401E2060681C88
:101040006060E06840F40030E060287838E750469F
:1010500036E765602046FFF7F7FEF8E710B542482F
:101060005421FFF70DFD41485421FFF709FD404889
:101070005421FFF705FD3F493B483C4A3F4B086080
:101080003D490A603A491960531C0365481C1065C4
:10109000012008653B48344A39A17844FFF7BEFA7D
:1010A00020B9384878440A3800F053F937482F4AB5
:1010B00035A17844FFF7B2FA20B9344878440A38A9
:1010C00000F047F932482A4A2FA17844FFF7A6FAE0
:1010D00020B92F4878440A3800F03BF940232248D1
:1010E000DC000021224600F063F820B12548784456
:1010F000543800F02EF91D4822464023002100F00C
:1011000057F820B121487844543800F022F91848A3
:1011100022461023002100F04BF8002806D01C487E
:101120007844BDE81040563800F013B910BD10489F
:1011300070B5006D20F001040B48FFF7E7FA0B488B
:10114000FFF7E4FA0A48FFF7E1FA09E0206D20F022
:1011500001052046FFF7DAFA20460FF06FF92C461A
:10116000002CF3D170BD000000E0012254E0012208
:10117000A8E0012214DC012218DC01221CDC01227F
:101180007200000019F401007700000007F401006C
:10119000E2F301003A2800D2303820F02002412A40
:1011A00001D3A2F13700884201D34FF0FF307047DE
:1011B00070B5C468A50713D0650211D4B2F5807F5D
:1011C00009D0B2F5007F06D0B2F5806F08D10123B7
:1011D00000F1240106E05D1E6FF07F46B54201D3A9
:1011E000012070BD0161C361416024F4706111434D
:1011F000C160002070BD2DE9FF5F1C468B4607468D
:10120000080061D000250299284626680BFB01F9E9
:101210005EE0002E5EDCE06948453FDABAF1000F7F
:101220003CD0207B800601D5A06A04E0A1696068FB
:1012300008442169401A2246A9EB05018046384638
:10124000FFF7E7FD002812DD8044A8F10101074403
:10125000A161226917F8011C00260544117021695B
:10126000491CE1626160E16841F40031E160411CC8
:1012700003D010B1207B400640D52046FFF7E4FDA7
:10128000C4F8188020696060E062E068266020F49D
:101290000030E060E0694042A06013E0484501DAB8
:1012A000012100E000212046FFF7E2FD411C08D0AB
:1012B000811C0CD02668002809DB6D1C07F8010B87
:1012C0001CE02660B5FBFBF004B0BDE8F09F0120F8
:1012D000824613E0A9EB0500B046B04200DA804632
:1012E000384642466168FFF722FB6168A6EB0806B4
:1012F000474401EB0800C4E9006045444D4588DBE4
:1013000026600298E0E7000070B5054640F202262C
:101310000A4C0FE094F85000C00708D0AC4206D049
:10132000E06836EA000002D1204600F019F8206D8E
:1013300020F00104002CEDD170BD000000E001227E
:1013400010B50446AFF300802046BDE81040FEF71C
:10135000ADBF10B500F03CF8BDE8104000F032B869
:1013600070B50446C068810713D0800601D5A56A10
:1013700004E0A169606808442169451A2046FFF726
:10138000B5FC0022064629462046FFF7CBF830463A
:1013900070BD002070BD70B510B1BDE87040DFE7D2
:1013A0000025074C6E1E07E02046FFF7D9FF00B16D
:1013B0003546206D20F00104002CF5D1284670BD83
:1013C00000E00122002801D003F0C8BD70470000F2
:1013D00010B5014602A000F015F8012010BD000074
:1013E00053494752545245443A20526564697265E4
:1013F00063743A2063616E2774206F70656E3A20C3
:101400000000000070B505460C460A2000E06D1C87
:1014100004F008F835B128780028F8D102E0641CFF
:1014200004F000F814B120780028F8D1BDE870402D
:101430000A2003F0F7BF80B51DF03EFF002080BDFD
:1014400000BE704710B504461AF03CF92068032826
:1014500005D140F65C00C2F2022018F0D9FEBDE8CA
:1014600010401AF052B90000F0B581B04CF20015EE
:101470004FF6A027C4F200050024C2F201272888F5
:10148000298C084086B200BF26FA04F0C00703D0BA
:10149000396809B12046884701340437102CF3D14C
:1014A0002E8200BF288C3042FCD101B0F0BD00007C
:1014B000B0B542F22404C820C4F220040121002562
:1014C000257100F082F82570207808B12FF005C052
:1014D000207840F00200207020788007FCD40020A3
:1014E00004F8020C14F8020C08B12FF005C84FF0F4
:1014F000030E002004F11C0111F8102002F07F02FD
:1015000001F8102011F91020002AFBD401300FF04F
:101510000DC8012000F00BF84EF64C410120C4F23A
:10152000010100220A70BDE8B04000F027B880B584
:10153000EFF31081012282F310884FF65032C2F28D
:10154000012232F810308BB940F26C5C4EF2FA3E58
:10155000C0F2022CC4F2010E3CF810C0BEF80030FC
:1015600043EA0C0343F42543AEF8003032F8103060
:10157000013322F8103081F3108880BDEFF3108121
:10158000012282F310884FF65032C2F2012232F863
:10159000103023B132F81030013B22F8103032F80D
:1015A00010207AB94EF2FA3240F26C5CC4F20102B9
:1015B000C0F2022C13883CF8100043F4254323EAC0
:1015C0000000108081F3108870474EF268124CF6CC
:1015D0000023C2F20122C3F69A3341434FF47A7CCE
:1015E0001268B3FBF2F2A1FB0C3010B9B3FBF2F0BE
:1015F00004E0B1FBF2F0A0FB0C0119B908B104F052
:101600004BB870474FF0FF3004F046B870470228DF
:1016100018BF704740F6A440C0F2022041684FF660
:101620001C30C2F2012000F07BBDB0B5014640681D
:101630004AF6800C00224068C4F2000C03784CF893
:1016400023208B681A778369C3B143684EF28015F3
:1016500003F01F0C5B09CEF200054FF0010E0EFAED
:101660000CF445F823404FF60C63BFF34F8FBFF3E4
:101670006F8F4068C2F2012343F8202000200A60E7
:10168000B0BD41684AF6800CC4F2000C00234968E2
:101690000A784CF82230826813770A7849694CF846
:1016A0002210816800204B7770478168002001225A
:1016B0000A77704780684FF480628A604FF4803206
:1016C0000A60028AC3684B6000238068B3EB923FD4
:1016D00080B2C86002D14FF6FF708860002070476A
:1016E0002DE9F0410D46496804464AF200080978A0
:1016F000C4F200084560012608EB8110A06043F2A7
:101700000000EFF31087C4F2200086F31088016810
:1017100021F480010160006896200121FFF755FF48
:1017200087F3108888F800682968204617F062FA65
:1017300044F243110020C4F24D412160BDE8F08124
:1017400010B5044617F056FAA168002001220A7766
:1017500010BD0620704780B582B0019100924168AB
:101760004AF6800CC4F2000C4FF0000E49680A786B
:101770004CF822E0826882F81CE00A7849694CF84B
:101780002210816881F81DE0019911B101998268E8
:101790001160009911B100998268516081680C2232
:1017A000B1F810C0BCF5804F38BF08228B50012221
:1017B000816800200A7702B080BD8268090100209C
:1017C0000131517770478168002000224A777047C5
:1017D00043F200101302C4F23400C358DB071AD1DD
:1017E0006FF0FF03C358DB0515D400EB0220032282
:1017F00000295FEA0F9C08BF0122036A23F002035D
:101800001A430262C0F804C0C160016841F00101DE
:1018100001600020704740F2EE3070472DE9F04F34
:1018200081B043F208088246C4F22008002707600E
:101830000120EFF3108480F31088D8F800000D46E3
:1018400020F01000C8F8000043F20449D8F8000066
:1018500043F2000B96200121C4F23409C4F2340B88
:10186000FFF7B3FE84F310884023DBF8000040F458
:101870008030CBF80000D5F8A400296C0329D0E90A
:10188000042008BF4FF4825300F03F00002A08BF35
:1018900003F580731844C9F84C00286DD5F8A410DE
:1018A000002818BF4FF4BC70CBF8E403C9F80070EF
:1018B000D1E90032581C886840F24C51C0F2022134
:1018C00012D02F6B2FB9D9F8187047F01007C9F84C
:1018D000187051F823301F6847F002071F60EB8D26
:1018E0006FF3DF23C9F81430531C10D0EB6B2BB906
:1018F000D9F8083043F01003C9F8083051F8222015
:10190000136813606A8F6FF3DF22C9F80420421C4A
:101910001ED0EA6C12B90122C9F8242051F8200027
:10192000016841F007010160A88D698D6FF3DF2028
:101930006FF3DF2141EA0040C9F81C00288FE98ECF
:101940006FF3DF206FF3DF2141EA0040C9F80C009C
:10195000A88E298D4FF6EC236FF3DF20C2F201230E
:101960006FF3DF2141EA0040CBF804004FF0011093
:10197000CBF80800A88D698D01306FF3DF216FF37C
:10198000DF2041EA0040CBF81000288FE98E0130BB
:101990006FF3DF216FF3DF2041EA0040CBF80C004A
:1019A00095F8550095F8561095F85420000240EA35
:1019B00001404FF6E4211044CBF81400C2F201219B
:1019C000A88D6A8D08804FF6E821C2F20121288F88
:1019D0001A80002208804FF6F021C2F20121E88E21
:1019E000088005F16C01284617F0DEF905F11400B6
:1019F00005F17C01012217F0D7F9D5E9100182A287
:101A000095F868707CA4AB6C52F82020002F54F835
:101A100020704FEA024215D0D5F8A440A669022EE4
:101A20000ED104F11C0EA46A9EE84050360346EA2B
:101A30000C2646EA0E162643324342F4001201E019
:101A400042F480123E034FF08054012948F2800195
:101A500008BF44EA0736012BC0F2800108BF46F0F8
:101A6000807603284FF4007008BF06F50076CBF8A7
:101A7000C463CBF8D423CBF8C8034FF00220CBF8D3
:101A8000CC03CBF8D0134FF6F422D5E92701CAE9ED
:101A90000101288FE98EC2F20122CAF80C50C2F867
:101AA00000A008440130DBF8501260F30A01CBF8C3
:101AB0005012DAF80C00D0F8A400C16A07C9126805
:101AC0009047054698B10120EFF3108480F3108809
:101AD0000121D8F8000040F01000C8F80000D8F844
:101AE00000009620FFF771FD84F3108880E0062047
:101AF000C9F83C000720C9F84000DAF80C304EF273
:101B000000104CF200314FF60C62D3F89070CEF218
:101B10000000002FC4F20001C2F201221FD493F88A
:101B20008C30C61901241B0186F8003342F827A027
:101B300051F8273023F4803341F8273051F827300B
:101B40007B0907F01F07BFF35F8F00EB830604FAE2
:101B500007F7C6F8807140F82370DAF80C30D3F834
:101B60009470002F1FD493F88D30C61901241B01E7
:101B700086F8003342F827A051F8273023F4803349
:101B800041F8273051F827307B0907F01F07BFF3D2
:101B90005F8F00EB830604FA07F7C6F8807140F800
:101BA0002370DAF80C30D3F89870002F1DD493F816
:101BB0008E30C6191B0186F8003342F827A007F0C3
:101BC0001F0351F8272022F4803241F8272051F8D2
:101BD000271079090127BFF35F8F00EB810207FA15
:101BE00003F3C2F8803140F821300120CAF8000028
:101BF000284601B0BDE8F08F0000000001000000A1
:101C000002000000030000000000000001000000CE
:101C1000020000000000000010B50446C068D0F8C3
:101C2000A400C06A816800688968884743F200019F
:101C3000C4F234010A6842F480720A600A6842F011
:101C400001020A60D1F8402442F00102C1F84024A8
:101C50000221216010BD844641610020CCE906329A
:101C60007047B0B543684EF2801E4FF60C6CCEF252
:101C7000000E59691B6A0029C2F2012C0ED44A09D0
:101C800001F01F04012505FA04F44EF82240BFF3C9
:101C90004F8FBFF36F8F00224CF82120996B0029E2
:101CA0000ED44A0901F01F04012505FA04F44EF888
:101CB0002240BFF34F8FBFF36F8F00224CF82120DB
:101CC000D96B00290ED44A0901F01F03012404FA3C
:101CD00003F34EF82230BFF34F8FBFF36F8F002214
:101CE0004CF82120816800220260C3688B60816803
:101CF00000204A63B0BD81684FF000420A618168EC
:101D00004A6181688A61002281684A628168002094
:101D10008A6270472DE9F04383B01646044602F00C
:101D20000309002001904FF0FF3000906A462046E2
:101D3000334688460EF07EFEA268156B019FAFB950
:101D40000421300758BF0221B007009802F14C026D
:101D500003D4494402EB810107E042F8210041F03D
:101D60000101A26802EB81014C31086070060CD4BD
:101D7000022E39460FD139466FB16A4601232046FB
:101D800041460EF057FE019905E0A068016C41F450
:101D900080010164394625F44030B9F1010F18BFC4
:101DA00040EA074525F04072A368B9F1000F4FF0F3
:101DB000000018BF42EA01651D6303B0BDE8F0836F
:101DC00080B54168D0F808E0096AD1E904C38A699E
:101DD00043F00043CEF8143042F0004283689A6129
:101DE0004CF00043826813618268CB695362826859
:101DF0000020096A916280BDF0B58068426E0132B0
:101E00008A60D0F82CC04EF22000C4F201000268B3
:101E1000007942EA000300F00F001B0702F00F03F5
:101E200008D44EF26812C2F20122126802FA00F0DF
:101E3000D8401BE000F0070E032707FA0EF44EF21D
:101E4000681EC2F2012E0125082838BF05FA00F4E9
:101E500002F00700DEF8006007FA00F006FB04F766
:101E6000120758BF05FA03F0B7FBF0F0CCF3C352EA
:101E7000012320FA02F20020C1E90032F0BD2DE971
:101E8000F04782B00D46097C814642F200030729E3
:101E90005FEA9F9202614F46287CC4F2320301221E
:101EA0000024D5F820A04FF0004803EB002047F8AD
:101EB000080F02FA01F0786047F8045CA869F8603E
:101EC000E86978613C61EFF3108682F31088287C22
:101ED00043F21001C4F2200128FA00F00A6822EA55
:101EE00000000860086896200121FFF76EFB86F36A
:101EF00010884FF42541386801603868C46238683A
:101F0000C463386884642868A968032838684FEA7D
:101F1000C1516A6808BF01F58031C1623868C0F8F4
:101F200010803868C0F814803868C0F818803868A5
:101F30004462386884623868DAF82410C16138680D
:101F4000DAF828100162511E3868816638684166E7
:101F50004FF0FF302968DAF844800129019400909D
:101F60000DD029B968684FF0FF3101EB500006E051
:101F7000E9686A46002348460EF05CFD009839681F
:101F80004865396888652968042903D33968C865B4
:101F900039680866DAF844000028019837D19AF8C1
:101FA0000010B1B12A68DAF80410022A03D0032A1B
:101FB00003D1032205E0092203E00922002908BF1A
:101FC00006220B0143EA8111114441EA080141F460
:101FD00080789AF80810D1B12A68DAF80C10022A31
:101FE00004D0032A05D14FF4403208E04FF4102208
:101FF00005E04FF41022002908BF4FF4C0220B0562
:1020000043EA8151114441EA080141F0807839687E
:1020100000228A633968C1F88820DAF8441031B99F
:10202000DAE90B12490341EA427148EA01083968CA
:102030004FF4AA020A642968012904D139680022F0
:10204000CA6439680A65D9E90212CA60D9F8081069
:10205000C1F834800104D9F8082041EA0060C11CAD
:10206000013011634A46D9F808100863697C686931
:1020700016F0ECFF9AF83410DAF838004A4616F0F9
:10208000E5FF9AF83510DAF83C004A4616F0DEFF14
:1020900045F254010020C0F24701C9F8001002B017
:1020A000BDE8F08783684A1E9A6643681B684BB98F
:1020B000D0F808C04FF0FF3303EB5101CCF85410B7
:1020C000836899658168CB6ADB0707D14A664FF45C
:1020D000AA0281680A64D0E90210C8600020704733
:1020E000014682680020C968D16070470146826855
:1020F0000020C968516070478268D06A00F0010012
:1021000048600020926C0A60704701468268002097
:10211000C968916070470146002000220A6070473C
:1021200080B545F25422C5F24F020260084616F00F
:10213000B9FF002080BD70B586B001A8049003A847
:1021400014460D46CDE901210126ADF80C6003F0DF
:10215000A7FA4FF65830EFF31081C2F2012086F350
:10216000108802683AB940F614520023C4F24002C3
:1021700013704023137002680132026081F31088EB
:10218000E10340F600014FEA1522C4F2400101D4F8
:10219000EBB20CE001EB8216EBB256F8235025F4BB
:1021A000803546F8235024F4803546F8235001EB5F
:1021B0008211012241F82340EFF3108182F310884D
:1021C000026812B10268013A0260006838B940F64C
:1021D00014500022C4F2400002708022027081F389
:1021E0001088002006B070BD4FF4FF50042300EAB1
:1021F000D100C4F24003C9B2C0580023CFF6FF7328
:1022000043EA104020FA01F1002001F001011160C1
:10221000704780B5C8B24FF0010C531E0CFA00F0A5
:1022200050EA138E4FF4FF5C0C230CEAD101C4F288
:102230004003012A18BF0020012A41EA030CCA58B2
:1022400008D180B24FF6FF7141EA0E41104300EA17
:10225000010205E042EA0E41CFF6FF7001EA0002FA
:102260000020CCF8002080BD6FF03F00CBB200EA28
:10227000910040F6000100EB8300C4F24001415898
:102280000020C1F340011160704780B55FFA81FE04
:10229000012000FA0EF0002A83B24FF4FF5040F202
:1022A00008024FF4803C00EAD101C4F240024FF032
:1022B000000008BF0CFA0EF38B5080BD80B50846B5
:1022C00016F0F0FE002080BD80B54FF4FF5040F2C4
:1022D000000C00EAD101C4F2400C03EA020E62EAEB
:1022E000030251F80C004EEA000E002002EA0E0232
:1022F00041F80C2080BD4FF4FF5000EAD1000421CA
:10230000C4F2400141580020090C1180704723EAB3
:10231000020C4FF4FF501A400C2300EAD101C4F222
:102320004003002042EA0C42CA5070474FF4FF506D
:10233000042300EAD101C4F240030020C9581180EF
:10234000704723EA020C4FF4FF501A40082300EABA
:10235000D101C4F24003002042EA0C42CA50704747
:102360002DE9F04146F204158046C4F234050BF025
:10237000B9FBD8F80C10286820F0010028604FF64F
:10238000E0200322C2F201200260497BD5F81C2222
:10239000C2F3C0628A421CBF0268002AF6D100253F
:1023A0000560D8F80CC00126DCF874104A6802F009
:1023B0001F0354094EF2801206FA03F3CEF2000214
:1023C00042F824304FF60C63BFF34F8FBFF36F8F8B
:1023D0004C68CF68C2F20123780907F01F0743F861
:1023E000245006FA07F742F82070BFF34F8FBFF36F
:1023F0006F8FC8684F697C0943F8205007F01F00B1
:1024000006FA00F042F82400BFF34F8FBFF36F8F3E
:102410004869CF697C0943F8205007F01F0006FA8D
:1024200000F042F82400BFF34F8FBFF36F8FC869ED
:102430004F6A7C0943F8205007F01F0006FA00F0AD
:1024400042F82400BFF34F8FBFF36F8F486ACF6A03
:102450007C0943F8205007F01F0006FA00F042F80C
:102460002400BFF34F8FBFF36F8FC86A43F820502B
:10247000DCF80000006816F077FE43F20800C8F8A8
:102480000050C4F22000EFF3108486F31088016836
:1024900041F480610160006896200121FFF795F802
:1024A00084F310880020BDE8F081F0B546F2C050FA
:1024B0004FF65022C4F23400CFF6FF728358DB0788
:1024C00014D18258D20611D491F800C04A6802F0A3
:1024D0000F058C89092D00EBCC1303F5E07307D3AE
:1024E0005FFA84FE250A4FF0807710E00820F0BDE7
:1024F00034B10D69012C95F800E006D1002702E007
:1025000000274FF0000E002501E06D78002702F053
:102510003F024EEA05250CF003048E6845EA0242AC
:1025200006F0400542EA84523A4306F0030742EAC5
:10253000C54206F0200542EA87621A606A0436073F
:1025400002F180724FF0140608BF6A04002D08BF24
:102550006A04002F4FF0807708BF1026C3E901728C
:10256000BCF1000F5FEA1F978A59DA6007600978AB
:1025700001295FEA1F9101640020F0BD2DE9F041BF
:1025800088B043F25042C4F234021268520601D4B9
:102590001E204AE10D464FF6E0284FF6046104463E
:1025A000C2F20128C2F201210020C8F80000087020
:1025B000E560EFF31086012080F3108843F20800F5
:1025C000C4F22000016821F4806101600068962057
:1025D0000121FEF7FAFF86F310882968D1E900018E
:1025E00016F0D8FD002840F0208146F20017C4F212
:1025F0003407386840F480703860386940F0010072
:10260000386100BF786900F01F001F28FAD1E87A0E
:10261000013840F440703860287BB96821F0FF0130
:102620000844B86095F82C00298D2A6B95F8343051
:1026300002F00F0241EA004095F8351040EA0250DE
:1026400095F8362040EA437040EA817040EAC27053
:1026500038626868D0E90021090480683FFA81F196
:1026600062F38B0141EA0060C7F814026868C06831
:102670006FF39F20C7F81802E869C7F81001286AAD
:10268000C7F81401686AC7F818012869C7F8E0019B
:102690006869C7F8E401A869C7F8E80128460BF0A3
:1026A000C7F96E6F306BC7F80801706BC7F8080286
:1026B000B06BC7F82802F06BC7F8180346F2D45085
:1026C000316CC4F234004160716C416440F210110D
:1026D000C7F60951016001640B204EF20751C0F2A8
:1026E000D000C5F2F771C7F81403C7F80411002031
:1026F000A061D5E91B01C4E90401304621460BF075
:10270000B7F906F1080021460BF0B2F906F1100006
:1027100021460BF0ADF906F1180021460BF0A8F99F
:1027200006F1200021460BF0A3F906F1280021460E
:102730000BF09EF944F644100322C4F6505020607A
:10274000E068396841F4807139600121C8F80010EF
:10275000417B002908BF01227A60407BD7F8201214
:10276000C1F3806181421CBFD8F800100229F5D165
:102770000220C8F8000095F83700A96B95F83C20B6
:102780000023C003C7F6FF7361F3154062F397504F
:10279000C7F8200395F84410286CAA6C6FF31F301B
:1027A00003EA024240EAC1301043C7F82803D5E9E2
:1027B00013016FF35F3061F31C40C7F82C0395F8E9
:1027C0005800E96D6A6D03EA01416FF31F3242EA76
:1027D000C0300843C7F83003D5E918016FF35F3004
:1027E00061F31C40C7F83403A86E43F6FC7101EA9C
:1027F0008000C7F80403A069062100916169039174
:1028000050B10DF1100C90E88E008CE88E009DE820
:102810008E0080E88E0000E0684621698847A06944
:1028200010B104AF8ECF8EC0002008B0BDE8F0819B
:1028300010B588B0044680694FF0070100916169C6
:10284000039150B10DF1100E90E80E108EE80E10AD
:102850009DE80E1080E80E1000E068462169884768
:10286000A06928B10DF1100C9CE80E1080E80E1044
:1028700046F200404FF61041C4F23400CFF6FF712B
:102880004258D2071DD14158C9061AD4E1680A7AC4
:102890004B7A897A120242EA432242EA81210131CB
:1028A00001604FF60461C2F2012100BF0269120704
:1028B00003D40A780AB92FF007C801200870002055
:1028C00000E0082008B010BD4FF6F05046F220227C
:1028D000CFF6FF70C4F234021058086010684860E8
:1028E000002053688B609360704780B50BF0FAF856
:1028F000002080BD10B511F0020C024606D0107900
:1029000000285FEA1F904FEA007E01E04FF0000EC2
:10291000137950794CEA030C01F0010343EA0004F7
:102920000028704608BF40F08070002B936850EA82
:102930001E8E43EA010046F20C139060C4F2340389
:10294000BCF1000F5FEA0F91002054711171C3F8C0
:1029500000E010BD70B511F00203024601D1002065
:1029600001E010794007002B53795FEA1F9C11F0BA
:10297000010E157906465FEA1F94002B18BF46F03A
:102980000076BEF1000F50EA0680002B5FEA0F933D
:10299000002D5FEA0F96234053710CEA060346F2BE
:1029A0000C16C4F23406137130600020936823EAD9
:1029B0000101916070BD00002DE9F04F81B00A78EF
:1029C0004FF0010C40F21F2304460CFA02F748F2C4
:1029D00000001F42C4F235005FEA0F9300EB0220B3
:1029E000A278206218012070886B606222F00300D8
:1029F000D1E90F38421CA2704A680D46002AE362F2
:102A0000E1614FF00002A26202D140F00200A0702A
:102A10004EF20019E96ACEF200094A0909F1800074
:102A200001F01F034CF2003A95F828B00CFA03F3BA
:102A300040F82230C4F2000A01F00F03BFF34F8FB9
:102A4000BFF36F8F5AF821201F1F09F540734EF610
:102A5000185E22F480324AF82120CEF2000E5E1871
:102A60005AF82120002948BF07EB0E064FEA0B1247
:102A70004FF60C6B3270C2F2012B6A6902F01F062E
:102A80002F7C4BF8214051090CFA06F6002A40F839
:102A9000216002F00F06BFF34F8FBFF36F8F5AF81C
:102AA000221021F480314AF82210A6F1040103EB30
:102AB000020648BF01EB0E065AF8221039013170A8
:102AC000E9694BF822404A0901F01F072E7E0CFAF3
:102AD00007F740F8227001F00F07BFF34F8FBFF3E5
:102AE0006F8F5AF82120002922F480324AF82120E1
:102AF000A7F1040203EB010748BF02EB0E075AF8E7
:102B0000212032013A706A6A4BF82140510902F0E3
:102B10001F0795F820600CFA07F740F8217002F0C3
:102B20000F01BFF34F8FBFF36F8F5AF822000439A4
:102B300020F480304AF8220013445AF82200002A78
:102B400048BF01EB0E03300118704BF82240EFF341
:102B500010868CF3108828784FF0004121FA00F09D
:102B600043F20401C4F220010A6822EA000008606E
:102B7000086896200121FEF728FD86F310884FF49F
:102B80008061206A4FF440738160286C6968EA684C
:102B900003EA0121D0E900C762F38E31C66907F06C
:102BA000010306F001020CF0030741EAC333266A71
:102BB00043EA4252237842EA076241F20007C0F238
:102BC0001007C168002B08BF4FF480573A44726168
:102BD000026822F00103022B07D14FF60471022A8A
:102BE000CFF6007108BF203100E00968226A4FF477
:102BF000407711618169AB68826801F00301022BA3
:102C000002F0010208BF4FF48077002B18BF39444F
:102C1000236A41EA02713031D9600021226A916150
:102C20002278B2B1226A48F20003C0F280035362F4
:102C3000E2692378276A126C013B12697E6A1A40A6
:102C400003F00F0302F00F0246EA036343EA024275
:102C50007A6290F82520036A90F8240003F00103BB
:102C600002F01F0260F30C23206A43EA024202636F
:102C70001022206AC4E90511C4E90311C9F60752FC
:102C8000D8F81410A16082660120216A0867E16902
:102C90004A6953095AF8221021F480314AF8221067
:102CA0005AF8221009F5C07102F01F02BFF35F8FBE
:102CB00000FA02F241F8232049F82320E269D26A9F
:102CC0005AF8223023F480334AF822305AF822305E
:102CD000530902F01F02BFF35F8F00FA02F241F8BE
:102CE000232049F82320E269D2695AF8223023F4DC
:102CF00080334AF822305AF82230530902F01F027A
:102D0000BFF35F8F00FA02F241F8232049F8232035
:102D1000E269526A5AF8223023F480334AF82230AA
:102D20005AF82230530902F01F02BFF35F8F904020
:102D300041F8230049F8230040F21141206AC0F213
:102D400001018160206A00BF017FC907FCD044F601
:102D500042110020C5F24331616001B0BDE8F08F3F
:102D60008446C0F840120020CCE991327047B0B5DB
:102D7000426804464EF2801E4FF60C6C536ACEF247
:102D8000000E0020002BC2F2012C20600ED45A0944
:102D900003F01F01012505FA01F14EF82210BFF3DF
:102DA0004F8FBFF36F8F4CF823006268D36A002BFC
:102DB0000FD4580903F01F01012202FA01F14EF865
:102DC0002010BFF34F8FBFF36F8F00204CF823000C
:102DD0006268906A00280ED4410900F01F020123A6
:102DE00003FA02F24EF82120BFF34F8FBFF36F8F2B
:102DF00000214CF8201000210022204616F0D6FABF
:102E00006068806881680068096A88470020B0BDF2
:102E100070B50446406AC06B00F48140802807D139
:102E200094F8220038B1207B40B149F6454525E0B1
:102E300049F6424522E049F644451FE094F8200057
:102E40000B4608B1D61805E06068D1188069434385
:102E500000FB01F6202120461A4616F07BFA0546B3
:102E600060B9721E2121204616F074FA054628B971
:102E7000262100222046002516F098FA284670BD2B
:102E8000062070472DE9F04F85B00446406A0022C5
:102E9000012384F82220C0F8C021606A0D4641F663
:102EA0008021C0F8C0312023606AC0F2060183642B
:102EB000606A8266606AC0F8B021606AC0F8CC219E
:102EC000606AC0F8E021204616F0CAFA002840F0F7
:102ED0003581606A4CF2E001016501204FF47A719E
:102EE000FEF773FB00210022204616F033FA00287B
:102EF00040F0248108214FF4D572204616F02AFABA
:102F0000142801D1142019E149F64741626A884228
:102F1000906918BFB0F5D57F24D148F2000640F67D
:102F20000677C4F2FF0600BF37210022204616F0C4
:102F300011FA002840F0028169212046324616F03D
:102F400009FA002840F0FA80606A8069B0F1FF3F1A
:102F500002DD013FE8D105E0C0F3807084F8200075
:102F60000120A060274657F8080FFF2802D149F634
:102F70004040E3E002210022204616F0EBF9002851
:102F800040F0DC80606803210078861C2046320413
:102F900016F0E0F9002840F0D180606A8069A168ED
:102FA00000294FF0090118BF060C4FEA06482046D9
:102FB000424616F0CFF9002840F0C080606A81696F
:102FC0000191016A0291816A0391006B0490BDF83E
:102FD0001100D4F808B09DF81390DDF805A05FEA61
:102FE000903EDDF80930DDF80D10009118BFBBF1FF
:102FF000000F36D1009A1946D4465CEADF7140EAE8
:103000000941104650EA8F410CF007014FF0040CC3
:1030100040EA93300CFA01FC6FF31F3002F00F010D
:1030200000F10109012009FB0CFC00FA01F14CF24E
:103030000009490AC0F2FF390CFB01F129EA030338
:10304000002B51EA1383BBF1000F53EA0181BEF15B
:10305000000F51EA0381616104BFCAF3C650013019
:1030600008E0BEF1010F04D14FF4806000EB832033
:1030700060610120E06107212046424616F06AF9AE
:1030800000285BD1009847F640084004C0F27D1844
:1030900031D504F140030121402220464FF0400A7F
:1030A00016F09DFA08BB606A4FF000094FF6F17206
:1030B0000621C0F81090C8F2FF02606AC0F84CA068
:1030C000204616F073F948F2A0620221C0F2010214
:1030D000204616F0C7FA40B994F8500000F00F00EF
:1030E0000F2808BF4FF064094846002804BF4FF27C
:1030F0008008C0F2FA282046414616F0B1F9E8B936
:10310000606810218269204616F024F9B0B9204683
:10311000314616F0D9F888B96068016A29B1616A48
:10312000896BC943C9B2C90921738069A0610DB116
:10313000CFCFCFC5012084F82200002005B0BDE824
:10314000F08F2DE9F04381B00C4689684FF00009FB
:10315000054649680968C1F80090A1688A68D1E904
:103160000001126890470646002840F096804FF410
:1031700013712846FDF784FC42F200012078C4F266
:1031800025014FF0010801F58061002804BF42F2DB
:103190000001C4F2250169626C60EFF3108788F3C7
:1031A0001088207843F20801C4F22001C0F10C001D
:1031B00008FA00F00A6822EA000008600868962011
:1031C0000121FEF702FA87F3108840F21D32686A87
:1031D0004EF2001ECEF2000E4EF6145CC0F838908F
:1031E000CEF2000C686AC0F8C091686AC0F8C0816D
:1031F0006868696AC069012808BF40F205320A643C
:10320000616AE06801EB0E0701F00F0307F54077F4
:10321000002948BF03EB0C0794F834202369C5E963
:103220009009C5F84832100138704FF60C60C2F2B0
:10323000012040F821504CF20030C4F2000050F858
:10324000212022F4803240F8212050F82100480942
:1032500001F01F01BFF35F8F0EEB800208FA01F14E
:10326000C2F880112A464EF8201094F83610E06A11
:1032700016F0C9F894F83510A06A2A4616F0C3F87B
:1032800094F83710206B2A4616F0BDF844F6490032
:1032900085F82290C5F244302860304601B0BDE880
:1032A000F08370B582B00446406AC06B00F4814080
:1032B000802821D194F8220008B360681D46164684
:1032C0000B4682692046294616F089F9C8B960681C
:1032D00094F820108269002910464FF0110118BFA0
:1032E00001207043012D51EA919300902046294618
:1032F00016F019F9002004E049F6424001E049F6D1
:10330000444002B070BD06207047062070474268F6
:10331000D269012A04D1426A926BC2F3401200E0E2
:1033200001228A7090F82220406A0A70C06B00F473
:10333000814080285FEA0F9200204A7070472DE993
:10334000F04F81B00446406AC76B07F48147802F75
:1033500008D10F4694F8221039B1217B41B149F6CA
:10336000454059E049F6424056E049F6444053E0B2
:10337000616892461D464FF0020B8A68D1F81880AA
:1033800052681668416C41F440714164606A48EAD1
:1033900007018907C0F8B0B115D004F140093946DA
:1033A00048464246FDF7C3FAC6F804900120C4E936
:1033B0000D50002007EB0801C4E90BB1C4F83C80B4
:1033C000CAF6300002E04FF0284077603060616A52
:1033D00060686031B16008F10301B5818908F1814D
:1033E000806807C852680968904700284FF01800A5
:1033F00012D1616894F820308A69002B114618BFF9
:10340000012101FB0AF1012D50EA90930091204621
:10341000294616F088F8002001B0BDE8F08F06209C
:10342000704706207047000000F086F8FEF703F8AA
:10343000FEE7000010B50AF045FA0FA018F07CF97D
:10344000002443F29D60C6F62004C0F202204FF033
:10345000F0721023214618F06FF90CA018F06CF9E7
:1034600040F668000BA1C2F202204FF0F073224632
:1034700018F0EEFB002010BD1B5B306D5B442F6429
:1034800072765F736472616D5D2000001B5B306D4E
:103490000A000000736472616D00000080B518F0CE
:1034A00011F91BF0FDFABDE8804018F02EB94EF27C
:1034B0002401C4F201018878097801F00F010A297A
:1034C00011D009291DD0082929D140F6B811C2F21E
:1034D000022151F820004AF6AB21CAF6AA21A0FB2E
:1034E0000101480822E040F6B811C2F2022151F869
:1034F00020004AF6AB21CAF6AA21A0FB0101C808A8
:1035000014E040F6B811C2F2022151F820004AF648
:10351000AB21CAF6AA21A0FB0101880806E040F60B
:10352000B812C2F2022252F82000C8404EF26811CE
:10353000C2F20121086070472DE9F04184B04EF6D7
:10354000085440F20120CEF20004C0F20E0040F216
:1035500000070026E0604FF47000BFF34F8FBFF309
:103560006F8FC4F880000020C0F200272760FEF7AC
:103570004EF801F07DFF01200125FEF748F838687C
:1035800042F6B811A0F5005080F30A884EF2000010
:10359000C0F20001C2F20120FDF772FA40F2000011
:1035A00044F62C314DF6E472C2F20020C0F2022142
:1035B000C0F20102FDF700FA42F6203342F6203154
:1035C000C0F20423C0F2042142F6203842F6203033
:1035D000C91AC0F20428C0F2042040F20007C9084A
:1035E000C0F20007A0EB080C41F009C000BF00BF0B
:1035F000F3E80201E7E802010FF007C040F2000122
:1036000040F20003C2F20001C2F2000340F20007E0
:103610004FEADC02C2F20007581A42F007C800BFA6
:10362000F8E80223E7E802230FF007C0C008374696
:1036300040F007C000BF00BFE1E802670FF005C01F
:10364000BFF34F8F40F2C01840F2C010BFF36F8F2E
:10365000C4F84862C0F20028C0F20020BFF34F8FC8
:10366000A0EB0800BFF36F8F8110012908DB4746EC
:10367000C8BF851057F8040B40448047013DF9D17D
:10368000FFF715FFFDF714FF0320FDF750FF4FF084
:10369000100E40F63050C4F2400000BF20F8046B1A
:1036A0000FF005C00320FDF769FF40F6002240F649
:1036B0000020C2F20222C2F202200121203A61F36C
:1036C0000400009061F3040201924DF200204DF2DB
:1036D0000022C6F60F00C6F60F0261F30400029046
:1036E000A2F120004FF0020E61F304000390D4F821
:1036F000B800442161F30700C4F8B800002268460E
:10370000202100BF00EBC20350F832705B6801EB70
:103710005316B6EB571F05D9C4F89020C4F894701F
:10372000C4F8983001220FF013C8BFF35F8F052053
:10373000C4F88C00E06940F48030E061BFF34F8F43
:10374000BFF36F8FE068C0032AD40020E067BFF3A7
:103750004F8FA16FC1F34E30C1F3C902C908531C8A
:103760008E0743F6E07200BF43F001E002EA401723
:10377000314600BF41EA070501F14041C4F8585203
:103780000FF009C00028A0F10100EDD1BFF34F8F69
:10379000E06840F48030E060BFF34F8FBFF36F8F7D
:1037A0004EF21014C4F20104D4F8C80210B1D4F8D7
:1037B000C80213E0207888B10120FDF7B8FE00BFF1
:1037C000207800F0C0008028FAD10020207000BFCF
:1037D00020783F28FCD80120FDF7D0FE0220FDF71D
:1037E00016FF01F043FF002004B0BDE8F04101F0F6
:1037F0003BBF80B582B01AF039FFC06A01900198D2
:1038000080F30B8802B080BD4EF60C500422CEF23D
:103810000000C0F2FA52BFF34F8F016801F4E0617B
:1038200011430160BFF34F8F00BFFDE790FAA0F195
:103830000028B1FA81F150EA01907047B0B5054611
:103840001AF014FF90B1044609A017F075FF0DA0FF
:1038500021462A4617F070FF0FA017F06DFF0121D7
:1038600000222046BDE8B0401AF0B8BCB0BD00BF91
:103870001B5B33336D5B572F7374646C69625D201F
:10388000000000007468726561643A2573206578F1
:1038900069743A25642100001B5B306D0A0000004A
:1038A00080B542F20250C0F2022017F045FF05A099
:1038B00017F042FF42F2FC40C0F20220BDE8804017
:1038C00017F03ABF43616E6E6F742066696E6420B4
:1038D00061205254432064657669636521000000CD
:1038E00070B54EF22003C4F20103D3F800E01B7957
:1038F0004EEA030C03F00F035FEA0C720EF00F0C9C
:1039000008D44EF26812C2F2012212689A4022FADA
:103910000CF219E003F00702032404FA02F2012575
:10392000082B0EF0070638BF05FA03F24EF26813B3
:10393000B440C2F201231B685A435FEA0E7358BFBA
:1039400005FA0CF4B2FBF4F24CF60023C240C3F6C5
:103950009A33A1FB03C100236046FCF75DFD70BDF7
:1039600070B54EF22003C4F20103D3F800E01B79D6
:103970004EEA030C03F00F035FEA0C720EF00F0C1B
:1039800008D44EF26812C2F2012212689A4022FA5A
:103990000CF219E003F00702032404FA02F20125F5
:1039A000082B0EF0070638BF05FA03F24EF2681333
:1039B000B440C2F201231B685A435FEA0E7358BF3A
:1039C00005FA0CF4B2FBF4F222FA00F04CF60022F5
:1039D000A0FB0101C3F69A320023FCF71DFD70BD68
:1039E000F0B581B00C46054617F0BAFFC8B90720FC
:1039F00019F0ECF8064628B90BA011A140F21532D7
:103A000016F0B8FB56F8047FB74209D0A7F11000B2
:103A1000A84203D0214617F0A3FF10B93F68F3E78F
:103A2000002001B0F0BD00BF696E666F726D6174F9
:103A3000696F6E20213D2052545F4E554C4C000062
:103A40005F6D656D686561705F616C6C6F630000D0
:103A500018F028B8F0B581B01546074601B30C46FA
:103A60002DB354F8140C21462A4618F04BF906469B
:103A700008BB38462946FFF7B3FFD8B10646A4F184
:103A8000180054F8101C081A21461838A84250EAA9
:103A90003582304617F016FF204618F003F80AE08A
:103AA0003846294601B0BDE8F040FFF799BF2046EF
:103AB00017F0F8FF0026304601B0F0BD70B58CB0AD
:103AC0000D460446684600213022002618F042FACE
:103AD0004FF0070000901DB168680604012000E067
:103AE00000200690694603222046019611F0B4F8A2
:103AF0000CB070BDB0B5022803DCBDE8B04000F0EA
:103B000001B905460C46496858A01AF01FFAD8B109
:103B1000616857A01AF01AFA18B3616856A01AF033
:103B200015FA50B3616856A01AF010FA0028E4D1D3
:103B3000032DE2D9A06812F059F80028A06860D0DF
:103B4000FCF7E2FC054662E0A06819F0E5F8B0F188
:103B5000FF3FA16874DD024667A0BDE8B04017F0E2
:103B6000EBBD032DC9D9A06812F040F80028A06869
:103B700020D0FCF7C9FC054622E0A06812F036F818
:103B80000028A06803D0FCF7BFFC054605E019F04B
:103B9000C3F80546B0F1FF3F51DD284619F0FEF8A5
:103BA000012801D141A000E03CA02946BDE8B04079
:103BB00017F0C2BD19F0B0F80546B0F1FF3F3EDD89
:103BC000E1683EA01AF0C2F9B8B1E1683DA01AF070
:103BD000BDF9A0B1E1683DA01AF0B8F9E8B3E16819
:103BE0003EA01AF0B3F9D0B3E16840A01AF0AEF9E4
:103BF00000287FF482AF042132E0002130E001216F
:103C00002EE019F089F80546B0F1FF3F17DDE168B5
:103C10001DA01AF09BF9D0B1E1681DA01AF096F929
:103C2000A8B1E1681BA01AF091F930B1E1681AA0BF
:103C30001AF08CF900287FF460AF002108E0A16839
:103C400042F69300C0F2022017F076FD55E70121FD
:103C50002846BDE8B04019F0C1B8022100E00321B8
:103C60002846BDE8B04019F077B800BF6E756D000A
:103C70006D6F646500000000726561640000000003
:103C80007772697465000000686967680000000069
:103C90006F6E00006C6F77006F66660070696E5B18
:103CA00025645D203D206C6F770A000070696E5BB3
:103CB00025645D203D20686967680A006F7574702F
:103CC00075740000696E707574000000696E70751F
:103CD000745F70756C6C757000000000696E7075B3
:103CE000745F70756C6C646F776E00006F757470C4
:103CF00075745F6F640000002573203A2025640A04
:103D00000000000080B542F6AC00C0F2022017F0BF
:103D100013FD42F64110C0F2022017F00DFD42F6ED
:103D2000BF00C0F2022017F007FD42F6B610C0F245
:103D3000022017F001FD42F61210C0F2022017F027
:103D4000FBFC0BA017F0F8FC42F67210C0F2022048
:103D500017F0F2FC10A017F0EFFC1BA017F0ECFC22
:103D600021A017F0E9FC23A0BDE8804018F0D4BFE3
:103D700020202020202020202020202020202065FE
:103D80002E672E204D5348203E70696E207265616B
:103D900064204750494F0A00202020202020202066
:103DA00020202020202020652E672E204D534820E3
:103DB0003E70696E207772697465204750494F20C4
:103DC000686967680A000000202020202068656C70
:103DD000703A2020202020746869732068656C7018
:103DE000206C6973740A00004750494F20652E67A4
:103DF0002E3A000020000000B0B50446154638B940
:103E000042F6E51008A1C0F20220372216F0B2F9FE
:103E10003DB1A06C2A7929680368204698470020A4
:103E2000B0BD6FF0FE00B0BD5F70696E5F636F6E16
:103E300074726F6C0000000070B505461E46144693
:103E400038B942F6E5100AA1C0F20220162216F097
:103E500091F94FF000004CB1082E18BF70BDA86C4E
:103E600021688268284690472071082070BD00BFF5
:103E70005F70696E5F7265616400000070B5044632
:103E80001E46154638B942F6E5100AA1C0F20220D6
:103E9000262216F06FF94FF000004DB1082E18BF22
:103EA00070BDA06C2A79296843682046984708208D
:103EB00070BD00BF5F70696E5F77726974650000E6
:103EC00041F60563994205D041F60463994205D154
:103ED000012000E00020506100207047836C1B68C7
:103EE000002BF9D018472DE9F04186B06D460F46FA
:103EF0000646281D14211C469046FCF7C1FD002FE4
:103F000000D57F42B06C0097036853B16A4641F612
:103F100003613046984708B1002402E00298C8F8CF
:103F20000000204606B0BDE8F0812DE9F04186B0E2
:103F30006E460F460546301D14211C469046FCF780
:103F40009FFD002F00D57F42A86C009703688BB1BE
:103F50006A4641F603612846984750B9A86CD8F8DC
:103F6000001002916A46036841F6026128469847AC
:103F700000B10024204606B0BDE8F0812DE9F04FE5
:103F800085B00446174689460393049258B943F610
:103F90001A6043F6C071C0F20220C0F2022140F65E
:103FA0007A2216F0E7F8204618F020FE05280BD0FC
:103FB00044F20F0043F6C071C0F20220C0F20221A9
:103FC00040F67B2216F0D6F8002F6FD017F044F899
:103FD0000646FCF771F9804616F0C7FA98B143F629
:103FE000C07543F6B750C0F20225C0F20220294640
:103FF00017F0A2FB43F2AD7040F67E22C0F2022021
:10400000294616F0B7F8012E13D143F6C07543F6D2
:104010009250C0F20225C0F20220294617F08CFB14
:1040200043F2AD7040F67E22C0F20220294616F01F
:10403000A1F8FCF741F982461AF018FB98B943F64B
:10404000C07542F60900C0F20225C0F202202946DE
:1040500017F072FB43F2AD7040F67E22C0F20220F0
:10406000294616F087F8FCF727F9054617F041FBBB
:1040700098B143F6C07642F2E270C0F20226C0F276
:104080000220314617F058FB43F2AD7040F67E2215
:10409000C0F20220314616F06DF82846FCF710F900
:1040A0005046FCF70DF94046FCF70AF91AF0DEFA23
:1040B00040F21C710646C2F20221096809B120468D
:1040C0008847FCF7F9F8E18C054631B92FB9284645
:1040D000FCF7F6F86FF07407B4E079B320464FF0C0
:1040E000000C013950F82C2F30F8027C50F80C3CB1
:1040F00030F8086C20F8061C53F82730C9F8003057
:104100007B1C9BB2B3425CEA2793824220F8023CBC
:1041100000F08C80A2F11800C2F81CC01AF05FFAFF
:104120002846FCF7CDF840F21870C2F20220016870
:1041300009B12046884719F023F882E0CDF80490B1
:1041400004F1180B06F118094FF0000806F15C00A5
:10415000029000BF002F6FF00A00706376D096F8CF
:10416000380094F80DA0400705D4304603991AF0A2
:10417000DFFB002871D1BAF1000F15D0BAF1010FA1
:1041800058461BD1006858450ED090F8211096F87B
:1041900039208A42F6D24168F161C0F80490C1F832
:1041A0000090B06115E000BFE069F061C4F81C90B8
:1041B000C0F80090C6F818B00BE000BF43F2AD7035
:1041C00043F66A61B622C0F20220C0F2022115F065
:1041D000D1FF049801280BDB1AF05CFC029F80469B
:1041E0000021384604AA1AF0F3FC38461AF00AFEF9
:1041F0002846FCF765F818F0C3FF776B17BBFCF790
:104200005BF8049F0546012F09DB1AF043FCA0EB85
:1042100008080498A0EB080020EAE0770497E18CF6
:1042200009B92FF069C8DDF8049057E72846FCF774
:1042300047F840F21870C2F20220016809B1204626
:1042400088470027384605B0BDE8F08F2846FCF7C0
:1042500037F86FF074077763F4E707462846FCF7F2
:104260002FF8EFE72DE9F04F85B004461746894651
:104270000393049258B943F61A6043F64771C0F2AB
:104280000220C0F2022140F6561215F073FF2046BC
:1042900018F0ACFC05280BD044F20F0043F6477130
:1042A000C0F20220C0F2022140F6571215F062FF60
:1042B000002F6FD016F0D0FE0646FBF7FDFF8046BC
:1042C00016F053F998B143F6477543F6B750C0F26C
:1042D0000225C0F20220294617F02EFA43F2AD70F3
:1042E00040F65A12C0F20220294615F043FF012E73
:1042F00013D143F6477543F69250C0F20225C0F23F
:104300000220294617F018FA43F2AD7040F65A120F
:10431000C0F20220294615F02DFFFBF7CDFF8246A3
:104320001AF0A4F998B943F6477542F60900C0F2AD
:104330000225C0F20220294617F0FEF943F2AD70C3
:1043400040F65A12C0F20220294615F013FFFBF77F
:10435000B3FF054617F0CDF998B143F6477642F220
:10436000E270C0F20226C0F20220314617F0E4F9F2
:1043700043F2AD7040F65A12C0F20220314615F0F9
:10438000F9FE2846FBF79CFF5046FBF799FF404695
:10439000FBF796FF1AF06AF940F214710646C2F272
:1043A0000221096809B120468847FBF785FFA28CE6
:1043B0000546E18C914208BF002F00F08B809142AE
:1043C00077D1CDF8049004F12C0B06F118094FF0C9
:1043D000000806F15C000290002F6FF00A00706385
:1043E00078D096F8380094F80DA0400706D43046EF
:1043F00003991AF09DFA002840F08B80BAF1000F63
:1044000016D0BAF1010F58461CD100BF00685845BC
:104410000ED090F8211096F839208A42F6D24168E1
:10442000F161C0F80490C1F80090B06115E000BFE0
:10443000206BF061C4F83090C0F80090C6F818B056
:104440000BE000BF43F2AD7043F66A61B622C0F2E2
:104450000220C0F2022115F08DFE049801280BDB2A
:104460001AF018FB029F80460021384604AA1AF071
:10447000AFFB38461AF0C6FC2846FBF721FF18F0C0
:104480007FFE776B5FBBFBF717FF049F0546012F8D
:1044900009DB1AF0FFFAA0EB08080498A0EB08006B
:1044A00020EAE0770497A28CE18C914294D0DDF869
:1044B0000490238D276A581C80B247F823909042BD
:1044C00001F1010082B24FF0000151EA23918242D2
:1044D000218508D02846FBF7F3FE6FF02207384607
:1044E00005B0BDE8F08F54F8181FA142E0810BD051
:1044F000A1F118000027CF611AF071F82846FBF7E8
:10450000DFFE18F03DFEEAE72846FBF7D9FE00275C
:10451000E5E707462846FBF7D3FEE0E72DE9F04F35
:1045200081B090468B460446009116F095FD0746F3
:10453000FBF7C2FE814616F018F898B143F697656E
:1045400043F6B750C0F20225C0F20220294617F008
:10455000F3F843F2AD7040F29F42C0F202202946C8
:1045600015F008FE012F13D143F6976543F69250DC
:10457000C0F20225C0F20220294617F0DDF843F20E
:10458000AD7040F29F42C0F20220294615F0F2FDC4
:10459000FBF792FE07461AF069F898B943F697655B
:1045A00042F60900C0F20225C0F20220294617F0A7
:1045B000C3F843F2AD7040F29F42C0F20220294698
:1045C00015F0D8FDFBF778FE054617F092F898B184
:1045D00043F6976642F2E270C0F20226C0F2022071
:1045E000314617F0A9F843F2AD7040F29F42C0F295
:1045F0000220314615F0BEFD2846FBF761FE384625
:10460000FBF75EFE4846FBF75BFE5CB943F648608D
:1046100043F69761C0F20220C0F2022140F2A242AA
:1046200015F0A8FD204618F0E1FA03280BD043F658
:10463000CC7043F69761C0F20220C0F2022140F232
:10464000A34215F097FD1AF011F80646FBF734FE69
:1046500040F21C718246C2F20221096809B120466B
:104660008847606A0021B042716311D0D0B1BBF1BC
:10467000000F4CD096F83800657B96F839904007CB
:104680002ED4304641461AF053F948B3074641E06C
:1046900094F82200FF281FD15046FBF711FE6FF05F
:1046A00022078BE094F82010666240F2FF10A4F815
:1046B0002100FF2907D096F83900814203D2304605
:1046C000424600F0F7FD214656F8400F41F8280F0A
:1046D000416031604E6065E0013084F8220061E0A5
:1046E00004F11807D5B1012D20D138460068B84231
:1046F00014D090F8211096F839208A42F6D24168F9
:1047000006F11802F16142600A60B06119E06FF0D1
:10471000740777635046FBF7D3FD4FE0E06906F17D
:104720001801F061E1610160B7610AE043F2AD7028
:1047300043F66A61C0F20220C0F20221B62215F0EF
:1047400019FD94F82100B46481450AD2606A84F8A6
:10475000219090F83910894503D20222494600F091
:10476000A9FDBBF1010F09DB06F15C056A460021DA
:1047700028461AF02DFA28461AF044FB5046FBF75B
:104780009FFD18F0FDFCFBF797FD716B824649B168
:10479000606AB8B196F8391090F839208A425FEA19
:1047A0000F9110E05046FBF78BFD40F21870C2F2FB
:1047B0000220016809B1204688470027384601B029
:1047C000BDE8F08F01213A68BA4202D092F8212068
:1047D00000E0FF2284F82120D1B9024652F8403F80
:1047E00012F8061C93420CD013F8087CC9B213F8D7
:1047F000075C1B68BD4255EA3787B94251EA3781E9
:10480000F0E790F83920914202D0022200F052FDE8
:104810005046FBF755FD706B0021B16480EAE072F1
:10482000C2EBE077CAE700002DE9F04782B004460A
:1048300090460E46019158B943F6286043F68A61C6
:10484000C0F20220C0F2022140F2FD1215F092FCEB
:10485000204618F0CBF902280BD043F6A66043F6A9
:104860008A61C0F20220C0F202214FF4FF7215F0FB
:1048700081FC40F21C70C2F20220016809B120469E
:104880008847208C002871D1002E6FD016F0E4FBF1
:104890000546FBF711FD814615F067FE98B143F61A
:1048A0008A6743F6B750C0F20227C0F202203946A9
:1048B00016F042FF43F2AD7040F20322C0F2022034
:1048C000394615F057FC012D13D143F68A6543F69E
:1048D0009250C0F20225C0F20220294616F02CFFA9
:1048E00043F2AD7040F20322C0F20220294615F0D7
:1048F00041FCFBF7E1FC824619F0B8FE98B943F69B
:104900008A6742F60900C0F20227C0F20220394647
:1049100016F012FF43F2AD7040F20322C0F2022003
:10492000394615F027FCFBF7C7FC074616F0E1FEF9
:1049300098B143F68A6542F2E270C0F20225C0F2F5
:104940000220294616F0F8FE43F2AD7040F2032231
:10495000C0F20220294615F00DFC3846FBF7B0FCEA
:104960005046FBF7ADFC4846FBF7AAFCFBF7A4FC5E
:10497000218C074689B1481E20843846FBF7A0FCED
:1049800040F21870C2F20220016809B1204688473F
:104990000025284602B0BDE8F08786B319F066FE10
:1049A000064690F8380094F80D9040076FF00A0022
:1049B000706309D43046414619F0BAFF20B105466C
:1049C0003846FBF77DFCE4E7B9F1000F04F118006D
:1049D0001BD0B9F1010F20D1014600BF0968814207
:1049E00013D091F8212096F839309342F6D24868D6
:1049F00006F11802F0614A600260B16118E03846C1
:104A0000FBF75EFC6FF07405C3E7E16906F118027D
:104A1000F161E2610A60B0610AE043F2AD7043F611
:104A20006A61C0F20220C0F20221B62215F0A2FB98
:104A30000198012809DB06F15C0501AA002128463E
:104A40001AF0C6F828461AF0DDF93846FBF738FCAC
:104A500018F096FB756B002D9BD191E710B582B0D5
:104A600043F2FD60C0F2022015F0EDFD04461EA0E9
:104A7000214616F061FE7CB9002010F057FB1AF0B9
:104A8000CBFD4FF0FF3010F051FB43F2FD60C0F260
:104A9000022015F0D8FD20B343F2FD6018A1C0F24A
:104AA000022018A200230024009407F059FE43F2CC
:104AB000E46115A2C0F20221002851EA028019A186
:104AC0001EA251EA028416F037FE204616F034FE8C
:104AD00042F2FC40C0F2022002B0BDE8104016F0E5
:104AE0002BBE02B010BD00BF72745F64657669634F
:104AF000655F66696E64202578200D0A000000005D
:104B00002F000000656C6D001B5B33336D5B572F0E
:104B10006170702E66696C6573797374656D5D2064
:104B20000000000073642063617264206D6F756E15
:104B30007420746F20272F27000000007364206307
:104B4000617264206D6F756E7420746F20272F273B
:104B5000206661696C656421000000002DE9F04168
:104B600006461C46904658B942F2E46043F27D6125
:104B7000C0F20220C0F2022140F28F1215F0FAFAC0
:104B8000BCB316B1B8F1000F0BD143F20E5043F293
:104B90007D61C0F20220C0F202214FF4CA7215F00A
:104BA000E9FAF08BB76DC00432D5354635F8510FB0
:104BB000A97840EA0140C0F38F00A0421CD243F222
:104BC000FD40C0F2022016F0B7FDA87822462988E1
:104BD00041EA00403146C0F38F0343F2DC50C0F29B
:104BE000022016F0A9FD42F2FC40C0F2022016F0AD
:104BF000A3FD0020BDE8F081384618F0ADF9A042D1
:104C000006D207F110004FF0FF31BC8315F052FBC4
:104C1000FBF752FB064638464146224618F0BAF9E1
:104C200004463046FBF74CFB2046BDE8F08100000F
:104C30002DE9F04F81B0DBB31D469146834618B194
:104C4000B9F1000F18D10BE042F2E46043F2855154
:104C5000C0F20220C0F2022140F2FF1215F08AFADF
:104C600043F20E5043F28551C0F20220C0F20221FD
:104C700040F2012215F07EFADBF85C80B8F1000FFB
:104C80000BD143F25E5043F28551C0F20220C0F2D4
:104C900002214FF4017215F06DFA19F0E7FC48B1EA
:104CA000BBF81E00400605D4D8F8140001280AD12C
:104CB000002504E058464A462B4600F015F92846E0
:104CC00001B0BDE8F08F08F1180A00260120C8F8ED
:104CD0001400009509EB0604404621462A4618F0C8
:104CE000CBF9DBF848100246C8F810004FF48043B7
:104CF0000F6958462146B847D8F810004FF0FF31E9
:104D000006442D1A504615F0D5FA0DB12FF01FC0EC
:104D1000009D0020C8F81400D1E7F0B581B0054629
:104D20001C46164658B942F2E46043F2A251C0F262
:104D30000220C0F202214FF4E67215F01BFA24B3F0
:104D400005B15EB943F20E5043F2A251C0F2022007
:104D5000C0F202214FF4E87215F00CFAEF6D5FB962
:104D600043F25E5043F2A251C0F20220C0F202218F
:104D70004FF4E97215F0FEF919F078FC38B1E88BC0
:104D8000400604D47869012809D1002404E02846AB
:104D90003246234600F0A8F8204601B0F0BDA86CCA
:104DA000012179614FF48043D0F810C02846314684
:104DB0002246E047044607F118004FF0FF3115F096
:104DC00079FAE9E72DE9F04182B004461D4616461E
:104DD00058B942F2E46043F2C051C0F20220C0F27E
:104DE00002214FF40F7215F0C5F9F5B104B15EB9A7
:104DF00043F20E5043F2C051C0F20220C0F2022131
:104E00004FF4107215F0B6F9E76DFBF755FA7969B2
:104E1000804661B1384631462A4618F02DF90446DD
:104E20004046FBF74DFA20461CE000201AE0012026
:104E30007861384631462A4618F01EF90546404644
:104E4000FBF73EFA0020019001A9384618F05CFDFE
:104E5000A16C024638614FF400430F690199204666
:104E6000B847284602B0BDE8F0810000F0B581B037
:104E700005461C461646A8B943F26D6742F2E46047
:104E8000C0F20227C0F2022040F23512394615F076
:104E900071F943F239504FF49C72C0F20220394646
:104EA00015F068F9CCB12746A86CC1682846884738
:104EB000411C14D006F8010BE98B11F0400F5FEA9A
:104EC0001F910A285FEA0F9008430128A7F101000B
:104ED00006D1012F0746E7D102E0002000E0384666
:104EE000201A01B0F0BD0000F0B581B004461D46A7
:104EF0001646A8B943F28D6742F2E460C0F2022779
:104F0000C0F202204FF4B172394615F033F943F282
:104F1000395040F26512C0F20220394615F02AF9E4
:104F20009DB12F46E08B400607D530780A2804D182
:104F3000A06C0D21826820469047A06C16F8011BDA
:104F4000826820469047013FECD1284601B0F0BD71
:104F5000032801DA0020704700F0BABF80B5FEF7E1
:104F60006DFC00BFFEE7022801DA0020704780B523
:104F700090B069460BF064FA059810B080BD032824
:104F80005FEA2F907047B0B50D4640F2B741C0F2CE
:104F900002210446FBF7C8FDD0B140F2BD412046D6
:104FA000C0F20221FBF7C0FDA0B140F2B0412046A3
:104FB000C0F20221FBF7B8FD70B1A80705F00400AC
:104FC0000CD490B9280740F2414101EAE07111E0A8
:104FD0000020B0BD0120B0BD0220B0BD40B940F2FC
:104FE0004241280758BF022104E040F2412101E07C
:104FF00040F242210022204613F0D2F940EAE0704C
:10500000B0BD000010B530B11446421E022A0FD2C6
:105010004FF0FF3010BD0BA016F08EFB10A012A1B8
:1050200014A216F089FB22A016F086FB002010BD0A
:10503000224614F0AFFF0146201A002948BF002085
:1050400010BD00BF1B5B33336D5B572F61726D6CFE
:105050006962632E73797363616C6C735D20000009
:1050600025733A20257300005F7379735F72656161
:1050700064000000506C6561736520656E61626C50
:10508000652052545F5553494E475F504F5349581E
:105090005F465320616E642052545F5553494E471A
:1050A0005F504F5349585F535444494F000000002C
:1050B0001B5B306D0A000000022801DA00207047F7
:1050C00000220EF0F7B970B50646013801281446E3
:1050D0000D4609D815F02AFAA0B14FF0FF312A4643
:1050E000234615F045FC0DE076B1304629462246B0
:1050F0001BF041F9002805D4054630460BF0B6F9FF
:10510000601B70BD002070BD4FF0FF3070BDB0B5AA
:1051100040F26860C2F202200468FBF7CDF8054651
:10512000204618F055F904F15C0019F0C7FD012084
:1051300084F83800204619F0E9F82846FBF7C0F853
:10514000BDE8B04018F01CB870B582B004469C466B
:10515000089D1830DDE90636C4E9060004F1240094
:10516000236380E80610232160461A4616F0F2FEFB
:10517000D4E90B1245F20F130A44606AA16A043A9B
:10518000C0F2002316F030FA202E206204D319A0BA
:1051900021A1C62214F0EEFF45F2292284F83A60DC
:1051A00084F83960002104F14000C4E90F10C4E91B
:1051B000110104F15C00E16484F85010C4E9155554
:1051C000C0F20022616384F83810C4E92311234639
:1051D000CDE90011214619F0CBFD40F22C70C2F24E
:1051E0000220016821B1204602B0BDE870400847A6
:1051F00002B070BD7072696F72697479203C205280
:10520000545F5448524541445F5052494F524954AB
:10521000595F4D41580000005F7468726561645FBA
:10522000696E697400000000B0B5044650B944F2DC
:10523000CB1044F20E31C0F20220C0F202218B22C8
:1052400014F098FF94F8380040070AD444F2F8109C
:1052500044F20E31C0F20220C0F202218C2214F07E
:1052600089FF204617F0C2FC01280AD044F23A20F8
:1052700044F20E31C0F20220C0F202218D2214F05D
:1052800079FFFBF719F82146E36905466FF07400D2
:1052900051F8182F606320465360E369E1611A609A
:1052A000096018F041F82846FBF70AF8BDE8B0405D
:1052B00017F066BF2DE9F04F81B014468DF803104A
:1052C0000DF103020221054618F088FF10B101B06C
:1052D000BDE8F08F4FF0FF0B0DF1020A95F8380092
:1052E0004007F4D5AF6C002FF1D0384617F07EFCA4
:1052F0000328ECD12E4697F80D908DF802B056F8A1
:10530000180F716896F82020416071680860500796
:10531000C6E9006605D42846214619F009FB002895
:10532000D5D1B9F1000F07F1180813D0B9F1010F69
:10533000404617D1006840450CD090F8211095F8F0
:1053400039208A42F6D24168E96146600E60A86160
:1053500013E000BFF869E861FE610660C5F81880D7
:105360000BE000BF43F2AD7043F66A61B622C0F2B3
:105370000220C0F2022114F0FDFED8F800004045E2
:1053800002D090F8210000E0FF207D6A87F821001C
:10539000294695F83A0051F8402F00BF8A420DD0B7
:1053A00012F8083CC0B212F8077C12689F4257EA14
:1053B0003383984250EA3380F0E700BF95F8391004
:1053C0008DF8020088423FF482AF022128465246FF
:1053D00018F004FF00283FF481AF78E74EF258241C
:1053E0004FF6FE75C2F20124C7F6FF75FAF764FFA7
:1053F0002168A1420AD04E69FAF762FF19F04AFB10
:10540000301AA8420BD818F08CFF08E0FAF758FFC2
:1054100019F02CF9022119F08BFA17F0B1FE18F0EF
:1054200003FDE3E7C1B201A016F086B925630000D1
:10543000F0B581B0A9B10E460546086D496D01FB76
:1054400000F777B1384616F0A7F950B10446B16CB1
:105450007B0A2846224614F0B3FD18B1204615F009
:10546000A5FB0024204601B0F0BD000000000000B4
:105470002DE9F0414EF2FA384CF20016C4F2010860
:10548000C4F201064AF20350A8F800000120B080DF
:10549000B08808B12FF005C06BA0012131806EA14A
:1054A00090ED001F40F6B8104EF60147C2F2022000
:1054B0004EF600444EF22005C4F2010780ED001FB5
:1054C00091ED001F43F6000180ED041FC4F20104BA
:1054D000C1F69C41C4F20105C0E908118162FDF7E3
:1054E000E6FF4FF650601621CFF6FF7021540920D9
:1054F00085F88200207818B93878800700F09E80FF
:10550000207840B901202070C8200121FCF75DF807
:1055100020780128FCD10020387020700020A87469
:10552000287F0007FCD54FF43C50288540F211112C
:10553000E985002185F82A10288140F23110A885DC
:10554000A97200BF287F8006FCD542F232370420C2
:10555000C3F2121730772F6001242C710526AE712B
:10556000FDF7A5FF96200121FCF72FF800202871F8
:105570002F60FDF79CFF96200121FCF726F8AE7105
:10558000FDF795FF2C7485F8324085F8334095F887
:10559000540040F0400085F8540000BF95F95400D5
:1055A000B0F1FF3FFADC062085F84C00472085F873
:1055B0005400072085F8540095F954000028FBD4C6
:1055C00095F8350040F0400085F8350095F9350034
:1055D000B0F1FF3FFADC022085F83400C52085F8E1
:1055E000350095F8350000F0BF0085F8350000BFA4
:1055F00095F935000028FBD495F83F0040F04000B5
:1056000085F83F0095F93F00B0F1FF3FFADC01203B
:1056100085F83E00CA2085F83F0095F83F0000F06D
:10562000BF0085F83F0000BF95F93F000028FBD47C
:105630004FF42540A8F80000BDE8F0814FF47A70DF
:10564000FBF7E4FF6AE700BF006CDC0200127A009F
:1056500000800000002D31010080000000389C1CFB
:1056600000389C1C001C4E0E7047000080B54FF0A7
:10567000600E4CF2003040F62431C4F20000C0F25B
:10568000022100BF0A6802B10260043004310FF049
:1056900007C880BD0000000001380028FCD1704719
:1056A0002DE9F04F81B00446008800285DD04EF609
:1056B0004C4B0025C4F2010B4FF0010A42F24008A6
:1056C00000272BA6C4F220086068326800EBC501F1
:1056D000496891423ED150F835009BF8001000F027
:1056E000B8500AFA07F9B0F1807F09EA010015D134
:1056F00058B90120FBF71BFF9BF8000040EA0900A6
:105700008BF800000120FBF739FF98F90000002812
:1057100020D498F8000040F0800015E058B1012036
:10572000FBF705FF9BF8000020EA09008BF800005A
:105730000120FBF723FF98F90000B0F1FF3F09DCDF
:1057400098F8000000F07F0088F80000C8200121D0
:10575000FBF73BFF013708F10208032F06F10406AF
:10576000B2D1208801358542A8D301B0BDE8F08FC1
:1057700002040000030400000404000070B59CB0A3
:1057800016AD0446284609F0E6FE002228462146CA
:1057900006F0B8FB002828D40DF10704002151229F
:1057A0002046002616F0D6FB1A98C069C3682BB3B2
:1057B00016AD00BF5022284621469847B0F1FF3F62
:1057C00018DDD8B1265414F0B1FE00215123224631
:1057D00015F0CEF800215122204616F0BBFB1A9896
:1057E000C069C36853B12FF01BC809A0214615F04A
:1057F000A3FF09E0179840F08060179003A015F010
:105800009BFF16A806F0C0FA1CB070BD0A0000008D
:105810004F70656E202573206661696C65640A00AF
:1058200010B538B30446FBF70EF8B0F5807F1AD8F0
:105830000020214607F07CF8A8B1044606F0CEFE11
:10584000204612F0CCFD10B300F05BFB4DF6E46097
:105850004FF48072C2F20120214618F0E1FB20468D
:1058600015F0A4F90FE06FF01A0018F059FA4FF094
:10587000FF3010BD06F0B2FE4DF6E46107A0C2F2A3
:10588000012115F059FF07F089F9002010BD2046CD
:1058900015F08CF907F082F9E9E700BF25730A00DB
:1058A00070B504460020E0704FF0FF306063204682
:1058B0000FF0D9FD08B1042070BD94F83800B4F899
:1058C00036524AF65526E838032854D8022852D0D2
:1058D000B54207D104F18A0029A10822FAF758FF3E
:1058E000002846D0B4F84300B0F5007F43D145F21C
:1058F000555101EA5001401A43F2333101EA900256
:105900000840104400EB101000F4706100F00F002C
:1059100000EB112001282ED894F8450058B35521EA
:1059200001EA5001401A332101EA900100F03300EE
:10593000084400EB101000F00F0001281BD8B4F849
:105940004600C0B194F848000138012813D8B4F8D3
:10595000490080B1B4F84B007F2807D894F85A006A
:1059600094F85B10000440EA016020B1B4F84E00E6
:1059700008B1002070BD0220B54250EA009070BD11
:105980004641543332202020000000002DE9F0472A
:105990008EB007460020CDE90400CDE9020057B9DA
:1059A00043F2301043F27A11C0F20220C0F2022119
:1059B000252214F0DFFB4FF40070D7F8448015F077
:1059C000EBFE4EF2542A4FF00005C2F2012AC8B194
:1059D0000646002101233846324614F0F1FA88B316
:1059E000044643F23F00C0F2022015F0A5FE0FF27C
:1059F0003C40214615F0A0FE42F2FC40C0F20220DD
:105A000015F09AFE4FF00009484615F0CFF8002037
:105A100015F0CCF8039815F0C9F8002015F0C6F879
:105A20004EF27C10CAF80050C2F2012005602846F0
:105A300015F0BCF8DAF8000015F0B8F800200EB048
:105A4000BDE8F0870023304642464FF000090CF0D5
:105A5000ADFA0446304615F0A9F8002CD4D00FF268
:105A6000D8300FF2E031012C50EA01810FF2DC3026
:105A700015F062FE05AA03AB012138460CF072F95D
:105A80000028DDF81490BFD0D9F8201004AA02AB8A
:105A900038460CF067F9049DB9F1000F18BF002DCE
:105AA00000F0A981686AD9F81C102A6AD9F8183060
:105AB000484083EA0201084301D1002725E043F270
:105AC0003F04C0F20224204615F036FEE5A015F092
:105AD00033FE42F2FC46C0F20226304615F02CFEA0
