:020000040200F8
:10000000C002052295C90102C5E60002CB0200022A
:100010007D6100027D6100027D6100027D61000260
:100020000000000000000000000000007D610002F0
:100030007D6100020000000003020002BFEB01022C
:10004000A9E80302ADE903025DE9030223E8030224
:100050007B0E0302C9E00202A5740302D9E6030283
:10006000A5E5030207EC030253ED03028FDE020253
:10007000A574030200000000000000000000000062
:100080000000000000000000000000000000000070
:100090000000000000000000000000000000000060
:1000A0000000000000000000000000000000000050
:1000B0000000000000000000000000000000000040
:1000C0000000000000000000000000000000000030
:1000D0000000000000000000000000000000000020
:1000E0000000000000000000000000000000000010
:1000F0000000000000000000000000000000000000
:1001000000000000000000000000000000000000EF
:1001100000000000000000000000000000000000DF
:1001200000000000000000000000000000000000CF
:1001300000000000000000000000000000000000BF
:1001400000000000000000000000000000000000AF
:10015000000000000000000000000000000000009F
:10016000000000000000000000000000000000008F
:10017000000000000000000000000000000000007F
:10018000000000000000000000000000000000006F
:10019000000000000000000000000000000000005F
:1001A000000000000000000000000000000000004F
:1001B000000000000000000000000000000000003F
:1001C000DFF80CD000F0F8FC00480047DB1000021C
:1001D000C0E20422EFF3108072B6704780F31088FB
:1001E0007047484A1368012B04D04FF00103136095
:1001F000454A1060454A116045484FF08051016002
:100200007047EFF3108272B63E48016879B34FF041
:10021000000101603C48016891B1EFF309811EF0D3
:10022000100F08BF21ED108B21E9F00F4FF00004F3
:100230001EF0100F08BF012441F8044D0068016052
:1002400000B51FF0F6F85DF804EB3049096809685D
:1002500008C9B1E8F00F002B18BFB1EC108B81F387
:1002600009884EF0100E002B18BF2EF0100E82F3EE
:1002700010884EF0040E704724490860EFF3148292
:1002800022F0040282F314881F494FF00000086036
:100290001C494FF0010008601E481F49D0F800209B
:1002A00041EA020101601A484FF0805101601B4889
:1002B0000068006800BF80F3088861B662B6BFF3CB
:1002C0004F8FBFF36F8F704700BFEFF308801EF0B2
:1002D000040F01D0EFF3098020E9F00F40F804ED9E
:1002E00040F804ED1EF0040F02D080F3098801E00D
:1002F00080F3088800B539F0E7F95DF804EB4EF0BB
:10030000040E704764480222A0460222AC46022234
:1003100004ED00E020ED00E00000FFFF08ED00E04C
:100320002DE9F05F0546002092469B46884606462A
:10033000814640241BE0284641464746224600F0BD
:10034000F9F953465A46C01A914110D3114618463E
:10035000224600F0E0F92D1A67EB01084F462246CD
:100360000120002100F0D7F917EB00094E41201EB3
:10037000A4F10104DFDC484631462A464346BDE885
:10038000F09F2DE9F0410024061B254671F100067F
:1003900005DA01240027D0EB070067EB0101161EE8
:1003A00073F1000605DA0027D2EB0702012567EB9F
:1003B0000303FFF7B5FF86460E4617469C46AC4240
:1003C00004D00025D0EB050E65EB010624B100201A
:1003D000D2EB000760EB030C704631463A466346A9
:1003E000BDE8F081004870474C08040210B504468F
:1003F000FFF7F8FF0068005D00F0010010BDA0F1FC
:100400006101192900D820387047A0F1410119294C
:1004100000D82030704740EA01039B0703D009E071
:1004200008C9121F08C0042AFAD203E011F8013BE0
:1004300000F8013B521EF9D27047D2B201E000F839
:10044000012B491EFBD270470022F6E710B5134678
:100450000A4604461946FFF7F0FF204610BD30B5A6
:1004600005462A460B4612F8010B13F8014B08B15A
:10047000A042F8D01CB1002802D06D1CF1E728463C
:1004800030BD10B5044604E00B7800F8013B03B121
:10049000491C521EF8D2204610BDCAB2401E10F8A8
:1004A000011F8A4202D00029F9D100207047421C66
:1004B00010F8011B0029FBD1801A704710B50022EB
:1004C00000E0521C835C8C5CA34201D1002BF8D16C
:1004D000D8B2E1B2401A10BDCBB203E00178994224
:1004E00003D0401C521EF9D20020704730B504469C
:1004F0000020034600E05B1C934203D2E05CCD5C2D
:10050000401BF8D030BD034611F8012B00F8012B39
:10051000002AF9D11846704730B505460020034639
:1005200000E05B1C934205D2EC5CC85C201A01D150
:10053000002CF6D130BD0022CBB20178994200D117
:100540000246401C0029F8D1104670470FB400B590
:100550008DB010A909900B9000914FF0FF300A90D8
:1005600000200C9005480690054807906A4609A8A7
:100570000F9900F003F90DB05DF814FB9907000224
:10058000B70700022DE9FF5F1D464FF0FF3BD5E99D
:10059000014691465F464FF00008A9697F1C01980B
:1005A0008847296A824688470028F6D1BAF1FF3F7A
:1005B0000CD024F4C064002E19DD600614D5BAF105
:1005C0002B0F09D0BAF12D0F0ED103E0584604B01D
:1005D000BDE8F09F44F48064A9697F1C01988847B6
:1005E000761E8246002E02DDBAF1300F03D0B9F13B
:1005F000000F26D032E0A969761E44F400747F1CF7
:10060000019888478246002E05DDBAF1780F06D0A2
:10061000BAF1580F03D0B9F1000F10D01EE0B9F1B4
:10062000000F02D0B9F1100F18D1A969761E24F479
:1006300000747F1C019888478246102002E0082041
:1006400000E00A20814609E008FB0908A969761E36
:1006500044F400747F1C019888478246002E05DD13
:100660004946504600F076F80028EDDAE96901982D
:100670008847A00502D46FF00100A8E7E00725D164
:10068000600613D5600502D5C8F1000000E04046C1
:1006900029680A1D2A600968220501D5087015E03D
:1006A000220701D5088011E008600FE02868011DCD
:1006B00029600068210502D580F8008006E0210746
:1006C00002D5A0F8008001E0C0F8008038467EE73F
:1006D00070B506463FF0D2FB046805460A220021A9
:1006E000304600F079F82C6070BD30B50B460146FD
:1006F00000202022012409E021FA02F59D4205D3C1
:1007000003FA02F5491B04FA02F52844151EA2F16A
:100710000102F1DC30BD202A04DB203A00FA02F1AC
:10072000002070479140C2F1200320FA03F31943DF
:1007300090407047202A04DB203A21FA02F0002181
:10074000704721FA02F3D040C2F1200291400843E1
:10075000194670473A2800D2303820F02002412A4A
:1007600001D3A2F13700884201D34FF0FF30704728
:10077000026811441378016018467047D16004493B
:1007800051610449116200211161114600F038BA2B
:1007900071070002ED030002426842B1016811F8DE
:1007A000013B23B1521EC0E90012184670470121D7
:1007B000C160881E704742685AB1C368016843B976
:1007C00083688B4205D0491E521CC0E900120020EC
:1007D00070474FF0FF3070472DE9F04791460F46C4
:1007E00080460446002614F8015B2DB1FFF7FAFDA0
:1007F0000068405DC007F6D12B2D02D02D2D18D0FA
:10080000641E4A463946204600F090FB27B13968FD
:10081000A14201D1C7F8008071054FF002040BD549
:100820004042002803DD3FF029FB0460A007BDE83B
:10083000F08746F48066E4E70028F8DA3FF01EFB14
:1008400004606FF00040F2E72DE9FE4F804681EA38
:100850000300C00F0C46009021F0004123F000453A
:10086000B8EB0200A94105D24046214690461C46FD
:100870000B46024623F00040104347D0270DC7F334
:100880000A00C3F30A510290401A019040286BDA23
:10089000C3F3130040F4801B0098924620B100235C
:1008A000D2EB030A63EB0B0B01985946C0F14002EF
:1008B0005046FFF730FF06460D4650465946019A0E
:1008C00000F08CF910EB08006141002487EA115216
:1008D00084EAE7731A4340D0009A62B3019A012A6E
:1008E0004FEA075215DC001B61EB02014FF000429A
:1008F00002EA0752CDE90042001C41F58011324660
:100900002B4600F071FB03B0BDE8F08F4046214656
:10091000F9E7001B61EB0201001C41F58013001890
:100920005B412018A2F5001747EB030140EAD570A0
:10093000B6196D4111E06D084FEA360645EAC075FB
:100940004FEA0752001B61EB0201001C41F58011C8
:1009500049084FEA30000019514132462B4603B096
:10096000BDE8F04F00F031BB0098012240000023A9
:10097000D0EB020263EBE073009821464FEAE0748B
:10098000B8EB000061EB0401E9E783F000435BE7AB
:1009900081F0004158E72DE9FE4F81EA030404F09D
:1009A000004421F0004100944FF0000B23F000437D
:1009B00050EA01045ED052EA03045BD0C3F30A5448
:1009C000C1F30A552C44A4F2F3340194A0FB025461
:1009D000C1F3130141F48011C3F3130343F48013F3
:1009E00001FB024400FB034E840A970A44EA815447
:1009F00047EA8357A4FB076802958D0A05FB078524
:100A00004FEA932C04FB0C542705029D4FEA06582D
:100A100047EA1637B5EB08056EEB070C870E920E0A
:100A200047EA811742EA8312A7FB0201B6EB0B01EA
:100A300064EB00042B0D43EA0C335E1844EB1C50AE
:100A4000DA465146E7FB0201C5F313044FEA0B33C4
:100A500043EA14534FEA0432019C43EA0603A4F12B
:100A60000C040294009CCDE900B400F0BDFA03B080
:100A7000BDE8F08F00200146F9E72DE9F04D81EA4D
:100A8000030404F0004B21F0004514464FF0000A27
:100A900023F0004150EA050220D054EA01021DD0A3
:100AA000C5F30A570246C5F31303C1F31300C1F39C
:100AB0000A5640F4801543F48013A7EB0608101B78
:100AC000D64608F2FD3873EB050002D308F10108A1
:100AD00001E092185B41B8F1000F03DA00200146F3
:100AE000BDE8F08D00204FF48011064684460EE0EC
:100AF000171B73EB050705D3121B63EB05030643B6
:100B00004CEA010C49084FEA300092185B4150EA68
:100B10000107EDD152EA030012D082EA040083EA11
:100B20000501084305D0101BAB4106D2012200236A
:100B300006E000224FF0004302E06FF00102531084
:100B40001AEB06004CEB085110EB0A0041EB0B01CD
:100B5000BDE8F04D00F039BAC1F30A52C1F31301F8
:100B600040F2FF3341F480119A4202DA002001463C
:100B7000704740F233439A42A2F2334202DC5242BF
:100B8000FFF7D8BDFFF7C7BD30B5041E71F10004F3
:100B900004DB4FF00044404264EB0101141E73F18A
:100BA000000405DB1C464FF00043524263EB040394
:100BB000994208BF904230BD064C074D06E0E06800
:100BC00040F0010394E8070098471034AC42F6D394
:100BD000FFF7FAFAE098050220990502202A06DBC1
:100BE000CB17203A41FA02F043EAE07306E041FAFB
:100BF00002F3D040C2F120029140084319467047E9
:100C00002DE9F34F8BB04FF0000801F10C000C46BA
:100C10004FF0010B46460DF1080A0190626901216F
:100C200001989047051E2DD0252D2CD0216A88478C
:100C3000C0B16269012101989047216A8847002864
:100C4000F7D1411E62690198904700E0761CA169C6
:100C50000B988847216A88470028F7D1E1690B98EB
:100C60008847DBE7A1690B9888470746A84201D16E
:100C7000761CD3E7E1690B9888477F1C02D1B8F155
:100C8000000F6FD046E1002762693D463946019862
:100C900090472A2804D162690121019890470125D3
:100CA000DFF884926269012101989047A0F1300138
:100CB0000A290AD24F45E5DC07EB870100EB410723
:100CC000303FDFD445F01005ECE7E90601D46FF0C2
:100CD00000476C280AD04C2814D0682815D06A2800
:100CE0000DD074281CD07A281AD01DE06269012129
:100CF000019890476C2802D045F0040514E045F0B7
:100D000002050DE045F020050AE062690121019825
:100D10009047682802D045F0080505E045F40065D5
:100D20006269012101989047C4E9015765283DD0C7
:100D300019DC58287AD00CDC452837D004DC25286B
:100D400026D0412831D131E046282FD047282CD158
:100D50002CE05B2877D0612828D063287CD06428D9
:100D600023D15AE0D0E06F2848D008DC66281DD097
:100D700067281BD0692821D06E2816D127E070285B
:100D800045D0732868D0752847D078280DD14DE01C
:100D9000A1690B988847054625283FF469AFE169AA
:100DA0000B9888476D1C3FF46AAFB3E023466A4650
:100DB0006FF001000B99AFF300809EE045F040001A
:100DC0006060A80723464FF0000236D43EE0E807F3
:100DD0007FF447AF2068011D21600068290501D517
:100DE00006701BE7290701D5068017E7A90703D579
:100DF000F117C0E9006111E706600FE745F0400018
:100E00006060A80723464FF0080216D41EE040F6A3
:100E10000E0125EA0100606016E045F040006060C8
:100E2000A80723464FF00A0207D40FE045F0400020
:100E30006060A80708D5234610226FF001000B99C7
:100E4000AFF3008059E007E0234610226FF0010065
:100E50000B99FFF797FB50E04FF000094F464B46C8
:100E6000632802D05B2806D040E0E80601D40120C8
:100E7000A06001273AE062690121019890475E284D
:100E800005D14FF0010962694946019890472169EF
:100E900039B900210A46534643F82120491C082944
:100EA000FADBB0B3216969B9C11700EBD162531104
:100EB0000AEB830122F01F02821A01200B68904086
:100EC00003430B6062690121019890475D28E8D1D6
:100ED000B9F1000F09D00020514651F82020D2432B
:100EE00041F82020401C0828F7DB02AB224600977F
:100EF0006FF001000B99AFF3008000280CDA401C62
:100F000008D1BBF1000F05D04FF0FF300DB0BDE8A8
:100F1000F08FFFE74046F9E7E90701D108F1010842
:100F200006444FF0000B79E6CCCCCC0C2DE9F05FF9
:100F300082460078002715468B460AF10104B9461F
:100F4000302801D09DB113E014F8010B0127782857
:100F500003D0582801D045B10AE00DB1102D07D1BA
:100F60000027102514F8010B02E0082500E00A25EF
:100F70000026B0460EE005FB080005FB06F1012740
:100F800001EB10461FFA80F8B6F5803F00D3B94652
:100F900014F8010B2946FFF7DDFB0028EBDABBF163
:100FA000000F05D00FB1641E00E05446CBF800409E
:100FB000B9F1000F06D03EF061FF02210160C81EAA
:100FC000BDE8F09F48EA0640FAE710B5141E73F139
:100FD000000408DA401C41F1000192185B411A43F9
:100FE00001D120F0010010BD2DE9F04D92469B4645
:100FF00011B1B1FA81F202E0B0FA80F220329046EB
:10100000FFF789FB04460F4640EA0A0041EA0B015C
:1010100053465A46084313D0114653EA010019D0EB
:10102000C8F140025046FFF785FB05460E46504684
:1010300059464246FFF76FFB084305D0012004E004
:1010400020463946BDE8F08D0020054346EAE076AB
:101050002C4337430A986305E40AA0EB08000022FA
:10106000FD0A44EA47540A3002D500200146E9E768
:10107000010510196941DDE9084500196941BDE81C
:10108000F04DA2E770B58C1810F8015B15F007035E
:1010900001D110F8013B2A1106D110F8012B03E011
:1010A00010F8016B01F8016B5B1EF9D12B0705D419
:1010B0000023521E0DD401F8013BFAE710F8013B62
:1010C000CB1A921C03E013F8015B01F8015B521E7E
:1010D000F9D5A142D8D3002070BD80B53DF01CF9F0
:1010E000002080BD70B54FF23070C2F20020006861
:1010F00000284FD046F64C6446F64065C2F2012403
:10110000C2F2012546F6007620782978C2F201263F
:10111000002818BF4FF4A070002918BFA821414330
:101120003068FFF791F947F67040C2F2012000687D
:1011300010B1682000F0CCFE01F0CCF801F00EF800
:1011400041F6C010C2F201200068022802D17020CE
:1011500001F07EF8207829780122002818BF4FF48A
:10116000A070002918BFA9225043316860224008AE
:101170000A5400F07DFF22782B7800200021002AFD
:1011800018BF4FF4A072002B18BFA823BDE8704011
:101190001FF093BD70BD000010B546F64C600121F4
:1011A000C2F201204FF00A0E017046F64060C2F212
:1011B0000120017049F2E830C2F201204FF0FF3106
:1011C00040F8081B0FF005C049F2E4300021C2F2DC
:1011D0000120016001F0F2F849F298444BF23331FA
:1011E000C2F20124206806F069FD49F24441C2F2CE
:1011F00001210A68014647F66040C2F20020914290
:10120000016001DD216801604FF4803006F056FD79
:1012100044F62451C2F20221086010BDB0B582B07C
:101220004FF230710446C2F2002100680968E1B152
:1012300001281DD0D0B944F2C450C2F20020016888
:101240006068884243D144F2AC30C2F200200068AA
:10125000002840F09A8044F62450C2F2022001682F
:101260004FF4802006F044FD49E0F0B1002593E002
:1012700044F2C450C2F2002001686068884206D07F
:1012800044F2E451C2F20021096888423ED144F29E
:10129000AC300025C2F20020006800287CD149F261
:1012A0008C30C2F20120056076E044F2E0506168C3
:1012B000C2F200200025006881426DD100F0E8F9FB
:1012C0004BF69020C2F202200560012564E044F252
:1012D000E451C2F200210968884231D144F2AC30B5
:1012E000C2F20020006800284FD144F62450C2F218
:1012F000022001684FF4802006F0FAFC404249F2D7
:101300008C31C2F20121086001253FE044F2D8513E
:10131000C2F200210968884206D044F2DC51C2F2D0
:1013200000210968884256D144F2AC300025C2F24F
:101330000020006880BB49F29030C2F20120B2E781
:1013400044F2D851C2F20021096888420FD144F218
:10135000AC30C2F200200068B8B944F62450C2F2A2
:10136000022001684FF4802006F0C2FC87E044F2BE
:10137000DC51C2F200210968884247D144F2AC3006
:10138000C2F20020006800286FD0002542F60460F9
:10139000C2F20120006810B1284602B0B0BD217A27
:1013A00042F21050C2F2002025F0D4F80028F3D009
:1013B00041F6C01045F25652C2F20120C5F2555214
:1013C0000168013151FB02F202EBD27202EB4202E0
:1013D000891A01604AE744F2EC51C2F2002109681F
:1013E000884207D044F2E851C2F2002109688842DD
:1013F0007FF43CAF49F6F4104FF48031C2F2012083
:10140000016047F21430C2F20120E2E744F2EC51ED
:10141000C2F20021096888420FD149F6F4104FF654
:10142000FA21C2F20120016047F2143040F21E514D
:10143000C2F20120C0F2010115E044F2E851C2F20B
:101440000021096888421FD149F6F41040F21E516C
:10145000C2F20120C0F20101016047F21430C2F271
:1014600001204FF6FA2101604EE744F62450C2F203
:10147000022001684FF4802006F03AFC404249F215
:101480009031C2F201213EE744F2E051C2F2002164
:10149000096888420ED14EF6E0400021C2F20020D9
:1014A000012501604BF69020C2F20220056000F099
:1014B0002DF96BE744F2D451C2F200210968884249
:1014C0000CD14EF6E040C2F20020016800295FEA2C
:1014D0001F9101603BD001F004F915E744F2C851B7
:1014E000C2F200210968884219D144F2AC30C2F23C
:1014F0000020016800295FEA1F92026046F64460FE
:10150000002944F23C41C2F20120C2F202216FF0F4
:101510000042026008680CBF59A155A187E044F25F
:10152000CC51C2F20021096888423BD147F6704095
:1015300044F23C42C2F20120C2F2022201680029B8
:101540005FEA1F910160106870D044A16FE049F21A
:10155000983049F63851C2F20120C2F201210068E8
:10156000086049F2A03049F63C51C2F20120C2F2B3
:1015700001210068086049F2943049F63451C2F202
:101580000120C2F201210068086049F2883049F662
:101590003051C2F20120C2F201210068086001F05E
:1015A00088F8B1E644F2D051C2F2002109688842BD
:1015B00019D149F2E4304EF6E445C2F20120C2F2FC
:1015C000002521A222A300681421009028460DF0D6
:1015D0004CF844F23C40C2F202200068C0F8E050EF
:1015E00000F038F990E644F2C051C2F200210968D7
:1015F00088427FF4CAAE4FF00A0E49F2E830C2F2D8
:1016000001204FF0FF3140F8081B0FF005C044F2F5
:101610003C4149F2E430C2F20221C2F20120002230
:101620000968026003A0C1F8E0006DE60EA1C0F8F1
:10163000E01069E6416C6C204D61726B7320436C65
:101640006561726564000000257320256400000058
:101650004D61726B65642053706F740047726964EA
:10166000204F46460000000047726964204F4E003C
:10167000466F6C6C6F77204D6F6465204F46460057
:10168000466F6C6C6F77204D6F6465204F4E000085
:10169000F0B581B046F20464C2F202242078012839
:1016A0000DD101F0BDF84FF230700021C2F20020E0
:1016B000016040F21400C2F200201BF063FB47F609
:1016C000D02640F21005C2F20126C2F20025012107
:1016D000217030682A6840F20C0447F2CC678242DD
:1016E000C2F20024C2F2012703D138682168814286
:1016F00005D0FFF751FD306828603868206000F0A1
:10170000F7FE01B0BDE8F04000F0B4BF10B501F045
:1017100087F84FF230700024C2F20020046040F2DB
:101720001400C2F200201BF02DFB46F20460C2F24E
:101730000220047010BD80B54FF23070C2F200205C
:10174000006850B344F2AC304FF27441C2F2002052
:10175000C2F2002100680A68002802F10100086056
:1017600001D000F0A9FA47F21430C2F2012000685B
:10177000B0F5803F01D000F01AF949F2903049F2FB
:101780008C31C2F20120C2F20121006809680843CD
:1017900003D0BDE8804000F09AB880BD2DE9F0414B
:1017A00049F2943549F29834C2F20125C2F201247B
:1017B00049F2883849F2A0362868C2F20128216827
:1017C000C2F2012600EBD070D8F8002044F624576E
:1017D00001EB6000206046F64C6002EBD271C2F271
:1017E0000120C2F202273268007802EB6101316009
:1017F000002818BF4FF0A070396806F079FA46F655
:1018000040612860C2F201210A78002A18BF4FF413
:1018100028023968104606F06BFA29682368376891
:10182000C8F8000001EBD172A3EB62022260114400
:1018300049F29C32C2F2012200EBD073116049F2EE
:10184000A431C2F20121A7EB63033360184408609E
:10185000BDE8F081F0B549F2943049F29831C2F216
:101860000120C2F2012149F2E43C46F2676E0068B1
:10187000C2F2012C0968C6F2666E00EBD07049F224
:10188000E83249F28835C2F2012201EB6007DCF848
:1018900000104B1CC2F2012553FB0EF002EBC104F9
:1018A0002D6842F83170861049F2A03106EBD070F5
:1018B000C2F2012105EBD57200EB8000096801EB53
:1018C00062016160A3EB4000CCF80000F0BD70B590
:1018D00049F2903049F28C31C2F20120C2F201216A
:1018E0000268096851EA02000CD044F2AC300023CF
:1018F000C2F20020036046F64460C2F201206FF09D
:101900000043036049F2943049F2983EC2F201204C
:10191000C2F2012E49F2A03C066849F24840DEF8C6
:101920000030C2F20120194406EBD673C2F2012C3A
:10193000006801EB6304CEF80010DCF8005084422C
:101940002A44CCF8002006DC49F29C40C2F2012077
:101950000068844203DA5910411ACEF8001049F2A7
:10196000883049F24C45C2F20120C2F201250368D9
:101970002C6803EBD37002EB6005A54206DC49F24C
:10198000A044C2F201242468A54203DA4010221ABE
:10199000CCF80020881949F29C31C2F2012108607C
:1019A00049F2A430C2F20120D118016070BDB0B577
:1019B00047F6604449F6F411C2F20024C2F2012154
:1019C0002068096806F094F9014620604FF48030E1
:1019D00006F074F949F2984144F62455C2F2012107
:1019E0002268C2F20225096828608A4206DB49F2B1
:1019F0004440C2F2012001688A4205DD4FF4803084
:101A0000216006F05BF92860BDE8B040FFF7C6BE74
:101A10002DE9F04F83B049F2A0360546C2F2012607
:101A2000436849F2A4303268C2F2012093425FEA6F
:101A3000AF970468B800A342EB68C8BF0820934280
:101A40005FEAAF92A3424FEA8202C8BF0822024275
:101A500040F0A28049F298398A46C2F201292B68E7
:101A6000D9F800108B4202DA40F0010008E049F298
:101A70009C37C2F201273F68BB42C8BF40F002005A
:101A8000AF688F4202DA42F0010208E049F29C346A
:101A9000C2F201242468A742C8BF42F002020242F7
:101AA0007AD147F66047581AC2F20027396806F023
:101AB0001FF946F640680014C2F20128CAF8000077
:101AC00098F80040002C18BFA82468683168401AB4
:101AD000396806F00DF9A4EB2040CAF80400A868A4
:101AE000D9F80010401A396806F002F998F8004059
:101AF0000014CAF80800002C18BFA824E868316850
:101B0000401A396806F0F4F898F800B0A4EB204CBD
:101B100046F64C60BBF1000FC2F2012018BF4FF037
:101B2000A80BDAF80410DAF8008059455FEABF9292
:101B300000294FEA820248BF0822B8F1FF3FCAF8E5
:101B40000CC00ADD037842F00207B8F5A07F52EA24
:101B50003782002B52EA178501E042F00105DC458F
:101B60005FEABF92DAF808E0BCF1000F4FEA8202A8
:101B700048BF0822BEF1FF3F0ADD037842F00204AD
:101B8000BEF5A07F52EA3482002B52EA148601E0AF
:101B900042F001062E4203D0002003B0BDE8F08FD2
:101BA0000078ABF1010201924FF0FF320290002861
:101BB00018BF40F23F120F46009200BF56EA0500E0
:101BC00078D0002D56EA0580020707D442070FD4CB
:101BD000820755D4C20761D1002369E0AEEB080249
:101BE000A7EB0C037A4392FBF3F200230BE000BF58
:101BF000AEEB0802A1EB0B035A43A1EB0C030F461B
:101C000092FBF3F2019B42445B455FEABF94002BD9
:101C10004FEA840948BF4FF00809A84210D1B2F139
:101C2000FF3FCAE900231BDD49F00200B2F5A07FA7
:101C300059EA3081029C002C51EA108512E000BF65
:101C4000B2F1FF3FCAE902230FDD49F00200B2F50D
:101C5000A07F59EA3086029C002C56EA108606E0E6
:101C600049F001059046194604E049F00106964600
:101C70009C463B462E424FF000001F469ED08CE70C
:101C8000009CACEB0102A4EB08030F465A43AEEBF9
:101C9000080392FBF3F253182246B5E7A1EB0C02BE
:101CA000AEEB080308FB02F20F4692FBF3F2531867
:101CB0000022A9E7012070E72DE9F04744F23C4AF1
:101CC00046F64469C2F2022AC2F2012946F6486881
:101CD000DAF80000D9F80020C2F201280168C868CB
:101CE000824206D10969D8F800208A4208BFBDE8BF
:101CF000F08747F66046C2F20026316805F0F8FF2B
:101D000044F624544FF6FF71C2F20224884321683E
:101D100005F0EEFF49F29437DAF80020C2F201270D
:101D200049F29835C2F201251268396801EBD17188
:101D3000A0EB610028601069316805F0D9FF6FF3EE
:101D40000F00216805F0D4FF49F2883149F2A03331
:101D5000C2F20121C2F20123DAF80060096801EB46
:101D6000D172A0EB620018603B6849F29C37C2F266
:101D700001272A681A4433683A6049F2A432C2F251
:101D8000012208441060D3E90301C9F80000C8F833
:101D90000010BDE8F08700002DE9F04F0268002A2E
:101DA00060D446F64C63C2F201231B78002B18BFA7
:101DB0004FF4A0739A4255D2D0F804C0BCF1000F82
:101DC00050D446F64067C2F201273F78002F18BF73
:101DD000A827BC4546D28668002E43D49E4241DAED
:101DE000C468002C3ED4BC423CDAB71A46F60075F3
:101DF000BA464FF0010B48BFC7F1000AB7F1FF3FE9
:101E00005BEACBBEB4EB0C06C2F2012534460CFBF8
:101E100003274FEA4A0848BF7442B6F1FF3FD5F89E
:101E200000905BEACBB5B8EB440F4FEA440609F8E3
:101E3000071027D98468A24241D0A6EB0A07F144D3
:101E4000B7F1FF3FC8BFAC440CFB0394B7F1FF3FB1
:101E50003744A15472448468C8BFA7EB0807A24264
:101E6000EED12CE04EF6F84340F20400C2F200231B
:101E7000C2F2002013A11A68571C1F60BDE8F04F82
:101E80003DF0B8BFC768BC4508BFBDE8F08F05EBA3
:101E90000C07A8EB040403FB079705FB03F900BF3D
:101EA000B4F1FF3FAC44C8BF7244B954B4F1FF3F32
:101EB000C3684444C8BFA41B9C454F44F0D1BDE84F
:101EC000F08F00BF6675636B202564200D00000055
:101ED0002DE9F04F85B049F298384FF27472C2F292
:101EE0000128C2F2002249F2943949F2A03AD8F806
:101EF000001012688A1AC2F20129D31749F2883BEE
:101F0000C2F2012AC2F2012B02EB532304466FF303
:101F10001603D31A18BFC3F50003D9F80070DAF816
:101F20000000DBF800207E18BB4202EB00070290A5
:101F3000049715DA5F1801AD2846214601970397EB
:101F400000F0F9F807F50007B742F5DBDAF8000012
:101F5000DBF80020D8F80010D9F8003017185E1808
:101F60004FF27873C2F200231B68C31ADD1703EB2C
:101F700055256FF316055B1B18BFC3F5000393428D
:101F8000019103960CDA1E1801AD00BF28462146C8
:101F90000296049600F0CFF806F50006BE42F5DB87
:101FA00005B0BDE8F08F00002DE9F04F87B00129A2
:101FB0005ADB0C469B461646129D03A900F1080AFF
:101FC0000A1D029201F1080201920C31009100BF3A
:101FD0005AE90298CDE903985EB13046494605F0CA
:101FE00087FE814603903046414605F081FE8046DB
:101FF0000490BBF1000F06D003A802995A4600F0E6
:10200000DEFBDDE90398119848440390A94608EBEC
:102010000500DAE900570490CDE905575EB1304676
:10202000294605F065FE054605903046394605F01F
:102030005FFE07460690BBF1000F06D0DDE90010F9
:102040005A4600F0BCFBDDE9055711981099284469
:10205000059007EB0900069003A84D4600F06BF8C9
:10206000013C0AF1100AB3D107B0BDE8F08F0000BF
:102070002DE9F04F81B049F2E83049F2BC37C2F2A5
:10208000012047F6604946F6406A49F2A03B051D2B
:102090000A26C2F20127C2F20029C2F2012AC2F2C4
:1020A000012B00BF55F8040C411C3BD049F298317C
:1020B000C2F201210968401AD9F8001005F018FE93
:1020C0009AF800800446B8F1000F18BF4FF0A80836
:1020D0002868DBF80010401AD9F8001005F008FE57
:1020E000002C1FD4014646F64C60C2F201206FF06E
:1020F0000402007800284FEA244018BF40F23B1247
:1021000090420FDCA8EB214100290BD49AF8002063
:102110006FF00503002A18BFA223994202DC3A6837
:102120001EF0DEFC013E07F1040705F10805B9D1F8
:1021300001B0BDE8F08F10B50C464EF6FC41C2F27E
:102140000021FFF765FC40B14EF6FC402146C2F28B
:102150000020BDE81040FFF71FBE10BD2DE9F04F75
:1021600083B049F6944044F23C4BC2F20120C2F2E3
:10217000022B00680028DBF8000040D042F604681B
:1021800045F6AC59C2F20128C2F2022943F6847422
:1021900043F6947547F60C3AD8F80010D9F80020A9
:1021A00027A60427C2F20224C2F20225C2F2002AA4
:1021B00021B11AB9854201D0002218E02368B3B1D9
:1021C000E86B00280CBF3268F6222968D1E903C009
:1021D0000B6A009207210022CDE901C05046FFF7AB
:1021E000E3FED8F80010D9F80020DBF80000043630
:1021F000013F04F1040405F59075D9D11DE041F6C5
:10220000C0110068C2F20121C76806690968036A43
:102210004FF0D10031B1009042F21870C2F20020AC
:10222000102105E0009047F60C30C2F20020072193
:102230000022CDE90176FFF7B7FE03B0BDE8F08FCD
:10224000700000006000000040000000B0000000CE
:102250002DE9F04F83B049F60451C2F2012109681B
:10226000012933DB45F6405949F238284EF654250A
:1022700004464FF0000BC2F202294FF0580AC2F296
:102280000128C2F2002500BFD9F800000BFB0A00AC
:10229000876CBFB1D8F800103B6AD7E90306214428
:1022A000009103214FF48012CDE901062846FFF783
:1022B0007BFEBF690FB12FF013C849F60450C2F27C
:1022C000012001680BF1010B8B45DDDB03B0BDE89C
:1022D000F08F00002DE9F04F81B049F6F44BC2F2C7
:1022E000012BDBF80000012865DB49F240284EF69F
:1022F0000C5441F6C01949F2382A0026C2F20128CE
:10230000C2F20024C2F20129C2F2012A002500BF54
:10231000D8F80000811980594B6802684068C4E908
:1023200000200A8A1868A060D9F800005B68E360A2
:1023300030B14B6B23B34F8A272F0FD1B82123E045
:10234000D3052BD444F23C40C2F202200068406C1A
:10235000E8B112F080001AD1632115E092060FD483
:10236000096B1F680A6897421BD149685A688A42FC
:102370001CD160B1DAF8000000F1600104E000BF98
:10238000DAF8000000F1B0012046FFF7D4FEDBF8D8
:102390000000013540368542BADB0CE01306C8D593
:1023A000F5E7DAF8000000F14001EDE7DAF80000A7
:1023B00000F1E701E8E701B0BDE8F08F2DE9F04753
:1023C00049F2A0406FF00041C2F201200122C8F2A0
:1023D0000002016049F29C40C2F20120016049F60E
:1023E0002850C2F2012049F24C41C2F20121D0F83A
:1023F00000E049F24840C2F20120BEF1010F0A603C
:1024000002603DDB4BF6882049F29C4CC2F2022070
:1024100049F2A04849F24C4949F2484A0068011D76
:102420006FF00044C2F2012CC2F20128C2F201296D
:10243000C2F2012A6FF00046174600BF51F8043C73
:10244000A34203DA654610461C4603E09342554614
:10245000184601DD02462B600B68B34204DA45469C
:1024600038461E4604E000BFBB424D46184601DD1B
:1024700007462B6008310FF01FC8111BBA1B01E083
:102480000221022246F64C6049F24045C2F2012088
:10249000C2F2012500782A60002818BF4FF0A07012
:1024A00005F00CFC46F640660446C2F2012632787E
:1024B000002A18BF4FF428022968104605F0FEFBD9
:1024C00049F298428442C2F2012254EAB081307843
:1024D00011604FF40011002818BF4FF4280005F0D8
:1024E000EDFB49F24441C2F201210860BDE8F087EA
:1024F000F0B581B04FF230700121C2F200204EF6EB
:10250000706244F62454C2F20022016046F6446030
:10251000C2F201206FF00041C2F202241268016091
:102520004FF27440C2F200200021016049F23820CD
:10253000C2F20120016049F29030C2F20120016034
:1025400049F28C30C2F20120016047F21430C2F22D
:1025500001204FF48031016049F6F410C2F20120ED
:10256000016046F64C60C2F2012046F60071C2F2EC
:10257000012100780A60002818BF4FF0A070216880
:1025800005F0B6FB46F6406149F29436C2F20121ED
:10259000C2F201260A783060002A18BF4FF42802E0
:1025A0002168104605F0A4FB42F6A8510446C2F289
:1025B000012143F68470C2F202200A6849F2883190
:1025C000C2F2012150F822000C60002844F23C4184
:1025D00043F69470C2F20221C2F202203BD002EB19
:1025E000C20200EB421008603568006849F2983674
:1025F00049F2A03705EBD571D0E90320C2F20126DC
:10260000C2F20127A2EB610104EBD4723160A0EBAE
:1026100062003860FFF75BF949F638503168C2F262
:10262000012049F63C5249F63053C2F201220160C2
:1026300049F63450C2F20120C2F201233968116018
:10264000056040F22800C2F200201C6001B0BDE825
:10265000F0401AF097BB43F684730022C2F20223C3
:10266000086000BF1D68002DB9D101320433042A6F
:10267000F8D1B9E7F0B583B049F2BC3741F2A465AF
:102680000024C2F20127C0F205250DF1030600BFA8
:10269000092130462A4623463AF00CFB01213046F8
:1026A00020F0CEFD013447F8040B0A2CF0D103B022
:1026B000F0BD80B549F2984047F66042C2F2012071
:1026C000C2F2002201684FF48030116005F0F6FA82
:1026D00044F62451C2F202210860BDE88040FFF7B1
:1026E0005DB810B549F6345049F63052C2F20120B7
:1026F000C2F20122016849F29430C2F2012012684C
:10270000016044F2AC30C2F200200068002849F2B7
:102710008830C2F20120026015D044F23C4001EB47
:10272000D17CC2F2022002EBD27400680068D0E9CA
:10273000033EA3EB6C0049F29833C2F20123186008
:10274000AEEB64030FE049F6385049F2983C49F685
:102750003C53C2F20120C2F2012CC2F201230068F4
:10276000CCF800001B6849F2A0340844C2F20124EE
:102770001A44236049F29C34C2F20124206046F6D8
:102780004C60C2F2012049F2A434C2F20124007864
:102790002260002818BF4FF0A07005F08FFA47F6AE
:1027A00060420146C2F2002210604FF4803005F012
:1027B00085FA44F62451C2F20221086010BD2DE9C9
:1027C000F04381B044F2A838D60CC2F200280D467E
:1027D00004460068D8F8003053F8261005F088FA4F
:1027E00040F600418146C0F20421286851F8267065
:1027F000394605F07DFAA9EB00092068394605F055
:1028000077FAD8F800100746286851F8261005F026
:102810006FFA38442860C4F8009001B0BDE8F08336
:1028200070B584B041F2A4650024C0F205250DF115
:10283000070600BF092130462A4623463AF03AFAF5
:10284000304620F0BBFF01340A2CF3D104B070BD38
:102850002DE9F04381B049F6991849F2443904460C
:102860000026C0F29918C2F2012900BF206A06FBB7
:102870000801A06F4FF0806201F160410CF090FD03
:10288000D9F80010D1B14A6C01F10C030BCB03EB6A
:10289000A2022A2311F0F1F900250F2710F0A8FA5F
:1028A00000F00700013F284400F10105F6D1A16FB7
:1028B000D9F800000A462B460EF0CAF90136282E38
:1028C000D4D101B0BDE8F083006809211BF050BFEE
:1028D00010B54F2104461BF04BFF2046BDE81040C9
:1028E00000F04FBAB0B590B044F2D041C2F200212E
:1028F000D1F800E0BEF1020F0ED147F6D021C2F2AE
:102900000121096807296ED1826D4FF0070C082A52
:1029100053D0142A51D066E044F2D441826DC2F201
:1029200000210968052912D847F6D021C2F20121F9
:102930000968082957D10F2A4FF0080C3DD147F2FA
:10294000CC61C2F20121096801294CD135E047F27E
:10295000CC61C2F201210968013903290ED8DFE8F0
:1029600001F00215206A0F2A3DD147F6D021C2F2AC
:1029700001210968082936D10F221CE047F6D02131
:10298000C2F201210968082915D02CE0152A2AD1A4
:1029900047F6D021C2F201210968082923D1152266
:1029A00009E0132A1FD147F6D021C2F2012109689C
:1029B000082918D113224FF0080C43F6947143F6FE
:1029C0008474C2F2022104232831C2F2022400BF1F
:1029D000256815B10D68002D07DC013B04F10404E6
:1029E00001F59071F4D110B0B0BD002BFBD046F6CC
:1029F0005C13C2F202235968994211D042F2B934F1
:102A0000C0F201248D68A54207D1814205D08D6DA9
:102A1000954202D1CD6E002DE5DC49689942F1D195
:102A2000BEF1020F1ED1BCF1070F34D1142A3ED0E3
:102A3000082A35D02FE047F6D02182F01503C2F2E4
:102A40000121D1F800C08CF006018CF008040B4382
:102A500082F0130121435FEA1F91002BADD00029C2
:102A6000C1D0AAE747F2CC60C2F201200068042876
:102A700002D0012814D00EE0BCF1080F10D0BCF138
:102A8000060F08D140F29A20ADF8140068460621DE
:102A900003F012FEA7E710B0BDE8B04006F00CBC92
:102AA00040F29A20ADF814006846012105E040F29A
:102AB0009B20ADF814006846052103F097FE92E7CD
:102AC00010B546F65C1149F6EC4CC2F202214FF605
:102AD0003003C2F2012CC2F200234A6800208A426D
:102AE0001860CCF8000018D042F2B9304FF6340E1E
:102AF0000023C0F20120C2F2002E00BF946884427D
:102B000008D1946D1B2C05D14EF823200133CCF84D
:102B1000003000BF52688A42F0D100206021BDE839
:102B200010401BF025BE06F0C7BB70B50446C66852
:102B300010F05EF9054610F05BF9281A246906EBDF
:102B4000C02510F055F94004212300F180022846E9
:102B5000214611F092F8044610F04AF9400220652F
:102B600040F21F31204610F069FB10F041F900F0EF
:102B70000700216E081A0128D8BF0120206670BD09
:102B8000002061211BF0F4BD70B50446C068A0F5BB
:102B90004C0500BF206905F50025A0F1A07610F0D6
:102BA00027F94004212300F180022846314611F024
:102BB00064F8064610F01CF94002306540F21F31FF
:102BC000304610F03BFB10F013F900F00700316EB7
:102BD000E268081A02F19C710128D8BF01208D42D9
:102BE0003066D7DB00206221BDE870401BF0C0BD1D
:102BF000B0B5044647F6D820C2F201204EF61C516B
:102C0000C2F2002100680128086880F00100086015
:102C100001DC00B9B0BD4FF6300049F6EC42C2F21B
:102C20000020C2F20122016812684B1C93FBF2F5EE
:102C300005FB12324FF63403C2F2002302601C225D
:102C4000204653F82150294610F0B8FF0246286963
:102C50002169401AD16C536E90FBF1F0996890FB9A
:102C6000F1F300205E21C2E91E53BDE8B0401BF025
:102C70007FBD10B50446806FD8B120460DF006FB2D
:102C8000C0B1372120461BF073FD10F0B1F8C11719
:102C9000224600EB517121F00701401A0A2100EB96
:102CA000800001EB4003A06F2146BDE810400DF00D
:102CB000CFBF10BDA16F10222046BDE8104010F01C
:102CC0007DBF10B50446806F48B1204600F030F952
:102CD000A16F24222046BDE8104010F06FBF10BD48
:102CE000F0B581B00446806F78B3022120461BF016
:102CF0003FFD204600F01CF9266A4FF00062204696
:102D000031460CF04DFB054610F072F8074610F006
:102D10006FF8381A06EB005610F06AF846F2676151
:102D20002B46C6F2666150FB01F14A1002EBD171ED
:102D30004FF0006201EB8101401A314600EB400088
:102D40000330009020460EF0EDFE01B0F0BD10B54E
:102D5000044600F0EDF810F04BF82828B8BF10BD7D
:102D6000A16F39B1C86E012804DB20460DF0F2FBDB
:102D700000B110BDE06DC1682046BDE8104010F004
:102D80005DBA10B50446C06F08B10138E067D4F8E9
:102D9000801041B1A26F00201AB1D26E002AC8BFC4
:102DA000481EC4F88000216F07290FDC206A00F05C
:102DB00060402062A0EB4171002904DD4FF06041CA
:102DC0000844206202E0B1F1FF3F5BDDA06F18B163
:102DD00090F86800400705D4012120460FF08EFAD4
:102DE000A0B110BDA06E010617D4E06D816A51B389
:102DF00020460DF04BFA0028E06D24D0816919B10E
:102E000020461BF0B5FCE06D816A01E0E06D416891
:102E10002046BDE8104010F011BA47F6D82120F046
:102E20008000C2F20121A06609680429D9D046F6C3
:102E3000FC60C2F2012000680028D2D12046BDE823
:102E400010400FF0DFBBC06AF8B147F6D820C2F2DD
:102E500001200068032807DC46F6FC60C2F201206E
:102E6000006808B9606F80B920460DF02BFA60B198
:102E7000E06DC16A204610F0E1F9A06E40F08000DC
:102E8000A06610BD4FF000519AE749F69440C2F297
:102E90000120006870B1D4F8800058B9A16F2046B5
:102EA0000DF058FB30B9012120460FF027FA002819
:102EB0007FF497AF606F0138606703DB20460FF047
:102EC000C9FA10B920460FF09DFBE06D006D002897
:102ED0003FF487AF0FF08CFF0228C8BF10BDE06D34
:102EE000016D2046BDE810401BF042BC0DF065B9F5
:102EF000B0B50C460546006806211BF039FC284693
:102F00002146BDE8B04000F0C1BC10B50446806F5A
:102F100048B1204600F00CF8A16F21222046BDE800
:102F2000104010F04BBE10BD816F80220FF010BF1B
:102F3000B0B5836FD3B10446C068A26E216922F098
:102F40002002A266D3E9032317F00FFAA16F2062D3
:102F500091F86A00400709D50FF04AFF05460FF0C7
:102F600047FF281A216A01EB40502062B0BD816EF4
:102F700021F0020181667047B0B50446FFF7D8FF23
:102F8000216AA06F01F10061216211F043F9054649
:102F900009222046294610F011FE09222046294622
:102FA00010F00CFE44F2A8320446006AC2F200227D
:102FB00000F10060E16D1268C50C2062C86B52F828
:102FC000251004F095FE40F60042E16DC0F20422A7
:102FD000A064C86B52F8251004F08AFEE064B0BD0E
:102FE000B0B50446FFF7A4FF216AA06F01F1784154
:102FF000216211F00FF9054609222046294610F0FA
:10300000DDFD09222046294610F0D8FD44F2A83201
:103010000446006AC2F2002200F17040E16D1268BD
:10302000C50C2062C86B52F8251004F061FE40F612
:103030000042E16DC0F20422A064C86B52F8251072
:1030400004F056FEE064B0BD2DE9F04381B00446C3
:10305000FFF76EFFA06F11F0DDF80546092220464C
:10306000294610F0ABFD44F2A8380646006AC2F2C9
:10307000002800F17C40F16DD8F80020C70C3062C8
:10308000C86B52F8271004F033FE40F60049F16D8A
:10309000C0F20429B064C86B59F8271004F028FE68
:1030A000F06409222046294610F088FD0446006A93
:1030B00000F18060D8F80020E16DC50C2062C86B7B
:1030C00052F8251004F014FEE16DA064C86B59F8A5
:1030D000251004F00DFEE06401B0BDE8F08310B5EA
:1030E0000446FFF725FF63212046BDE810401BF092
:1030F0003FBBF0B581B0D0F898507DB30446806FE7
:1031000011F088F829460DF025FA38B320462E6ACA
:1031100012F0BDFA44F2A830F60CC2F20020EF68BB
:10312000006850F826104FF4C01004F0E1FD384458
:10313000E06040F600402F69C0F2042050F82610ED
:103140004FF4C01004F0D4FD384420616869606118
:10315000204601B0BDE8F04010F0C9B801B0F0BDA4
:10316000816F4EF6A822C2F2002201EB410152F813
:10317000311000EB810200682321D2F8A430283BF3
:10318000C2F8A43010F05CBE70B50D46044600686D
:1031900001211BF0EDFAA06F4EF6A826C2F2002620
:1031A00000EB400056F8300004EB8000D0F8A4009B
:1031B000B0B320689B2110F041F8A06F00EB4000F5
:1031C00056F8301006EBC00004EB8101D1F8A420C2
:1031D000013AC1F8A42040692968C0EBC00001EBA6
:1031E000800047F6CC61C2F20021401A46F6B75182
:1031F000A0F5B660CBF2DB61801000FB01F201218B
:10320000204610F041F820680CF072FED4F8D0008F
:1032100000285FEA1F912068BDE870400EF026BAD2
:1032200070BD10B55B2104461BF0A2FA2046BDE834
:103230001040FFF75EBF816F4EF6A822C2F2002257
:1032400001EB410152F8311000EB810200682121AD
:10325000D2F8A430013BC2F8A43010F0F1BD10B593
:103260000446006801211BF083FA20689B210FF0BF
:10327000E5FFA06F4EF6A821C2F2002100EB40004E
:1032800051F8302001EBC00004EB8202D2F8A41008
:103290000139C2F8A4104269012120460FF0F4FF61
:1032A00020680CF025FED4F8D00000285FEA1F91BA
:1032B0002068BDE810400EF0D9B9B0B50446806F63
:1032C0004EF6A82100EB4000C2F2002151F8302058
:1032D00001EBC00004EB8202D2F8A4100139C2F85D
:1032E000A41045690FF084FD00F00100012142198E
:1032F00020460FF0C9FF20682221BDE8B04010F041
:103300009FBD0000B0B50446006802211BF030FAF2
:1033100020689B210FF092FFA06F4EF6A821C2F209
:10332000002100EB400051F8302001EBC00004EB1D
:103330008202D2F8A4100139C2F8A4104269012116
:1033400020460FF0A1FF20680CF0D2FD072500BF3A
:10335000206800210EF08AF9013DF9D1B0BD0000CE
:103360002DE9F04F81B08046006804211BF000FA7F
:10337000D8F800009B210FF061FFD8F878004EF6D6
:10338000A821C2F2002100EB400051F8302001EBEF
:10339000C00008EB8202D2F8A4100239C2F8A410CF
:1033A0004269012140460FF06FFFD8F800000CF091
:1033B0009FFD4FF6B80A1424C2F2002A0FF018FD40
:1033C00045F25651C5F2555150FB01F101EBD17157
:1033D00001EB4101401AD8F8001000EB80000E6AA2
:1033E00000F1050B0FF004FD05460FF001FD281A52
:1033F000DAF8009006EBC045D8F800600FF0F8FC52
:1034000007460FF0F5FC381A4FF000622946CDF858
:1034100000B009EB401330460EF084FB013CCDD1E7
:1034200001B0BDE8F08F10B5044600689B210FF095
:1034300005FFA06F4EF6A821C2F2002100EB40006C
:1034400001EBC000012142692046BDE810400FF0A9
:103450001BBF10B50446806F00B32046FFF768FD20
:1034600020460CF013FFD0B10FF0C2FC4AF6AB219E
:103470002246C2F6AA2150FB01F101EBD17101EB0A
:103480004101A0EB41000A2100EB800001EB400369
:10349000A06F2146BDE810400DF0DABB10BDA16F52
:1034A00020222046BDE8104010F088BB10B5542102
:1034B00004461BF05DF92046BDE81040FFF761BCF3
:1034C00080B590B046F65C1E836EC2F2022E23F0E9
:1034D00002038366DEF80420724512D042F2B93C42
:1034E000C0F2012C9368634508D1824206D0836DF7
:1034F000916D994202D1D16E00290ADC5268724561
:10350000F0D140F29A20ADF814006846032103F090
:10351000D3F810B080BD0021C0F8F0107047012131
:10352000C0F8F01070470221C0F8F0107047006832
:1035300007211BF01DB970B50446406B0068816916
:103540000020C4F8800019B191F86800400705D444
:10355000002120460EF0D2FE50B970BD94F86800EC
:10356000A167800604D520460CF0F4FF0028EFD0B8
:10357000E06D0169A1F12400032806D3A1F1270021
:1035800002281AD22725022601E0242503260FF05F
:103590002FFC90FBF6F101FB16004119A06D1528D8
:1035A0001ABF1328204600201BF0E2F8E06DC16826
:1035B0002046BDE870400FF041BE0029EED1F5E78E
:1035C000CA68B2F5F40F02F5C022CA60B8BF7047EE
:1035D0004268012A03D14FF40000C8607047816A35
:1035E00019B1C16F81670CF060BC002100220FF09F
:1035F0004BBE10B5552104461BF0BAF82046BDE875
:103600001040FFF7BEBB006805211BF0B1B8C16DCB
:10361000496A09B11BF0ACB8704710B50446806F19
:1036200040B12046FFF784FC216A2046BDE81040E7
:1036300000F01CB810BD10B50446806E20F00200EA
:10364000216AA06601F18041204600F00FF8206A4F
:1036500080F00041204600F009F8206A00F1404166
:103660002046BDE8104000F001B800002DE9F0410F
:1036700046F65C120446C2F202225368934213D00B
:1036800042F2B9360020C0F2012600BF9D68B54263
:1036900003D19D6D122D50EA10905B689342F5D1D5
:1036A0001428C8BFBDE8F08144F6DC02E06DC2F228
:1036B000002244F2A833006CC2F20023D2F8B826EC
:1036C000CF0C10444FF480221B68E66800EB4000EA
:1036D00053F8271000EBD07002EB6005284604F089
:1036E00007FB00EB060840F60040C0F20420266904
:1036F00050F82710284604F0FBFA6269811902F598
:1037000000221223404610F0B8FAD0E90312054611
:1037100011F004FA30B1A06FA8672846BDE8F04167
:1037200000F019BA42F21073284621462246BDE83D
:10373000F0410DF08DBA44F2D041C2F20021096887
:1037400002294FF0390104D1C26E12F1320F51EA51
:10375000A1911BF00DB8F0B581B00446806F78B32D
:103760002046FFF7E5FB266A4FF00062204631460F
:103770000BF016FE0546012120461AF0F9FF0FF066
:1037800037FB07460FF034FB381A06EB00560FF0F4
:103790002FFB46F267612B46C6F2666150FB01F1D2
:1037A0004A1002EBD1714FF0006201EB8101401A27
:1037B000314600EB40000330009020460EF0B2F995
:1037C00001B0F0BDF0B581B004460FF011FB46F238
:1037D0006761C6F2666150FB01F18A1002EBD1719C
:1037E00001EB8101A0EB4100022101EB40062068C2
:1037F000A16B06EB8602002918BF5600076A0FF07E
:10380000F7FA05460FF0F4FA281A4FF4800207EB96
:103810008045206829460BF0C3FD034620684FF41D
:103820008002294600960EF07DF949F24435C2F235
:103830000125286868B1206853211AF099FF216892
:103840002B68D1E90301D3E9032316F08EFD21682B
:10385000086201B0F0BD8C46C968B1F5181FA1F52A
:10386000C021CCF80C10C8BF7047816F4EF6A8225B
:10387000C2F200224FF4001301EB4101CCF80C30EE
:1038800002EBC101CA6800210FF0FEBC417BC907F1
:103890000BD0C16F0A2908D1816A31B1D0F8D0109C
:1038A0000131C0F8D0100DF0B1BC0021C0F8D0102B
:1038B0000CF083BC2DE9F04381B08046806FA0B34B
:1038C000022140461AF054FF4046FFF731FBD8F87A
:1038D00020504FF00062404629460BF061FD46F251
:1038E000676906460324C6F2666900BF0FF080FAD6
:1038F00007460FF07DFA381A05EB00570FF078FAFB
:1039000050FB09F133464A1002EBD1714FF00062CF
:1039100001EB8101401A394600EB40000330009072
:1039200040460EF0FFF8013CE0D101B0BDE8F08365
:1039300010B50446806FF8B12046FFF7F9FA20462B
:103940000CF0A4FCC0B10FF053FA46F26761C6F266
:10395000666150FB01F18A0802EBD171224601EB4E
:103960008101A0EB4100042101EB8003A06F2146FF
:10397000BDE810400DF06CB910BDF0B581B0044643
:103980000FF036FA46F26761C6F2666150FB01F14C
:103990008A1002EBD171022201EB8101A0EB410000
:1039A000216802EB40070E6A0FF022FA05460FF07D
:1039B0001FFA281A06EB80450126C0F2400620684F
:1039C000294632460BF0ECFC034620682946324675
:1039D00000970EF0A7F849F24435C2F20125286895
:1039E000002820681BD00D211AF0C2FE21682B6828
:1039F000D1E90301D3E9032316F0B7FC21680A6A71
:103A0000831AB3F1004F10D94CF6CD46CFF6CC4611
:103A1000B34216D243F2C302C0F20C320FE00C21C3
:103A200001B0BDE8F0401AF0A3BE43F23336C0F255
:103A30003336B34205D94CF63D72CFF6F34210440B
:103A400000E090190862886E40F08000886601B03E
:103A5000F0BD70B50446C06D816BA1F13B00032839
:103A600006D3A1F13E00022812D23E25022601E033
:103A70003B2503260FF0BCF990FBF6F101FB160085
:103A80004119A06D152818BF132804D1002003E0A8
:103A90000029F6D170BD2046BDE870401AF068BE1E
:103AA000B0B50446806F30B32046FFF741FA204698
:103AB0000CF0ECFBF8B10FF09BF946F26761C6F22F
:103AC000666150FB01F18A1002EBD17101EB8101BB
:103AD000A0EB4100062100EB400001EB4005352141
:103AE00020461AF045FEA06F214622462B46BDE82F
:103AF000B0400DF0ADB8B0BD10B50446806FD8B180
:103B00002046FFF715FA6069A16F00F5801060612B
:103B10000622204610F052F86169D4F878C0A1F569
:103B200080116161D0E90313C0F898C0D0E9124256
:103B300021441A44C0E9031210BD10B50446806F39
:103B400040B12046FFF7F4F938212046BDE8104087
:103B50001AF00EBE10BD70B5856F002D43D004461F
:103B6000C06DA16E41F08071A166816920461AF096
:103B7000FFFD2046FFF7DCF944F2A831206AC2F2CB
:103B80000021C60C4FF4A010096851F8261004F06B
:103B9000AFF840F60041A064C0F204214FF4A01039
:103BA00051F8261004F0A4F8E064D5E90301D4E943
:103BB0000323801AC91A0BF052FC46F267616A6946
:103BC000C6F2666150FB01F0C11401EBD070696C64
:103BD000012802EB61016269A1EB0201D8BF01205B
:103BE00091FBF0F0206570BDB0B50446C06F0138A0
:103BF000E06718BFB0BDA06F10F00CFB0546C068B1
:103C00001D23D5E9041210F038F823211AF0B0FD75
:103C10000FF0EEF8322801DA0B2323E05A2801D204
:103C20000C231FE0782801D20D231BE0822801D24B
:103C3000162317E0A02801D20E2313E0A22801D2F8
:103C400003230FE0AC2801D205230BE0C02801D2EA
:103C5000142307E0DE2801D2082303E00F23F6280F
:103C600038BF112305F10C0207CA10F006F8012134
:103C700005460EF043FB20B1E86DC16828460FF001
:103C8000DDFAD5E90312284610F0D0FA2046BDE847
:103C9000B0400FF0BDB910B55F2104461AF068FDC1
:103CA0002046BDE81040FFF79FBF10B50446FFF760
:103CB0003FF90FF09DF80A28B8BF10BDA16F39B1C8
:103CC000C86E012804DB20460CF044FC00B110BD96
:103CD000E06DC1682046BDE810400FF0AFBA10B5E6
:103CE0005C2104461AF044FD2046BDE81040FFF771
:103CF00000BA70B547F6E021C2F2012109788907C0
:103D000000D070BD0446C068D4E9041210F0FBF87E
:103D100004F10C02D4E9123607CAC01A891B072322
:103D20000FF0ABFF05464FF4803028650FF060F8C8
:103D300000F00300296E081AD4F898600128D8BF53
:103D40000120002E2866DCD0F06E0128B8BF70BDBF
:103D5000D4E90301D6E9032316F007FB216A884260
:103D600014D041F6C053421AC2F20023B2F1004F00
:103D70001A6804D9891A421A51EA408005E01144B0
:103D8000421AB2F1004F50EA8180206244F2A83218
:103D9000E16DC2F20022C50CC86B126852F8251002
:103DA00003F0A6FF40F60042E16DC0F20422A064D9
:103DB000C86B52F8251003F09BFFE064D6E90301BD
:103DC000D4E90323801AC91A0BF049FBE16D72692B
:103DD000C96B90FBF1F06169511A01F520110128BE
:103DE000D8BF0120226D91FBF0F04FF400519042BA
:103DF00051EAA1B01044206570BD10B50446806F33
:103E0000E0B12046FFF794F820460CF03FFAB0B13D
:103E1000372120461AF0ACFC0EF0EAFFC11722460B
:103E200000EB517121F00701401A214600EB4000E0
:103E3000C31CA06FBDE810400CF00ABF10BDA16FFD
:103E40001F222046BDE810400FF0B8BEF0B581B08B
:103E50000446806F002842D02046FFF769F8A16F22
:103E600020460CF077FBD0B3522120461AF080FC9C
:103E7000A06F1423214622460CF0EAFEA06F4FF0FB
:103E80007A72D4F89850C16D896C92FBF1F101659A
:103E90002DB344F2A832216AC2F20022CE0CC768C8
:103EA0004FF4C010126852F8261003F021FF381AA0
:103EB000E86040F60040A16FC0F204200F6950F89E
:103EC00026104FF4C01003F013FF4622381A286161
:103ED0002846214601B0BDE8F0400EF039BF01B0E0
:103EE000F0BD00002DE9F04F81B08346006F082837
:103EF00039D04EF68443DBF85C10C2F20023DBF8C5
:103F00000C20C96BDBF8107053F8203003FB012242
:103F10004FF6C823C2F202231A604EF6A443C2F23F
:103F2000002353F820004FF6CC2300FB01704FF222
:103F30007471C2F20021C2F2022309681860511A9A
:103F40004FF6C423A1F5800201F58001D5154FF28B
:103F50007872C2F20022C2F20223B5EBE15F12686E
:103F6000C3F800B005DD584601B0BDE8F04FFEF7DC
:103F700008BF801A4EF60B56A0F5800200F58000AF
:103F80004FEAE2584FEAE059B8EBE05F58EAC980DF
:103F90004FEAE15AC0F20026441CC845474608DCF7
:103FA0002846394632460BF00FFF38B10137BC4284
:103FB000F6D1554505F10105EFD1D4E742F6AC54F1
:103FC000DBF87850C2F201242068CBF8780058461C
:103FD000FEF7AEFF4FF485715846CBF878500FF0DE
:103FE0002DF920681F211AF0C3FB2068C56DA96D4B
:103FF0000FF024F920686A6D416C89004164A9685A
:10400000C0E91A210021816701B0BDE8F08F362197
:104010001AF0AEBB10B50446806F98B12046FEF78B
:1040200087FFA16F0423C8684A6901460FF025FE87
:104030008467C4F89800A16FC0F89810BDE81040DC
:10404000FFF757B810BD70B547F6CC660446006858
:10405000C2F2002641F2D8020D46B318426E9A42CF
:1040600004D041F2F40131448A4202D195210FF08B
:10407000E5F8A06F072808D106F25470296881423C
:1040800003D120680B211AF073FBE06F0A2808D1D6
:10409000A06A30B1607BC00713D10020C4F8C4000F
:1040A00017E0A06F4EF6A821C2F2002100EB4000FD
:1040B00001EBC000002182682046BDE870400FF08F
:1040C000E3B8D4F8C40038B3A06F40F0020006286B
:1040D00022D149F23420C2F20120066844F2A8300D
:1040E000C2F2002006F03F0149020268606A51589E
:1040F00003F0FEFD06F01F0140F600424902C0F247
:10410000042200F58030A860606A515803F0F0FD89
:1041100000F50010E86070BD0120C4F8C40020461E
:10412000BDE870400DF072B81F211AF021BB2DE9D7
:10413000F04184B047F6E0204BF66811C2F201204E
:10414000C2F2022104680E6807F0D7F949F270350F
:10415000C2F201252868006880472868C068804747
:1041600046F65800C2F20120006818B1002004B0E1
:10417000BDE8F08149F6984194FBF6F0C2F20121C6
:1041800049F2B038C2F20128097829B1D8F80010F4
:10419000081A0428EADC0EE049F68841C2F201213F
:1041A0000A68D8F80010A1EB000012B10828DDDC85
:1041B00001E00228DADC2A68002003900290CDE9B1
:1041C0000000684652689047D8F8001046F668121A
:1041D000C817C2F20222DDE9006501EB5060DDE99B
:1041E000024720F07F00081A0131C8F8001000EBE8
:1041F000800002EB4013400116500120C3E9015436
:10420000DF60C3F88000B2E72DE9F04180464BF64D
:10421000D01044F26847C2F20220C2F202270D46D3
:10422000006800213A680123002634F016FF0028B8
:1042300000F09C8038680678B11E022911D3002E48
:1042400000F09480012E18D14BF6D4110222C2F254
:1042500002210A704EF62052C2F200220021117093
:1042600010E04BF6D4124EF62053C2F20222C2F2F4
:10427000002301211170197004E04EF62051C2F2A2
:104280000021097840F65C224FF00B0EC0F20422A8
:1042900049F2901604320023C2F20126012B5FEA94
:1042A0009F970F40012F13D18788012F10D01488BA
:1042B000BC420DD85488BC420AD3C78832F8044C9B
:1042C000BC4205D832F8024CBC4228BF337000BF54
:1042D000013308320FF01FC03078411E092912D86F
:1042E0001B20DFE801F0052A121416181A1C1E20E4
:1042F00049F26840C2F2012001680D20002908BF80
:104300006FF05C0019E0002630E0092015E02D2058
:1043100013E02B2011E0AD200FE0AF200DE0AC202A
:104320000BE0AE2009E049F26840C2F201200168CA
:104330000D20002908BF6FF05D00287047F22000B3
:10434000C2F201200178012905D10126C8F80060D8
:10435000022101700AE04BF6D4100126C2F20220BD
:10436000007801285FEA1F90C8F800003046BDE8D9
:10437000F08139F0E9BA0000B0B586B039F0E4FA5E
:1043800000208DF803004EA003900A200190032026
:104390008DF808000DF10300049041F2140001A90A
:1043A000C0F2052035F0C8F808B147A021E04FF46D
:1043B0004870ADF816004FF4F070ADF8140041F2FB
:1043C0001400C0F2052034F072FD4BF6D015C2F295
:1043D0000225286030B14FF4807134F06BFD50B38A
:1043E00049A000E041A036F09CF840F6FE70C0F213
:1043F000052036F096F856A037F0B8FB42F6056275
:104400000121C0F203220023044637F07BFB28B1D0
:1044100040F6D770C0F2052036F083F8012120461F
:1044200037F0C4FB28B140F6C070C0F2052036F06A
:1044300078F806B0B0BD0C2036F0A3F80446286822
:104440004FF4B051224634F005FD20786278A3780D
:10445000A0F1300140F6EE70303A303BC0F205205A
:1044600036F05FF828680DF1160241F2036134F06E
:10447000F1FC286805AA41F2046134F0EBFC2868DD
:1044800041F20161224634F0E5FC616823A036F078
:1044900048F8A16825A036F044F8A17827A036F0A6
:1044A00040F8204634F0C2FF01200C2134F0D4FA49
:1044B00044F268410028C2F2022108609BD194E7CF
:1044C0007363693369000000746F75636820646505
:1044D000766963652067743931343720696E697491
:1044E000206661696C65642E0A00000063616E27B6
:1044F000742066696E6420646576696365206774FC
:104500003931310A000000006F70656E20646576F5
:10451000696365206661696C6564210072616E671C
:10452000655F78203D202564200A000072616E6777
:10453000655F79203D202564200A0000706F696E58
:10454000745F6E756D203D202564200A0000000018
:10455000703930370000000038F08EBF4FF26440F1
:104560000121C2F20020016070470000000000003D
:10457000F0B583B007F0CDF806F007FC06F064FB59
:1045800006F002FC07F0C6F807F02EFC07F042FA2E
:1045900007F0F0FA042007F001FA35A047F61821D9
:1045A000C2F2002190ED001F49F2B410C2F20120C6
:1045B00080ED001F32A007F00FFC47F6784135A0D0
:1045C000C2F2002107F008FC47F6442134A0C2F2F1
:1045D000002107F001FC47F67C4135A0C2F2002122
:1045E00007F0FAFB47F6644135A0C2F2002107F05C
:1045F000F3FB42F69C6136A0C2F2012107F0ECFB0E
:1046000047F6944135A0C2F2002107F0E5FB4EF6D3
:10461000A42136A0C2F2002107F0DEFB4EF69C2159
:1046200038A0C2F2002107F0D7FB47F680413AA03C
:10463000C2F2002107F0D0FB42F2E84545F61A66C7
:104640000024C2F20025C0F205266F460C21384630
:10465000324623460AF009F83846294607F0BCFBE3
:10466000013404350A2CF1D103B0F0BD00BF00BF06
:104670006700000069000000620000007200000096
:104680006D6F7573655F73656E7369746976697450
:10469000790000007366785F766F6C756D65000059
:1046A0006D757369635F766F6C756D6500000000F2
:1046B00073686F775F6D6573736167657300000082
:1046C00073637265656E626C6F636B7300000000EC
:1046D00064657461696C6C6576656C00736E645FAB
:1046E0006368616E6E656C730000000076616E69D0
:1046F0006C6C615F7361766567616D655F6C696D38
:104700006974000076616E696C6C615F64656D6FE1
:104710005F6C696D6974000073686F775F656E64C4
:104720006F6F6D00000000002DE9F04F9BB049F65F
:104730009440C2F20120006828B14FF23470012188
:10474000C2F20020016043F2E420C2F2002001F036
:10475000ECFB42F6046946F2EC5A46F2F45B46F290
:10476000F85446F2F055C2F20129C2F2022AC2F20E
:10477000022BC2F20224C2F20225D9F800000490F2
:10478000DAF800000590DBF80000099020680A9034
:1047900028680F9044F2D44049F6B44646F6FC67C8
:1047A00044F28048C2F20020C2F20126C2F2012780
:1047B000C2F2022800680B903068069038680790B3
:1047C000D8F8000008904BF66C10C2F20220006886
:1047D0000E9041F23E60C0F2052007F039FC01283E
:1047E00009DB41F24660C0F2052007F031FC0028E9
:1047F0005FEA1F9000E000200C9002A8002101F069
:1048000063FC04AB0FCBC9F800000998CBF800009B
:104810000A9820600F98286049F2783032604BF691
:104820006C1642F6A855CAF80010C2F201200C9985
:10483000C2F20226C2F2012501603B600898C8F866
:1048400000000E9830601298286029B141F2D450CF
:10485000C0F205203BF0A6FF119825A1A0EE100B99
:1048600043F6847091ED003FC2F2022021FE830FD7
:1048700080EF500080EF512033FE010F80ED001FCC
:104880002168D9F80020DBF800301DA0DAF80070AC
:10489000009735F046FE2868119A411C28A013465F
:1048A00035F03FFE316801291CDBD9F80000C8B1A2
:1048B00014290BD129A007F0CBFB30B141F29B505A
:1048C000C0F2052035F02DFE0CE0316825A035F052
:1048D00028FE3068022802DB73203BF05DFF29A030
:1048E0003BF060FF1BB0BDE8F08F00BF00BF00BF12
:1048F00000000000010000000200000003000000B2
:104900007374617274736B696C6C20256920206408
:10491000656174686D617463683A2025692020734D
:10492000746172746D61703A20256920207374611E
:104930007274657069736F64653A2025690A0000B6
:10494000706C61796572202569206F662025692069
:10495000282569206E6F646573290A002D617667CA
:10496000000000004C6576656C732077696C6C20E4
:10497000656E64206166746572202564206D696EC1
:10498000757465002E00000010B592B004200590EB
:104990000020049029A007F05BFB4BF69824012827
:1049A000C2F2022404DB4FF080402060012004901A
:1049B00024A007F04DFB012804DB4FF040402060AD
:1049C0000120049044F2D040C2F20020006801901F
:1049D00047F6D420C2F201200068029041F23E6006
:1049E000C0F2052007F034FB012809DB41F24660E4
:1049F000C0F2052007F02CFB00285FEA1F9000E0C2
:104A0000002001AC039004F118001EF023FD0FA05C
:104A10001EF0C0FCC043C00F0690204601F004FA0F
:104A200049F69444C2F2012420600BA007F010FB69
:104A30000128A4BF0120206012B010BD2D6C656656
:104A4000740000002D726967687400004652454585
:104A5000444F4F4D000000002D736F6C6F2D6E653D
:104A6000740000002DE9F04F83B049F6AC40C2F26B
:104A700001200068002840F08F8145F65C5040F22C
:104A80003C05C2F202204EF62454C2F20025C2F2C6
:104A90000024006830B113F029F84FF0FF3028608F
:104AA000032020604EF6803647F6DC2AC2F200264C
:104AB000C2F2012A3468DAF800703846A74208D0FA
:104AC000002000214FF4A072C8233AF0FAFFDAF870
:104AD000000047F6E02BC2F2012B30B9DBF80010E2
:104AE00019B105F0B0FADAF80000032857D8DFE86A
:104AF00000F00224272ADBF8000000284FD04FF2F4
:104B00003070C2F20020006808B1FCF7EBFA4FF6F3
:104B1000A0294EF62858C2F20229A742C2F2002864
:104B2000D9F800001DD1C8284FF000011AD0D8F8DC
:104B30000020002A18BF012114E01CF039F92EE0F2
:104B400002F0CAFE2BE043F6D0500821C2F2022048
:104B500000681EF075FB0246002000211BF0C0FF1C
:104B60001DE0012147F640734EF62C52C2F201239C
:104B7000C2F200221B681268002B0B4608BF0123FB
:104B8000002A51EA0381C8285FEA1F9018F0B5F89F
:104B9000D9F80000C8285FEA1F90C8F8000006F0A6
:104BA000B2FCDAF80000DBF80010C8B94FF230723E
:104BB000C2F2002212689AB991B143F2FC2043F686
:104BC0009471C2F20120C2F20221006800EBC00021
:104BD00001EB401016F01CF8DAF80000DBF80010CA
:104BE00020B919B105F012FADAF800002968A146D7
:104BF00050B1884208D06AA008211EF021FB06F0BF
:104C000055FCDAF8000029684EF63458C2F2002844
:104C100038B931B10020C8F8000013F0BDF8DAF857
:104C2000000044F6285B49F268454EF63054C2F263
:104C3000022BC2F20125C2F2002438BB4FF23070C1
:104C4000C2F20020006808BBDBF80000B0F5A07FCE
:104C50001CD0286858B9206848B9D8F8000030B18D
:104C60004EF62450C2F20020006830B90EE04EF635
:104C700024510320C2F20021086012F029FE4EF6F2
:104C80002451C2F2002108680138086046F62C1051
:104C9000C2F20220006830B146F63010C2F20220A3
:104CA00000681BF035FE286820604BF6902043F624
:104CB000E051C2F202204EF62C52C2F20221C2F2A0
:104CC00000220068C8F8000047F64070C2F20120D8
:104CD000006810600868DAF80010002840F23C0014
:104CE000C2F200203160016023D04FF23070DBF857
:104CF0000010C2F2002044394FF6B42204240068A8
:104D0000C2F2022200284FF6B020C2F2022001EBCC
:104D1000D1711268006800EB610523A04FF0080113
:104D200008BF141D1EF08CFA0246284621461BF0CF
:104D30004CFF07F06FFC09F0E9FC4F4504D103B0CC
:104D4000BDE8F04F06F010B9002000214FF4A0722A
:104D5000C823C8263AF04FFE06F093FA451E00BF5E
:104D600006F08FFA0446471B012006F0BFFB012F17
:104D7000F6DB0120002100224FF4A073CDE900678B
:104D80003AF05BFE054606F0BEFB07F043FC06F07A
:104D9000EBF8002D2546E3D003B0BDE8F08F00BF4F
:104DA000504C415950414C004D5F504155534500C6
:104DB00010B542F6A85044F2D441C2F20120C2F22A
:104DC000002142F6946C06240068096821F0010174
:104DD000C2F2012C00EBC000062954EA149143F6FC
:104DE0009474C2F20224DCF8003004EB401001336A
:104DF000002444604FF2644093FBF1F2C2F20020C1
:104E0000046002FB11304BF6802143F6E052C2F2FF
:104E10000221C2F202220628CCF800000C6047F200
:104E2000C461C2F2012114600C6000F27D80DFE8F1
:104E300000F004484A5F2761630044F2D04043F623
:104E4000D452C2F20020AA21C2F2022243F6D05369
:104E50000068C2F20223022808BF40F281111160EB
:104E600047F6DC21C2F20121022845F677504FF0C7
:104E70000302C0F205200A6018601ED01D201DE04C
:104E800044F2D04047F6DC21C2F20020C2F20121F8
:104E9000032200680A60022832D143F6D45043F658
:104EA000D052C2F20220C2F2022245F6775340F2FB
:104EB0008111C0F2052301601360422019F054FCF7
:104EC00032E02FA019E043F6D450C821C2F20220EC
:104ED00043F6D052C2F2022245F69753016047F6DC
:104EE000DC20C2F201200321C0F2052313601AE086
:104EF00021A002E01CA000E019A003F02BFD13E0AC
:104F000043F6D4510328C2F202214FF0C8000860D2
:104F100043F6D050C2F2022004D145F69751C0F2B8
:104F2000052100E012A101604FF26070C2F2002082
:104F3000006888B143F6D05445F67751C2F2022496
:104F4000C0F2052120683AF051FA28B90EA01EF0EF
:104F500021FAB0F1FF3F00DD10BD0EA0206010BDB2
:104F600064656D6F3400000064656D6F3300000090
:104F700048454C503200000064656D6F32000000FF
:104F800064656D6F310000007469746C65706963ED
:104F900000000000494E54455250494300000000B3
:104FA0004FF2607042F69064C2F20020C2F2012417
:104FB0000068A0B1206860B947F2C460C2F2012065
:104FC0000068052805D049F69440C2F20120006827
:104FD00028B145F6FC30C0F205203BF0E3FB206829
:104FE00008B102F08BFE49F2A8300121C2F2012083
:104FF00001601BF04BFA47F2C860C2F20120006862
:1050000006F071FA06F060F945F62140C0F2002082
:1050100006F04AFA06F05AF905F0BCFE1BF073FEE2
:1050200012F064FD01F024F846F62C10C2F20220C2
:10503000006848B147F6DC204EF68031C2F201200C
:10504000C2F200210068086042F6A85443F6947545
:1050500045F62856C2F20124C2F20225C2F2022607
:1050600006F048FA1BF012FA206800EBC00040017D
:10507000285819F0B7FC306808B92FF00FC8FFF7AF
:10508000F1FCEDE7F2B045F65D100021C0F2002022
:1050900005F0C9FD0FF61C0006F0ACF90FF6200074
:1050A00035F03FFA1EF0FEFD0FF6440006F0D0FF8B
:1050B00049F6B441C2F2012108600FF6400006F043
:1050C000C7FF44F28041C2F2022108600FF63800A7
:1050D00006F0BEFF46F6FC61C2F2012108600FF641
:1050E000300006F0B5FF42F6AC64C2F20124206045
:1050F00005F04FFE0FF6240006F0AAFF42F6046505
:10510000C2F2012508B1012028600FF61C0006F04C
:105110009FFF08B102202860206818B10FF6140024
:1051200035F0FFF9002008F067FF0FF6200006F0C9
:105130008FFF49F604220028C2F201224FD049F61F
:105140000021C2F2012109680139884207DA116899
:1051500001EB80004068FBF7BBFA044600E0C8247E
:105160000A2C45F6C800D8BF0A24B4F5C87FC0F29F
:10517000052028BF4FF4C874214635F0D2F944F217
:10518000B03C47F68446C2F2002CC2F2002648F238
:105190001F52DCF80010DCF804306143D6E90050FF
:1051A000C5F2EB1263436543604351FB02F153FBCD
:1051B00002F355FB02F54F1150FB02F007EBD171E2
:1051C0005F11CCF800106911421107EBD373CCF8D2
:1051D000043001EBD57102EBD070C6E9001045F642
:1051E0003A20C0F2052035F09CF91BF065FD45F62C
:1051F0005520C0F2052035F094F945F6F35045F6F8
:10520000E351C0F20520C0F2052108F03FFFFFF78F
:10521000AFF907F027FD4DF6D5600021C0F2002060
:10522000002405F000FD47F6D4283F20C2F20128F3
:10523000414600F0BBFB49F23415C2F2012528605B
:1052400028B945F6A010C0F2052005F0A7FD49F6E3
:10525000C01B45F62220C2F2012BC0F20520CBF87C
:10526000004035F05EF92D6845F6D220C0F20520E9
:1052700029463AF0CDFD28461DF0C2FE00201EF062
:1052800045F800F0F5FC45F62C700121C0F2052030
:1052900006F0E2FE44F2D44A44F2D045C2F2002ABB
:1052A000C2F2002538B9D8F8000005284CD00428EF
:1052B0004CD1092058E049F60421441CC2F20121D6
:1052C0004FF2A046C0F204260927096806F1040936
:1052D00051F82450D9F800102846FBF7EFF850B3E6
:1052E000013F09F10C09F5D145F65E50C0F20520E9
:1052F0003BF058FA45F63D5245F6DB050C36C0F258
:1053000005220927C0F2052556F8081C28463AF060
:105310007FFD013F56F80C2BF6D149F60420C2F26E
:105320000120006850F8241045F63A30C0F20520FC
:1053300005F034FD03E0D9F80400CAF8000044F297
:10534000D045C2F2002511E005200DE029680129B1
:1053500001D8042008E0022903D0032906D1062041
:1053600002E00128F5D00720CAF80000DAF80010A2
:105370002868052902D803282A460AD006290AD80F
:10538000022808D1D8F80000424620F00100022887
:1053900001D10120106045F6BE50C0F205201DF07D
:1053A000F9FF49F604270028C2F201270BD445F67D
:1053B000E140C0F205203BF0F5F94FF260700121A9
:1053C000C2F2002001601EF069F9CBF8000045F63A
:1053D0005B70C0F20520012106F03EFE40B945F6A3
:1053E00051700121C0F2052006F036FE00284BD096
:1053F0003968441C51F824000FF2585108F007FF97
:10540000396851F8243048B945F6657232A8C0F2BF
:1054100005224FF4807137F04DFC05E032A84FF4BF
:105420008072194608F0E0FE45F6D22032ADC0F297
:10543000052029463AF0ECFC28461DF0E1FD18B99C
:10544000386850F824100FE049F6FC4049F28431E6
:10545000C2F20120C2F2012100680968C0EBC0005D
:1054600001EB8000A0F11C0144F2D0450DF1BF001A
:105470000922C2F2002508F0B7FE45F6102032A935
:10548000C0F205203AF0C4FC48F241500121C0F2BC
:10549000002005F0C8FB1EF047F800F065FDD8F8C5
:1054A000000000F049FD07F02BFB44F62832DBF842
:1054B0000010C2F20222106049B340F6500101A868
:1054C000C0F20421B822FAF7A6FF286830B945F6E1
:1054D0000230C0F2052005F061FC2868012812D1D5
:1054E00045F60B55172601ACC0F2052520461DF0E8
:1054F00051FFB0F1FF3F02DC284605F04FFC013EB2
:1055000004F10804F2D144F2D045C2F2002545F678
:105510009E50C0F205201DF03DFFB0F1FF3F07DCBB
:1055200045F68050C0F205201DF034FF002807D456
:1055300005F07AFF45F66530C0F205203BF032F900
:1055400047F2C860C2F20120006805F082FF45F60C
:105550008E50C0F205201DF01DFF002810D445F626
:105560008750C0F205201DF015FFB0F1FF3F07DCAA
:1055700045F64C60C0F205203BF014F905F054FFED
:1055800045F62110C0F2052034F0CBFF05F0FEFBFC
:1055900005F02AFF05F0F2FE0120012405F0F0FEDF
:1055A00005F0EDFEFFF7F0F946F2F8584FF23476C9
:1055B000C2F20228C2F2002646F2EC5946F2F45A30
:1055C0000220C8F80000C2F20229C2F2022A00201A
:1055D000306045F62C600121C0F20520C9F800407A
:1055E000CAF8004006F038FD40B1396801EB800090
:1055F0004068007834603138C8F8000045F6C7507C
:105600000121C0F20520012406F026FD50B13968C1
:1056100001EB800040680078CAF800403460303800
:10562000C9F800004BF66C140020C2F202240121DC
:10563000206045F67C70C0F2052006F00DFD30B10B
:10564000396801EB80004068FBF742F8206045F6BE
:10565000FF50C0F2052006F0FBFC08B114202060CA
:1056600045F676700121C0F2052006F0F5FC00B386
:105670003A68296802EB80030229596803D1084679
:10568000FBF726F811E049F600230978C2F201235E
:1056900002303039C9F800101B68984204DA52F819
:1056A00020000078303800E00120CAF80000012016
:1056B000306045F68370C0F2052006F0C9FC012871
:1056C0000ADB46F62C110120C2F20221C9F80000C3
:1056D000CAF800003060086045F6D0500121C0F2E1
:1056E000052006F0B9FC10B94FF0FF3005E039682D
:1056F00001EB80004068FAF7EBFF46F2F054C2F28B
:105700000224206045F66310C0F2052034F009FF42
:1057100007F026FA45F6DE20C0F2052034F001FF3E
:1057200013F0A7FC45F64410C0F2052034F0F9FE52
:105730000CF02FF845F60610C0F2052034F0F1FE0B
:1057400047F6784047F64421C2F20020C2F2002119
:1057500000680968C000C90018F0F2FE45F67C2018
:10576000C0F2052034F0DDFEFEF7DEFF10F04EFC47
:1057700045F6AB20C0F2052034F0D3FE04F078FCEF
:1057800045F68510C0F2052034F0CBFE17F0DFFAA5
:10579000286802280ED145F63050C0F205201DF0D1
:1057A000F9FDB0F1FF3F05DC46F208600121C2F2CD
:1057B0000220016045F66C700121C0F2052006F060
:1057C0004BFC60B14EF6BD300121C0F2012005F066
:1057D0002AFA45F6E500C0F2052034F0A2FE41F2B7
:1057E0003E600121C0F20520012506F035FC30B1F4
:1057F000396801EB8000406803F0CAFE356045F669
:105800005B700121C0F20520012506F025FC78BB64
:1058100045F651700121C0F2052006F01DFC90BB39
:10582000206800280BD40DF0CFFC32AC01464FF4B9
:105830008072204608F0D8FC204603F023FE47F291
:10584000C460C2F201200168032931D049F69441B5
:105850003268C2F20121096811431AD0D8F8000059
:10586000D9F80010DAF8002003F034FDFFF798FBB8
:1058700045F6AC50C2F2022005600DF1BF0003F006
:1058800069F8FFF78DFB0DF1BF0004F06FFAFFF729
:1058900087FB0021016042F694604FF0FF31C2F2B5
:1058A000012001604FF26440C2F20020012101603A
:1058B000FFF776FB446F6F6D20302E310000000043
:1058C0005A5F496E69743A20496E6974207A6F6E26
:1058D00065206D656D6F727920616C6C6F636174AA
:1058E000696F6E206461656D6F6E2E200A00000086
:1058F0002D6E6F6D6F6E7374657273002D726573AC
:105900007061776E000000002D6661737400000006
:105910002D6465767061726D000000002D64656114
:1059200074686D61746368002D616C746465617482
:1059300068000000446576656C6F706D656E74205C
:105940006D6F6465204F4E2E0A0000002D74757235
:10595000626F00002E6C6D700000000080B547F68D
:105960008040C2F20020006898B149F2A830C2F22B
:105970000120006868B145F62450C2F20220006898
:1059800038B945F68370C0F2052006F061FB0028A7
:1059900000DD80BD03A001211DF052FCBDE8804068
:1059A00005F0FAB9454E444F4F4D00002DE9F04F38
:1059B00083B00C46834656A0012106F04DFB0294AD
:1059C000B8B349F60421C2F20121096801EB800055
:1059D0004668304600F0B0F8044618B94EA031468B
:1059E00005F0DCF92F212046FAF7A5FD002854EA3E
:1059F00000964FF25C600E25C0F20420071D00BF28
:105A0000D7F800802BFA08F0C00705D057F8041C1F
:105A1000304639F0EBFC28B1013D07F11007EFD11A
:105A20004FF009080298C0F80080204603B0BDE896
:105A3000F08F49F6E44248F63473C2F20122C2F212
:105A4000012310687F280ADC41F2A4710028C0F20B
:105A5000052143F8201000F10100106055D44FF2E9
:105A60005C600025C0F2042032A600F10409CDF8E4
:105A7000049053F825704FF00E0A00BFD9F800804B
:105A80002BFA08F0C0072BD059F8044C38462146B1
:105A900000F076FB40B1384607F016F820B13846E2
:105AA00039F0C9FC044615E038463146FAF706FDE0
:105AB00048B141F2AD6100233846C0F205212246CB
:105AC00008F0A0FC02E0204639F0B5FC044606F0E0
:105AD000FBFF08B124B1A5E720462AF0C9FF00BFAB
